:100000000C948B050C94A8050C94A8050C9415323F
:100010000C94A8050C94A8050C94A8050C94A805AC
:100020000C94A8050C94A8050C94A32E0C948B2F6B
:100030000C9411120C94A8050C94A8050C94A80516
:100040000C94A8050C94A8050C94A8050C94A8057C
:100050000C94A8050C947F2E0C94A8050C94A8056C
:100060000C94A8050C94A8050C94A8050C94A8055C
:100070000C94A8050C94A8050C94A8050C94A8054C
:100080000C94A8050C94A8050C94A8050C94A8053C
:100090000C94A8050C94A8050C94A8050C94A8052C
:1000A0000C94A8050C94A8050C94A80505010980DA
:1000B000A101850319012AB700150126B700950192
:1000C00075108100C0050C0901A101850419012AE0
:1000D000A002150126A002950175108100C00660DE
:1000E000FF0961A1010962150026FF00952075082E
:1000F00081020963150026FF00952075089102C052
:1001000005010906A101050719E029E715002501E8
:10011000950875018102950175088101050719008F
:1001200029FF150026FF00950675088100050819AE
:1001300001290515002501950575019102950175A7
:10014000039101C009025B00030100A0FA09040049
:1001500000010301010009211101000122440007EF
:1001600005810308000109040100020300000009E1
:10017000211101000122220007058203200001074E
:100180000503032000010904020001030000000927
:100190002111010001223200070584032000011211
:1001A00001000200000008FB190000000101020329
:1001B000011C037600690061006C003A006600369D
:1001C000003400630032006200330063000000145A
:1001D00003730069006D0070006C0065006B0065C2
:1001E00000790000000E0344006E006500630068A3
:1001F0000069000000040309040000000000000082
:1002000000000000000000000000000000000000EE
:10021000000000000000000000000000007E0F0051
:10022000D4FFFFFFC70000007800000000000000BE
:10023000002A2B2800000000000000000000000041
:100240000000000029000000002C1E342021222480
:10025000342627252E362D3738271E1F202122230E
:100260002425263333362E37381F040506070809A0
:100270000A0B0C0D0E0F1011121314151617181966
:100280001A1B1C1D2F3130232D35040506070809C4
:100290000A0B0C0D0E0F1011121314151617181946
:1002A0001A1B1C1D2F3130354C14001A0008001584
:1002B000001700000004001600070009000A0000F3
:1002C000001D001B000600190005002602E100E0E9
:1002D000002B00E200427E2C00130012000C0018DC
:1002E000001C00000033000F000E000D000B00008A
:1002F000003800370036001000110027022D0035AD
:10030000044C002A00417E28000000000046004AFC
:10031000004B0000002900000047004D004E000087
:10032000002B00E3004800000000002F0201000144
:1003300000010001000100010000003D003C003B05
:10034000003A0000000000410040003F003E000075
:10035000000000450044004300420030020100015B
:100360000001000100010001001E021F0220022105
:100370000222020000230224022502260227020094
:10038000002F0030002D002E0035042F0001000149
:10039000000100010001000100290062006100600D
:1003A000005F000000520053005E005D005C000032
:1003B00000510037005B005A00590030004F0050D8
:1003C00000010001000100010000AE00AF07087F3E
:1003D0000807003E5B4F5B3E003E6B4F6B3E001CD0
:1003E0003E7C3E1C00183C7E3C18001C577D571C70
:1003F000001C5E7F5E1C0000183C180000FFE7C375
:10040000E7FF00001824180000FFE7DBE7FF0030DB
:10041000483A060E00262979292600407F0505075F
:1004200000407F05253F005A3CE73C5A007F3E1CB8
:100430001C0800081C1C3E7F0014227F2214005F51
:100440005F005F5F0006097F017F00006689956A93
:100450000060606060600094A2FFA2940008047EC7
:1004600004080010207E20100008082A1C0800083C
:100470001C2A0808001E10101010000C1E0C1E0C68
:100480000030383E383000060E3E0E0600000000F8
:1004900000000000005F00000000070007000014DB
:1004A0007F147F1400242A7F2A1200231308646219
:1004B00000364956205000000807030000001C22A7
:1004C0004100000041221C00002A1C7F1C2A000859
:1004D000083E08080000807030000008080808087E
:1004E000000000606000002010080402003E514936
:1004F000453E0000427F40000072494949460021C4
:1005000041494D33001814127F10002745454539E5
:10051000003C4A4949310041211109070036494947
:10052000493600464949291E000000140000000019
:100530004034000000000814224100141414141464
:10054000000041221408000201590906003E415DE5
:10055000594E007C1211127C007F49494936003EF9
:1005600041414122007F4141413E007F494949418B
:10057000007F09090901003E41415173007F0808CD
:10058000087F0000417F4100002040413F01007F83
:1005900008142241007F40404040007F021C027F3F
:1005A000007F0408107F003E4141413E007F090961
:1005B0000906003E4151215E007F091929460026A7
:1005C000494949320003017F0103003F4040403F59
:1005D000001F2040201F003F4038403F00631408A8
:1005E0001463000304780403006159494D4300007B
:1005F0007F41414100020408102000004141417F39
:100600000004020102040040404040400000030793
:100610000800002054547840007F284444380038B3
:100620004444442800384444287F00385454541823
:100630000000087E09020018A4A49C78007F08042A
:1006400004780000447D4000002040403D00007FD1
:10065000102844000000417F4000007C04780478AA
:10066000007C0804047800384444443800FC182412
:1006700024180018242418FC007C080404080048EE
:10068000545454240004043F4424003C4040207C43
:10069000001C2040201C003C4030403C00442810FE
:1006A0002844004C9090907C004464544C440000DA
:1006B00008364100000000770000000041360800C5
:1006C000000201020402003C2623263C0000000038
:1006D000000000404040F0F8F8FF38FFF8F83FF81D
:1006E000F8FF38FFF8F8F04040400000000000003C
:1006F00080C0C0C0800000C0C08000000080C0C0BA
:1007000000C0C0000080C0C00000000000C0C0C029
:10071000C0C000C0C00000000000000000000000D9
:1007200000000000000000000000000000000000C9
:1007300000000000000000000000000000000000B9
:10074000000000000000000000000000C0F0F8FC05
:100750003E1E06010000007F4141417F007F414174
:10076000417F000080C0E07E5B4F5BFEC00000C0A8
:1007700000DCD7DEDEDED7DC00C0000000000000B9
:100780000000000000000000000000000000000069
:10079000000000494949FFFFFFFFE0DFBFBF00BF86
:1007A000BFDFE0FFFFFFFF49494900000000001FD5
:1007B0003F6060E0BF1F007F7F071E381E077F7FFE
:1007C000007F7F0E1F3B716000000000007F7F0CE8
:1007D0000C0C007E7E007F7E0303007F7E03037E81
:1007E0007E03037F7E000F3E703C063C703E0F0090
:1007F000327B49493F7E007F7E0303001E3F6969CB
:100800006F2600000000000000000000030F1F3FE3
:100810003C7870600000007F4141417F007F414192
:10082000417F00307B7F7830202030787F3B000391
:10083000000F7F0F0F0F7F0F00030000000000006C
:1008400000000000000000000000000000000000A8
:10085000000000010101070F0F7F0F7F0F0F7E0FB8
:100860000F7F0F7F0F0F0701010100000000000044
:100870000000000001010000000000000000000076
:100880000000000000000000000000000000000068
:100890000000000000000000000000000000000058
:1008A0000000000000000000000000000000000048
:1008B0000000000000000000000000000000000038
:1008C0000000000000000000000000000000000028
:1008D0000000000000000000000000000000000018
:1008E0000000000000000000000000000000000008
:1008F00000000000000000000000000000000000F8
:100900000000000000000000000000000000DA12FB
:1009100081FFD9F1DB20A4A62EAF00A0C0D3000038
:10092000A1C8D30000AED580A83F408D1420002D73
:10093000006F002020202020205669616C00506F3D
:1009400077657265642042790020002D006F0053A6
:1009500063726F6C6C4C3A002D006F0043617073D2
:100960004C3A004E756D4C3A00556E646566696E82
:1009700065640041646A7573740A00526169736545
:100980000A004C6F7765720A0044656661756C7485
:100990000A004C617965723A2000200053696D703D
:1009A0006C654B657900010001003708320E480E76
:1009B0000000020002003308320E480E000003005F
:1009C00001003808320E480E0000040002001D0825
:1009D000320E480EEB08050001003908320E480EB1
:1009E0000000060002001F08320E480E000007003B
:1009F00002003508320E480E0000080001003A08D7
:100A0000320E480E0000120002003B08320E480E63
:100A10000000130002003D08320E480E00001400D2
:100A200001003F08320E480E0000150000000000D3
:100A3000F40897140000FD377A585A000004E6D6EF
:100A4000B4460200210116000000742FE5A3E00166
:100A500076009F5D003D888986D3DC0AE842C32486
:100A6000925842588FD8E75CA0D2616E26E8880180
:100A70009A676C7887BC8D3709EA511D70D2DBC04C
:100A8000939E431ACA82F753BA0C053629D1A41A89
:100A9000C90AD61C8F57D3F5793B7131A303F07681
:100AA000D7619F6B5EE3F485773FFF796A5EBCA7F1
:100AB000CA3DC44384993EB6C784ED9107DBC52483
:100AC000C3B17490E5A6A67E63D191EB084779CABD
:100AD0003AFEBA8E018AD7F6BF03E059C8C02F3B51
:100AE0004A46C55F369DBBFB98BB9B9681406E18FE
:100AF000BBB4F65B00009842A4172CBECBDB000110
:100B0000BB01F7020000ABE40D96B1C467FB020025
:100B100000000004595A11241FBECFEFDAE0DEBFF7
:100B2000CDBF12E0A0E0B1E0EAEFF8E602C0059028
:100B30000D92AA30B107D9F728E0AAE0B2E001C0CF
:100B40001D92A634B207E1F70E946A260C942E3457
:100B50000C9400009C0191509F31B0F4832F817060
:100B600034FF0AC08295807F31FD806232FD80644F
:100B700033FF0BC08068089531FD826032FD8460D0
:100B800033FF03C08860089580E00895A2E0B0E0DC
:100B9000ECECF5E00C945E3369837A830E94AA053D
:100BA000E981FA8109952296E2E00C947A33982F34
:100BB00092959F7061F420E0982F892F86958695F5
:100BC00011F02E5F982F892F8695820F089524E0CB
:100BD000F4CF282F92959F70963099F060F4925F31
:100BE0009F70923030F4203FB1F038F481E0283E1D
:100BF00038F080E008959A5FF3CF81E0243FC9F791
:100C0000089591E0813F09F090E081E0283E08F0EE
:100C100080E0892B089581E008958093D30708959B
:100C20008093D407089521E001C0220F8A95EAF746
:100C30008091D407822B0E941006089521E030E0B5
:100C4000A90101C0440F8A95EAF7842F80959091FD
:100C5000D40789230E9410060895292F983090F513
:100C6000863080F590E036E0239F800D911D1124A1
:100C700051E081FD54E080FD550F82FD529523E047
:100C8000969587952A95E1F7FC01EE0FFF1FE80F77
:100C9000F91FE35DF84F20E030E070E04191DF01A3
:100CA000CB01022E02C0969587950A94E2F78695AD
:100CB000880B8427852384278E932F5F3F4F233013
:100CC000310561F70895292F983070F5863060F569
:100CD00090E036E0239F800D911D1124682F6770EE
:100CE00023E0969587952A95E1F7FC01EE0FFF1F0B
:100CF000E80FF91FE35DF84F40E050E080E02191FC
:100D000030E0062E02C0369527950A94E2F721704E
:100D1000042E01C0220F0A94EAF7822B4F5F5F4F27
:100D20004330510561F7089580E008959091D4070C
:100D300021E030E0F90101C0EE0F8A95EAF7D90110
:100D400001C0AA0F6A95EAF7EA2B01C0220F4A9563
:100D5000EAF7892F8E23E81305C0892F822B0E9482
:100D6000100608952095822F8923F9CF8091DD0701
:100D70002091DC07281301C0089501968770FACFEF
:100D80009091D907809589238093D907282F2770C0
:100D900089F4891779F09091420892FF0BC08695EB
:100DA000869586950E941E061092D9071092DA0742
:100DB0001092DB070895982F90958091D50789238D
:100DC0008093D50708958091D107811531F0109255
:100DD000D1071092CF071092D0070895803E910559
:100DE000D1F1C8F48133910509F481C048F4893206
:100DF000910509F471C08A32910509F47FC0089504
:100E000089339105E1F082389105C9F08533910568
:100E100009F45DC00895843E9105D1F148F4823E05
:100E2000910531F1833E910541F181EE90E0089505
:100E3000863E9105C1F1873E9105F1F1089520911B
:100E40004108237009F064C02091420823FF14C0B8
:100E500089E290E008952091410820FD45C030913D
:100E6000420830FF09C024FD24C083EE90E00895BD
:100E70002091410822FDF7CF08952091410822FDDD
:100E800044C03091420830FD43C024FFF5CF11C06B
:100E90002091420821FFF0CF8091410884FD09C0D4
:100EA00087EE90E008952091410823FFE5CF24FFCD
:100EB000F7CF80E090E008952091410823FD2BC0FA
:100EC0003091420831FFE1CF84EE90E00895209107
:100ED000410825FFD1CFBCCF2091410825FD1EC080
:100EE0002091420823FFC8CF89E390E00895209124
:100EF000410826FFC1CF8AE290E008952091410881
:100F000026FFBACF81E390E0089582EE90E0089545
:100F100080EE90E0089586EE90E0089585E390E0FD
:100F200008959091410892FF10C041E0282F24714C
:100F3000243009F040E031E0282F2871283009F0F2
:100F400030E0431711F02CE0822793FF10C041E0FE
:100F5000282F2471243109F040E031E0282F287136
:100F6000283109F030E0431711F02CE0822730914E
:100F7000420830FF10C051E0282F2171213009F0C4
:100F800050E041E0282F2871283009F040E0541744
:100F900011F029E0822731FF10C041E0282F217194
:100FA000213109F040E031E0282F2871283109F083
:100FB00030E0431711F029E0822794FD877E0895E1
:100FC0000F931F93CF93DF930E94EE06EC019235AF
:100FD00008F04EC0903508F0C3C0803E910520F562
:100FE0008D3C910508F09AC0883A910570F4853AD5
:100FF000910508F090C081309105A1F10497813AE4
:10100000910580F1C0E0D0E02DC0885A91094B973E
:10101000C8F7C85AD0E0CC0FDD1FC356DE4F099089
:10102000D881C02DD4641EC09034A8F4D03208F00A
:10103000ACC0C83ED105B0F0CE0191509F3110F741
:101040008D2F0E949107082F8C2F90E00E94EE06B2
:10105000EC01D02B07C090E00E94EE06DF70C82F95
:10106000D92BD06ACE01DF91CF911F910F910895B6
:10107000803842E59407C8F5803652E5950708F0B8
:1010800054C0C03482E5D807D0F48C2FC03292E52A
:10109000D90708F045C08695869520E2829FC00159
:1010A0001124C37021E030E0A90102C0440F551F94
:1010B000CA95E2F7EA01C82BD92BDD68D3CF8C2F74
:1010C00086958695877050E2859FC0011124C37074
:1010D00021E030E0A90102C0440F551FCA95E2F794
:1010E000EA01C82BD92BDC68BDCF803C52E59507BF
:1010F00040F48F71C03AD24568F5D82FC4EFD06A5A
:10110000B1CF805C9245809708F07CCFDC2FDF71F7
:10111000C0EFD06AA7CFA497D064A4CFD065A2CFE8
:101120008F71D82FC1EFD06A9DCF86958695877035
:1011300020E2829FC0011124C37021E030E0A901A8
:1011400002C0440F551FCA95E2F7EA01C82BD92BFC
:10115000DA6888CF0E949107C0E0D82FD06282CF92
:101160008F710E94910793E0CC0FDD1F9A95E1F7F4
:10117000DF70282F30E084FF04C050E1859F90018C
:101180001124C22FD32BD0696DCF8D2F8F710E9468
:101190009107082F8C2F90E00E94EE06EC01D02BD7
:1011A000DDCF80E00895F894E82FE295EF70F0E04D
:1011B00041A18F7021E030E0B90101C0660F8A952E
:1011C000EAF7862F962F9095942391A392A1892BCD
:1011D00082A37894089580911D0890911E088093B1
:1011E0000F01909310010895CF93DF938FEF9FEF3E
:1011F0004430510508F458C02091410821FB88274C
:1012000080F990E0880F991F22FBAA27A0F9B0E08F
:10121000AA0FBB1FAA0FBB1F8A2B9B2BC22FC1700B
:101220008C2B23FBEE27E0F9F0E053E0EE0FFF1FDD
:101230005A95E1F78E2B9F2B24FB442740F9E0E1E0
:101240004E9FA0011124842B952B25FB442740F9A8
:10125000F0E24F9FA0011124842B952B26FB4427FD
:1012600040F930E4439FA0011124842B952B27FBE8
:10127000222720F940E8249F90011124822B932BF0
:1012800020914208422F4170942B26952170322FD5
:10129000330F932BA92FAA0FAA0BFB0180839183F5
:1012A000A283A38380E090E0DF91CF9108959C0119
:1012B00043E0369527954A95E1F72E7130E0F90124
:1012C000E15DFD4F40815181FC01EF7081E090E0D4
:1012D00002C0880F991FEA95E2F7611541F0482B8B
:1012E000592B215D3D4FF90140835183089580952D
:1012F000909548235923F5CFFC01AC014C5F5F4F1B
:101300008FEF61E39191892728E030E0982F990FC2
:1013100087FF09C0892F862721503040B9F7E4178D
:10132000F50781F70895892FF7CFFC018481862383
:1013300051F492819115B9F06923808583FF05C02E
:1013400081E061110FC080E00895292F22952F7050
:101350009F70292B962F92959F706F70962B81E02E
:101360002913F1CF089581E0089580911707811125
:1013700003C08091FD060895E0912307F0912407B2
:10138000309729F00190F081E02D0995089580E0D3
:101390000895A3E0B0E0EFECF9E00C945E33209107
:1013A0002D0230912E0228173907A1F080932D02CB
:1013B00090932E02E0912307F0912407309751F08B
:1013C00023E029838A839B830084F185E02DCE016D
:1013D000019609952396E2E00C947A33A3E0B0E0FD
:1013E000E4EFF9E00C945E3320912B0230912C0253
:1013F00028173907A1F080932B0290932C02E091DB
:101400002307F0912407309751F024E029838A8341
:101410009B830084F185E02DCE01019609952396EA
:10142000E2E00C947A339C01FC01329680E09FEF5D
:101430004081461759F031969F3F19F4411101C080
:10144000982F8F5F8630A1F79F3F09F40895290FE9
:10145000311D97FD3A95F90162830895EEE0F2E0BF
:101460009191891302C0DF011E9292E0E431F907E5
:10147000B9F708958091010108952FB7F89460910C
:101480002702709128028091290290912A022FBF91
:10149000089580911707811519F00E943D0A08955B
:1014A0000E943D0A2091190730911A0740911B07AD
:1014B00050911C07620F731F841F951F0895CF92D0
:1014C000DF92EF92FF92CF93DF9300D0CDB7DEB7DC
:1014D00089839A83C090BE07D090BF07E090C00771
:1014E000F090C1070E943D0A6C197D098E099F0981
:1014F000643F71408105910528F10E943D0A6B010E
:101500007C0182E390E0C0926502D0926602E09294
:101510006702F092680280936102909362021092D7
:1015200063021092640289819A818093BC07909330
:10153000BD070F900F90DF91CF91FF90EF90DF905C
:10154000CF90089584EF91E0DECF87E797E780930F
:1015500000089093010888E19AE00FB6F894A895E6
:10156000809360000FBE90936000FFCF08950895B0
:10157000FC0180911D0290911E028617970748F08A
:101580006115710529F48091E8008E778093E80059
:10159000CB0140E0009741F4411106C08091E80082
:1015A00082FF30C080E008952091BE062115B1F180
:1015B0002530B1F12091E80023FD2EC02091E800F4
:1015C00022FDECCF2091E80020FFE4CF4091F30012
:1015D0002091F200342F009719F02830310558F08F
:1015E00041E02830310509F040E02091E8002E77F5
:1015F0002093E800CFCF41914093F10001972F5FF6
:101600003F4FE9CF8091BE06811541F0853041F012
:101610008091E80083FFC2CF81E0089582E00895C1
:1016200083E00895982F9093E900891771F07091E5
:10163000EC002091ED005091F00021FD09C09F5F6A
:10164000973089F78093E9000895762F242F50E092
:101650003091EB003E7F3093EB003091ED003D7F09
:101660003093ED003091EB0031603093EB007093DC
:10167000EC002093ED005093F0002091EE0027FD48
:10168000DECF08958091170287FF13C08091E80094
:1016900082FF06C08091E8008B778093E800089570
:1016A0008091BE068111F2CF08958091BE0681150A
:1016B000D9F38091E80080FFF8CF8091E8008E7721
:1016C000ECCF2091E4003091E50095E6A90120914E
:1016D000EC00822F817020FF06C08091E80080FF1F
:1016E00006C080E008952091E80022FD1AC0809194
:1016F000BE06811589F0853089F08091EB0085FD6B
:101700000FC02091E4003091E50042175307F9F231
:101710009150E1F684E0089582E0089583E0089511
:1017200081E00895A0E0B0E0E8E9FBE00C945833D4
:10173000C8EDD0E088818F7E8883E7EDF0E080817E
:101740008160808384E082BF81E08093160288817B
:101750008E7F888302EE10E0E2EE10821092DA00B3
:101760006801CA94E1EE108288818F77888388812E
:101770008068888388818F7D888319BC1092BE061B
:101780001092150210925702109214027601EA94F8
:10179000E0EE80818B7F808388818160888342E056
:1017A00060E080E00E94120BF60180818E7F8083D2
:1017B000E2EE808181608083808188608083E0EEBA
:1017C00080818E7F8083888180618883CDB7DEB7FA
:1017D000E8E00C947433E8EDF0E080818E7F808344
:1017E0001092E2001092DA001092E100A0EEB0E058
:1017F0008C9181608C9380818F77808319BCA7ED59
:101800008C918E7F8C9380818F7E808310921602C4
:1018100008959C012115310509F4089521503109DD
:101820008FE99FE00197F1F700C00000F3CFA8E037
:10183000B0E0EDE1FCE00C945C3389839A836B8328
:101840007C834D835E838091FE060AE010E08A303F
:1018500010F001E010E021E02F8318866B817C817D
:1018600089819A81ED81FE81099581111BC02F81AB
:1018700038852F5F3F4F2F8338870217130794F067
:10188000C901889F9001899F300D300D112480E09F
:1018900090E045E34A95F1F700000196821793071F
:1018A000C1F7DCCF2896E4E00C9478330F931F93B4
:1018B000CF93DF93EB018A019091BE06943061F5DE
:1018C0008093E9008FEF9091E80095FD06C095EDBB
:1018D0009A95F1F700008150B1F78091E80085FFFB
:1018E0001BC00E94610B811112C08091E80085FD30
:1018F00006C08091E8008E778093E800F2CF88815F
:101900008093F1000150104011F02196EECF8091AC
:10191000E8008E778093E800DF91CF911F910F91BF
:101920000895CF93DF93EC0148E050E0BC0181E0E3
:101930000E94560C88E0FE01AFE1B2E001900D92EA
:101940008A95E1F7DF91CF91089543E050E0BC0123
:1019500084E00E94560C08959091420892FB222741
:1019600020F9281779F080FB92F990934208609152
:1019700041087091420884E090E00E94103482E0B7
:101980000E94C0060895A3E0B0E0E9ECFCE00C94EE
:101990005E3329838330F8F46830E8F44630D8F4B5
:1019A000E42FF0E0EE0FFF1F4CE0649FE00DF11D0F
:1019B000112450E6859FE00DF11D1124EA83FB837D
:1019C000632FCF0188960E94F23369818A819B81BF
:1019D00089960E94F2332396E2E00C947A33CF93F7
:1019E000DF93CCEBD1E060E0CE010E94F233219690
:1019F000C11584E0D807B9F7DF91CF910895CF934F
:101A0000C82F60E2811101C06FEF84E290E00E9474
:101A1000F23368EEC11101C06FEF85E290E00E94E1
:101A2000F2336CE1C11101C06FEF86E290E00E94D9
:101A3000F233CF9108950F931F93CF93DF930DE16E
:101A400018E0C8E4D1E0CE010E94D433F8016191DE
:101A50008F01681719F0CE010E94F2332196CC361F
:101A6000F1E0DF0781F7DF91CF911F910F9108958A
:101A70000F931F93CF93DF930DE118E0C8E4D1E0FB
:101A8000CE010E94D433F80181938F012196CC3688
:101A9000F1E0DF07A9F7C0EBD9E0FE018591949151
:101AA000009711F0FC0109952C96FAE0C034DF078D
:101AB000A1F7DF91CF911F910F9108950F931F937D
:101AC000CF93DF93833008F56830F8F44630E8F4BC
:101AD000C42FD0E0CC0FDD1F9CE0699FC00DD11D4D
:101AE000112490E6899FC00DD11D1124CE01889646
:101AF0000E94D433082FCE0189960E94D433902FB0
:101B0000DF91CF911F910F91089580E090E0F8CF81
:101B1000462F20911F0730912007232B99F4703F07
:101B200039F4603F79F480911D0790911E07089564
:101B3000783040F4663030F4833020F4672F0E9410
:101B40005E0D089580E090E00895A4E0B0E0EBEA37
:101B5000FDE00C945B3389839A830091D4078091D4
:101B6000D307082B82E08B831C8210E0C8010B8016
:101B700002C0959587950A94E2F780FD0DC08B8190
:101B80009C8101978B839C83019681F7F12C8F2D8B
:101B90002496E5E00C947733FB8069817A818F2D60
:101BA0000E94880D0E94E007019749F3F0CF0F9340
:101BB0001F93CF938C01611589F0411579F00E9434
:101BC000A50DC82F682FC8010E942D06B8018C2FC3
:101BD0000E94880DCF911F910F9108950E94630676
:101BE000C82FF4CF462FFC016581808191810E942E
:101BF000D70D0895A2E0B0E0E0E0FEE00C945E3383
:101C000089839A830E94A50D69817A810E94880D3B
:101C10000E94E0072296E2E00C947A33FC012481D2
:101C2000211539F0808191810E94FA0D0E94E90509
:101C3000089580E0089584E290E00E94D4338032D9
:101C400069F485E290E00E94D433883E39F486E25C
:101C500090E00E94D43391E08C3109F090E0892F1C
:101C600081700895DB01FC01329625913491421771
:101C7000530758F0FC01349665917491A901CD0188
:101C80000E94B43380E090E008958FEF9FEF0895B5
:101C9000DA019C012E5F3F4FF90145915491F90102
:101CA00025913491A217B30758F0FC013496859121
:101CB00094910E94B4330E941B0D80E090E008953F
:101CC0008FEF9FEF0895A5E0B0E0E9E6FEE00C9409
:101CD0005C332A833B830C831D83082F880F110BF1
:101CE00041155105B1F0F80133E0EE0FFF1F3A95B1
:101CF000E1F7E85EFE4F818192818C51994FE0813E
:101D00002E2F30E04E17510508F49A01A9010E94C8
:101D1000B433C8010E94B8328983811501F16C8106
:101D20007D8161157105D9F0C80123E0880F991FE5
:101D30002A95E1F7FC01E85EFE4F2381422F50E037
:101D40006217710508F4AB01885E9E4FFC01648147
:101D500075816C51794F8A819B810E94B43389814E
:101D60002596E4E00C947833A4E0B0E0EAEBFEE0E2
:101D70000C945A33E090D406F090D5060091D60624
:101D80001091D7060E943D0A6E197F09800B910BB6
:101D900011E0643671058105910518F10E94490A28
:101DA000DC01CB010296A11DB11D89839A83AB830F
:101DB000BC8300E010E0980144E050E0BE016F5F9A
:101DC0007F4F83E00E94630E182F811551F00E940F
:101DD0003D0A6093D4067093D5068093D6069093FF
:101DE000D706812F2496E6E00C947633A4E0B0E089
:101DF000ECEFFEE00C945A33E090C406F090C50678
:101E00000091C6061091C7060E943D0A2091D50791
:101E100029836E197F09800B910B6436710581054A
:101E2000910508F041C081E09091F406921301C041
:101E300080E09091D8079A83811106C081E02091BB
:101E4000F506291301C080E09091D1079B83811191
:101E500006C081E02091F606291301C080E0909130
:101E6000D2079C83811104C08091F7068917B9F0CD
:101E700000E010E0980144E050E0BE016F5F7F4F4A
:101E800087E00E94630E811559F00E943D0A60931D
:101E9000C4067093C5068093C6069093C70681E07A
:101EA0002496E6E00C94763381E0C3CFA8E0B0E05E
:101EB000ECE5FFE00C945A3389836F8378874A837B
:101EC0002B833C830D831E83FB01E080F180028124
:101ED00013810E943D0A6E197F09800B910B6436B5
:101EE00071058105910518F4FA81F115A1F000E062
:101EF00010E098014D815E816B817C8189810E9417
:101F0000630E811549F00E943D0AEF81F8856083D8
:101F100071838283938381E02896E6E00C94763384
:101F20000F931F9341E09091F1068091D40798138D
:101F300001C040E001E010E024ED37E060ED76E024
:101F400084E00E94560F811579F041E09091F206ED
:101F50008091D307981301C040E023ED37E06CEC8B
:101F600076E085E00E94560F1F910F910895A1E041
:101F7000B0E0EDEBFFE00C945C338091BF06898309
:101F80002091F80690E041E02817190609F440E096
:101F90008D019E012F5F3F4F60EC76E088E00E944C
:101FA000560F2196E4E00C947833A1E0B0E0EBED1D
:101FB000FFE00C945C330E94B509898341E0909165
:101FC000F306981301C040E001E010E09E012F5F8E
:101FD0003F4F68EC76E086E00E94560F2196E4E0E1
:101FE0000C947833A2E0B0E0E8EFFFE00C945C33AF
:101FF00089839A8344E050E069EE76E00E94A7333B
:1020000041E0892B09F440E004E010E029813A81A5
:1020100068ED76E082E00E94560F2296E4E00C9490
:1020200078338F929F92AF92BF92FF920F931F933C
:10203000CF93DF9300D000D000D00F92CDB7DEB7A2
:102040006E837F8301E010E09E012B5F3F4F40E0F5
:1020500050E0BA0180E00E94630E182F811509F448
:1020600046C08090E0069090E106A090E206B09015
:10207000E3060E943D0AFD80681979098A099B09D7
:10208000643671058105910530F485EE96E00E9475
:102090007C098F1561F104E010E09E012F5F3F4F36
:1020A00040E050E0BA0181E00E94630E182F85EEF7
:1020B00096E00E947C098F1128C0111531F10E9411
:1020C0003D0A6093E0067093E1068093E2069093E8
:1020D000E30689819A81AB81BC818093DC06909371
:1020E000DD06A093DE06B093DF0681E00FC080918D
:1020F000E5069091E606A091E706B091E80689838F
:102100009A83AB83BC831111E4CF80E04091DC065D
:102110005091DD066091DE067091DF06EE81FF8151
:10212000408351836283738327960FB6F894DEBF92
:102130000FBECDBFDF91CF911F910F91FF90BF9048
:10214000AF909F908F900895AAE0B0E0EAEAF0E1A6
:102150000C945A3301E417E08CE6E82E81E0F82E67
:102160004AE050E0B701CE0101960E94C433F80165
:102170003896DF0127E01D922A95E9F789819A8137
:10218000D8018D939D938F818D938D818D938885BB
:102190008D9389858D938B819C818D939D931897C9
:1021A0008A8587FD05C0E5E5F2E01D96ED93FD9378
:1021B00080FF04C0E1E0D8011896EC9381FF05C0D0
:1021C000D80118969C9192609C9382FF04C0F801FC
:1021D00090859460908783FF05C0D80118969C91E4
:1021E00098609C9384FF04C0F8019085906190876B
:1021F00085FF05C0D80118968C9180628C93BAE057
:10220000EB0EF11C015F1F4FECEBEE16E1E0FE065A
:1022100009F0A6CF2A96E6E00C947633AB0124E6CB
:1022200030E0BC0188E70E94B9309C0181E0232B9B
:1022300009F080E008958091B6068115F9F00E94BA
:102240003D0ADC01CB018057904AAE4FBF4F8093CF
:10225000B0069093B106A093B206B093B3068091F6
:10226000BF0681110BC062E070E08BEC93E00E942E
:102270000E11811519F081E08093BF0608958091B9
:10228000B606811569F08091BF06811549F062E0BC
:1022900070E089EC93E00E940E1181111092BF064C
:1022A0000895CF93DF93682F81E06A3019F06D3085
:1022B00031F480E00E94CF11DF91CF910895809199
:1022C000690290916A0226E0FC01AFE4B2E001905D
:1022D0000D922A95E1F7603E08F456C026E0FC0115
:1022E00011922A95E9F7C0916902D0916A0246E0FD
:1022F00050E0BE018FE492E00E94A7339E012C5A69
:102300003240892B41F1C90146E0969587954A955F
:10231000E1F741E050E0BA0102C0660F771F8A95ED
:10232000E2F7CB016091AE067091AF06862B972B3A
:10233000B9016B5F7F4FE6E076956795EA95E1F727
:1023400002C0440F551F6A95E2F7842B952B8093AA
:10235000AE069093AF062A5F3F4F40916B02642F09
:1023600070E0C9010E943A33481B463010F4240F34
:10237000311D343010F020E030E024553D4F2093E3
:10238000690230936A0298CFF6E06F9FB001112482
:1023900063537C4F46E050E00E949E33A4CFCF931E
:1023A000382FE0916902F0916A02EC5AF2402091D4
:1023B0006B02622F70E0CF010E943A33281B822FFC
:1023C000311569F066E00E948533C82FC11102C043
:1023D000CF910895C15080E20E945111F7CF8E0F26
:1023E0009F2F911D943010F080E090E084559D4F18
:1023F0008093690290936A02EBCFCF93DF93EC0155
:10240000FE018491811103C0DF91CF9108950E9454
:1024100051112196F5CF0E94FD1181E00E94CF114C
:1024200008951F921FB61F9211248F939F93AF930D
:10243000BF9380915602811113C080912702909121
:102440002802A0912902B0912A024196A11DB11D36
:102450008093270290932802A0932902B0932A0226
:10246000BF91AF919F918F911F901FBE1F901895A4
:102470002FB7F8948091270290912802A091290209
:10248000B0912A022FBF089580911F0890912008D3
:10249000892B91F00E9438122091CF073091D007FC
:1024A000AC01421B530B9A0181E040911F085091EF
:1024B00020082417350708F480E00895CF93C091D1
:1024C000D5078091D807C82B8091D1078115E9F0F5
:1024D00080911F0890912008892B29F00E944412B6
:1024E00081110E94E3068091D107C82B20E08EE085
:1024F00092E0FC013081019631112F5F32E084318E
:102500009307B9F721110E94E30680914007809557
:102510008C2390913F07892B80930C0248E050E078
:1025200065E277E08CE092E00E94A733892BA9F066
:1025300088E0ECE0F2E0A5E2B7E001900D928A9528
:10254000E1F7E0912307F0912407309731F0028002
:10255000F381E02D8CE092E00995CF910895CF931F
:10256000C82F8115B1F08CEF8C0F813AA0F4EEE00A
:10257000F2E084E192E02081C217B1F131968E172A
:102580009F07C9F76C2F8CE092E00E94130A0E940B
:102590005E12CF91089580E28C0F883060F4C7708E
:1025A00021E001C0220FCA95EAF78091D507822B5E
:1025B0008093D507ECCF8BE58C0F833038F42C2F2C
:1025C0002452330BC9010E94C909E3CFC85ACB3149
:1025D00000F7EC2FF0E0EE0FFF1FED52FE4F808171
:1025E00091810E94EE09D5CF8C2F0E942E0A0E9465
:1025F0005E12C8CFCF93DF93EC01805E91090897FC
:1026000020F066E574E1209711F465E474E1CE01F1
:102610000E94C6058C2F0E94AF12DF91CF910895C2
:10262000611529F02091D80722602093D8079C01DA
:102630003052303308F490E00E94FA120895811568
:1026400041F19CEF980F913A28F40E942E0A0E94C3
:102650005E12089590E2980F983058F4982F81E018
:1026600091FD84E090FD880F92FD82950E94DB062B
:10267000EECF9BE5980F933028F480E090E00E9425
:10268000C9090895885A8B3120F480E090E00E94B7
:10269000EE090895CF93DF93EC010E941F13CE0142
:1026A000805E9109089720F060E674E1209711F4AC
:1026B0006FE474E1CE010E94C605DF91CF910895C9
:1026C000A3E0B0E0E6E6F3E10C945E33898389335E
:1026D000A1F480913D0890913E088A839B83898173
:1026E0000E94AF128A819B81892B61F489810E94AB
:1026F0001F132396E2E00C947A3380913B0890916B
:102700003C08EBCF8FE99FE00197F1F700C0000094
:102710008A819B8101978A839B83E4CFA3E0B0E009
:10272000E4E9F3E10C9458338A839B83EA81FB81CB
:102730009081913060F109F058C08181813039F485
:1027400082813396EA83FB830E946013EFCF82304D
:1027500049F4EA81FB8182813396EA83FB830E94FC
:10276000AF12E4CF833049F4EA81FB818281339652
:10277000EA83FB830E941F13D9CF843061F02A8142
:102780003B812E5F3F4F2A833B838111CFCF23961E
:10279000E8E00C947433EA81FB8182813396EA830A
:1027A000FB8320E030E09AE0682F6053770BAB01A9
:1027B0006A30710560F02115310539F3EFE9FFE06A
:1027C0003197F1F700C0000021503109F4CF929FFA
:1027D000B001939F700D11249A01260F371FEA81D3
:1027E000FB818191EA83FB83DFCF2A813B812F5FCD
:1027F0003F4F2A833B83E92FF0E0E75DFD4F3491A3
:102800003983292F26952695269530E0F901E75E34
:10281000FD4FE4909770F12C092E02C0F594E794D7
:102820000A94E2F7F901E75FFD4FC490D12C092E1D
:1028300002C0D594C7940A94E2F7F901E750FE4F1D
:10284000049110E002C0159507959A95E2F7E0FE15
:1028500003C081EE0E94AF12C0FE03C086EE0E944C
:10286000AF1289810E94AF1289810E941F13C0FE9E
:1028700003C086EE0E941F13E0FE03C081EE0E949B
:102880001F1300FF53CF8CE25FCF811539F0909179
:10289000D507982B9093D5070E945E120895811555
:1028A00021F00E94DB060E945E120895811539F026
:1028B0009091D807982B9093D8070E945E120895A4
:1028C000811541F080959091D80789238093D8078E
:1028D0000E945E1208951092D507EEE0F2E086E0C5
:1028E000DF011D928A95E9F780E090E00E94C90916
:1028F00080E090E00E94EE091092D8070E945E12DC
:1029000008950E946B142FEF84E39CE021508040D7
:102910009040E1F700C0000088E19AE00FB6F8941B
:10292000A895809360000FBE90936000FFCFCF9377
:10293000DF938FEF9FEF44305105C0F0FB01D08152
:10294000C1810E946B14D0934108C37080914208EA
:102950008C7FC82BC0934208609141087091420857
:1029600084E090E00E94103480E090E0DF91CF910D
:10297000089510923708109238088FEA80931D0846
:1029800010921E0885E08093390828E833E12093EF
:102990001F083093200822E3209333081092340854
:1029A00028EC209335081092360810923A081092BD
:1029B0003B0810923C0820E520933D0810923E0809
:1029C00080933F080E941B0D0E946B1410924108D7
:1029D0001092420880E084608093420860E074E0D6
:1029E00084E090E00E9410340E94380D0895AAE01F
:1029F000B0E0EDEFF4E10C945333A090BC06B0903E
:102A0000BD0681E08093BC061092BD06812C912CFE
:102A1000E12C6401F12C15C0F80125913491472D6A
:102A20006F2D8E2D0E94C30C0E5F1F4F739486E096
:102A30007812F2CFA6E0CA0ED11CF394B8E0FB16D0
:102A400039F08601000F111F07551D4F712CE4CF7F
:102A5000E39480E3880E911CA3E0EA12DACF0E948F
:102A6000B914FE01319689E0DF011D928A95E9F7DC
:102A70008FEF9FEF8D839E8387E08A870CE611E0BE
:102A8000FE2EEF2E4AE050E0B8018F2D9E2D0E94C1
:102A90001634065F1F4F0C3BB1E01B0799F7A0925D
:102AA000BC06B092BD062A96EDE00C946F3380E030
:102AB0000E94FF0C60E087E290E00E94F2330E94E7
:102AC000F7140E94EF0C81E00E94FF0C0895AAE227
:102AD000B0E0EDE6F5E10C945D3387E192E0FC01B6
:102AE00001962091F100208322E08F319207B9F7FF
:102AF00080911802893009F45AC0C8F4823009F470
:102B0000B8C0833009F487C0813091F18091E8002A
:102B100083FFECC080911702909118029A3008F060
:102B2000E5C0E92FF0E0E05DFB4C0C9491338A3076
:102B300009F48EC08B3051F780911702813231F742
:102B400080911B0290911C02892B01F78091E80073
:102B5000877F8093E8000E94420B81E090911902E8
:102B6000911101C080E0809302010E946B14CECFCE
:102B700080911702813A51F68091E800877F809317
:102B8000E80080911B0290911C02892B61F060E0AB
:102B900080E090E070E00E94B80A8091E8008B77B6
:102BA0008093E800B3CF68E08FE192E0F3CF8091AB
:102BB0001702813209F0AACF80911B0290911C026A
:102BC0008D7F892B09F0A2CF8091E800877F8093C9
:102BD000E8008091E80082FF19C02091F300809105
:102BE000F200922F029731F48091F100813011F0C0
:102BF000863021F48091F100809301018091E800FA
:102C00008B778093E8000E94420B80CF8091BE06B4
:102C10008111DFCF7BCF80911702813A09F076CF07
:102C200080911B0290911C02892B09F06FCF80913B
:102C3000E800877F8093E8008091E80080FFFCCF68
:102C4000809102018093F1008091E8008E77D9CFC6
:102C500080911702813209F059CF8091E800877F77
:102C60008093E8000E94420B80911A028093000139
:102C70004DCF80911702813A09F048CF8091E8004A
:102C8000877F8093E8008091E80080FFFCCF8091EF
:102C90000001D8CF803889F0823841F580911B023D
:102CA0008F70873018F58093E9008091EB0085FBE9
:102CB000882780F91092E90006C080915702880F9A
:102CC00090911402892B9091E800977F9093E800EF
:102CD0008093F1001092F1008091E8008E7723C07C
:102CE000811116C080911902813011F18091E800A4
:102CF00083FF0AC08091E800877F8093E80080917D
:102D0000EB0080628093EB00AA96E3E00C947933A9
:102D1000823061F780911902811581F01092E900EB
:102D20008091E800877F8093E8000E94420BDECF0D
:102D3000933009F080E080935702F0CF80911B021E
:102D40008F702FEF280F263088F68093E9002091AE
:102D5000EB0020FFE3CF933031F48091EB008062F1
:102D60008093EB00DBCF9091EB0090619093EB00B0
:102D700021E030E0A90101C0440F8A95EAF74093B1
:102D8000EA001092EA008091EB008860E9CF81119F
:102D9000ADCF109119021F778091E3008078812BCD
:102DA0008093E3008091E800877F8093E8000E9491
:102DB000420B8091E80080FFFCCF8091E3008068A7
:102DC0008093E30083E0111101C082E08093BE068E
:102DD0008DCF8058823008F089CF80911902909170
:102DE0001A028C3D53E0950791F583E08A838AE2CD
:102DF00089834FB7F894DE01139620E03EE051E25C
:102E0000E32FF0E050935700849120FF03C0829598
:102E10008F703F5F8F708A30C0F0895C8D931D92F8
:102E20002F5F243169F74FBF8091E800877F80933F
:102E3000E8006AE270E0CE0101960E94B80A809133
:102E4000E8008B778093E80051CF805DE7CF292F92
:102E500030E02330310509F44EC078F521303105DA
:102E600009F486C08BE590E0E4E4F1E0223031051E
:102E700009F03CCF2091E800277F2093E8002091C3
:102E80001D0230911E028217930708F49C0140E056
:102E90002115310509F071C041116FC08091E80022
:102EA00082FDCDCF8091BE06811549F2853039F281
:102EB0008091E80083FFF2CFC2CF80911B029091F6
:102EC0001C022132310509F444C02232310509F0D7
:102ED0000DCF8330910508F009CFFC01EE0FFF1FE5
:102EE000E158FE4F0190F081E02D84589E4FDC01A7
:102EF0008C9190E010C0282F30E0823011F1233007
:102F0000310568F4232BA9F4E5EFF1E0E4918E2F6D
:102F100090E0E5EFF1E0009709F4E8CEABCF09F0DF
:102F2000E5CEE1EBF1E0E4918E2F90E0E1EBF1E012
:102F3000F2CFE5EEF1E0E4918E2F90E0E5EEF1E0E6
:102F4000EACFEFECF1E0E4918E2F90E0EFECF1E0CE
:102F5000E2CF8330910508F0C9CEFC01EE0FFF1FD0
:102F6000EB57FE4F0190F081E02D89E090E082CF99
:102F700082E190E0EFE9F1E07DCF8091BE0681151E
:102F800009F45DCF853009F45ACF8091E80083FDC4
:102F900056CF8091E80082FD81CF8091E80080FFCC
:102FA00077CF4091F3008091F200942F21153105E5
:102FB00019F08830910550F041E0089709F040E0A1
:102FC0008091E8008E778093E80062CF449140932F
:102FD000F1003196215031090196E8CF803809F08F
:102FE00085CE8091E800877F8093E800809115026C
:102FF0008093F10071CE811179CE109119021230B7
:1030000008F074CE8091E800877F8093E8001093E9
:1030100015020E94420B1115F9F084E08093BE0660
:1030200042E061EC81E00E94120B42E261EC84E03C
:103030000E94120B42E261EC82E00E94120B42E21B
:1030400060EC83E00E94120B8091BE06843051F444
:1030500082E0809303014ACE8091E30087FDDDCFBB
:1030600081E0DCCF81E0F5CF80916B01877F809399
:103070006B019091D8079D7F9093D80784FF08C07B
:103080008F7E80936B018091D50782608093D507F6
:1030900080916B0185FF08C08F7D80936B018091CB
:1030A000D50780628093D5070E945E120895A4E040
:1030B000B0E0EDE5F8E10C945A338B839C838B01EF
:1030C000498380916B0182FF6AC0E090C607F0904F
:1030D000C7072B813C81E216F30619F0232B09F078
:1030E0005EC080916B018B7F80936B0181FD54C02A
:1030F0008091C4079091C5079801281B390B41E0C6
:103100004A8380910F01909110012817390708F424
:103110001A8280916B019A8190FB81F980936B01F7
:10312000692FC7010E9457098091D50781FF08C008
:1031300080916B01806180936B0182E00E94DB06CD
:103140008091D50785FF08C080916B0180628093D4
:103150006B0180E20E94DB066A81C7010E941013A6
:103160002981211529F0809138088076803269F113
:1031700080913B0890913C080E94090C8091C60701
:103180009091C7079C013052303308F490E00E94C0
:103190004A130E94341815C081E08A83BACF8B810C
:1031A0009C8190529033A8F48B8190E00E944A1346
:1031B0008091C6079091C7072B813C81281739075A
:1031C00041F30093C4071093C5072496E6E00C94DE
:1031D00076338B819C81EACFA4E0B0E0E2EFF8E1A6
:1031E0000C945E338983A091BA07B091BB07109706
:1031F00009F455C01092BC071092BD071092400709
:1032000010923F0716968D919D9118978A839B8304
:103210009C0131503F3128F48A819B81907E8A83C2
:103220009B839A8141E04C83911101C01C821996C5
:10323000ED91FD911B97309741F01B966D917D911B
:1032400080E009959C8198239C834C81411539F03D
:103250008A818450813A38F58A810E942E0A8981B8
:103260008115A9F0E091BA07F091BB07808584FD34
:103270000EC08091B907811551F0808191819C0128
:10328000215031092F333E4710F40E945F0A0E94FB
:103290005E121092BA071092BB071092B9072496DB
:1032A000E2E00C947A330E945E128A810E941F131E
:1032B000D6CF9091420892FF10C0982F990F990F86
:1032C000990F962B9093D9070E9413060E943812EB
:1032D0008093DA079093DB0708950E941306089500
:1032E0009091D107292F282361F08095892380931D
:1032F000D10790E081110E9438128093CF079093FC
:10330000D0070895CF93C82F8091420882FF0CC048
:103310008091D1078C1741F00E9438128093CF071B
:103320009093D007C093D107CF910895A2E0B0E069
:10333000ECE9F9E10C945E3389839A830E94381298
:1033400029813A81821B930B2296E2E00C947A3316
:10335000ADE0B0E0EEEAF9E10C945833FE013196AD
:1033600088E0DF011D928A95E9F780E6E82E81E08A
:10337000F82E8F01ED87C12EF70181917F018F3FDC
:1033800009F43FC0F894E82FE295EF70F0E021A136
:103390008F7041E001C0440F8A95EAF7842F922F85
:1033A000942B91A392A18095892382A3789400C045
:1033B000E4E6F1E031E0D12C21912F3F79F0A22F0A
:1033C000A295AF70A05EB0E08C9190E02F7002C02B
:1033D000959587952A95E2F780FFA7C080E0D82AC7
:1033E000330F8AE691E08E179F0731F7F70182913C
:1033F0008F3F11F00E94D30890EA9A95F1F7D80117
:10340000DC920F5F1F4FB4E6EB16B1E0FB0609F04C
:10341000B3CF48E050E06D857C2D8FE097E00E94AF
:10342000A733009749F028E0ED85FC2DAFE0B7E029
:1034300001900D922A95E1F700910E0710E00A5FC6
:10344000184F892B09F473C081E0809305070E940F
:103450003812809303079093040780911707811512
:1034600009F4C0C07E01E9E0EE0EF11C84E0D70152
:103470001D928A95E9F78091FE068A3008F07BC09C
:1034800041E150E1B701C8010E94170C811509F410
:1034900097C042EF5FE0B701C8010E94170C811589
:1034A00009F48EC044EB5EE0B701C8010E94170C1E
:1034B000811509F485C040E95FE0B701C8010E94A9
:1034C000170C811509F47CC045ED5FE0B701C80118
:1034D0000E94170C811509F473C046EF5EE0B70136
:1034E000C8010E94170C811509F46AC047EB5FE020
:1034F000B701C8010E94170C811509F461C0109230
:10350000FE068091020790E044E050E0B7018A5F38
:10351000984F0E94A73321E020930107892B09F0DF
:1035200041C02D96E8E00C947433832F58CF8091DE
:103530000507811509F491CFE0900307F090040787
:103540000E9438128E199F09059708F486CF44E02F
:1035500050E06FE077E0C8010E94A733892B41F06B
:1035600084E0EFE0F7E0D80101900D928A95E1F751
:103570001092050772CFC090FF06D09000070E94FE
:1035800038128C199D09843F914008F079CF8091C1
:103590000107811531F284E0F70111928A95E9F76C
:1035A00010920107E0910207F0E0EA5FF84F898589
:1035B0009A85AB85BC8580839183A283B383B1CF89
:1035C0008091FE068F3F39F40E9438128093FF06E7
:1035D00090930007DCCF8F5F8093FE068A3008F45B
:1035E00090CFF2CFE0900207F12CA7014A5F584F2D
:1035F0007A01F80180819181A281B3818093E506EF
:103600009093E606A093E706B093E80685EE96E071
:103610000E947C098093E4068091E9069091EA0675
:10362000A091EB06B091EC06F70180839183A28311
:10363000B383C090ED06D090EE06E090EF06F090D8
:10364000F0068091F9069091FA06A091FB06B091E0
:10365000FC06C816D906EA06FB06C1F0C092F906B8
:10366000D092FA06E092FB06F092FC060E943D0A18
:1036700087017601E61AF70A080B190BE092190781
:10368000F0921A0700931B0710931C078091F10614
:103690008093D4078091F2068093D3078091F3063C
:1036A0008093FD068091F5061091F7069091F4063F
:1036B0009093D5078093D8078091F6060E948219CF
:1036C0008091D20718131093D2078091F8068115C4
:1036D00019F00E941B1125CF0E943F1122CFA6E0B6
:1036E000B0E0E5E7FBE10C945E3380931D07909317
:1036F0001E07903230F40E944A132696E2E00C94A2
:103700007A3380EF89838A830E9438128160BC01FA
:1037100049815A8181E090E00E947625EECFACE0AD
:10372000B0E0E5E9FBE10C944F337C01DC01149639
:103730008C91811509F487C061E0C7010E94F20DE8
:103740008C018234BEE79B0709F481C08334EEE725
:103750009E0709F485C08134FEE79F0709F456C02F
:10376000D70115963C90311087C080916A01811174
:103770005EC18091380880FF2BC00E9438126C0116
:10378000D70115968C91811509F42AC380916B019C
:1037900082FF06C040E0B60180E090E00E9457182A
:1037A0000431BCE71B0709F417C30531ECE71E071A
:1037B00009F4C0C20331FCE71F0709F402C3C801C2
:1037C0009052903308F0C0C21092C6071092C707FB
:1037D000F7018581811509F48BC798013057233291
:1037E000310508F060C784E090E00E94DC338093EC
:1037F000410890934208F801E150F047E232F105A8
:1038000008F079C3E65CFB4C0C949133F701858199
:10381000811509F471C781E00E94130643E062E05C
:1038200081E00E9496068091D907877061F0D701E8
:1038300015968C91811539F08091420882FF03C062
:1038400082E00E94C0062C96E1E10C946B33D70114
:1038500015968C91811511F082E0DECF82E04DC784
:10386000F7018581811521F083E00E941306DBCFEB
:1038700083E00E941E06D7CF97578038910508F045
:10388000BBC0D02EF0E10F1770F68FEF93E00E94CF
:10389000D4338111C8CF0CEB11E0D11034C05E01DC
:1038A0003FEFA31AB30AD501E4E01D92EA95E9F7C8
:1038B000C8010E94D4338983811509F4B4CF68010B
:1038C000FFEFCF1ADF0A813009F092C0C6010E94D3
:1038D000D433782E8A83811509F4A5CF2FEFC21A2D
:1038E000D20A8FEF870D8330F8F40D5F1F4FC601AA
:1038F0000E94D4338B83811519F0C5010E948E1369
:1039000068018601D0CF011524E0120709F48BCF9E
:10391000C8010E94D433811519F00F5F1F4FF3CFF8
:10392000DA940F5F1F4FB9CF8BEF870D833098F577
:10393000480133E0830E911CC6010E94D4338B836F
:1039400064018115F1F20C5F1F4F6801C4010E94F0
:10395000D4338C838115A9F20B811C8101305FEF78
:10396000150710F0102F00E086E0781681F097E040
:10397000791649F0C8010E945F2E80913B08909112
:103980003C080E94090CC8010E946F1BBACFC801F5
:103990000E945F2EB6CFA4E07A12B3CFC6010E9478
:1039A000D433982E811509F43ECFC80103960E94A6
:1039B000D433811509F437CF0C5F1F4F6801E82F0E
:1039C000E150FF0B4FEF4E9FC0014F9F900D112410
:1039D000492D4150550B840F951F009709F491CF45
:1039E0000197AFE9BFE01197F1F700C00000F5CFF4
:1039F000C5010E948E1385CF0E35BCE71B0799F0D9
:103A00000F35ECE71E0749F00D35FCE71F0709F0FD
:103A1000ACCE80916A01811531F010926A0180E08C
:103A20000E94EC1800CF81E080936A01FCCE38013F
:103A300020EE621A71085090D2078091D507582A5B
:103A40008091D107582A38E06316710408F059C0F4
:103A50009801277081E001C0880F2A95EAF7311498
:103A600009F44CC0582AD7018D919D910E9463069C
:103A700021E030E0F90102C0EE0FFF1F8A95E2F766
:103A8000E987FA872091BA073091BB072F833887DF
:103A90004091C2075091C3074B875C8721E4C22E37
:103AA00027E0D22EA12CB12C511005C0D6011296C0
:103AB0008C91811118C0F601838190E029858223C1
:103AC000892B89F08085982F977009F487E038E07A
:103AD0006316710408F05AC0311409F453C0869576
:103AE0008170811158C09FEFA91AB90AAFE0CA0EC0
:103AF000D11CB8E0AB16B104B9F61CC080955822B1
:103B0000B2CF31102CC08091C2079091C307081723
:103B1000190781F41092C2071092C3071092BE07D2
:103B20001092BF071092C0071092C1071092BC07F5
:103B30001092BD078091BA079091BB07009709F4D6
:103B400018CEE8E06E16710408F0E0C0652D0E9402
:103B5000950981110ECE81E00E94EC180ACE0093E7
:103B6000C2071093C3070E943D0A6093BE0770937B
:103B7000BF078093C0079093C1071092BC071092B3
:103B8000BD0771CF82FB882780F9ABCF311409F4D0
:103B9000AACF80FFA8CFD6018D909D90081519055A
:103BA00019F4311409F49FCFEF81F885EC15FD0568
:103BB00009F499CFD6011D96ED91FD91309721F032
:103BC0008081811509F48FCF652DC6010E9495096A
:103BD000811509F488CF81E00815190509F080E006
:103BE000482E43208114910441F0411006C0EB851A
:103BF000FC858E169F0609F076CF80E00E94EC18B7
:103C0000C092BA07D092BB0781E08093B9078FE0DA
:103C10008A9DF0018B9DF00D1124EF5BF84F85819B
:103C20008093400741100EC08114910459F08081A7
:103C300091819C0124503109213A310508F048C096
:103C40000E942E0A8FE08A9DF0018B9DF00D1124B9
:103C5000EF5BF84FC680D780C60191509F3110F4BA
:103C600020EED22299249394C60101978F339E4768
:103C700008F0912C8FE08A9DD0018B9DB00D11240E
:103C8000AF5BB84F1996ED91FD911B97309731F0CE
:103C90001B966D917D9181E0099598229114A9F070
:103CA0008FE08A9DF0018B9DF00D1124EF5BF84FA2
:103CB000868197810E94AA0580933F07C60148E04C
:103CC0006416710440F40E945F0A0E945E120CC0E8
:103CD0000E941F13B7CF0497813A910558F46C2DB9
:103CE0008CE092E00E94130A411409F442CD0E9434
:103CF0005E1299CD0E945E128FE39CE90197F1F765
:103D000000C000008C2D0E94AF12EECFDC012D917F
:103D10003D910217130731F4311007C01092B90713
:103D200080E01ACF311409F424CDFC01808585FD93
:103D300020CDF6CF90916B01892F8E7F90FF81600F
:103D400080936B010E94341880916B0180FF40CDFD
:103D50000832110508F059C00E31110508F066C08F
:103D6000C80104974A9790F58091380884FD2EC0C9
:103D7000D70115968C91811509F4B7C09091D5079C
:103D80008091D107882E892A282D2D7F09F453C0D0
:103D90001092C6071092C7072091380821FD4BC02A
:103DA00060E0C8010E94570960E0C8010E9410133A
:103DB0008091D1078D7F0E94821982E00E94C00607
:103DC00032CD80916B01816080936B01D701159694
:103DD0008C918111F9CCFCCC80916B018E7FB0CF9E
:103DE00080916B018F7E013E110531F0053E11057A
:103DF00031F480916B018F7D80936B01A5CFC80159
:103E00009052903308F0A0CFE3CC0933110558F459
:103E10000D32110518F40B321105C1F680913808E6
:103E200082FDD4CFA5CF04361105F7CF8091380895
:103E300083FDCCCF9DCF27E0F701A8ECB7E0019040
:103E40000D922A95E1F71092CA071092CB07A09025
:103E5000C607B090C7070A151B0591F520913808D1
:103E600025FF2EC030916B0131FB992490F831FF72
:103E700002C026FF25C02091C4073091C507F60176
:103E8000E21BF30BE83CF105D8F491FF08C08091E8
:103E90006B01806180936B0182E00E94DB06809160
:103EA000D50785FF08C080916B01806280936B010C
:103EB00080E20E94DB06692DC5010E941013B3CC7D
:103EC0008D7F0E9482190093C6071093C707C09286
:103ED000C407D092C507982D9270946080916B01B1
:103EE000897F892B80936B0168CF40E0B601C801C0
:103EF0000E94571898CC80914108816080934108B6
:103F0000609141087091420884E090E00E94103472
:103F10000E946B1488CC809142088860809342088C
:103F2000EFCF809141088260E9CF809141088460A1
:103F3000E5CF809141088860E1CF8091420881609F
:103F4000EDCF809142088260E9CF80914108806185
:103F5000D5CF809141088062D1CF809141088064A3
:103F6000CDCF0E946B14809141088068C7CF8091AB
:103F700041088C60C3CF809142088360CFCF80918D
:103F800041088E7FBBCF80914208877FC7CF809149
:103F900041088D7FB3CF809141088B7FAFCF809157
:103FA0004108877FABCF809142088E7FB7CF809149
:103FB00042088D7FB3CF809141088F7E9FCF809143
:103FC00041088F7D9BCF809141088F7B97CF0E94C6
:103FD0006B14809141088F7791CF80914108837F46
:103FE0008DCF809142088C7F99CF90914108892F85
:103FF0008B7F92FF8460877F92FF88607FCF809164
:104000004208982F909590FB80F990FB81F986CF1C
:1040100090914108892F8F7B96FF80646FCF0E941B
:104020006B1490914108892F97FB87F9805866CFD0
:1040300061E08EE090E00E94F23362CF60E0F9CF61
:1040400090914108892F8F7E94FF806157CF909186
:104050004108892F8E7F90FF816050CF9091420858
:10406000892F877F93FF886059CF8115B1F00A357A
:104070003CE7130709F4ABC008F082C001305CE7ED
:10408000150709F4A2C003308CE7180709F497C09C
:1040900001159CE7190709F485C0F7018581C080E7
:1040A000D180811509F497C0C6010E94A50D182F73
:1040B000682FC6010E942D06B601812F0E94880D2F
:1040C0000E94E007182FD92E86E0F701DE01119635
:1040D00001900D928A95E1F7D7011596BD90CC908D
:1040E000C2949FE0C9228091D907877001F19B2C6F
:1040F000B114F1F08D2D807F803461F080E2810F6A
:104100008830A8F08D2D807E803221F4123078F036
:10411000C11469F08091420882FF09C082E00E94C8
:10412000C0068091D9078770992493948111912CAE
:10413000AD2CA2948FE0A822B8E0AB1609F47FC1A1
:10414000E9E0AE1608F083C0F4E0AF1608F048C00E
:1041500022E0A21608F48EC00D2D0F708D2D807FE9
:10416000803211F00295007F113008F4BEC009F4CE
:1041700029C1B11409F435C1C11409F4D2C092C0E7
:104180000B35ACE71A0729F180914208002482FF21
:104190000394802D0C35BCE71B0709F07ECF0E94ED
:1041A000AC0C7BCF0E946B14EFEFF4E32CE0E150FA
:1041B000F0402040E1F700C000000E94A50A6FEF28
:1041C0007FEF80E090E00E9410340E94811481E033
:1041D000E6CF80E0E4CFC6010E946306182F6CCFC3
:1041E00034E0A31609F40FC1AA2DA850BB0B1497F5
:1041F00018F40E94B509912C812F9D2D0E94E9058C
:10420000811541F0B11409F424C2C11409F418C293
:10421000109245089114B1F08091D90780FD12C029
:10422000D70115961C928695869586950E94130651
:10423000C7010E948F1B8091D90786958695869528
:104240000E941E0660E0C7010E94F20DFCCA49E010
:10425000A41609F464C186E08A0D8F70823020F6BE
:10426000123F09F06CC18D2D8F71B11065C10E9494
:104270001306BACF0D2D0F7050E1D51610F0029530
:10428000007FB114C9F0011569F080E2810F883018
:1042900010F011110BC08091D507802B8093D507AA
:1042A0000E945E12812F0E94AF129ECF8091D8078C
:1042B000802B8093D807F4CF812F0E941F13011504
:1042C00009F492CF80E2810F883010F0111104C000
:1042D000802F0E94DB0606C000958091D8078023BE
:1042E0008093D8070E945E127FCF8091420882FDA2
:1042F00014C0B11459F0011539F08091D507802B05
:104300008093D5070E945E1280E0CDCF80E00E94AE
:104310001F13011509F468CFDBCFB11491F1C1105F
:1043200004C0802F0E9445145FCFB1E0CB1211C0B2
:104330008090D107802F8821081709F455CF0E945B
:1043400038128093CF079093D007802A8092D107AC
:104350004BCF80913908823008F446CFC81244CF41
:10436000802F0E944514802F0E9470198091D207DF
:10437000902F9823091709F437CF802B8093D20709
:1043800033CFC11011C0802F0E944F14802F0E9484
:1043900070198091D207902F982309F425CF0095AA
:1043A00008230093D20720CF80913908823008F487
:1043B0001BCFE1E0CE1218CF8091D507802309F4FE
:1043C00013CFE1CF80913F08B11421F08C1508F490
:1043D0000BCFA7CFC81608F007CF802F0E944F142D
:1043E00003CFC114D1F380913D0890913E08193359
:1043F00021F080913B0890913C080E94090C812F8C
:104400000E941F13F1CE8D2D869586958370813085
:1044100060F009F0E9CE812F9D2D9370B11002C09C
:1044200080E090E00E94EE09DFCE812F9D2D9370F9
:10443000B11002C080E090E00E94C909D5CE8D2D58
:104440008370A1F5B110D0CE812F829586958770AB
:10445000880F880F412F4F70082E01C0440F0A9417
:10446000EAF7212F207114FF06C02FE001C0220FB0
:104470008A95EAF720959D2D9695969593709230A2
:1044800081F0822F842B933031F08091D3079130CB
:1044900029F0242B82230E940D06A6CE842B822B8A
:1044A000FACF242B8091D3078227F5CFB11461F185
:1044B000D0FE9ACE812F829586958770880F880FBF
:1044C000412F4F70082E01C0440F0A94EAF7212FA4
:1044D000207114FF06C02FE001C0220F8A95EAF771
:1044E00020959D2D969596959370923099F0822FF8
:1044F000842B933031F08091D407913041F0242BFC
:1045000082230E94100670CE8230A0F66DCE842BDE
:10451000822BF7CF242B8091D4078227F2CF0D2D49
:104520000F70B11429F0802F0E941306812FFACE4C
:10453000812F0E944F14802F0E941E0655CE60F4DA
:10454000103FB9F0113F81F0B11409F474C0C110EB
:10455000A9CE8D2D8F718BCE133F09F1143FA1F79A
:104560008091420882FD27C08D2D8F71B11421F3F7
:104570007ECE80913F08B11471F0C81608F034CE99
:104580002D2D2F7181E001C0880F2A95EAF79091B7
:10459000D4078927B6CF8C1508F426CEF1CF80E05A
:1045A000B11409F4AECF81E09D2D9F7101C0880F39
:1045B0009A95EAF7A6CF80913908823048F1B11474
:1045C000C9F09091D9079770943059F41092D90797
:1045D0001092DA071092DB078D2D8F710E941E0654
:1045E00008CE63E0C81608F004CE8D2D8F710E94AE
:1045F0005919FFCDC81640F01092D9071092DA076A
:104600001092DB0764E0F1CF81E00E94C006F1CD9B
:10461000B11431F063E08D2D8F710E945919E4CDF2
:1046200081E00E94C006F2E0CF1608F4DDCD82E002
:104630000E94C006D9CDC110D6CE8D2D8F717CCFF2
:104640008091D7078093D6078091D5078093D707AD
:10465000E1CD40E060E089819A810E94D70D009110
:10466000D507C11429F0109245080093D707D2CD81
:10467000209143083091440882179307B1F7809145
:104680003A0883FFF0CF80914508811561F380914E
:10469000D6070E944514812F0E9460138091D6078F
:1046A0000E944F14E0CF0737BCE71B0709F4B3C8DB
:1046B0000837FCE71F0709F4CDC89801205E324592
:1046C0002032310508F0D1CC8111E7CC0F7181E0A7
:1046D00090E09C0102C0220F331F0A95E2F7890186
:1046E000622F83E00E94F233802F0E940D069BC848
:1046F0000737ECE71E07E1F681E00E941E068EC830
:1047000080911C08803170F480911B08811551F054
:10471000E091DD072091DC073091170840911608E1
:104720002E1301C00895BF0187E0E89FF001112416
:10473000DF01A252B84F14968C911497811561F144
:1047400011968C911197831327C08C91841324C0E8
:1047500015968C91159781111FC012968D919D9180
:10476000A0911808B09119088A1B9B0B883C9105F1
:1047700098F480911C088F70806180931C08EC5124
:10478000F84F80818F708061808386E198E00E947D
:104790008F1B0E94B6060895FB013196E770C0CFCB
:1047A000ADE0B0E0E6EDF3E20C9453338C0186E02B
:1047B000F801DE01189601900D928A95E1F7D80173
:1047C00015968C907E9080911A08811118C07114F2
:1047D00099F0811409F47DC1C8010E940E0E811563
:1047E00009F477C187E0F801A6E1B8E001900D92E5
:1047F0008A95E1F70E948023FF24F39442C0F801D8
:104800009080A180C280D38060E086E198E00E9421
:10481000F20DB0901B08809118089091190876014C
:10482000E81AF90AB11409F40DC1F8ECEF16F10415
:1048300008F0D8C0711401F380911708D8011196BF
:104840009C91E0901C08B0E1EB1608F092C0F82CA7
:1048500098131CC090911608F8018081981316C017
:1048600081101BC08E2D8F70806180931C0886E1A3
:1048700098E00E948F1B80911C08D80116968C939B
:10488000F12C8F2D2D96EDE00C946F338091DD0788
:104890004091DC07E82F811441F180911C08816070
:1048A00080931C0880913A0881FDEACF86E198E068
:1048B0000E948F1B87E0E6E1F8E0DF011D928A95F8
:1048C000E9F7DECF9F01B7E0EB9FF0011124E25240
:1048D000F84F9181A91206C09081991203C0958169
:1048E0009111FFC0F9013196E770E413EBCF481343
:1048F00012C0888599850E94FA0D292F22952F7064
:104900009034E8F02A5F2F70223068F1C8010E94CD
:104910008F1BFB2CB6CF9C01B7E08B9FF0011124BD
:10492000E252F84F8181A81206C08081981203C01C
:1049300085818111A5CFC90101968770D8CF9F705D
:10494000223038F0911551F0F8019681903130F411
:1049500098CF911519F0811509F493CF805E8830B6
:1049600008F48FCFD3CF803F08F48BCF815F8330A3
:10497000F7CF981316C090911608D8018C91981310
:1049800010C081100EC01696EC92C8010E948F1BB9
:1049900087E0F801A6E1B8E001900D928A95E1F771
:1049A0002BCFC8010E940E0E811509F492C081140C
:1049B00009F48FC0B0E2EB1608F414CF809116080A
:1049C0009091170889839A83CB82DC8280911A08A0
:1049D0008D831E8280911C088F83CE0101960E94D8
:1049E0008F1B00CFF0901C08E0E1FE1608F45ECFAC
:1049F000711409F401CF90911708D80111968C9188
:104A00001197981313C0909116088C9198130EC0AB
:104A100081100CC01696FC92C8010E948F1B87E083
:104A2000E6E1F8E011928A95E9F7E6CEC8010E9426
:104A30000E0E811509F44DC0811409F44AC0F0E24C
:104A4000FF16BACF28ECE216F10408F046C0711444
:104A500009F4D2CE8114E9F190911708D80111968A
:104A60008C91119798132BC0909116088C919813E4
:104A700026C060E086E198E00E94F20D80913A083D
:104A800082FD86CF8091350890913608E816F906A8
:104A900008F07ECF90911C0890FD7ACF903108F4F9
:104AA00077CF892FF8019683907F903F09F46DCFDF
:104AB000982F907F905F8F70892B868366CFC80177
:104AC0000E940E0E81118ECE80911C088160809311
:104AD0001C08C8010E948F1B8FCE87E0A6E1B8E0BA
:104AE000EDCE90913A0890FF02CFE0CEABE1B0E07E
:104AF000ECE7F5E20C945C334E8B5F8B688F798F1B
:104B0000082F8A8F192F9B8F811509F498C040E0D8
:104B1000692F8E899F890E94D70D111549F0109237
:104B2000450880934308909344081092D8070AC020
:104B300020914308309144082817390719F481E07F
:104B4000809345081D8A86E0FE017696DE011F9659
:104B500001900D928A95E1F78091420882FF21C071
:104B600080911F0890912008892BD9F00E9438125B
:104B70002091DA073091DB07821B930B20911F08ED
:104B8000309120088217930738F08091D90782FD71
:104B900003C082E00E94C0060E94441281110E945C
:104BA000E306011561F00B8B1C8B61E0CE010F96C3
:104BB0000E94F20D61E0CE010F960E94F20D0B8B68
:104BC0001C8B87E0FE013F96DE01189601900D9246
:104BD0008A95E1F7CE0108960E94D023811125C065
:104BE0002091DC073091DD0787E0FE013896DE0179
:104BF000119601900D928A95E1F78C858115A9F0A7
:104C0000822F90E08395877090E038171906D9F4C9
:104C10000E946B141092DC071092DD0787E0E6E13A
:104C2000F8E0DF011D928A95E9F78091DD07909108
:104C3000DC07891319C06B96E4E00C947833911566
:104C400009F480CF72CF97E0929FD0011124A25235
:104C5000B84FFE01319601900D929A95E1F780933D
:104C6000DC070E94B606E1CFB7E08B9FC00111249C
:104C70008252984F0E94D0238115E9F22091DD07DE
:104C80002F5F3F4FC90187708093DD07CECFA6E02D
:104C9000B0E0EDE4F6E20C945C330E9438128C0133
:104CA00080912107909122078017910779F019824E
:104CB0001A820E943812BC0149815A8180E090E03A
:104CC0000E94762500932107109322072696E4E0A0
:104CD0000C947833CDB7DEB7AE970FB6F894DEBF3D
:104CE0000FBECDBF85B7806885BF85B7806885BF9B
:104CF00084B7877F84BF0FB6F894A8958091600031
:104D0000886180936000109260000FBE80E890E0A0
:104D10000FB6F89480936100909361000FBE81E01C
:104D20008093030181ED98E080930A0290930B0237
:104D30000E94A4100E94380D0E94EB0B0E94920B5F
:104D40008091E20084608093E20078948091BE06B6
:104D5000811599F08091E9001091EC008F7010FBA3
:104D6000112717F9182B1092E9008091E80083FDB4
:104D70000E9467151F701093E90082E084BD93E0E4
:104D800095BD9AEF97BD80936E001092190710920F
:104D90001A0710921B0710921C070E941B0E81110C
:104DA00002C00E9457158091D80080618093D8007E
:104DB0002AE12A95F1F700C08091D900182F1170CF
:104DC00080FD04C00E94EB0B1092BE0610931707E3
:104DD000109318071093040111110E94C63180919D
:104DE000040181111EC084E98093600186E68093EE
:104DF000610187E98093620186EC8093630186E01C
:104E0000ECE6F1E0DE01119601900D928A95E1F752
:104E100086E0FE013196A4E6B1E001900D928A95FC
:104E2000E1F78091040191E08927880F880F809332
:104E30000E0794E0981B9093020700E611E094E6B9
:104E4000E92E91E0F92ED8018D918D018F3F11F05F
:104E50000E94D308E016F106B1F704E611E08AE6F5
:104E6000E82E81E0F82EF80181918F018F3F11F03B
:104E70000E94D308E016F106B1F788E0E6E0F7E01B
:104E8000DF01282F1D922A95E9F7EFE0F7E0DF0117
:104E90001D928A95E9F780E090E00E94DC33853E20
:104EA0009E4F21F40E941B0E811163C065EE7EEFC0
:104EB00080E090E00E94103460E082E090E00E9488
:104EC000F23381E08093D30761E083E090E00E94B9
:104ED000F23360E074E184E090E00E94103460E01E
:104EE00086E090E00E94F23360E087E090E00E946C
:104EF000F23360E070E0AB0188E090E00E9404349F
:104F000060E083E290E00E94F23360E08CE090E0A9
:104F10000E94F23360E08DE090E00E94F23319824B
:104F20001A821B821C821D821E821F82188648E004
:104F300050E067E170E0CE0101960E94E23360E04C
:104F400070E0AB018FE190E00E94043480E00E94A9
:104F5000FF0C0E94571560E070E0AB018FE090E01D
:104F60000E94043460E070E0AB0183E190E00E94B5
:104F7000043482E090E00E94D4338093580284E0AD
:104F800090E00E94DC3380934108909342080E9495
:104F9000A819EFEFF6E721E0E150F0402040E1F7FB
:104FA00000C000000E94A8198091060780FF08C079
:104FB0006FEF7FEF80E090E00E9410340E94A50A1E
:104FC00083E090E00E94D4330E940D068091170781
:104FD000811509F4B9C081E08093AC0680E4809328
:104FE0006B020E9428306BE070E084E299E00E943E
:104FF0000E11811509F43FC08091AC0665E070E0A8
:1050000081FDA4C08FE199E00E940E11811599F1F4
:105010006DE070E08DE099E00E940E11811559F16C
:105020000E943D0ADC01CB018057904AAE4FBF4F32
:105030008093B0069093B106A093B206B093B306E6
:10504000ECEAF2E080E094E0DF019C011D92215047
:105050003040E1F7E0936902F0936A028FEF9FEF2F
:105060008093AE069093AF0681E08093B60680935E
:10507000BF061092AD0680911707811102C00E94F1
:10508000C93185E091E080932307909324078091B4
:10509000BE06853049F48091BE06853009F459C0BA
:1050A0000E946B140E94B5090E94A819A9E5EA2E76
:1050B000A2E0FA2EB6E0CB2EB7E0DB2EF601D70148
:1050C0009D91808121E632E02A173B0709F479C0DF
:1050D00031969817A9F38090170710E077247394FE
:1050E000D6010D916D01F70191907F01901621F18C
:1050F0009026AA24A394B12C892D8A21B1F0811481
:10510000A1F0B9821A830E9438128B839C837D821E
:1051100091E0802F8A2109F490E09E8349815A8191
:105120006B817C818D810E947625B394AA0CF6E078
:10513000BF12E2CFF70102931F5F183089F60E9479
:10514000490ADD24D39442C083E046CF8AE199E046
:105150005BCF8091BE06843031F10E943F111092E6
:10516000560288E190E0A0E40FB6F894A8958093E9
:1051700060000FBEA093600083B7817F846083BF0F
:1051800083B7816083BF7894889583B78E7F83BF10
:105190000FB6F894A89580916000886180936000B4
:1051A000109260000FBE0E94A819E6E0F7E080812F
:1051B00081113AC531962EE037E02E173F07B9F737
:1051C0006ACF981388CF0E944726D12C8091170769
:1051D000811509F459C00091BC071091BD07011554
:1051E000110591F18090650290906602A09067028F
:1051F000B09068020E943D0A681979098A099B09E2
:105200008090610290906202A0906302B09064026C
:10521000681579058A059B05B8F0C8010E94FA1245
:105220001092BC071092BD071092650210926602A0
:10523000109267021092680210926102109262024C
:1052400010926302109264028091380880FF1CC0A3
:1052500080916B0182FF18C00E9438122091C40710
:105260003091C507AC01421B530B20910F013091C7
:1052700010014217530740F041E0BC018091C6077E
:105280009091C7070E9457188091B606811509F4BE
:1052900048C10091B4061091B5060E943812801BD7
:1052A000910BC29708F45AC00E9438128093B4063A
:1052B0009093B5068CEA92E08093690290936A021B
:1052C0008CE999E00E940B128AE999E00E940B1286
:1052D00082E999E00E940B128091D4070E94D705C1
:1052E000823009F472C108F068C181116BC189E88C
:1052F00099E00E940B120E94B509182F83E699E0ED
:105300000E94FD118AE599E010FD02C088E599E050
:105310000E940B128CE599E00E94FD118DE499E04A
:1053200011FD02C08BE499E00E940B128FE499E01A
:105330000E94FD1181E399E012FD02C08FE299E025
:105340000E940B1289E499E00E940B128EE399E00F
:105350000E94FD1183E399E00E940B128091AE063A
:105360009091AF06892B09F4C3C08091B6068115D0
:1053700009F4BEC08091AD068111BAC00E941B1114
:105380008091AE069091AF06009709F4B1C080FB02
:10539000EE24E0F8F12C612C80FD0FC041E050E0DC
:1053A00063947A01062C02C0EE0CFF1C0A94E2F70B
:1053B000970128233923232B99F38091AC0680FF92
:1053C0000AC1962D990F990F990F37E0390F80E098
:1053D00027E09093130180931601309314012093DA
:1053E000170124E630E047E050E061E171E088E732
:1053F0000E946330892B09F07BC030E4639E30014A
:1054000011248091AC0680FFF6C0ACE6B2E0E0E487
:105410001D92EA95E9F723E931E02DA73EA76BE855
:1054200071E0EBE9AE2EE1E0BE2EADA5BEA59D91EB
:10543000ADA7BEA7FB018191BF019301280F311DCC
:105440002BA73CA7E92FF0E0E459FD4F20E030E026
:1054500057E0852E821ACC24C394022E01C0CC0CB6
:105460000A94EAF70BA51CA504551D4F90E0D8013E
:105470008D918D018C21482D491B477050E0B82F2C
:10548000042E01C0BB0F0A94EAF7519541955109CA
:10549000477001C086954A95EAF78B2B4081482BCF
:1054A00040839F5F983019F72F5F3F4F3196283028
:1054B000310571F68DA59EA5A816B90609F0B5CFE0
:1054C00004E610E020E430E04CE652E060E488E7D7
:1054D0000E941131892B61F4E094F0948091AE0622
:1054E0009091AF06E822F922E092AE06F092AF0664
:1054F0008091BF068115A9F00E943D0A0091B00677
:105500001091B1062091B2063091B306601B710B69
:10551000820B930B6F3F7F4F8F4F9F4710F40E947A
:105520003F11D1100E941B110E94B5099091B7063E
:10553000891721F08093B7060E943D0A8091BE062C
:10554000843009F0A4CD83E08093E9008091E800E5
:1055500082FF9DCD8091E80090E085FF0AC00E9407
:10556000610B40E2E42EF12C8E01811509F454C048
:1055700091E08091E8008B778093E800911509F421
:1055800086CD00911F0710912007E98101151105B3
:1055900009F452C0EE3F09F073C08A81833020F0D5
:1055A0008550833008F06CC0EA81EE3008F068C0A6
:1055B000F0E0E45AFB4C0C949133833049F089E6D7
:1055C00099E097CE82E899E094CE8BE799E091CE6E
:1055D00083E799E08ECE20E4629EC0011124880FFB
:1055E000892F881F990B9195282F60FA992796F992
:1055F0003FE3390FEECEA30144555D4F04E610E0C2
:1056000020E430E063CF8091F100D8018C93B1E0C9
:10561000EB1AF10809F4ACCF0F5F1F4F8091E8003F
:1056200085FDF1CF8091E8008B778093E8000E94A0
:10563000610B811599F39CCFE43150F4E11559F0D9
:10564000E150E33140F4F0E0E659FB4C0C94913327
:10565000EE3F09F4A9CF8FEF13C31A8289E08B8341
:105660000FC08A818230A9F08330E1F0813099F750
:105670000E943D0A0E9497336B837C838D839E83B7
:1056800040E250E0BE016F5F7F4F82E00E94560C07
:10569000FECC87E290E00E94D4331B821C821D82E4
:1056A0008E83EECF8091BC069091BD06892B41F38D
:1056B00088E0E6E0F7E0DE01139601900D928A950E
:1056C000E1F7DECF8A81823031F66B817C818D817A
:1056D0009E810E94973387E290E00E94F233D0CF00
:1056E0004C816B818A810E945E0D9C0138272327A3
:1056F00032272D833E83C4CF2D813E81322723273D
:1057000032274C816B818A810E94C30CB9CF0E94E1
:10571000F714B6CF80E18A83B3CF82E08A8384E432
:105720009ECF8C818D3108F0ABCFCA80DB80DC242A
:10573000CD24DC247601E80EF11C8E010B5F1F4F97
:10574000EC14FD0409F49CCF80E0E4E4CE16E2E022
:10575000DE0628F4C60184549E4F0E94D433D8013B
:105760008D938D01BFEFCB1ADB0AEACF8091BC0687
:105770009091BD06892B09F483CF8C818D3108F07F
:105780007FCF0A811B811027012710276E01EFEFC1
:10579000CE1ADE0A7601E80EF11CCE14DF0409F4FD
:1057A0006FCF0434F2E01F0740F4D60114966C91D9
:1057B000C80184549E4F0E94F2330F5F1F4FBFEF0A
:1057C000CB1ADB0AEACF0E94EF0C5ACF83E0A3CFBB
:1057D0008C818D3108F054CFCA80DB80DC24CD244D
:1057E000DC247601E80EF11C8E010B5F1F4FEC14D8
:1057F000FD0409F445CF80E0E0E2CE16E1E0DE06EC
:1058000020F4C60188960E94D433D8018D938D016F
:10581000BFEFCB1ADB0AEBCF8C81E82EF12C8D3158
:1058200008F02ECF0A811B81102701271027003294
:10583000E1E01E0708F024CF80E291E0801B910B8D
:105840008E159F0508F41CCF8091BC069091BD0673
:10585000892BE9F54801F8E28F0E911C00FBCC245E
:10586000C0F8D12C00FF0DC0C80187960E94D43328
:105870009D81292F382FC90181159C4711F48FEF85
:105880008D83C8018E0D9F1D570180FF18C041E018
:10589000A41AB10835E0632E712C6C0E7D1E6A0CC3
:1058A0007B1CC4018E0D9F1D0E94D433D3012C910B
:1058B000922F81159C4719F48FEFF3018083FE012D
:1058C0003196EC0DFD1D2FEFCA14DB0430F0FE0104
:1058D00031966F01EE0EFF1E1DC044818581942F0D
:1058E00081159C4711F42483258342E0C40ED11C0A
:1058F0003296EACF003281E0180738F4D6011496C8
:105900006C91C80188960E94F2330F5F1F4FBFEF62
:10591000CB1ADB0ACE14DF0469F7B2CE8091BC0645
:105920009091BD06892B09F4ABCE40E250E0BE0158
:105930006F5F7F4F82E00E94560CFFEF21EE34E054
:10594000F15020403040E1F700C0000037CB88E044
:10595000E3E7F1E0DE01919601900D928A95E1F77F
:10596000FE0132968FE1DF011D928A95E9F786E00C
:10597000898388E07F96DE0115969FCE80EE89832D
:105980001A821B821C827CCE8B819C81A92FAA0F3C
:10599000AA0BBA2F25E0880F991FAA1FBB1F2A95B3
:1059A000D1F7803EEFEF9E07AE07BE0708F068CE46
:1059B000803E9105A105B10508F062CEAC01BD01A4
:1059C000405E5F4F6F4F7F4F413E5105610571054E
:1059D00010F040EE50E0481B590BBC016A5C754F5B
:1059E000CE0101960E949E334BCE4AE150E06FEF0C
:1059F00070E0CE0107960E94BD338091BC0689837A
:105A00000A831B821C8281E08D834ACE81E08093D1
:105A10001F071092200782E38093BA061092BB06FC
:105A20000E9438128093B8069093B90629CE0115CA
:105A30001105A9F1D0900607C0900707E090B806BD
:105A4000F090B9060E9438128E199F09853691058B
:105A500068F1C1FA442440F8512CD0FA222420F8ED
:105A6000C2018221892B11F10E9438128093B8065D
:105A70009093B9068091BA069091BB0601978093E6
:105A8000BA069093BB06892B51F410921F0710920F
:105A9000200781E08093BC061092BD0600E0809153
:105AA000BC0689830A838091BA06D9CD82E38093AC
:105AB000BA061092BB06F3CF1092BC061092BD0638
:105AC000DFCD0B811C8140E250E06FEF70E0CE0132
:105AD00001960E94BD3326EA39E042E050E080E0C2
