:1000000065C4000080C400007EC400000C94D220AF
:100010007AC4000078C4000076C4000074C40000F4
:1000200072C4000070C400000C949C250C946826D7
:100030000C94001E68C4000066C4000064C4000084
:1000400062C4000060C400005EC400005CC4000024
:100050005AC400000C94771E56C4000054C400001B
:1000600052C4000050C400004EC400004CC4000044
:100070004AC4000048C4000046C4000044C4000054
:1000800042C4000040C400003EC400003CC4000064
:100090003AC4000038C4000036C4000034C4000074
:1000A00032C4000030C400002EC40000808182836E
:1000B0008485868788898A8B8C8D8E8F9091929388
:1000C00094A0A1A2A3A4A5A6A7A8A9AAABACADAED3
:1000D000AFB0B1B2B3B4C0C1C2C3C4C5C6C7C8C94A
:1000E000CACBCCCDCECFD0D1D2D3D400202020507B
:1000F0006F7765726564204279002D006F6E002075
:1001000053636C4C3A002D006F6E00204361704CBD
:100110003A002D006F6E004E756D4C3A00556E64BE
:100120006566696E65640041646A7573740A00529D
:10013000616973650A004C6F7765720A00446566F1
:1001400061756C740A004C617965723A20005369DC
:100150006D706C65204B65790014001A000800155D
:10016000001700000004001600070009000A000044
:10017000001D001B000600190005002602E100E03A
:10018000002B00E200427E2C00130012000C00182D
:10019000001C00000033000F000E000D000B0000DB
:1001A000003800370036001000110027022D0035FE
:1001B000044C002A00417E28000000000046004A4E
:1001C000004B0000002900000047004D004E0000D9
:1001D000002B00E3004800000000002F0201000196
:1001E00000010001000100010000003D003C003B57
:1001F000003A0000000000410040003F003E0000C7
:1002000000000045004400430042003002010001AC
:100210000001000100010001001E021F0220022156
:1002200002220200002302240225022602270200E5
:10023000002F0030002D002E0035042F000100019A
:10024000000100010001000100290062006100605E
:10025000005F000000520053005E005D005C000083
:1002600000510037005B005A00590030004F005029
:1002700000010001000100010000AE00AF00DA1231
:1002800081FFD9F1DB20A4A62EAF00A0C0D30000CF
:10029000A1C8D30000AED580A83F408D1420000730
:1002A000087F0807003E5B4F5B3E003E6B4F6B3E96
:1002B000001C3E7C3E1C00183C7E3C18001C577DF8
:1002C000571C001C5E7F5E1C0000183C180000FFDD
:1002D000E7C3E7FF00001824180000FFE7DBE7FF93
:1002E0000030483A060E00262979292600407F056D
:1002F000050700407F05253F005A3CE73C5A007F38
:100300003E1C1C0800081C1C3E7F0014227F221487
:10031000005F5F005F5F0006097F017F0000668964
:10032000956A0060606060600094A2FFA29400087B
:10033000047E04080010207E20100008082A1C08F3
:1003400000081C2A0808001E10101010000C1E0CBB
:100350001E0C0030383E383000060E3E0E060000FF
:10036000000000000000005F000000000700070020
:1003700000147F147F1400242A7F2A1200231308FC
:100380006462003649562050000008070300000050
:100390001C224100000041221C00002A1C7F1C2A54
:1003A0000008083E080800008070300000080808B7
:1003B0000808000000606000002010080402003EF1
:1003C0005149453E0000427F40000072494949467C
:1003D000002141494D33001814127F100027454574
:1003E0004539003C4A49493100412111090700368D
:1003F0004949493600464949291E000000140000B9
:1004000000004034000000000814224100141414BD
:100410001414000041221408000201590906003E8C
:10042000415D594E007C1211127C007F49494936CA
:10043000003E41414122007F4141413E007F494908
:100440004941007F09090901003E41415173007F84
:100450000808087F0000417F4100002040413F0123
:10046000007F08142241007F40404040007F021C72
:10047000027F007F0408107F003E4141413E007F23
:1004800009090906003E4151215E007F09192946EC
:100490000026494949320003017F0103003F4040E3
:1004A000403F001F2040201F003F4038403F006376
:1004B00014081463000304780403006159494D4390
:1004C00000007F414141000204081020000041412A
:1004D000417F00040201020400404040404000000F
:1004E00003070800002054547840007F2844443813
:1004F00000384444442800384444287F0038545489
:1005000054180000087E09020018A4A49C78007FFB
:10051000080404780000447D4000002040403D0075
:10052000007F102844000000417F4000007C0478D8
:100530000478007C0804047800384444443800FC03
:10054000182424180018242418FC007C080404082B
:100550000048545454240004043F4424003C4040C8
:10056000207C001C2040201C003C4030403C0044CB
:1005700028102844004C9090907C004464544C44D3
:1005800000000836410000000077000000004136FE
:100590000800000201020402003C2623263C000061
:1005A0000000000000404040F0F8F8FF38FFF8F885
:1005B0003FF8F8FF38FFF8F8F04040400000000036
:1005C000000080C0C0C0800000C0C080000000806B
:1005D000C0C000C0C0000080C0C00000000000C05B
:1005E000C0C0C0C000C0C00000000000000000008B
:1005F00000000000000000000000000000000000FB
:1006000000000000000000000000000000000000EA
:100610000000000000000000000000000000C0F02A
:10062000F8FC3E1E06010000007F4141417F007F33
:100630004141417F000080C0E07E5B4F5BFEC00017
:1006400000C000DCD7DEDEDED7DC00C0000000002A
:10065000000000000000000000000000000000009A
:100660000000000000494949FFFFFFFFE0DFBFBF76
:1006700000BFBFDFE0FFFFFFFF4949490000000066
:10068000001F3F6060E0BF1F007F7F071E381E070E
:100690007F7F007F7F0E1F3B716000000000007FA6
:1006A0007F0C0C0C007E7E007F7E0303007F7E03A8
:1006B000037E7E03037F7E000F3E703C063C703E4F
:1006C0000F00327B49493F7E007F7E0303001E3FBF
:1006D00069696F2600000000000000000000030FA1
:1006E0001F3F3C7870600000007F4141417F007FE8
:1006F0004141417F00307B7F7830202030787F3B44
:100700000003000F7F0F0F0F7F0F0003000000009A
:1007100000000000000000000000000000000000D9
:100720000000000000010101070F0F7F0F7F0F0F76
:100730007E0F0F7F0F7F0F0F0701010100000000E8
:1007400000000000000001010000000000000000A7
:100750000000000000000000000000000000000099
:100760000000000000000000000000000000000089
:100770000000000000000000000000000000000079
:100780000000000000000000000000000000000069
:100790000000000000000000000000000000000059
:1007A0000000000000000000000000000000000049
:1007B0000000000000000000000000000000000039
:1007C0000000000000000000000000000000000029
:1007D0000000000000000000000000000000001405
:1007E00003730069006D0070006C0065006B0065AC
:1007F00000790000000E0344006E0065006300688D
:1008000000690000000403090409023B0002010022
:10081000A0FA0904000001030101000921110100EF
:1008200001224400070581030800010904010001B9
:100830000300000009211101000122320007058296
:10084000032000011201000200000008FB19000053
:1008500000010102000105010980A10185031901C0
:100860002AB700150126B700950175108100C00553
:100870000C0901A101850419012AA002150126A075
:1008800002950175108100C005010906A101050747
:1008900019E029E7150025019508750181029501E8
:1008A000750881010507190029FF150026FF00952D
:1008B000067508810005081901290515002501950F
:1008C0000575019102950175039101C011241FBEA8
:1008D000CFEFDAE0DEBFCDBF11E0A0E0B1E0E4EFA2
:1008E000F1E502C005900D92A03FB107D9F727E0CE
:1008F000A0EFB1E001C01D92A735B207E1F70E9459
:10090000FD170C94C5287CCBCF9360E08EE491E07A
:100910000E94801960E086E491E00E946F19809146
:10092000100290911102B8D1823009F44FC008F042
:1009300041C0811147C060E08DE391E00E946F19D2
:100940000E94A81CC82F60E087E191E00E946F1907
:1009500084E191E0C0FD02C082E191E060E00E948C
:100960006F1960E08BE091E00E946F1988E091E0E0
:10097000C1FD02C086E091E060E00E946F1960E076
:100980008FEF90E00E946F198CEF90E0C2FD02C0E3
:100990008AEF90E060E00E94801960E08CEE90E0C9
:1009A0000E94801960E08CEA90E00E946F1980E05C
:1009B000CF910895833071F060E08DE191E00E9465
:1009C0008019BECF60E086E391E0B8CF60E08FE2AF
:1009D00091E0B4CF60E087E291E0B0CFFB018234D8
:1009E0002EE79207A9F083342EE79207C1F08134F5
:1009F0009E47F1F48581811541F081E051D543E0B6
:100A000062E081E082D680E0089581E057D5F7CF9B
:100A10008581811511F082E0F1CF82E0F7CF8581E9
:100A2000811519F083E03CD5EECF83E047D5EBCFBD
:100A300081E00895CF93C82F0E94A514811519F065
:100A40008C2FCF91089582E0FCCF8330C8F46830BA
:100A5000B8F44630A8F450E096E0699F400D511D6F
:100A6000112490E3899F400D511D1124FA01EE0FCE
:100A7000FF1FE75AFE4F85919491282F822F0895EA
:100A800021E090E0FBCFE1CF089581E0089581E07F
:100A90000895FBCF089581E0089581E008959ECFE9
:100AA000089508950895FDCF089508950895A6E046
:100AB000B0E0EDE5F5E00C94432849835A839E832A
:100AC0003091F70189819A81311117C03E8131152A
:100AD00089F0211579F09AD5182F682F89819A818C
:100AE00074D569817A81812F0E9423112696E3E0D3
:100AF0000C945F287BD5182FF4CF88D569817A8133
:100B0000F3CFFC01262F4081518162817381848162
:100B10009581CDCFCF93DF93EC0161E0F2DFBE0191
:100B2000B6DF811529F061E0CE01EBDFBE01B1DF58
:100B3000DF91CF9108950F931F93CF93DF93EC0133
:100B400060E0DFDF8C01BE01ADDFBE01C801ABDFBD
:100B5000DF91CF911F910F91089521E030E002C005
:100B6000220F331F8A95E2F7C9016AC4CF93C82FB9
:100B700081E090E00C2E02C0880F991F0A94E2F7E2
:100B80000E944C0F8C2FE9DFCF91089581E00895EA
:100B900081E00895FBCF0895CF93C82F00D48C2F08
:100BA000F7DF8C2FF7DF8FEF94E32CE0815090403C
:100BB0002040E1F700C00000CF91089581E0ECDF14
:100BC0000C949B1E80E0E8DF0C94AC1E0F931F93E7
:100BD000CF93DF938C0161E094DFEC01B8015DDF1E
:100BE000811509F43FC0B801CE0159DF8115D1F15B
:100BF000B801CE010E944B1C8115A1F1B801CE01B4
:100C00000E940F1B811571F1B801CE010E94E61AF6
:100C1000811541F1B801CE010E946912811511F1CF
:100C2000F8018581811581F0CA358CE7D80721F15B
:100C300070F4C1308CE7D807E9F0C3308CE7D807EF
:100C4000B9F0C115DC4769F0C80125DF0CC0CB3510
:100C50008CE7D807A1F0CC35DC47B1F70E94100F24
:100C6000F3CFACDF80E0DF91CF911F910F9108951A
:100C70000E94440FA7DFF6CF0E94170FE5CF0E9416
:100C8000190FE2CF12DF0E94C61D38D00C947A1AD9
:100C900037D00CDF0C94CA1D292F30E048E09111A9
:100CA00002C09C0140E0C90164E0969587956A9571
:100CB000E1F7009711F04C5F9C01C901969587956B
:100CC00096958795009711F04E5F9C01C901969506
:100CD0008795840F089581E008950895CF93DF9359
:100CE000C82FF9DFD82F811511F08C2FF6DF8D2F4B
:100CF000DF91CF9108950895F1CF089580E0FCCF62
:100D00000E94931CF9CFCF930E94931CC82F80910F
:100D1000F2018C1771F0C093F2010E946B1E609378
:100D2000F3017093F4018093F5019093F6018C2FF9
:100D3000E3DFCF910895ADE0B0E0E1EAF6E00C9496
:100D40004428488759876A877B878C879D879111BC
:100D5000A5D71F8286E0FE0138969E012F5F3F4F88
:100D6000D90101900D928A95E1F78D8181110CC016
:100D700029813A814B815C816D817E818F81CDD6C5
:100D80002D96E2E00C946028CE010196C3DE81111D
:100D9000EFCFF6CFFC012481213019F480819181BD
:100DA00068C40895CF93C82F8115B9F08238B9F47B
:100DB0000E94A81C81FD11C089E30E94551DEED739
:100DC0008FEF97EE23E0815090402040E1F700C084
:100DD000000089E30E945B1DE1D7CF91089583381D
:100DE00099F40E94A81C80FDF8CF83E50E94551D50
:100DF000D5D78FEF91EE24E0815090402040E1F76D
:100E000000C0000083E5E6CF843899F40E94A81C56
:100E100082FDE3CF87E40E94551DC0D78FEF91EE8E
:100E200024E0815090402040E1F700C0000087E4BA
:100E3000D1CF8450813A68F48C2F0E94191D8115FE
:100E400021F08C2F0E945B1DA9D78C2F0E94551D6D
:100E5000C3CF8C2F805E883048F481E0C1FD84E0F0
:100E6000C0FD880FC2FD8295F1D6B6CF8C2F855A72
:100E7000833030F48C2F8452990B0E94B71CADCF75
:100E8000C85ACB3108F0A9CFEC2FF0E0EE0FFF1FCE
:100E9000E659FE4F808191810E94DE1C9ECF811514
:100EA00009F447C0823861F40E94A81C81FF41C048
:100EB00089E30E94551D72D789E30E945B1D6EC7AE
:100EC000833851F40E94A81C80FF33C083E50E9440
:100ED000551D64D783E5F1CF843851F40E94A81CD6
:100EE00082FF27C087E40E94551D58D787E4E5CFCD
:100EF000982F9450913A08F3982F905E983050F4C0
:100F0000982F81E091FD84E090FD880F92FD8295FD
:100F1000A3D6D5CF982F955A933020F480E090E057
:100F20000C94B71C885A8B3120F480E090E00C942C
:100F3000DE1C08951F93CF93DF93182FEB0132DF50
:100F4000209731F4812FABDFDF91CF911F9108956E
:100F50008FE99FE00197F1F700C000002197F0CFE3
:100F600060E570E0893311F060E070E0E3CF811557
:100F700011F06CD613C70895811511F06DD60EC708
:100F80000895A0E0B0E0E7ECF7E00C943E286C0197
:100F9000D62FC72FFC011581068102950F704BD605
:100FA000E82E8115E9F0E12E1115D1F08C2F807F0C
:100FB000803461F08D2F805E883098F18C2F807E98
:100FC000803221F4D23068F1011559F18091270364
:100FD00082FF27C082E0FED62ED691E08927E82E38
:100FE0008C2F82958F70883009F4CAC068F58430E0
:100FF000D0F4823008F438C08C2F8F70F82EC07F68
:10100000C03219F0F29480EFF822D13008F456C0C3
:1010100009F47EC0111509F487C0011509F467C0F1
:1010200036C0E12CDDCF09F48FC0E11409F4D8C03B
:10103000FED580FDD5C0F6011582F3D531D2C601AB
:1010400083D1EFD53BD2CCC0893009F40BC18A5F84
:101050008F70823050F7D23F09F011C18C2F8F7101
:1010600011110BC11DD2B9C00C2F0F70C03110F07F
:101070000295007F111581F0011549F08D2F805EDA
:10108000883010F0D11105C0802FE0D587D68D2F84
:1010900021C0802FF2D5FACF8D2F01DF011509F481
:1010A000C4CF8D2F805E883010F0D11103C0802F07
:1010B000D3D502C0802FE7D571D6B7CF8091270353
:1010C00082FD11C0111541F0F11419F08F2DBED51C
:1010D00065D680E067DEA9CF80E0E1DEF11409F497
:1010E000A4CF8F2DE5CF111551F0013018F48F2DBD
:1010F0003EDF9BCF09F099CF8F2DEFD596CF011111
:1011000094CF8F2D39DF8F2DF3D58F2DD8D58DCF5F
:10111000111521F0063008F088CFE9CF053008F02E
:1011200084CF8F2D29DF81CF0115D9F3D93349F42D
:101130008FEF97EE23E0815090402040E1F700C010
:1011400000008D2FACDE71CF8C2F86958695837035
:10115000813060F009F069CF8D2F9C2F93701111B1
:1011600002C080E090E00E94DE1C5FCF8D2F9C2F9C
:101170009370111102C080E090E00E94B71C55CF1F
:101180008C2F8370C1F5111128C04D2F42954695C3
:101190004770440F440F2D2F2F7030E0042E02C0F3
:1011A000220F331F0A94E2F780E090E0D4FF09C0D9
:1011B0008FE090E002C0880F991F4A95E2F7809572
:1011C0009095C695C695C370822B932BC23079F04B
:1011D000C33079F0C13049F03CD10E94931C8CDDC2
:1011E000CDB7DEB7E8E00C945A282CD1F6CF38D131
:1011F000F4CF26D1F2CF111559F1C0FFEECF4D2F0C
:10120000429546954770440F440F2D2F2F7030E0C4
:10121000042E02C0220F331F0A94E2F780E090E010
:10122000D4FF09C08FE090E002C0880F991F4A9553
:10123000E2F780959095C695C695C370822B932B47
:10124000C23061F0C33061F0C13031F05CD1C5CF44
:10125000823008F4C2CFD3CF4FD1BFCF5BD1BDCF47
:101260000CD1BBCFCF70111529F08C2F19D18D2F38
:101270007EDEB3CF8D2F80DE8C2F20D1AECF58F401
:10128000D03FB1F0D13F79F01115B9F1011591F1CD
:101290008D2F88DDA2CFD33FB1F0D43FA9F7809145
:1012A000270382FD18C08C2F8F71111531F3DACE10
:1012B000111539F0053008F090CF8C2F8F710ED1B9
:1012C0008CCF0630F8CF111521F08C2F8F71DFD025
:1012D00084CFDAD082CF111529F063E08C2F8F7183
:1012E00062D57BCF81E076D5023008F476CF82E0FC
:1012F00071D573CF8C2F8F71B5CE011571F0D933A5
:1013000049F48FEF97EE23E0815090402040E1F7C1
:1013100000C000008D2FC3DD60CF8C2F8F71ADCF4B
:101320000F931F93CF93DF93EC01688179818D81B7
:10133000A9D18C01F6D083D0B801CE0122DEDF9195
:10134000CF911F910F910895CF93DF93EC018C8182
:10135000811581F0CE013ADC81110FC06CD481156A
:1013600049F08D81811531F08091270382FF02C001
:1013700082E030D5DF91CF910895CE01D1DFCE014B
:10138000DADBF8CF80E090E00E94B71C80E090E0CC
:101390000E94DE1C83D402C50E94611DF3CF67D476
:1013A000FBCF282F92959F70963099F060F4925F52
:1013B0009F70923030F4203FB1F038F481E0283E45
:1013C00038F080E008959A5FF3CF81E0243FC9F7B9
:1013D000089591E0813F09F090E081E0283E08F017
:1013E00080E0892B089581E00895FC012481211576
:1013F00021F0808191813DD1D4CF80E00895A6E095
:10140000B0E0E5E0FAE00C9444282696E2E00C9483
:101410006028A7E0B0E0EFE0FAE00C9444282796BB
:10142000E2E00C9460280895FECF0895FDCF089562
:10143000FADFFCDF8093120290931302089508955F
:10144000F7CF08952091120230911302822B932B33
:10145000EFCF209112023091130282239323E8CF21
:10146000209112023091130282279327E1CFDBCF24
:101470000895FDCF0895D7CF0895FDDFFADF80935B
:10148000100290931102089580E090E0F6CF21E0E1
:1014900030E002C0220F331F8A95E2F7C901EDCF79
:1014A00021E030E002C0220F331F8A95E2F78091DD
:1014B000100290911102822B932BDFCF21E030E0BC
:1014C00002C0220F331F8A95E2F720953095809154
:1014D00010029091110282239323CFCF21E030E0BC
:1014E00002C0220F331F8A95E2F78091100290917B
:1014F000110282279327C1CF20911002309111024F
:10150000822B932BBACF20911002309111028223AB
:101510009323B3CF20911002309111028227932799
:10152000ACCF0895CF93C1E061FDC4E060FDCC0F66
:1015300062FDC29593E0769567959A95E1F7660FFF
:10154000771F660F771F460F571FFA0140E050E0E4
:1015500090E06191DF019C01042E02C03695279531
:101560000A94E2F72695220B26272C2326272E9372
:101570004F5F5F4F4430510561F7CF910895A82F19
:10158000A77023E0969587952A95E1F7880F991F14
:10159000880F991F680F791FFB0140E050E080E041
:1015A000219130E00A2E02C0369527950A94E2F781
:1015B0002170042E01C0220F0A94EAF7822B4F5F9C
:1015C0005F4F4430510561F70895262F983068F435
:1015D000863058F4682F70E086E0989F600D711D8A
:1015E000112448EF51E0822F9DCF0895292F983084
:1015F00058F4863048F490E068EF71E036E0239FBD
:10160000800D911D1124BBCF80E00895CF92DF9211
:10161000FF920F931F93CF93DF936C010091100201
:10162000109111028091120290911302082B192B34
:10163000CFE0D0E081E090E00C2E02C0880F991F2F
:101640000A94E2F780239123892B61F4219790F784
:10165000F12C8F2DDF91CF911F910F91FF90DF9093
:10166000CF900895FC2EB6018C2FF8D5019771F319
:10167000F0CFCF93DF93EC01C9DFBE01EFD5DF914F
:10168000CF9108950F931F93CF938B019091F70102
:10169000911531F0CB01EDDFCF911F910F9108959E
:1016A000811551F0CB01B2DFC82F682FC8018DDF43
:1016B000B8018C2FD3D5F0CFCB0198DFC82FF8CF4E
:1016C000E1E0F0E0DF0102C0AA0FBB1F6A95E2F77C
:1016D000BD01DF0102C0AA0FBB1F4A95E2F7AD01B1
:1016E0006A2B752B02C0EE0FFF1F2A95E2F79B01B4
:1016F000282339232617370719F48E2B9F2B08959B
:10170000E095F0958E239F230895242F462F682F70
:101710008091100290911102D3DFAFCE0F931F93EF
:101720000091140280911502801303C01F910F9144
:10173000089587E0089FF0011124EA5EFD4F2081A3
:1017400031814281538164817581868162DE0F5FC0
:101750001F4F0770E7CF20914E0230914F0240910A
:101760005002509151026091520270915302809147
:1017700054024FCE80915402803170F48091530214
:10178000811551F0E09114022091150230914F0221
:1017900040914E022E1301C00895BF0187E0E89FDB
:1017A000F0011124DF01AA5EBD4F14968C911497AD
:1017B000811549F111968C911197831324C08C9156
:1017C000841321C015968C91159781111CC0129617
:1017D0008D919D91A0915002B09151028A1B9B0B5B
:1017E000883C910580F4809154028F7080618093D1
:1017F0005402E45EFD4F80818F70806180838EE4AF
:1018000092E0A2DD8BCF6F5F7F4FFB01E770C2CF0D
:10181000E091140290911502E91302C080E008954E
:101820009F0157E0E59FF0011124EA5EFD4F5181D1
:10183000561306C05081581303C05581541305C078
:101840002F5F3F4FF901E770E7CF81E008958F9256
:101850009F92AF92BF92DF92EF92FF920F931F93EE
:10186000CF93DF93CDB7DEB72D970FB6F894DEBFD9
:101870000FBECDBF8C0186E0F801DE011896019005
:101880000D928A95E1F7F801F58084819EE4892E16
:1018900092E0992E90915202911117C0811509F48E
:1018A000EFC0F11409F42EC1C8019FDD811509F4C0
:1018B00029C187E0F801D40101900D928A95E1F7E2
:1018C000C40168DA57DF47DFDBC0E080A280B38065
:1018D000D09053022091500230915102A501421B39
:1018E000530BD11409F4CFC0483C510508F09EC0F9
:1018F000811509F4C5C090914F02918080915402E6
:10190000803108F065C0991226C090914E029E1158
:1019100022C0F11057C08F708061809354021BDF8A
:101920008EE492E011DD80915402F8018683F12C5F
:101930008F2D2D960FB6F894DEBF0FBECDBFDF9171
:10194000CF911F910F91FF90EF90DF90BF90AF90DC
:101950009F908F900895F11035C040E0692D8E2D35
:1019600057DF40E0692D8E2D53DFF82E8111DFCF38
:10197000888599857EDE292F22952F70903450F42A
:101980009F70223078F0911591F0F8019681903196
:1019900070F4CECF2A5F2F70223070F0C801D4DCF3
:1019A000FD2CC6CF911519F0811509F4C1CF805EC9
:1019B000883008F4BDCFF2CF803F08F4B9CF815F03
:1019C0008330F7CF80915402816080935402AFCF6F
:1019D000991207C090914E029E1103C0F11409F4B0
:1019E00073C0C80102DD811509F48CC0F11409F43B
:1019F00089C080915402803280F020914E02309153
:101A00004F0229833A83AB82BC82909152029D831C
:101A10001E828F83CE01019697DC87E0F801AEE449
:101A2000B2E001900D928A95E1F74CCF909154026B
:101A3000903188F4488559856A857B858C859D859C
:101A4000DEDC8EE492E080DCF40187E011928A957E
:101A5000E9F781DE6CCF811599F020914F028181E9
:101A60002813BFCF80914E028E11BBCFF110B9CF9A
:101A70009683C80169DCF40187E011928A95E9F741
:101A8000FF24F39455CF483C510508F03EC0811522
:101A9000B9F3F114B9F190914F028181981329C0E3
:101AA00080914E028E1125C08091540280FD18C095
:101AB0008031B0F08683807F803F39F08681982F17
:101AC000907F905F8F70892B8683C8013DDC87E013
:101AD000F801AEE4B2E001900D928A95E1F7F3CE01
:101AE00087E0F801AEE4B2E001900D928A95E1F74B
:101AF000C7CFC8017ADC811190CF809154028160F8
:101B000080935402C80120DCBBCF488559856A8583
:101B10007B858C859D8573DC97CFAEE0B0E0E3E9F3
:101B2000FDE00C944328288739874A875B876C87B8
:101B30007D878E87CE0108968ADE6C85811599F0A7
:101B4000611539F0288539854A855B857D858E85C7
:101B500060DC809114029091150289133DC02E968D
:101B6000E3E00C945F2887E09E01285F3F4FF90176
:101B700027503109D90101900D928A95E1F761153D
:101B800041F3A09115028A2F90E08395877090E031
:101B9000AC01209114022417150691F097E09A9F4A
:101BA000D0011124AA5EBD4F9E012F5F3F4FF90166
:101BB00001900D929A95E1F740931502AFDDC9CFE0
:101BC000EEDB1092150210921402EEE4F2E087E0D0
:101BD00011928A95E9F7BDCF17E0189FC001112433
:101BE0008A5E9D4F34DE811509F4B9CFE09114026D
:101BF0001E9FF0011124EA5EFD4F20813181428158
:101C0000538164817581868104DC809114029091F6
:101C1000150201968770809314029BCF80915E021B
:101C2000089580915D0286958695869508958091A8
:101C30005D028770089590915D02977081E0911127
:101C400001C080E008958091690208959091690231
:101C5000982B9093690208958095982F809169023E
:101C600089238093690208958093690208951092F0
:101C70006902089580916802089590916802982BF6
:101C80009093680208958095982F80916802892327
:101C90008093680208958093680208951092680204
:101CA000089580915F0208950895FECF0895909160
:101CB0005E02981719F080935E02F7CF0895909115
:101CC0005E02292F282329F08095892380935E02C4
:101CD000ECCF08950895FECF089590915F02292FCB
:101CE0002823281721F0982B90935F02F4CF0895B2
:101CF00090915F02292F282329F0809589238093D2
:101D00005F02E9CF08959091270392FF07C0909159
:101D10005F02981719F080935F02DDCF08958091DC
:101D20005F02811521F010925F0280E0D4CF089508
:101D30000F931F93CF93DF93809100019091010146
:101D40008C01C091690280916802C82B80915F026A
:101D5000811529F0C82B0E94051D8111E0DFF801D3
:101D6000C083C0910001D091010148E050E065E5D9
:101D700072E0CE010E947428892B59F088E0FE01A0
:101D8000A5E5B2E001900D928A95E1F7CE010E949F
:101D9000AA1CDF91CF911F910F910895C9CF08958B
:101DA0000895FECF08959091270392FF0EC0982FBB
:101DB000990F990F990F962B90935D0271DB80918B
:101DC0005D02869586958695ECCF6ACB10925D0272
:101DD00080E0E7CF90915D028095892380935D023A
:101DE000282F277059F4891749F09091270392FF03
:101DF00005C086958695869561DBE8CF089590911C
:101E0000270392FB222720F9281749F080FB92F93B
:101E10009093270386E293E043D082E0DBCF0895DE
:101E200080912703002482FF0394802DE8CF81E076
:101E3000E6CF80E0E4CF80E090E0BC01A9C380E081
:101E400090E0BC019FD3F7CFA3E0B0E0EAE2FFE06F
:101E50000C94442850D35BD31B82CE0103966ED3DF
:101E600081E090E0809312021092130273D31982E2
:101E700084E18A83CE0101967ED3E1DF2396E2E0FE
:101E80000C946028E1CF089548C3089535C30895A0
:101E90004AC3089559C308955DC3089560C3089562
:101EA0006AC308957BC30895A6E0B0E0EAE5FFE0C9
:101EB0000C9442280E945F1E8C0180916A029091CE
:101EC0006B028017910779F019821A820E945F1EB7
:101ED000BC0149815A8180E090E00E949B060093FA
:101EE0006A0210936B022696E4E00C945E28D3D22B
:101EF000609378027093790280937A0290937B02C8
:101F000060937402709375028093760290937702C7
:101F1000089508950895FDCF08950895FEDFFBCF3D
:101F20000895FECF08950895FEDFFBCF81E0089568
:101F300087E692E10E941018EDDFF0CF06C5089504
:101F4000089508950895FCDFFCDFFCCF9FDF811129
:101F500001C098DF8CE792E09BDF86E293E09EDF92
:101F600099DF6EDA809110029091110282CA0E946C
:101F7000561E68D2EFD417D4E9DF0E947B060E9478
:101F8000CC1A80E00E945418F2D4CECFA6E0B0E084
:101F9000ECECFFE00C943B28C9DF182F81110EC038
:101FA00083DF10E0D2D40E949C1A11110E94831981
:101FB0000E9483062696EBE00C9457283DD48CE6CD
:101FC000A82E82E0B82E750100E0F701D080802FA6
:101FD000F0D20F5F083009F43EC09FEFE91AF90A0A
:101FE000D81699F380917C0281FDE9D2A7DF982E63
:101FF00000E0802FDED2F82EF50181915F01F81606
:1020000029F18F25C82EE12CDD24D3948D2D8C2130
:10201000B1F09114A1F0E9820A830E945F1E8B83C4
:102020009C8381E08D8391E08D2D8F2109F490E0D8
:1020300049815A816B817C818D810E949B06E3944A
:10204000DD0C8E2D863011F7F501F2920F5F08300E
:1020500081F64DDFA7CFD812C5CFA2CF0F931F9324
:10206000CF93DF93FDD0EC01D23508F050C0D035CE
:1020700008F0C8C0C03ED10530F5CD3CD10508F010
:102080009DC0C83AD10578F4C53AD10508F093C08F
:10209000C130D105B1F1CE010497813A910588F1A3
:1020A000C0E0D0E02EC0CE01885A91094B97C0F70E
:1020B000C85AD0E0CC0FDD1FC056DE4F0990D88142
:1020C000C02DD4641EC0D034A8F4D03208F0ADC006
:1020D000C83ED105B0F0CE0191509F3108F78D2F49
:1020E00062D1082F8C2F90E0BBD0D02FDF71C82F8A
:1020F000D92B07C08C2F90E0B3D0DF70C82FD92B1D
:10210000D06ACE01DF91CF911F910F910895C03811
:1021100082E5D807B8F5C03682E5D80708F056C082
:10212000C03482E5D807C8F4C03282E5D80708F089
:1021300047C08C2F8695869520E2829FC00111248E
:10214000C37021E030E002C0220F331FCA95E2F7CE
:10215000E901C82BD92BDD68D4CF8C2F86958695C5
:10216000877020E2829FC0011124C37021E030E01B
:1021700002C0220F331FCA95E2F7E901C82BD92B01
:10218000DC68BFCFC03C82E5D80750F48C2F8F713C
:10219000C03AD24580F5982F84EF906AEC01B1CF18
:1021A000CE01805C9245809708F07ACFDC2FDF71FA
:1021B000C0EFD06AA6CFA497D064A3CFD065A1CF3B
:1021C0008C2F8F71D82FC1EFD06A9BCF8C2F869523
:1021D0008695877020E2829FC0011124C37021E0A0
:1021E00030E002C0220F331FCA95E2F7E901C82B85
:1021F000D92BDA6886CFD7D0982F80E09F71EC0179
:10220000D0627FCF8C2F8F71CED053E0CC0FDD1FEB
:102210005A95E1F7DF70282F84FF04C090E1899F71
:1022200090011124C22FD0696CCF8D2F8F71BBD03C
:10223000082F8C2F90E014D0302F3F71282F392B8E
:102240003062E9015ECF462F783028F4663018F40A
:10225000672F0C94430580E090E00895F4DFFECEF4
:10226000803E9105D1F1C8F48133910509F481C014
:1022700048F48932910509F471C08A32910509F454
:102280007FC0089589339105E1F082389105C9F046
:102290008533910509F45DC00895843E9105D1F11F
:1022A00048F4823E910531F1833E910541F181EE82
:1022B00090E00895863E9105C1F1873E9105F1F1C8
:1022C000089520912603237009F064C0209127030C
:1022D00023FF14C089E290E008952091260320FD99
:1022E00045C03091270330FF09C024FD24C083EE90
:1022F00090E008952091260322FDF7CF08952091C4
:10230000260322FD44C03091270330FD43C024FF43
:10231000F5CF11C02091270321FFF0CF8091260334
:1023200084FD09C087EE90E008952091260323FFE5
:10233000E5CF24FFF7CF80E090E0089520912603B9
:1023400023FD2BC03091270331FFE1CF84EE90E0D5
:1023500008952091260325FFD1CFBCCF20912603DD
:1023600025FD1EC02091270323FFC8CF89E390E0FD
:1023700008952091260326FFC1CF8AE290E00895B8
:102380002091260326FFBACF81E390E0089582EEE4
:1023900090E0089580EE90E0089586EE90E0089534
:1023A00085E390E008959091260392FF10C041E0EC
:1023B000282F2471243009F040E031E0282F2871C3
:1023C000283009F030E0431711F02CE0822793FF0A
:1023D00010C041E0282F2471243109F040E031E0A1
:1023E000282F2871283109F030E0431711F02CE034
:1023F00082273091270330FF10C051E0282F217130
:10240000213009F050E041E0282F2871283009F0F0
:1024100040E0541711F029E0822731FF10C041E05D
:10242000282F2171213109F040E031E0282F287157
:10243000283109F030E0431711F029E0822794FD9C
:10244000877E0895109228031092290310922A0380
:1024500010922B030895EF92FF920F931F937B012D
:102460008C0173D2811112C00E946B1E9701A801CA
:10247000261B370B480B590BC901DA01809328033F
:1024800090932903A0932A03B0932B031F910F91DC
:10249000FF90EF90089559D2811541F00E946B1E74
:1024A000462F572FBC01CB01BA0108950E946B1E25
:1024B000DC01CB01409128035091290360912A034C
:1024C00070912B03480F591F6A1F7B1FECCF80E0D0
:1024D0000895CF939C01205E3245C1E02032310542
:1024E00038F4FB01C581C11103C08F710E94B6058C
:1024F0008C2FCF910895089580E090E00E9492285B
:102500009C0181E0233E3E4F09F080E0089563EE98
:102510007EEF80E090E00C94B1286FEF7FEF80E0D9
:1025200090E00C94B128CF93DF93EC0182E090E02F
:102530000E948A288883DF91CF910895FC016081F1
:1025400082E090E00C94972883E090E00E948A2833
:1025500090E00895682F83E090E00C949728CF9343
:10256000DF93EC0184E090E00E94922888839983B5
:10257000DF91CF910895FC016081718184E090E04A
:102580000C94B128AB01BC018FE090E00C94A92819
:10259000AB01BC0183E190E00C94A928682F8EE088
:1025A00090E00C9497280895FECF08950895FECFEB
:1025B0000895E82FF0E0EB5CFC4F808108950895CA
:1025C00080EA8A95F1F7089500C00895F9CF08953B
:1025D0000895FECF0895EF92FF921F93CF93DF935C
:1025E00000D000D0CDB7DEB7B0D1182F80913D0319
:1025F00090E08B5C9C4F111509F442C07E012FEFD7
:10260000E21AF20AF70124E011922A95E9F7B701DC
:10261000BAD18115E1F080912C0390E044E050E0C4
:10262000B7018B5C9C4F0E94742821E020937D02AF
:10263000892BC1F410E0BBDF812F0F900F900F901A
:102640000F90DF91CF911F91FF90EF9008958091AF
:102650007D02811579F3F70184E011928A95E9F7FB
:1026600010927D02E0912C03F0E0EB5CFC4F89813D
:102670009A81AB81BC8180839183A283B383DBCFBA
:1026800020912C0330E0BC01C9018B5C9C4F06D229
:10269000A0DFD2CFF894E82FE295EF70F0E041A1EF
:1026A0008F7021E001C0220F8A95EAF7922F909552
:1026B000942391A392A1822F892B82A378940895C9
:1026C000CF93DF93C8E0D1E089918F3F09F0E2DF3B
:1026D00081E0CC30D807C1F7C2E0D1E089918F3FCB
:1026E00009F0D8DF81E0C830D807C1F7DF91CF917A
:1026F0000895A0E0B0E0EFE7F3E10C943E286C0110
:10270000E62EC62FD0E08E01085F1E4FF8018081B3
:102710008F3F09F441C0F894E82FE295EF70F0E0A4
:1027200091A18F7021E001C0220F8A95EAF7892FCD
:10273000822B81A382A12095282322A3789444DFB1
:10274000A2E0B1E031E0F12C2D912F3F79F0E22FA2
:10275000E295EF70E05EF0E0808190E02F7002C0C3
:10276000959587952A95E2F780FF1BC080E0F82AAF
:10277000330F81E0A830B80739F7F80180818F3F27
:1027800009F088DF61E0F11001C060E08E2D1EDFEE
:10279000F601EC0FFD1FF082CDB7DEB7E8E00C9438
:1027A0005A28832FE4CFA6E0B0E0E9EDF3E10C94E2
:1027B000442880910C0181111FC084E98093080195
:1027C00086E68093090187E980930A0186EC80936D
:1027D0000B0186E0E6EDF1E09E012F5F3F4FD9014E
:1027E00001900D928A95E1F786E0F901A2E0B1E04F
:1027F00001900D928A95E1F780910C0191E0892773
:10280000880F880F80933D0394E0981B90932C03CE
:1028100057DFE5E3F3E088E011928A95E9F7EDE20E
:10282000F3E088E011928A95E9F784E046D0BCDEB7
:102830002696E2E00C946028A8E0B0E0E2E2F4E141
:102840000C944128FE013196DF0188E01D928A95A3
:10285000E9F710E00E2FFF2E612F802F9F2D49DF0B
:10286000812F8F5F182F8430B9F748E050E0602F38
:102870007F2D8DE293E00E94742821E0892B99F44A
:1028800020E060913D0370E06B5C7C4F44E08DE2A2
:1028900093E014D0182F9FDE912F982B892F289624
:1028A000E5E00C945D2888E0E02FFF2DADE2B3E079
:1028B00001900D928A95E1F7E4CF0895A0E0B0E091
:1028C000E4E6F4E10C943E287C016B01042FC22F56
:1028D000211579F081E0809380020E945F1E809331
:1028E0007E0290937F0280E0CDB7DEB7E8E00C94E3
:1028F0005A28D0918002D115B1F380917E02909137
:102900007F020E94DE1D059770F310E0A801B70159
:10291000C6010E947428892B31F0A801B701C601B5
:102920000E948128CD2F109280028C2FDDCFCF9373
:102930000E940128C82F811102C00E94FD278C2F00
:10294000CF91089580918402089580918302089523
:10295000FCCF0895ECDF80938302FADF809384023A
:10296000F1DF80930C01F1DF811140C00895EDDFAC
:10297000811101C03EC0089581E0909185029A3096
:1029800008F080E008950F931F93CF93DF93EC013D
:102990008B01809185028A3080F4B801CE017CD011
:1029A000811121C0809185028F3FB1F40E945F1E8A
:1029B000809381029093820209C08091810290915C
:1029C00082020E94DE1D843F914038F780E0DF9153
:1029D000CF911F910F9108958F5F809385028A3068
:1029E00028F781E0F4CF10928502FBCF0C948E2063
:1029F00008950C9491200895CF92DF92FF920F9347
:102A00001F93CF93DF936901E801082F880F110B03
:102A100041155105B1F0F80133E0EE0FFF1F3A9573
:102A2000E1F7E35FFE4F818192818A579D4FE081FC
:102A30002E2F30E04E17510508F49A01A9010E948B
:102A40008128C8010E946F21F82E8115E1F020979E
:102A5000D1F0C80123E0880F991F2A95E1F7FC0106
:102A6000E35FFE4F2381422F50E0C217D10508F4E7
:102A7000AE01835F9E4FFC01648175816A577D4F73
:102A8000C6010E9481288F2DDF91CF911F910F9158
:102A9000FF90DF90CF9008950DC2089545C208952C
:102AA000A0E0B0E0E6E5F5E10C943C28F82EEB015F
:102AB000E42E69015801688179818A819B810E9495
:102AC000E71D643671058105910510F4E11479F074
:102AD00000E010E09801A501B6018F2D8DDF811572
:102AE00039F00E946B1E688379838A839B8381E01F
:102AF000CDB7DEB7EAE00C945828A1E0B0E0E3E8F7
:102B0000F5E10C94422812D58983E091DD01F09122
:102B1000DE01268990E041E02817190609F440E01B
:102B200001E010E0CE0101969C0161EC72E088E0CA
:102B3000B7DF2196E4E00C945E280F931F93CF93A8
:102B4000DF93C091DD01D091DE0141E02D853E850E
:102B500080911002909111022817390709F440E082
:102B600002E010E020E132E065EB72E084E098DF03
:102B7000811589F041E02F8538898091120290916A
:102B800013022817390709F440E022E132E061EB33
:102B900072E085E085DFDF91CF911F910F9108955D
:102BA000A4E0B0E0E6EDF5E10C9440286091BD02B0
:102BB0007091BE028091BF029091C0020E94E71DF9
:102BC0007B018C0140D8898394E6E916F104010564
:102BD000110508F04AC0E091DD01F091DE0111E03D
:102BE0009289981301C010E045D88A83111109C059
:102BF000E091DD01F091DE0111E09389981301C0AD
:102C000010E04FD88B83111109C0E091DD01F091E4
:102C1000DE0111E09489981301C010E00E940E0EAD
:102C20008C83111107C0E091DD01F091DE019589DF
:102C30008917B1F000E010E0980144E050E0CE01C7
:102C40000196BC0187E0D8DE811559F00E946B1E09
:102C50006093BD027093BE028093BF029093C00246
:102C600081E02496E6E00C945C2811E0BDCFA1E061
:102C7000B0E0EDE3F6E10C94422855D68983E0916B
:102C8000DD01F091DE0141E09189981301C040E03F
:102C900001E010E0CE0101969C0169EB72E086E054
:102CA000FFDE2196E4E00C945E28A4E0B0E0EBE5C2
:102CB000F6E10C9442286091AD027091AE028091D1
:102CC000AF029091B00283D711E06436710581059F
:102CD000910500F1E0DBDC01CB010296A11DB11DE5
:102CE00089839A83AB83BC8300E010E0980144E0C1
:102CF00050E0CE010196BC0183E07EDE182F8115E5
:102D000049F0E9D76093AD027093AE028093AF02B1
:102D10009093B002812F2496E4E00C945E28A5E005
:102D2000B0E0E5E9F6E10C943C285B01E090DD01C0
:102D3000F090DE0101E010E0CE0105969C0140E03C
:102D400050E0BA0180E058DE182F811509F444C024
:102D500067018FEFC81AD80A6091A5027091A60288
:102D60008091A7029091A80232D76436710581053F
:102D7000910558F104E010E0CE0101969C0140E07D
:102D800050E0BA0181E038DE182F64E070E0C6013F
:102D900004D49D8198132BC0111549F19CD76093E1
:102DA000A5027093A6028093A7029093A80289813E
:102DB0009A81AB81BC818093A1029093A202A093DF
:102DC000A302B093A40281E013C064E070E0C601E6
:102DD000E4D39D818913CECFF70181819281A381B4
:102DE000B48189839A83AB83BC831111E0CF80E0E7
:102DF0004091A1025091A2026091A3027091A4029D
:102E0000F50140835183628373832596EAE00C9435
:102E10005828A0E0B0E0EFE0F7E10C943C287C01FA
:102E20006B015A01A9DD0AE010E0811102C001E046
:102E300010E0C1E0D0E0B601C701F50109958111AC
:102E400015C021960C171D078CF0CC9F9001CD9FCB
:102E5000300D300D112480E090E045E34A95F1F704
:102E60000000019682179307C1F7E5CFCDB7DEB713
:102E7000EAE00C9458280F931F93CF93DF93EC0153
:102E80006091DD017091DE016B5F7F4F44E050E0A7
:102E90000E94742841E0892B09F440E004E010E02E
:102EA0009E0169EA72E082E0FBDDDF91CF911F9124
:102EB0000F9108950F931F93CF93DF93EC018B0134
:102EC0004FE856E1A6DF811106C080E0DF91CF9187
:102ED0001F910F9108954BE357E1B801CE0199DF9F
:102EE000811599F345E556E1B801CE0192DF8115D0
:102EF00061F34DE955E1B801CE018BDF811529F36E
:102F000047E356E1B801CE0184DF8115F1F240EDCF
:102F100055E1B801CE017DDF8115B9F24DE755E1EC
:102F2000B801CE0176DFD2CFFF920F931F93CF93DC
:102F3000DF938C01C091DD01D091DE01CE010196BD
:102F400024E0FB01DC0101900D922A95E1F764E099
:102F500070E023D38883FE01359684E0D801019088
:102F60000D928A95E1F789859A85AB85BC8540915C
:102F70009D0250919E0260919F027091A002841761
:102F80009507A607B70759F080939D0290939E027C
:102F9000A0939F02B093A002BC01CD015CDA8D85A5
:102FA0009E8580931002909311028F85988980935B
:102FB0001202909313028989B3D48B89182F8C89BC
:102FC000082F8D89F82E8A890E94340E812F0E9445
:102FD0004B0E802F0E94830E8F2D0E94570E8E89DC
:102FE000811531F090D1CDB7DEB7E5E00C945D28C6
:102FF00081D2F9CF0C94C60F0895FBD50E94FB2215
:103000000E94980F0E9413230E94B70F0E941C2356
:103010000E941F23EFDF0E9435230E94A30FF8CFE9
:103020008093F0019093F1010895AB0124E630E024
:10303000BC0188E71AD79C0181E0232B09F080E0CE
:103040000895AB0124E630E0BC0188E768D79C0115
:1030500081E0232B09F080E008950F931F939B01DB
:1030600004E610E0AC0160E488E7B5D79C0181E09C
:10307000232B09F080E01F910F910895C5C6089594
:103080000895EEE3F3E0DF0180E094E01D92019704
:10309000E9F7E0934407F09345078FEF9FEF8093A4
:1030A0001003909311030895CF93EADF0E941A054D
:1030B00090E480FF90E880930C0390930B03DEDF95
:1030C0006BE070E084E992E0BCDF811104C0C0E0F5
:1030D0008C2FCF91089580910C0365E070E081FD05
:1030E00025C08FE892E0ADDF811589F36DE070E0D7
:1030F0008DE792E0A6DFC82F811549F3ECD5DC01FE
:10310000CB01805A9541AF4FBF4F809340079093BA
:103110004107A0934207B0934307B3DF81E0809358
:103120000F0380930E0310920D03D2CF8AE892E032
:10313000DACF20910B0336E0839FC0011124269F34
:10314000800D911D1124943014F080E090E0825C99
:103150009C4F80934407909345070895209144071E
:10316000309145072853334040910B03642F70E0A2
:10317000C9010E941A28481B463010F4240F311D43
:10318000343010F020E030E0225C3C4F20934407C4
:103190003093450708951F93CF93DF93162F8A30FE
:1031A00031F481E06ED0DF91CF911F9108958D3081
:1031B00011F480E0F7CFC0914407D091450796E025
:1031C000FE01A5ECB2E001900D929A95E1F7803EE8
:1031D000A8F086E019928A95E9F711111BC0C091F9
:1031E0004407D091450746E050E0BE0185EC92E0EF
:1031F0000E947428892BE1F4B1DFD5CF96E0899F36
:10320000B001112461567D4F46E050E0CE010E948E
:103210006B28E3CFE0914407F09145079F012A5FB7
:103220003F4F2E173F07D9F2808180958193F9CFC8
:10323000CE53D340CE0126E0969587952A95E1F7A7
:1032400021E030E0A90102C0440F551F8A95E2F742
:10325000CA014091100350911103842B952B2596A0
:1032600046E0D695C7954A95E1F702C0220F331F75
:10327000CA95E2F7822B932B80931003909311034E
:10328000BBCFCF93382FE0914407F0914507EE5321
:10329000F34020910B03622F70E0CF010E941A28A7
:1032A000281B822F311569F066E00E940E28C82F76
:1032B000C11102C0CF910895C15060E080E26BDF80
:1032C000F7CF8E0F9F2F911D943010F080E090E08B
:1032D000825C9C4F8093440790934507EBCF1F93EC
:1032E000CF93DF93EC01162FFE018491811104C06E
:1032F000DF91CF911F910895612F4DDF2196F4CF7B
:10330000EEDF81E0BECFCF93C0910F03C11105C0A6
:10331000C0910E038C2FCF910895DDD4DC01CB0139
:10332000805A9541AF4FBF4F80934007909341071C
:10333000A0934207B093430780910E038111EACF17
:1033400062E070E08BE792E07CDE811509F381E0BA
:1033500080930E03DFCFA0E0B0E0E1EBF9E10C9445
:103360003528382E8091100390911103892BC1F0DC
:1033700080910F038115A1F080910D03811110C080
:10338000C2DF00E010E03801639420911003309117
:1033900011032115310521F0011541F0311006C04E
:1033A000CDB7DEB7E1E10C9451281F5F812F90E08B
:1033B0004301012E02C0880C991C0A94E2F7A40173
:1033C00042235323452B89F320910C0320FD35C064
:1033D00096958795282F10FB442746F9342F315CAA
:1033E0004093570180935A013093580120935B0119
:1033F00067E070E085E591E018DE811589F220E450
:10340000129FC001112420910C0320FD20C060E414
:1034100070E0825C9C4F21DE811509F4C1CF0F5F03
:1034200080949094809110039091110388219921A8
:103430008093100390931103A8CF912F990F990FA8
:10344000990F492F995F392F80E027E0C9CFEBEC26
:10345000F2E020E411922A95E9F7A7EEB1E06FEDD2
:1034600071E0ED91EB012991BE01422F480F592FD8
:10347000511D2A01F0E0E553FD4F20E030E047E028
:10348000B42EB21AD62C022E01C0DD0C0A94EAF733
:10349000E201C25CDC4FE12CF990FD204B2D4E196E
:1034A0004770C42E50E0AF2C042E01C0AA0C0A9421
:1034B000EAF7519541955109477001C0F6944A9534
:1034C000EAF7FA2840814F294083E3944E2D483093
:1034D00019F72F5F3F4F31962830310581F62FEED7
:1034E00031E02A173B0709F0BCCF60E470E08BECB9
:1034F00092E091CFCF93C0910F0380910E03C11141
:1035000006C091E08927C82F8C2FCF91089581158F
:10351000D9F362E070E089E792E093DD811103C0A6
:10352000C0910E03F1CF10920E03EECF80910E03E7
:1035300008950C948404089580910F03811559F126
:1035400080913E0790913F0739D3C29748F0B7D397
:1035500080933E0790933F0760E080E0EADDE9DF7B
:1035600080E0F9DE80910E038115A9F0B4D320919B
:103570004007309141074091420750914307DC01D9
:10358000CB01821B930BA40BB50B8F3F9F4FAF4F0B
:10359000BF4708F4AFCF08950895FC01680F791F65
:1035A0008FEF41E3E617F70709F408959191892712
:1035B00028E030E0982F990F87FF06C0892F8427D5
:1035C00021503040B9F7EECF892FFACFCF93DF9358
:1035D000EB0186319C4709F50E94230E9D819115D0
:1035E00099F08A7A91E0811101C090E090931203E2
:1035F000811541F085E359D20E94CE0E80E0DF9123
:10360000CF91089589E2F7CF80911203811519F0C7
:1036100085E351D2F1CF89E2FCCF81E0F0CFCF93A7
:10362000DF93EC01FB018581811509F4CBC09E017C
:1036300030572332310508F0ABC086E293E00E9498
:103640004E0FFE01E150F047E232F10520F4E9535C
:10365000F74D0C942E2880912603816080932603D9
:1036600090C0809127038860809327038AC080914F
:1036700026038260F3CF809126038460EFCF809190
:1036800026038860EBCF809127038160EDCF809186
:1036900027038260E9CF809126038061DFCF80918C
:1036A00026038062DBCF809126038064D7CF0E94FF
:1036B000CF09809126038068D1CF809126038C604A
:1036C000CDCF809127038360CFCF809126038E7F5B
:1036D000C5CF80912703877FC7CF809126038D7F39
:1036E000BDCF809126038B7FB9CF80912603877F42
:1036F000B5CF809127038E7FB7CF809127038D7F31
:10370000B3CF809126038F7EA9CF809126038F7D32
:10371000A5CF809126038F7BA1CF0E94CF098091F6
:1037200026038F779BCF80912603837F97CF80914D
:1037300027038C7F99CF90912603892F8B7F92FF4F
:103740008460877F92FF886089CF80912703982FBC
:10375000909590FB80F990FB81F986CF909126039C
:10376000892F8F7B96FF806479CF0E94CF0990913B
:103770002603892F97FB87F9805870CF81E00E943C
:10378000520F86E293E00E94500F0E94CF0980E022
:10379000DF91CF91089580E0F2CF90912603892F99
:1037A0008F7E94FF80615ACF90912603892F8E7F60
:1037B00090FF816053CF90912703892F877F93FFDC
:1037C000886052CF81E0E4CF0F931F93CF93DF93B4
:1037D000C42FD22FFC0185818115C9F040931503B8
:1037E0006ED280931303909314038C2F805E8830E5
:1037F00048F481E0C1FD84E0C0FD880FC2FD8295E0
:103800000E94B707DF91CF911F910F9108951091FA
:103810001503141333C08091130390911403CED178
:10382000883C910558F5CD2FC05E1D17C1F0812F42
:10383000805E883048F481E011FD84E010FD880F3F
:1038400012FD82950E94BC07C83048F481E0D1FD8A
:1038500084E0D0FD880FD2FD82950E94B707802FAB
:103860000E94B00781E0D1FD84E0D0FD880FD2FD39
:103870008295C83038F60E94BC07C4CF8C2F805E7A
:10388000883008F0BFCF81E0C1FD84E0C0FD880F23
:10389000C2FD8295F0CF0F93FC01CB01E851FC47AC
:1038A000E730F10588F5E751F74D0C942E2806E234
:1038B00021EE41EE6AE17CE787DF80E00F91089519
:1038C00007E225EE45EE6BE17CE7F6CF06E221EE5E
:1038D00040EE68E17CE7F0CF07E225EE44EE69E1D7
:1038E0007CE7EACF06E221EE42EE6CE17CE7E4CF32
:1038F00007E225EE46EE6DE17CE7DECF08E221E04F
:1039000045EE6EE17CE7D8CFFB01858181111092F5
:10391000150381E0D3CF80931B0390931C0308957C
:1039200080931603089511D8811103C08091160366
:103930000895E0911B03F0911C03309739F001903A
:10394000F081E02D309711F00995089580E00895F9
:10395000EACF0895E0911B03F0911C03309731F0FA
:103960000280F381E02D309709F009950895A3E0D6
:10397000B0E0EDEBFCE10C94442820911903309168
:103980001A0328173907B1F08093190390931A038B
:10399000E0911B03F0911C03309761F00084F185E6
:1039A000E02D309739F023E029838A839B83CE0171
:1039B000019609952396E2E00C946028A3E0B0E01C
:1039C000E4EEFCE10C944428209117033091180395
:1039D00028173907B1F08093170390931803E091EB
:1039E0001B03F0911C03309761F00084F185E02DFA
:1039F000309739F024E029838A839B83CE01019696
:103A000009952396E2E00C946028409100015091C2
:103A100001019A012E5F3F4F485F5F4F80E0F9013F
:103A200090812F5F3F4F91118F5F42175307B9F776
:103A30000895811591F02091000130910101F90163
:103A40003296285F3F4F9081981731F03196E217F8
:103A5000F307C9F780E0089581E008959C01FC0117
:103A6000329680E09FEF4081461759F031969F3F94
:103A700019F4411101C0982F8F5F8630A1F79F3F45
:103A800009F40895290F311D97FD3A95F9016283D4
:103A90000895FC01329608962191261302C0DF0199
:103AA0001E92E817F907C1F70895682F8091000169
:103AB00090910101D3CF682F809100019091010175
:103AC000E8CFE0910001F0910101329686E0119279
:103AD0008A95E9F708950895FECF08958F5F809342
:103AE0005F0160915C0170915D0180915E01909138
:103AF0005F01F2CF83E080935F0160915C01709180
:103B00005D0180915E0190915F01E6CFE7CF08955E
:103B100081E080935F0160915C0170915D01809113
:103B20005E0190915F01D8CFF3CF089591E08111AC
:103B300001C090E090935E0160915C0170915D0125
:103B400080915E0190915F01C7CF80915E010895E1
:103B500080935D0160915C0170915D0180915E01D7
:103B600090915F01B9CF80915D01089580935C01D0
:103B700060915C0170915D0180915E0190915F01A7
:103B8000ABCF80915C01089508950895FECF08950C
:103B900008950895F9CF0895CF93FADF0E941C1479
:103BA000F8DFC0E08C2F0E94D912811105C0CF5FD1
:103BB000C830C1F7CF91089581E0FCCFCF93DF9358
:103BC000EC017DD08C1B9D0BDF91CF910895EF927E
:103BD000FF920F931F937B018C017DD09701A80169
:103BE000621B730B840B950B1F910F91FF90EF904D
:103BF000089585B7806885BF85B7806885BF0895BB
:103C00001F921FB61F9211248F939F93AF93BF9360
:103C100080911D03811113C0809146079091470741
:103C2000A0914807B09149074196A11DB11D80930D
:103C3000460790934707A0934807B0934907BF9161
:103C4000AF919F918F911F901FBE1F9018958091EB
:103C50004E07843031F10E94420610921D0388E124
:103C600090E020E40FB6F894A895809360000FBE12
:103C70002093600083B7817F846083BF83B78160B6
:103C800083BF7894889583B78E7F83BF0FB6F894EF
:103C9000A895809160008861809360001092600018
:103CA0000FBE08950E94CF090C94480682E084BD9F
:103CB00093E095BD9AEF97BD80936E0008952FB75E
:103CC000F8948091460790914707A0914807B091DA
:103CD00049072FBF08952FB7F89460914607709158
:103CE000470780914807909149072FBF089578941E
:103CF0001F921FB61F9211248F939F93AF93BF9370
:103D00008091460790914707A0914807B0914907D5
:103D10000196A11DB11D8093460790934707A0937C
:103D20004807B0934907BF91AF919F918F911F9022
:103D30001FBE1F90189587E797E780930008909320
:103D4000010888E19AE00FB6F894A8958093600086
:103D50000FBE90936000FFCF88E19AE00FB6F89411
:103D6000A895809360000FBE90936000FFCFEF9204
:103D7000FF920F931F93CF93DF93C82F8B01109265
:103D8000BC0084EA8093BC009ADF7C018091BC0077
:103D900087FF25C08091B900887F883029F0809105
:103DA000B900887F803169F5C093BB0084E88093B7
:103DB000BC0085DFEC018091BC0087FF1CC0209116
:103DC000B900287F80E090E0283181F081E090E028
:103DD000203409F480E091958195910907C0C701CD
:103DE000EDDE0817190790F68EEF9FEFCDB7DEB71F
:103DF000E6E00C945C28CE01E1DE08171907D8F63E
:103E0000F3CF8FEF9FEFF2CF1092B9008CE0809349
:103E1000B80008950F931F93CF93DF93EB01809326
:103E2000BB0084E88093BC004ADF8C018091BC0019
:103E300087FF10C02091B900287F81E090E02832F0
:103E400009F480E0919581959109DF91CF911F91BF
:103E50000F910895CF3FDC0749F3C801AFDEC817C3
:103E6000D90720F78EEF9FEFF0CF6F927F929F924E
:103E7000AF92BF92CF92DF92EF92FF920F931F9378
:103E8000CF93DF93B82EA62E972E6A01890117DFF4
:103E90003C010431110560F10F3F100769F1C801C1
:103EA00064E170E00E941A28F62EE72E6F2D7E2D19
:103EB0008B2D5DDFEC01892B11F5EA2CF92CCE0C52
:103EC000DF1CEC14FD0411F0209711F184E98093BC
:103ED000BC00CE01DF91CF911F910F91FF90EF9029
:103EE000DF90CF90BF90AF909F907F906F9008959C
:103EF000FF24F394E12CDACF85E0F82EFBCF0F3FBF
:103F00001007A1F2C3015ADE0817190778F6D5CFBA
:103F1000B801F70181917F017DDFEC01D2CF6F9273
:103F20007F929F92AF92BF92CF92DF92EF92FF92D9
:103F30000F931F93CF93DF93B82EA62E972E6A016F
:103F40008901BDDE3C010431110560F10F3F10070E
:103F500069F1C80164E170E00E941A28F62EE72E8C
:103F60006F2D7E2D8B2D03DFEC01892B11F5EA2CB3
:103F7000F92CCE0CDF1CEC14FD0411F0209711F18C
:103F800084E98093BC00CE01DF91CF911F910F9106
:103F9000FF90EF90DF90CF90BF90AF909F907F9079
:103FA0006F900895FF24F394E12CDACF85E0F82E8A
:103FB000FBCF0F3F1007A1F2C30100DE081719075E
:103FC00078F6D5CFF7018491B80124DFEC018FEFAB
:103FD000E81AF80AD0CFA0E0B0E0E1EFFFE10C94DE
:103FE0003828B82EA62E942E852E6901E80167DEAA
:103FF0003C010431110510F10F3F100719F1C80100
:1040000064E170E00E941A28F62EE72E6F2D7E2DB7
:104010008B2DADDE8C01892BC1F0CF3FDC07B1F3D6
:10402000C301CCDDC817D90788F784E98093BC00A9
:10403000C801CDB7DEB7EEE00C945428FF24F3940A
:10404000E12CE4CF85E0F82EFBCFBE018A2DE2DE25
:104050008C01E92CF82CCE0CDF1CEC14FD0429F3A8
:104060000115110511F7BE01F70181917F01D2DE23
:104070008C01F3CF8EE14A9B02C08150E1F74A9B4D
:10408000FECF08955A9880E28A95F1F75A9A0895DA
:10409000FC018BE08A95F1F728E080E090E031E0C8
:1040A00040E14A95F1F7880F4A9B02C0816093274F
:1040B00042E04A95F1F7000040E14A95F1F72150BE
:1040C00079F720E12A95F1F729B132E03A95F1F735
:1040D000000030E13A95F1F731E022FD932720818D
:1040E000920F90830895A1E0B0E0E8E7F0E2C8C73E
:1040F00019828C017C01E60EF11CBCDFCE01019619
:10410000C7DFF80181938F01EE15FF05B1F781E05C
:104110009981911180E02196E6E0CEC7529A5A9A91
:10412000089552985A9AEA9AE9E6F0E080818F7CE5
:10413000808308956150770B91E001C0990F6A95D3
:10414000EAF7692F90E021E0611108C0911591F024
:104150005A9A80E28A95F1F75A980895362F3823B3
:1041600039F05A9A922730E23A95F1F76695ECCFFA
:104170005A98F9CF5A98EDCFFF920F931F93CF9390
:10418000DF93EC018C01060F111D8991F82E7ADF67
:1041900068E08F2DCFDFC017D107B9F7CDB7DEB7F5
:1041A000E5E08BC71F920F920FB60F9211240F9369
:1041B0001F932F933F934F935F936F937F938F93AF
:1041C0009F93AF93BF93EF93FF93CF93DF930F92A0
:1041D000CDB7DEB719824EDFCE01019659DF082F29
:1041E000069506950695282F22952570902F957097
:1041F000920F292F237096959695920F9827977076
:104200008981892B09F055C00A3008F052C080E13D
:104210008A95F1F75A9A529A82E08A95F1F700C08E
:104220005A9888E0089F80011124D801A35FBE4FEF
:104230001696ED91FD911897309791F06091DD0100
:104240007091DE0114962D913D91260F371F159721
:104250008D919D91680F791F4C9113978C910995C1
:10426000F801E35FFE4F6381611549F02091DD01A4
:104270003091DE0184819581820F931F7DDF02DF03
:1042800080E18A95F1F75A9852985A9A80E18A9576
:10429000F1F7F801E35FFE4F6081611549F020916D
:1042A000DD013091DE0181819281820F931F1BDF3E
:1042B000E1DE0F90DF91CF91FF91EF91BF91AF9130
:1042C0009F918F917F916F915F914F913F912F912E
:1042D0001F910F910F900FBE0F901F9018950F9385
:1042E0001F93CF93DF93EC010A970CF05EC0F89414
:1042F000529A5A9885E08A95F1F700009C2F96957E
:1043000095708C2F8570980F892F83709695969550
:10431000292F93E0CC0FDD1F9A95E1F7280F822F0C
:104320008C2B082FAFDE00C068E0802F03DF80E118
:104330008A95F1F752985A9A4A9B30C087E090E0EC
:104340004A992EC0FE01E35FFE4F6381611559F06B
:104350002091DD013091DE0184819581820F931FD0
:10436000C2DE8115F9F086DE80E28A95F1F75A986F
:10437000529A80E18A95F1F7C35FDE4F688161153B
:1043800049F02091DD013091DE0189819A81820F0F
:10439000931FF2DE77DE789481E008C000C0CCCFB6
:1043A000019749F4529A5A9A789480E0DF91CF911C
:1043B0001F910F91089500C0C3CF089508959B01E8
:1043C000BA0190914E079430D9F48F708093E90030
:1043D0009FEF8091E80085FD06C085ED8A95F1F795
:1043E00000009150B1F78091E80085FF09C040E0DE
:1043F00050E0C901ADD18091E8008E778093E8004C
:10440000089543E050E0BC0182E0D9CFCF93DF9321
:10441000EC019BDB48E050E0BE0181E0D0DF88E0AA
:10442000FE01AEE1B3E001900D928A95E1F7DF91D4
:10443000CF91089580914D07811107C010D360D3AB
:104440008091E20084608093E200089510924D070D
:1044500008955EDB81E06ACB60914A0781E06111DB
:1044600001C080E047CB90914E0781E0943009F085
:1044700080E060914A074ACB42E061EC81E06BD278
:1044800042E261EC82E067D290914E0781E0943085
:1044900009F080E060914A0721CB80915007893074
:1044A00081F148F4823009F496C0833009F457C092
:1044B000813041F008958A3009F480C08B3009F4CE
:1044C00068C0089580914F07813A09F047C08091F4
:1044D000E800877F8093E80080915307909154070C
:1044E000892B59F060E080E090E070E07DD1809110
:1044F000E8008B778093E800089568E08EE193E010
:10450000F4CF80914F07813249F580915307909104
:104510005407029718F58091E800877F8093E800A0
:104520008091E80082FF16C02091F3008091F20094
:10453000922F029731F48091F100813011F0863092
:1045400019F48091F10004DB8091E8008B7780936F
:10455000E80035C280914E078111E2CF0895809125
:104560004F07813AD9F78091530790915407892BCF
:10457000A9F78091E800877F8093E8008091E800A8
:1045800080FFFCCFE2DA8093F1008091E8008E7723
:10459000DECF80914F07813209F7809153079091C8
:1045A0005407892BD9F68091E800877F8093E80033
:1045B00006D280915107BADA0C94CF0980914F0747
:1045C000813261F68091E800877F8093E800F7D11F
:1045D00080915207CBCA80914F07813A09F0BECF34
:1045E0008091E800877F8093E8008091E80080FF59
:1045F000FCCFC7DAC8CF84B7877F84BF0FB6F894E3
:10460000A89580916000886180936000109260009E
:104610000FBE80E890E00FB6F8948093610090930D
:1046200061000FBE81CA1BD26BD2E2EEF0E0808146
:10463000846080837894C8C480E691E06CC98091DE
:104640004E07853029F480914E07853011F02ACB32
:104650000895FDDAA1DA8115B1F380914C07811537
:1046600091F360D00E94CF09EECF08959A01409156
:1046700055075091560700C0492F50E0433051056F
:10468000D1F078F44130510509F43DC04230510574
:1046900071F48BE390E049E058E0F90140835183E5
:1046A000089541325105E9F04232510519F180E097
:1046B00090E040E0F2CF482F50E0813061F042308E
:1046C000510561F0E5E0F8E04115510581F784916D
:1046D00090E0AF01E2CFE5EFF7E0F9CFEFEDF7E0E3
:1046E000F6CF61307105A0F011F789E090E044E366
:1046F00058E0D3CF6130710580F0C9F682E390E0D5
:1047000046E558E0CACF82E190E044E458E0C5CFE6
:1047100089E090E04BE158E0C0CF84E490E048E8C5
:1047200058E0BBCF80E189BD82E189BD09B400FEBC
:10473000FDCF8091D8008F7D8093D8008091E000DC
:1047400082608093E0008091E00081FDFCCF0895BD
:10475000AF92BF92CF92DF92EF92FF921F93CF93CF
:10476000DF937C01EB016A0149D1182F811122C02E
:10477000C114D10439F0F60180819181C81BD90B95
:10478000E80EF91EA12CB12C2097A1F08091E80031
:1047900085FD20C08091E8008E778093E800C114E9
:1047A000D10499F0F601808191818A0D9B1D80834F
:1047B000918315E0812FDF91CF911F91FF90EF90B2
:1047C000DF90CF90BF90AF90089518D18115F1F28E
:1047D000182FF0CFF70181917F018093F10021978D
:1047E0008FEFA81AB80AD0CFFC018091550790919D
:1047F00056078617970720F06115710561F0CB0108
:1048000040E0009771F441110CC08091E80082FFF4
:1048100036C080E008958091E8008E778093E800AC
:10482000EECF20914E072115B1F12530B1F1209145
:10483000E80023FD2EC02091E80022FDE6CF209164
:10484000E80020FFDECF4091F3002091F200342FEA
:10485000009719F02830310558F041E02830310533
:1048600009F040E02091E8002E772093E800C9CFBE
:1048700041914093F10001972F5F3F4FE9CF809125
:104880004E07811541F0853041F08091E80083FFAB
:10489000BCCF81E0089582E0089583E00895FC0193
:1048A00080915507909156078617970720F061155C
:1048B000710561F0CB0140E0009771F441110CC02B
:1048C0008091E80082FF37C080E008958091E80081
:1048D0008E778093E800EECF20914E072115B9F135
:1048E0002530B9F12091E80023FD2FC02091E80088
:1048F00022FDE6CF2091E80020FFDECF4091F300BB
:104900002091F200342F009719F02830310558F02B
:1049100041E02830310509F040E02091E8002E7791
:104920002093E800C9CF44914093F100319601975C
:104930002F5F3F4FE8CF80914E07811541F08530C2
:1049400041F08091E80083FFBBCF81E0089582E0D1
:10495000089583E00895982F973028F08F70809302
:10496000E90081E008959093E900242F762F50E02C
:10497000981731F07091EC002091ED005091F0000B
:1049800021FD02C09F5FE8CF3091EB003E7F309366
:10499000EB003091ED003D7F3093ED003091EB0066
:1049A00031603093EB007093EC002093ED00509356
:1049B000F0002091EE0027FDE5CF80E00895809182
:1049C0004F0787FF13C08091E80082FF06C08091E7
:1049D000E8008B778093E800089580914E0781115D
:1049E000F2CF089580914E078115D9F38091E800A8
:1049F00080FFF8CF8091E8008E77ECCF2091E40023
:104A00003091E50095E6A9012091EC00822F81709C
:104A100020FF06C08091E80080FF06C080E0089576
:104A20002091E80022FD1AC080914E07811589F07F
:104A3000853089F08091EB0085FD0FC02091E40066
:104A40003091E50042175307F9F29150E1F684E006
:104A5000089582E0089583E0089581E008955FD08D
:104A600066D0E0EEF0E0808181608083E8ED8081B7
:104A70008F77808319BCA7EDB0E08C918E7F8C93EB
:104A800080818F7E808310924D070895CF93DF93AE
:104A900046D04DD0C8EDD0E088818F77888388815B
:104AA0008068888388818F7D888319BC10924E0727
:104AB00010924A0710924C0710924B07E0EEF0E07C
:104AC00080818B7F808388818160888342E060E081
:104AD00080E041DFE1EEF0E080818E7F8083E2EED6
:104AE000808181608083808188608083E0EE808126
:104AF0008E7F8083888180618883DF91CF91089544
:104B0000E8EDF0E080818F7E8083E7ED8081816039
:104B1000808384E082BF81E080934D07B7CFE8EDCA
:104B2000F0E080818E7F80831092E20008951092E1
:104B3000DA001092E10008951F920F920FB60F92C3
:104B400011242F933F934F935F936F937F938F9392
:104B50009F93AF93BF93EF93FF938091E10082FF08
:104B60000AC08091E20082FF06C08091E1008B7F45
:104B70008093E10028D28091DA0080FF18C08091F4
:104B8000D80080FF14C08091DA008E7F8093DA0015
:104B90008091D90080FF8FC080E189BD82E189BD0D
:104BA00009B400FEFDCF81E080934E0743DC809185
:104BB000E10080FF18C08091E20080FF14C0809166
:104BC000E2008E7F8093E2008091E200806180931A
:104BD000E2008091D80080628093D80019BC85E003
:104BE00080934E0739DC8091E10084FF28C08091DA
:104BF000E20084FF24C080E189BD82E189BD09B45F
:104C000000FEFDCF8091D8008F7D8093D8008091E9
:104C1000E1008F7E8093E1008091E2008F7E80939F
:104C2000E2008091E20081608093E20080914A0777
:104C3000811509F445C084E080934E0714DC80910F
:104C4000E10083FF27C08091E20083FF23C08091B1
:104C5000E100877F8093E10082E080934E0710920D
:104C60004A078091E1008E7F8093E1008091E2000D
:104C70008E7F8093E2008091E20080618093E20069
:104C800042E060E080E067DE8091F0008860809321
:104C9000F000DFDBFF91EF91BF91AF919F918F917A
:104CA0007F916F915F914F913F912F910F900FBE28
:104CB0000F901F90189519BC10924E07C7DB77CF45
:104CC0008091E30087FF02C083E0B6CF81E0B4CFDC
:104CD0001F920F920FB60F9211241F932F933F93A1
:104CE0004F935F936F937F938F939F93AF93BF93F4
:104CF000CF93DF93EF93FF93E9EEF0E08081109183
:104D0000EC008F7010FB112717F9182B1082C0EFE1
:104D1000D0E08881877F888378941CD0E9EEF0E02A
:104D200010828881886088831F701083FF91EF91C3
:104D3000DF91CF91BF91AF919F918F917F916F91B3
:104D40005F914F913F912F911F910F900FBE0F9048
:104D50001F901895AAE2B0E0EFEAF6E294C18FE462
:104D600097E0FC0101962091F100208327E0873530
:104D70009207B9F792DB8091E80083FF37C08091FA
:104D80004F07909150079A3088F5E92FF0E0E051F5
:104D9000F74D64C1803889F0823841F5809153071E
:104DA0008F70873018F58093E9008091EB0085FBC8
:104DB000882780F91092E90006C080914C07880F7F
:104DC00090914B07892B9091E800977F9093E80092
:104DD0008093F1001092F1008091E8008E7722C05C
:104DE000811115C080915107813001F18091E80057
:104DF00083FF0AC08091E800877F8093E80080915C
:104E0000EB0080628093EB00AA96E3E058C1823009
:104E100069F780915107811579F01092E90080912E
:104E2000E800877F8093E800CADDE0CF933009F087
:104E300080E080934C07F1CF809153078F70282F2B
:104E40002150263098F68093E9002091EB0020FF56
:104E5000E4CF933031F48091EB0080628093EB00DB
:104E6000DCCF9091EB0090619093EB0021E001C0CA
:104E7000220F8A95EAF72093EA001092EA008091C7
:104E8000EB008860EBCF8111B1CF809151078F7714
:104E9000182F8091E3008078812B8093E30080912C
:104EA000E800877F8093E8008ADD8091E80080FF3A
:104EB000FCCF8091E30080688093E30083E01111D0
:104EC00001C082E080934E0791CF8058823008F075
:104ED0008DCF80915107909152078C3D23E092072E
:104EE00089F583E08A838AE289834FB7F894DE01EB
:104EF000139620E03EE051E2E32FF0E0509357009C
:104F0000849120FF03C082958F703F5F8F708A303D
:104F1000B8F0895C8D931D922F5F243169F74FBFE4
:104F20008091E800877F8093E8006AE270E0CE011C
:104F300001965ADC8091E8008B778093E80056CF89
:104F4000805DE8CF60915307709154079E012F5FF9
:104F50003F4FA9018BDBBC01892B09F447CF90910E
:104F6000E800977F9093E80089819A8198DCE2CFEE
:104F7000803809F03BCF8091E800877F8093E8007C
:104F800080914A078093F10027CF81112FCF909114
:104F90005107923008F02ACF8091E800877F8093F4
:104FA000E80090934A070BDD80914A07811529F0AC
:104FB00084E080934E0760DA19CF8091E30087FD8B
:104FC000F7CF81E0F6CF0895CF9380914E078115FA
:104FD00091F08091E900C091EC008F70C0FBCC276C
:104FE000C7F9C82B1092E9008091E80083FDB2DE7A
:104FF000CF70C093E900CF91089531DD10924E0734
:105000000895E8EDF0E08081806180838AE18A95EF
:10501000F1F700C08091D90081700895992778E058
:10502000880F991F961708F0961B881F7A95C9F765
:1050300080950895AA1BBB1B51E107C0AA1FBB1F87
:10504000A617B70710F0A61BB70B881F991F5A9514
:10505000A9F780959095BC01CD010895EE0FFF1F33
:105060000590F491E02D09942F923F924F925F9218
:105070006F927F928F929F92AF92BF92CF92DF9268
:10508000EF92FF920F931F93CF93DF93CDB7DEB7CD
:10509000CA1BDB0B0FB6F894DEBF0FBECDBF099461
:1050A0002A88398848885F846E847D848C849B84B8
:1050B000AA84B984C884DF80EE80FD800C811B81C6
:1050C000AA81B981CE0FD11D0FB6F894DEBF0FBEF5
:1050D000CDBFED010895FB01DC0102C005900D92EA
:1050E00041505040D8F70895FB01DC0104C08D9178
:1050F0000190801921F441505040C8F7881B990B4A
:105100000895FB01DC0102C001900D924150504016
:10511000D8F70895F999FECF92BD81BDF89A9927E5
:1051200080B50895A8E1B0E042E050E020C0262F0D
:10513000F999FECF92BD81BDF89A019700B402168D
:1051400039F01FBA20BD0FB6F894FA9AF99A0FBE3B
:1051500008950396272FECDFEADF252FE9DF242FC0
:10516000E7CF0196272FE4DFE2CFDC01CB01FC0182
:10517000F999FECF06C0F2BDE1BDF89A319600B4B0
:105180000D9241505040B8F70895F894FFCF651B39
:10519000D41B6D1B371B3B1B711B3F1B751B811BDE
:1051A0004B1BCD1B4F1B851B531B891BAE1B571B5A
:1051B0008D1BB51B5D1B931B9B1B431B791B471B47
:1051C0007D1B611B971BA51BBE1BCB1B311B691BCA
:1051D000DB1B661C6C1C571C601C721C781C7E1C24
:1051E000CA26F026F626F026F62643276527F62659
:0451F000B827C527F0
:1051F4006002F4F5F6F73133946697C601000000B7
:10520400010000000000000004010000000405008B
:1052140000000000000409000000000000020D006E
:105224000000000000020F00000000000001110057
:10523400000000000004120000000000000116003D
:1052440000000000000021007F2200070000010090
:10525400B31D0622DE21DD210122E200E900EA007D
:10526400B500B600B700CD008301CC008A019201DD
:1052740094012102230224022502260227022A0283
:10528400B300B4006F0070009F01CB019F02A00225
:10529400E200E900EA00B500B600B700CD008301E2
:1052A400CC008A01920194012102230224022502E6
:1052B400260227022A02B300B4006F0070009F0187
:1052C400CB019F02A002F4F5F6F731330086020009
:1052D400081018202830383830282018100800000A
:00000001FF
