:100000000C94A6050C94C3050C94C3050C942133E1
:100010000C94C3050C94C3050C94C3050C94C30540
:100020000C94C3050C94C3050C94AF2F0C9497301B
:100030000C9408120C94C3050C94C3050C94C305CE
:100040000C94C3050C94C3050C94C3050C94C30510
:100050000C94C3050C948B2F0C94C3050C94C3050E
:100060000C94C3050C94C3050C94C3050C94C305F0
:100070000C94C3050C94C3050C94C3050C94C305E0
:100080000C94C3050C94C3050C94C3050C94C305D0
:100090000C94C3050C94C3050C94C3050C94C305C0
:1000A0000C94C3050C94C3050C94C3050501098089
:1000B000A101850319012AB700150126B700950192
:1000C00075108100C0050C0901A101850419012AE0
:1000D000A002150126A002950175108100C00660DE
:1000E000FF0961A1010962150026FF00952075082E
:1000F00081020963150026FF00952075089102C052
:1001000005010906A101050719E029E715002501E8
:10011000950875018102950175088101050719008F
:1001200029FF150026FF00950675088100050819AE
:1001300001290515002501950575019102950175A7
:10014000039101C009025B00030100A0FA09040049
:1001500000010301010009211101000122440007EF
:1001600005810308000109040100020300000009E1
:10017000211101000122220007058203200001074E
:100180000503032000010904020001030000000927
:100190002111010001223200070584032000011211
:1001A00001000200000008FB190000000101020329
:1001B000011C037600690061006C003A006600369D
:1001C000003400630032006200330063000000145A
:1001D00003730069006D0070006C0065006B0065C2
:1001E00000790000000E0344006E006500630068A3
:1001F0000069000000040309040000000000000082
:1002000000000000000000000000000000000000EE
:10021000000000000000000000000000007E0F0051
:10022000D4FFFFFFC70000007800000000000000BE
:10023000002A2B2800000000000000000000000041
:100240000000000029000000002C1E342021222480
:10025000342627252E362D3738271E1F202122230E
:100260002425263333362E37381F040506070809A0
:100270000A0B0C0D0E0F1011121314151617181966
:100280001A1B1C1D2F3130232D35040506070809C4
:100290000A0B0C0D0E0F1011121314151617181946
:1002A0001A1B1C1D2F3130354C14001A0008001584
:1002B000001700000004001600070009000A0000F3
:1002C000001D001B000600190005002602E100E0E9
:1002D000002B00E200427E2C00130012000C0018DC
:1002E000001C00000033000F000E000D000B00008A
:1002F000003800370036001000110027022D0001E1
:10030000004C002A00417E28000000000046004A00
:10031000004B0000002900000047004D004E000087
:10032000002B00E3004800000000002F0201000144
:1003300000010001000100010000003D003C003B05
:10034000003A0000000000410040003F003E000075
:10035000000000450044004300420030020100015B
:100360000001000100010001001E021F0220022105
:100370000222020000230224022502260227020094
:10038000002F0030002D002E0001002F0001000181
:10039000000100010001000100290062006100600D
:1003A000005F000000520053005E005D005C000032
:1003B00000510037005B005A00590030004F0050D8
:1003C00000010001000100010000AE00AF07087F3E
:1003D0000807003E5B4F5B3E003E6B4F6B3E001CD0
:1003E0003E7C3E1C00183C7E3C18001C577D571C70
:1003F000001C5E7F5E1C0000183C180000FFE7C375
:10040000E7FF00001824180000FFE7DBE7FF0030DB
:10041000483A060E00262979292600407F0505075F
:1004200000407F05253F005A3CE73C5A007F3E1CB8
:100430001C0800081C1C3E7F0014227F2214005F51
:100440005F005F5F0006097F017F00006689956A93
:100450000060606060600094A2FFA2940008047EC7
:1004600004080010207E20100008082A1C0800083C
:100470001C2A0808001E10101010000C1E0C1E0C68
:100480000030383E383000060E3E0E0600000000F8
:1004900000000000005F00000000070007000014DB
:1004A0007F147F1400242A7F2A1200231308646219
:1004B00000364956205000000807030000001C22A7
:1004C0004100000041221C00002A1C7F1C2A000859
:1004D000083E08080000807030000008080808087E
:1004E000000000606000002010080402003E514936
:1004F000453E0000427F40000072494949460021C4
:1005000041494D33001814127F10002745454539E5
:10051000003C4A4949310041211109070036494947
:10052000493600464949291E000000140000000019
:100530004034000000000814224100141414141464
:10054000000041221408000201590906003E415DE5
:10055000594E007C1211127C007F49494936003EF9
:1005600041414122007F4141413E007F494949418B
:10057000007F09090901003E41415173007F0808CD
:10058000087F0000417F4100002040413F01007F83
:1005900008142241007F40404040007F021C027F3F
:1005A000007F0408107F003E4141413E007F090961
:1005B0000906003E4151215E007F091929460026A7
:1005C000494949320003017F0103003F4040403F59
:1005D000001F2040201F003F4038403F00631408A8
:1005E0001463000304780403006159494D4300007B
:1005F0007F41414100020408102000004141417F39
:100600000004020102040040404040400000030793
:100610000800002054547840007F284444380038B3
:100620004444442800384444287F00385454541823
:100630000000087E09020018A4A49C78007F08042A
:1006400004780000447D4000002040403D00007FD1
:10065000102844000000417F4000007C04780478AA
:10066000007C0804047800384444443800FC182412
:1006700024180018242418FC007C080404080048EE
:10068000545454240004043F4424003C4040207C43
:10069000001C2040201C003C4030403C00442810FE
:1006A0002844004C9090907C004464544C440000DA
:1006B00008364100000000770000000041360800C5
:1006C000000201020402003C2623263C0000000038
:1006D000000000404040F0F8F8FF38FFF8F83FF81D
:1006E000F8FF38FFF8F8F04040400000000000003C
:1006F00080C0C0C0800000C0C08000000080C0C0BA
:1007000000C0C0000080C0C00000000000C0C0C029
:10071000C0C000C0C00000000000000000000000D9
:1007200000000000000000000000000000000000C9
:1007300000000000000000000000000000000000B9
:10074000000000000000000000000000C0F0F8FC05
:100750003E1E06010000007F4141417F007F414174
:10076000417F000080C0E07E5B4F5BFEC00000C0A8
:1007700000DCD7DEDEDED7DC00C0000000000000B9
:100780000000000000000000000000000000000069
:10079000000000494949FFFFFFFFE0DFBFBF00BF86
:1007A000BFDFE0FFFFFFFF49494900000000001FD5
:1007B0003F6060E0BF1F007F7F071E381E077F7FFE
:1007C000007F7F0E1F3B716000000000007F7F0CE8
:1007D0000C0C007E7E007F7E0303007F7E03037E81
:1007E0007E03037F7E000F3E703C063C703E0F0090
:1007F000327B49493F7E007F7E0303001E3F6969CB
:100800006F2600000000000000000000030F1F3FE3
:100810003C7870600000007F4141417F007F414192
:10082000417F00307B7F7830202030787F3B000391
:10083000000F7F0F0F0F7F0F00030000000000006C
:1008400000000000000000000000000000000000A8
:10085000000000010101070F0F7F0F7F0F0F7E0FB8
:100860000F7F0F7F0F0F0701010100000000000044
:100870000000000001010000000000000000000076
:100880000000000000000000000000000000000068
:100890000000000000000000000000000000000058
:1008A0000000000000000000000000000000000048
:1008B0000000000000000000000000000000000038
:1008C0000000000000000000000000000000000028
:1008D0000000000000000000000000000000000018
:1008E0000000000000000000000000000000000008
:1008F00000000000000000000000000000000000F8
:100900000000000000000000000000000000DA12FB
:1009100081FFD9F1DB20A4A62EAF00A0C0D3000038
:10092000A1C8D30000AED580A83F408D1420008020
:100930008182838485868788898A8B8C8D8E8F902F
:1009400091929394A0A1A2A3A4A5A6A7A8A9AAAB9B
:10095000ACADAEAFB0B1B2B3B4C0C1C2C3C4C5C612
:10096000C7C8C9CACBCCCDCECFD0D1D2D3D4002D1D
:10097000006F6E00202020506F7765726564204202
:1009800079002D006F6E002053636C4C3A002D00EF
:100990006F6E00204361704C3A004E756D4C3A000A
:1009A000556E646566696E65640041646A7573744A
:1009B0000A0052616973650A004C6F7765720A001C
:1009C00044656661756C740A004C617965723A2001
:1009D0000053696D706C65204B6579000100010062
:1009E0002B084F0E650E00000200020027084F0E74
:1009F000650E0000030001002C084F0E650E00007C
:100A00000400020011084F0E650E060905000100E2
:100A10002D084F0E650E00000600020013084F0E51
:100A2000650E00000700020029084F0E650E000049
:100A3000080001002E084F0E650E00001200020093
:100A40002F084F0E650E00001300020031084F0EF4
:100A5000650E00001400010033084F0E650E000003
:100A60001500000000000F09F8140000FD377A5847
:100A70005A000004E6D6B446020021011600000028
:100A8000742FE5A3E00176009F5D003D888986D341
:100A9000DC0AE842C324925842588FD8E75CA0D2BF
:100AA000616E26E888019A676C7887BC8D3709EA01
:100AB000511D70D2DBC0939E431ACA82F753BA0C01
:100AC000053629D1A41AC90AD61C8F57D3F5793B0C
:100AD0007131A303F076D7619F6B5EE3F485773FB6
:100AE000FF796A5EBCA7CA3DC44384993EB6C784F9
:100AF000ED9107DBC524C3B17490E5A6A67E63D152
:100B000091EB084779CA3AFEBA8E018AD7F6BF033D
:100B1000E059C8C02F3B4A46C55F369DBBFB98BB1A
:100B20009B9681406E18BBB4F65B00009842A417F8
:100B30002CBECBDB0001BB01F7020000ABE40D963D
:100B4000B1C467FB020000000004595A11241FBE03
:100B5000CFEFDAE0DEBFCDBF12E0A0E0B1E0E0E22F
:100B6000FBE602C005900D92A230B107D9F728E04C
:100B7000A2E0B2E001C01D92AA33B207E1F70E94E1
:100B800053270C943A350C9400009C0191509F31EE
:100B9000B0F4832F817034FF0AC08295807F31FDCD
:100BA000806232FD806433FF0BC08068089531FDA0
:100BB000826032FD846033FF03C08860089580E066
:100BC0000895A2E0B0E0E7EEF5E00C946A346983A2
:100BD0007A830E94C505E981FA8109952296E2E0AF
:100BE0000C948634982F92959F7061F420E0982F92
:100BF000892F8695869511F02E5F982F892F8695DF
:100C0000820F089524E0F4CF282F92959F7096309C
:100C100099F060F4925F9F70923030F4203FB1F011
:100C200038F481E0283E38F080E008959A5FF3CFF1
:100C300081E0243FC9F7089591E0813F09F090E0F9
:100C400081E0283E08F080E0892B089581E0089536
:100C50008093C70708958093C807089521E001C0D5
:100C6000220F8A95EAF78091C807822B0E942B06F3
:100C7000089521E030E0A90101C0440F8A95EAF708
:100C8000842F80959091C80789230E942B06089590
:100C9000292F983090F5863080F590E036E0239F3C
:100CA000800D911D112451E081FD54E080FD550F10
:100CB00082FD529523E0969587952A95E1F7FC01F0
:100CC000EE0FFF1FE80FF91FE15EF84F20E030E064
:100CD00070E04191DF01CB01022E02C0969587950D
:100CE0000A94E2F78695880B8427852384278E93C0
:100CF0002F5F3F4F2330310561F70895292F98303A
:100D000070F5863060F590E036E0239F800D911DF0
:100D10001124682F677023E0969587952A95E1F74F
:100D2000FC01EE0FFF1FE80FF91FE15EF84F40E0F6
:100D300050E080E0219130E0062E02C036952795E4
:100D40000A94E2F72170042E01C0220F0A94EAF7F8
:100D5000822B4F5F5F4F4330510561F7089580E06C
:100D600008959091C80721E030E0F90101C0EE0F2D
:100D70008A95EAF7D90101C0AA0F6A95EAF7EA2B2A
:100D800001C0220F4A95EAF7892F8E23E81305C088
:100D9000892F822B0E942B0608952095822F89236C
:100DA000F9CF8091D1072091D007281301C0089571
:100DB00001968770FACF9091CD0780958923809313
:100DC000CD07282F277089F4891779F0909136087C
:100DD00092FF0BC08695869586950E9439061092E3
:100DE000CD071092CE071092CF070895982F9095B7
:100DF0008091C90789238093C90708958091C50709
:100E0000811531F01092C5071092C3071092C407E4
:100E10000895803E9105D1F1C8F48133910509F41C
:100E200081C048F48932910509F471C08A32910574
:100E300009F47FC0089589339105E1F08238910566
:100E4000C9F08533910509F45DC00895843E91058C
:100E5000D1F148F4823E910531F1833E910541F193
:100E600081EE90E00895863E9105C1F1873E91059F
:100E7000F1F1089520913508237009F064C02091A4
:100E8000360823FF14C089E290E0089520913508C8
:100E900020FD45C03091360830FF09C024FD24C034
:100EA00083EE90E008952091350822FDF7CF089554
:100EB0002091350822FD44C03091360830FD43C0F2
:100EC00024FFF5CF11C02091360821FFF0CF80918B
:100ED000350884FD09C087EE90E00895209135081B
:100EE00023FFE5CF24FFF7CF80E090E00895209125
:100EF000350823FD2BC03091360831FFE1CF84EE59
:100F000090E008952091350825FFD1CFBCCF2091E6
:100F1000350825FD1EC02091360823FFC8CF89E380
:100F200090E008952091350826FFC1CF8AE290E035
:100F300008952091350826FFBACF81E390E0089507
:100F400082EE90E0089580EE90E0089586EE90E0C5
:100F5000089585E390E008959091350892FF10C0C0
:100F600041E0282F2471243009F040E031E0282F9F
:100F70002871283009F030E0431711F02CE0822767
:100F800093FF10C041E0282F2471243109F040E084
:100F900031E0282F2871283109F030E0431711F093
:100FA0002CE082273091360830FF10C051E0282F06
:100FB0002171213009F050E041E0282F28712830BC
:100FC00009F040E0541711F029E0822731FF10C0EA
:100FD00041E0282F2171213109F040E031E0282F34
:100FE0002871283109F030E0431711F029E08227F9
:100FF00094FD877E08950F931F93CF93DF930E94F4
:101000000907EC01923508F04EC0903508F0C3C0D6
:10101000803E910520F58D3C910508F09AC0883AF4
:10102000910570F4853A910508F090C081309105E2
:10103000A1F10497813A910580F1C0E0D0E02DC084
:10104000885A91094B97C8F7C85AD0E0CC0FDD1FDA
:10105000CB56DE4F0990D881C02DD4641EC0903489
:10106000A8F4D03208F0ACC0C83ED105B0F0CE0133
:1010700091509F3110F78D2F0E94AC07082F8C2FB5
:1010800090E00E940907EC01D02B07C090E00E947D
:101090000907DF70C82FD92BD06ACE01DF91CF911D
:1010A0001F910F910895803842E59407C8F5803666
:1010B00052E5950708F054C0C03482E5D807D0F453
:1010C0008C2FC03292E5D90708F045C086958695E9
:1010D00020E2829FC0011124C37021E030E0A90109
:1010E00002C0440F551FCA95E2F7EA01C82BD92B5D
:1010F000DD68D3CF8C2F86958695877050E2859FCB
:10110000C0011124C37021E030E0A90102C0440FE6
:10111000551FCA95E2F7EA01C82BD92BDC68BDCF71
:10112000803C52E5950740F48F71C03AD24568F58E
:10113000D82FC4EFD06AB1CF805C9245809708F079
:101140007CCFDC2FDF71C0EFD06AA7CFA497D0642B
:10115000A4CFD065A2CF8F71D82FC1EFD06A9DCF19
:1011600086958695877020E2829FC0011124C37006
:1011700021E030E0A90102C0440F551FCA95E2F7F3
:10118000EA01C82BD92BDA6888CF0E94AC07C0E0EF
:10119000D82FD06282CF8F710E94AC0793E0CC0F22
:1011A000DD1F9A95E1F7DF70282F30E084FF04C03F
:1011B00050E1859F90011124C22FD32BD0696DCFB0
:1011C0008D2F8F710E94AC07082F8C2F90E00E940A
:1011D0000907EC01D02BDDCF80E00895F894E82FCB
:1011E000E295EF70F0E041A18F7021E030E0B901AD
:1011F00001C0660F8A95EAF7862F962F9095942363
:1012000091A392A1892B82A37894089580911108CB
:101210009091120880930F01909310010895CF933D
:10122000DF938FEF9FEF4430510508F458C02091B1
:10123000350821FB882780F990E0880F991F22FB51
:10124000AA27A0F9B0E0AA0FBB1FAA0FBB1F8A2BC9
:101250009B2BC22FC1708C2B23FBEE27E0F9F0E013
:1012600053E0EE0FFF1F5A95E1F78E2B9F2B24FBC7
:10127000442740F9E0E14E9FA0011124842B952BD7
:1012800025FB442740F9F0E24F9FA0011124842B55
:10129000952B26FB442740F930E4439FA0011124FD
:1012A000842B952B27FB222720F940E8249F9001CF
:1012B0001124822B932B20913608422F4170942BBE
:1012C00026952170322F330F932BA92FAA0FAA0B2B
:1012D000FB0180839183A283A38380E090E0DF9170
:1012E000CF9108959C0143E0369527954A95E1F703
:1012F0002E7130E0F901E75DFD4F40815181FC0125
:10130000EF7081E090E002C0880F991FEA95E2F744
:10131000611541F0482B592B275D3D4FF901408362
:10132000518308958095909548235923F5CFFC016A
:10133000AC014C5F5F4F8FEF61E39191892728E00B
:1013400030E0982F990F87FF09C0892F86272150F9
:101350003040B9F7E417F50781F70895892FF7CFE3
:10136000FC018481862351F492819115B9F069239F
:10137000808583FF05C081E061110FC080E0089582
:10138000292F22952F709F70292B962F92959F7051
:101390006F70962B81E02913F1CF089581E00895B5
:1013A00080910907811103C08091EB060895E091B7
:1013B0001507F0911607309729F00190F081E02D84
:1013C0000995089580E008950E94D0090895A3E04A
:1013D000B0E0EDEEF9E00C946A34209125023091F2
:1013E000260228173907A1F0809325029093260240
:1013F000E0911507F0911607309751F023E029830B
:101400008A839B830084F185E02DCE0101960995A6
:101410002396E2E00C948634A3E0B0E0E2E1FAE047
:101420000C946A3420912302309124022817390742
:10143000A1F08093230290932402E0911507F0918C
:101440001607309751F024E029838A839B83008418
:10145000F185E02DCE01019609952396E2E00C94EA
:101460008634A6E0B2E0EFEF90E02C91821759F0BD
:101470001196EF3F19F4211101C0E92F9F5F9630BB
:10148000A1F7EF3F09F40895FE2FFF0FFF0BEC5F6C
:10149000FD4F82830895E6E0F2E09191891302C046
:1014A000DF011E9292E0EC30F907B9F708958091C0
:1014B000010108952FB7F89460911F0270912002E6
:1014C00080912102909122022FBF089580910907F7
:1014D000811519F00E945A0A08950E945A0A209113
:1014E0000B0730910C0740910D0750910E07620FCA
:1014F000731F841F951F0895CF92DF92EF92FF9282
:10150000CF93DF9300D0CDB7DEB789839A83C090A5
:10151000B007D090B107E090B207F090B3070E94F7
:101520005A0A6C197D098E099F09643F7140810533
:10153000910528F10E945A0A6B017C0182E390E038
:10154000C0925F02D0926002E0926102F092620269
:1015500080935B0290935C0210925D0210925E0297
:1015600089819A818093AE079093AF070F900F9077
:10157000DF91CF91FF90EF90DF90CF90089584EFAF
:1015800091E0DECF87E797E780930008909301080A
:1015900088E19AE00FB6F894A895809360000FBE9A
:1015A00090936000FFCF08950895FC01809115028B
:1015B000909116028617970748F06115710529F476
:1015C0008091E8008E778093E800CB0140E000979F
:1015D00041F4411106C08091E80082FF30C080E0F4
:1015E00008952091B8062115B1F12530B1F120916F
:1015F000E80023FD2EC02091E80022FDECCF2091D1
:10160000E80020FFE4CF4091F3002091F200342F56
:10161000009719F02830310558F041E028303105A5
:1016200009F040E02091E8002E772093E800CFCF2A
:1016300041914093F10001972F5F3F4FE9CF809197
:10164000B806811541F0853041F08091E80083FFB4
:10165000C2CF81E0089582E0089583E00895982F35
:101660009093E900891771F07091EC002091ED00E2
:101670005091F00021FD09C09F5F973089F780935A
:10168000E9000895762F242F50E03091EB003E7F43
:101690003093EB003091ED003D7F3093ED003091C1
:1016A000EB0031603093EB007093EC002093ED0081
:1016B0005093F0002091EE0027FDDECF0895809139
:1016C0000F0287FF13C08091E80082FF06C080915F
:1016D000E8008B778093E80008958091B806811127
:1016E000F2CF08958091B8068115D9F38091E80072
:1016F00080FFF8CF8091E8008E77ECCF2091E40056
:101700003091E50095E6A9012091EC00822F8170CF
:1017100020FF06C08091E80080FF06C080E00895A9
:101720002091E80022FD1AC08091B806811589F049
:10173000853089F08091EB0085FD0FC02091E40099
:101740003091E50042175307F9F29150E1F684E039
:10175000089582E0089583E0089581E00895A0E06F
:10176000B0E0E5EBFBE00C946434C8EDD0E0888198
:101770008F7E8883E7EDF0E080818160808384E064
:1017800082BF81E080930E0288818E7F888302EE83
:1017900010E0E2EE10821092DA006801CA94E1EEE5
:1017A000108288818F778883888180688883888188
:1017B0008F7D888319BC1092B80610920D0210928A
:1017C000510210920C027601EA94E0EE80818B7F48
:1017D000808388818160888342E060E080E00E94AD
:1017E0002F0BF60180818E7F8083E2EE8081816005
:1017F0008083808188608083E0EE80818E7F80831B
:10180000888180618883CDB7DEB7E8E00C948034AE
:10181000E8EDF0E080818E7F80831092E2001092EC
:10182000DA001092E100A0EEB0E08C9181608C9320
:1018300080818F77808319BCA7ED8C918E7F8C93EC
:1018400080818F7E808310920E0208959C01211565
:10185000310509F40895215031098FE99FE001977E
:10186000F1F700C00000F3CFA8E0B0E0EAE3FCE04D
:101870000C94683489839A836B837C834D835E8365
:101880008091F0060AE010E08A3010F001E010E0EC
:1018900021E02F8318866B817C8189819A81ED817B
:1018A000FE81099581111BC02F8138852F5F3F4F25
:1018B0002F8338870217130794F0C901889F90017E
:1018C000899F300D300D112480E090E045E34A956A
:1018D000F1F70000019682179307C1F7DCCF289635
:1018E000E4E00C9484340F931F93CF93DF93EB01C8
:1018F0008A019091B806943061F58093E9008FEFEA
:101900009091E80095FD06C095ED9A95F1F70000DD
:101910008150B1F78091E80085FF1BC00E947E0BCB
:10192000811112C08091E80085FD06C08091E80019
:101930008E778093E800F2CF88818093F100015088
:10194000104011F02196EECF8091E8008E778093C1
:10195000E800DF91CF911F910F910895CF93DF930E
:10196000EC0148E050E0BC0181E00E94730C88E08B
:10197000FE01A7E1B2E001900D928A95E1F7DF91B7
:10198000CF91089543E050E0BC0184E00E94730CC5
:1019900008959091360892FB222720F9281779F0B4
:1019A00080FB92F990933608609135087091360863
:1019B00084E090E00E941C3582E00E94DB060895DE
:1019C000A3E0B0E0E6EEFCE00C946A3429838330B7
:1019D000F8F46830E8F44630D8F4E42FF0E0EE0F85
:1019E000FF1F4CE0649FE00DF11D112450E6859F20
:1019F000E00DF11D1124EA83FB83632FCF0188964C
:101A00000E94FE3469818A819B8189960E94FE34FE
:101A10002396E2E00C948634CF93DF93CCEBD1E0B5
:101A200060E0CE010E94FE342196C11584E0D80703
:101A3000B9F7DF91CF910895CF93C82F6AE3811151
:101A400001C06FEF84E290E00E94FE3464E6C111B1
:101A500001C06FEF85E290E00E94FE3469E5C1119C
:101A600001C06FEF86E290E00E94FE34CF910895AE
:101A70000F931F93CF93DF9301E118E0C8E4D1E007
:101A8000CE010E94E034F80161918F01681719F0CE
:101A9000CE010E94FE342196CC36F1E0DF0781F7BB
:101AA000DF91CF911F910F9108950F931F93CF93C3
:101AB000DF9301E118E0C8E4D1E0CE010E94E034F8
:101AC000F80181938F012196CC36F1E0DF07A9F769
:101AD000C6EED9E0FE0185919491009711F0FC01CA
:101AE00009952C96FAE0C637DF07A1F7DF91CF9171
:101AF0001F910F9108950F931F93CF93DF9383301E
:101B000008F56830F8F44630E8F4C42FD0E0CC0F84
:101B1000DD1F9CE0699FC00DD11D112490E6899FB7
:101B2000C00DD11D1124CE0188960E94E034082FEB
:101B3000CE0189960E94E034902FDF91CF911F91C2
:101B40000F91089580E090E0F8CF462F2091110783
:101B500030911207232B99F4703F39F4603F79F4E8
:101B600080910F07909110070895783040F4663007
:101B700030F4833020F4672F0E947B0D089580E0BD
:101B800090E00895A4E0B0E0E8ECFDE00C94673448
:101B900089839A830091C8078091C707082B82E048
:101BA0008B831C8210E0C8010B8002C0959587953D
:101BB0000A94E2F780FD0DC08B819C8101978B8395
:101BC0009C83019681F7F12C8F2D2496E5E00C94EF
:101BD0008334FB8069817A818F2D0E94A50D0E943C
:101BE000FB07019749F3F0CF0F931F93CF938C011D
:101BF000611589F0411579F00E94C20DC82F682F38
:101C0000C8010E944806B8018C2F0E94A50DCF91F3
:101C10001F910F9108950E947E06C82FF4CF462F82
:101C2000FC016581808191810E94F40D0895A2E0FC
:101C3000B0E0EDE1FEE00C946A3489839A830E945F
:101C4000C20D69817A810E94A50D0E94FB07229630
:101C5000E2E00C948634FC012481211539F0808166
:101C600091810E94170E0E940406089580E0089555
:101C700084E290E00E94E0348A3369F485E290E0E7
:101C80000E94E034843639F486E290E00E94E03429
:101C900091E0893509F090E0892F81700895DB018A
:101CA000FC013296259134914217530758F0FC01FC
:101CB000349665917491A901CD010E94C03480E0F1
:101CC00090E008958FEF9FEF0895DA019C012E5F59
:101CD0003F4FF90145915491F90125913491A21793
:101CE000B30758F0FC013496859194910E94C0345A
:101CF0000E94380D80E090E008958FEF9FEF0895E7
:101D0000CF92DF92EF92FF92CF93DF9300D000D07B
:101D1000CDB7DEB7C090CE06D090CF06E090D0060B
:101D2000F090D1060E945A0A6C197D098E099F090C
:101D3000FF24F394643671058105910570F10E94CA
:101D4000660ADC01CB010296A11DB11D89839A832D
:101D5000AB83BC838091290190912A018652994FCF
:101D600020912801422F50E0253008F044E0BE01C8
:101D70006F5F7F4F0E94C03482E090E00E94C433C6
:101D8000F82E811551F00E945A0A6093CE06709386
:101D9000CF068093D0069093D1068F2D0F900F9091
:101DA0000F900F90DF91CF91FF90EF90DF90CF9049
:101DB0000895CF92DF92EF92FF921F93CF93DF931C
:101DC00000D000D00F92CDB7DEB7182F6C837D8383
:101DD00049832A833B83FB01C080D180E280F3806A
:101DE0000E945A0A6C197D098E099F096436710593
:101DF0008105910518F4F981F11521F1E12EF12EFB
:101E0000FF0CFF0888E01802F0011124E85EFE4F85
:101E1000818192818652994F2081422F50E0211179
:101E200041E06A817B810E94C034C7010E94C433B3
:101E3000811549F00E945A0AEC81FD81608371830B
:101E40008283938381E00F900F900F900F900F90FB
:101E5000DF91CF911F91FF90EF90DF90CF90089589
:101E600041E09091E3068091C807981301C040E0DB
:101E700028EC37E06AEC76E083E00E94D90E811509
:101E800079F041E09091E4068091C707981301C072
:101E900040E027EC37E066EC76E084E00E94D90E63
:101EA0000895A1E0B0E0E7E5FFE00C946A3480918A
:101EB000B90689832091EA0690E041E028171906C7
:101EC00009F440E09E012F5F3F4F6AEB76E087E028
:101ED0000E94D90E2196E2E00C948634A1E0B0E095
:101EE000E4E7FFE00C946A340E94D009898341E062
:101EF0009091E506981301C040E09E012F5F3F4F8F
:101F000062EC76E085E00E94D90E2196E2E00C9426
:101F10008634CF92DF92EF92FF921F93CF93DF939D
:101F200000D000D000D00F92CDB7DEB76E837F8394
:101F300080E090E00E94C433182F811509F460C03E
:101F400080911B01482F50E0811141E060911C01FC
:101F500070911D016652794FCE0105960E94C034E2
:101F6000C090D606D090D706E090D806F090D9065B
:101F70000E945A0A6C197D098E099F096436710501
:101F80008105910538F48BED96E00E9497099D81BB
:101F90008917B1F181E090E00E94C4338115F1F11D
:101FA00080912301482F50E0853008F044E0609193
:101FB0002401709125016652794FCE0101960E944D
:101FC000C0348BED96E00E9497099D81891326C04D
:101FD0000E945A0A6093D6067093D7068093D8065B
:101FE0009093D90689819A81AB81BC818093D20676
:101FF0009093D306A093D406B093D50681E00FC08A
:102000008091DB069091DC06A091DD06B091DE06A2
:1020100089839A83AB83BC831111E4CF80E0409124
:10202000D2065091D3066091D4067091D506EE8108
:10203000FF81408351836283738327960FB6F894A0
:10204000DEBF0FBECDBFDF91CF911F91FF90EF900C
:10205000DF90CF900895CF92DF92EF92FF92CF93CF
:10206000DF9300D000D0CDB7DEB7C090BE06D090D1
:10207000BF06E090C006F090C1060E945A0A209167
:10208000C90729836C197D098E099F09643671057A
:102090008105910508F053C081E09091E606921306
:1020A00001C080E09091CC079A83811106C081E045
:1020B0002091E706291301C080E09091C5079B831A
:1020C000811106C081E02091E806291301C080E05B
:1020D0009091C6079C83811104C08091E9068917FD
:1020E00011F18091490190914A018652994F2091B6
:1020F0004801422F50E0253008F044E0BE016F5FF8
:102100007F4F0E94C03486E090E00E94C433811566
:1021100059F00E945A0A6093BE067093BF068093DE
:10212000C0069093C10681E00F900F900F900F9022
:10213000DF91CF91FF90EF90DF90CF90089581E0F5
:10214000B1CFCF93DF93682F81E06A3019F06D3003
:1021500031F480E00E941F11DF91CF9108958091AA
:1021600063029091640226E0FC01A9E4B2E00190D0
:102170000D922A95E1F7603E08F456C026E0FC0176
:1021800011922A95E9F7C0916302D091640246E06A
:1021900050E0BE0189E492E00E94B3349E01265AC9
:1021A0003240892B41F1C90146E0969587954A95C1
:1021B000E1F741E050E0BA0102C0660F771F8A954F
:1021C000E2F7CB016091A8067091A906862B972BA8
:1021D000B9016B5F7F4FE6E076956795EA95E1F789
:1021E00002C0440F551F6A95E2F7842B952B80930C
:1021F000A8069093A9062A5F3F4F40916502642F7D
:1022000070E0C9010E944634481B463010F4240F88
:10221000311D343010F020E030E02A553D4F20933E
:1022200063023093640298CFF6E06F9FB0011124EF
:1022300063537C4F46E050E00E94AA34A4CFCF9372
:10224000382FE0916302F0916402E65AF240209147
:102250006502622F70E0CF010E944634281B822F56
:10226000311569F066E00E949134C82FC11102C097
:10227000CF910895C15080E20E94A110F7CF8E0F38
:102280009F2F911D943010F080E090E08A559D4F73
:102290008093630290936402EBCFCF93DF93EC01C2
:1022A000FE018491811103C0DF91CF9108950E94B6
:1022B000A1102196F5CFAAE0B0E0E1E6F1E10C949F
:1022C000663403E317E08CE6E82E81E0F82E4AE05E
:1022D00050E0B701CE0101960E94D034F801389643
:1022E000DF0127E01D922A95E9F789819A81D801BB
:1022F0008D939D938F818D938D818D9388858D9303
:1023000089858D938B819C818D939D9318978A8568
:1023100087FD05C0EFE4F2E01D96ED93FD9380FF8D
:1023200004C0E1E0D8011896EC9381FF05C0D80104
:1023300018969C9192609C9382FF04C0F80190854E
:102340009460908783FF05C0D80118969C9198608F
:102350009C9384FF04C0F80190859061908785FF6D
:1023600005C0D80118968C9180628C93BAE0EB0E70
:10237000F11C015F1F4FECEBEE16E1E0FE0609F0E9
:10238000A6CF2A96E6E00C948234AB0124E630E036
:10239000BC0188E70E94C5319C0181E0232B09F034
:1023A00080E008958091B0068115F9F00E945A0AE4
:1023B000DC01CB01805A9541AF4FBF4F8093AA06F5
:1023C0009093AB06A093AC06B093AD068091B9068E
:1023D00081110BC062E070E08BEC93E00E94C511AC
:1023E000811519F081E08093B90608958091B006B7
:1023F000811569F08091B906811549F062E070E0BD
:1024000089EC93E00E94C51181111092B9060895DC
:102410001F921FB61F9211248F939F93AF93BF9368
:1024200080915002811113C080911F02909120026F
:10243000A0912102B09122024196A11DB11D80936D
:102440001F0290932002A0932102B0932202BF9119
:10245000AF919F918F911F901FBE1F9018952FB71E
:10246000F89480911F0290912002A0912102B091D6
:1024700022022FBF08958091130890911408892B90
:1024800091F00E942F122091C3073091C407AC0134
:10249000421B530B9A0181E040911308509114089C
:1024A0002417350708F480E00895CF93C091C90739
:1024B0008091CC07C82B8091C5078115E9F08091E8
:1024C000130890911408892B29F00E943B12811166
:1024D0000E94FE068091C507C82B20E086E092E0AE
:1024E000FC013081019631112F5F32E08C3093076F
:1024F000B9F721110E94FE068091320780958C2346
:1025000090913107892B8093040248E050E067E105
:1025100077E084E092E00E94B334892BA9F088E050
:10252000E4E0F2E0A7E1B7E001900D928A95E1F7CF
:10253000E0911507F0911607309731F00280F38192
:10254000E02D84E092E00995CF910895CF93C82FB4
:102550008115C9F08238C9F40E94E40981FD13C0D5
:1025600089E30E94310A0E9455122FEF37EE83E073
:10257000215030408040E1F700C0000089E30E9414
:102580004B0A0E945512CF9108958338A1F40E94FE
:10259000E40980FDF8CF83E50E94310A0E945512BC
:1025A0009FEF21EE34E0915020403040E1F700C031
:1025B000000083E5E4CF8438A1F40E94E40982FDA1
:1025C000E2CF87E40E94310A0E9455128FEF91EE0C
:1025D00024E0815090402040E1F700C0000087E4F3
:1025E000CECF8CEF8C0F813A78F4E6E0F2E08CE00D
:1025F00092E02081C21791F131968E179F07C9F79B
:102600008C2F0E94310ABDCF80E28C0F883060F49D
:10261000C77021E001C0220FCA95EAF78091C9076F
:10262000822B8093C907ADCF8BE58C0F833038F4B4
:102630002C2F2452330BC9010E94E709A4CFC85A9A
:10264000CB3108F0A0CFEC2FF0E0EE0FFF1FE553E9
:10265000FE4F808191810E940C0A95CF8C2F0E94A1
:102660004B0A0E945512CCCFCF93DF93EC01805ED2
:102670009109089720F067EB74E1209711F466EA5E
:1026800074E1CE010E94E1058C2F0E94A612DF9119
:10269000CF910895611529F02091CC0722602093F5
:1026A000CC079C013052303308F490E00E94341380
:1026B0000895811509F44EC0823879F40E94E40926
:1026C00081FF48C089E30E94310A0E94551289E3C4
:1026D0000E944B0A0E9455120895833859F40E94B3
:1026E000E40980FF37C083E50E94310A0E94551239
:1026F00083E5EECF843859F40E94E40982FF2AC0B2
:1027000087E40E94310A0E94551287E4E1CF9CEFD2
:10271000980F913AE8F290E2980F983058F4982F79
:1027200081E091FD84E090FD880F92FD82950E94EA
:10273000F606D0CF9BE5980F933028F480E090E028
:102740000E94E7090895885A8B3120F480E090E0D8
:102750000E940C0A0895CF93DF93EC010E94591355
:10276000CE01805E9109089720F061EC74E120971A
:1027700011F460EB74E1CE010E94E105DF91CF918D
:102780000895A3E0B0E0E7ECF3E10C946A348983A8
:102790008933A1F480913108909132088A839B8318
:1027A00089810E94A6128A819B81892B61F489818B
:1027B0000E9459132396E2E00C94863480912F08EE
:1027C00090913008EBCF8FE99FE00197F1F700C0BF
:1027D00000008A819B8101978A839B83E4CFA3E0D9
:1027E000B0E0E5EFF3E10C9464348A839B83EA81E3
:1027F000FB819081913060F109F058C08181813076
:1028000039F482813396EA83FB830E94C113EFCFB0
:10281000823049F4EA81FB8182813396EA83FB832B
:102820000E94A612E4CF833049F4EA81FB818281C1
:102830003396EA83FB830E945913D9CF843061F029
:102840002A813B812E5F3F4F2A833B838111CFCF6B
:102850002396E8E00C948034EA81FB8182813396F0
:10286000EA83FB8320E030E09AE0682F6053770B27
:10287000AB016A30710560F02115310539F3EFE9DC
:10288000FFE03197F1F700C0000021503109F4CF8B
:10289000929FB001939F700D11249A01260F371F4C
:1028A000EA81FB818191EA83FB83DFCF2A813B812F
:1028B0002F5F3F4F2A833B83E92FF0E0E75DFD4F19
:1028C00034913983292F26952695269530E0F901F4
:1028D000E75EFD4FE4909770F12C092E02C0F5944D
:1028E000E7940A94E2F7F901E75FFD4FC490D12C19
:1028F000092E02C0D594C7940A94E2F7F901E75073
:10290000FE4F049110E002C0159507959A95E2F7E5
:10291000E0FE03C081EE0E94A612C0FE03C086EE58
:102920000E94A61289810E94A61289810E945913D1
:10293000C0FE03C086EE0E945913E0FE03C081EE84
:102940000E94591300FF53CF8CE25FCF811539F0FD
:102950009091C907982B9093C9070E94551208952A
:10296000811521F00E94F6060E94551208958115E6
:1029700039F09091CC07982B9093CC070E94551278
:102980000895811541F080959091CC07892380931B
:10299000CC070E94551208951092C907E6E0F2E0B4
:1029A00086E0DF011D928A95E9F780E090E00E94C1
:1029B000E70980E090E00E940C0A1092CC070E9488
:1029C000551208950E94CC142FEF84E39CE021500F
:1029D00080409040E1F700C0000088E19AE00FB627
:1029E000F894A895809360000FBE90936000FFCF8D
:1029F000CF93DF938FEF9FEF44305105C0F0FB0181
:102A0000D081C1810E94CC14D0933508C3708091CD
:102A100036088C7FC82BC0933608609135087091BA
:102A2000360884E090E00E941C3580E090E0DF9161
:102A3000CF91089510922B0810922C088FEA809362
:102A400011081092120885E080932D0828E833E1E0
:102A5000209313083093140822E320932708109240
:102A6000280828EC2093290810922A0810922E0892
:102A700010922F081092300820E520933108109210
:102A80003208809333080E94380D0E94CC141092B3
:102A900035081092360880E084608093360860E044
:102AA00074E084E090E00E941C350E94550D08956A
:102AB000AAE0B0E0EEE5F5E10C945F34A090B60634
:102AC000B090B70681E08093B6061092B706812CCD
:102AD000912CE12C6401F12C15C0F8012591349161
:102AE000472D6F2D8E2D0E94E00C0E5F1F4F7394AB
:102AF00086E07812F2CFA6E0CA0ED11CF394B8E0BB
:102B0000FB1639F08601000F111F07551D4F712C60
:102B1000E4CFE39480E3880E911CA3E0EA12DACFBD
:102B20000E941A15FE01319689E0DF011D928A95F7
:102B3000E9F78FEF9FEF8D839E8387E08A870CE60E
:102B400011E0FE2EEF2E4AE050E0B8018F2D9E2DB1
:102B50000E942235065F1F4F0C3BB1E01B0799F71F
:102B6000A092B606B092B7062A96EDE00C947B349C
:102B700080E00E941C0D60E087E290E00E94FE343D
:102B80000E9458150E940C0D81E00E941C0D0895B2
:102B9000AAE2B0E0EEECF5E10C9469348FE092E04B
:102BA000FC0101962091F100208322E087319207F9
:102BB000B9F780911002893009F45AC0C8F4823004
:102BC00009F4B8C0833009F487C0813091F1809155
:102BD000E80083FFECC080910F02909110029A30C0
:102BE00008F0E5C0E92FF0E0E45CFA4C0C949D3469
:102BF0008A3009F48EC08B3051F780910F028132F8
:102C000031F78091130290911402892B01F7809182
:102C1000E800877F8093E8000E945F0B81E090913D
:102C20001102911101C080E0809302010E94CC1436
:102C3000CECF80910F02813A51F68091E800877FD4
:102C40008093E8008091130290911402892B61F027
:102C500060E080E090E070E00E94D50A8091E8009A
:102C60008B778093E800B3CF68E087E192E0F3CF01
:102C700080910F02813209F0AACF809113029091C6
:102C800014028D7F892B09F0A2CF8091E800877F05
:102C90008093E8008091E80082FF19C02091F30042
:102CA0008091F200922F029731F48091F1008130EF
:102CB00011F0863021F48091F10080930101809120
:102CC000E8008B778093E8000E945F0B80CF8091B3
:102CD000B8068111DFCF7BCF80910F02813A09F0D6
:102CE00076CF8091130290911402892B09F06FCF57
:102CF0008091E800877F8093E8008091E80080FF62
:102D0000FCCF809102018093F1008091E8008E77E2
:102D1000D9CF80910F02813209F059CF8091E8001C
:102D2000877F8093E8000E945F0B8091120280935E
:102D300000014DCF80910F02813A09F048CF809178
:102D4000E800877F8093E8008091E80080FFFCCF57
:102D500080910001D8CF803889F0823841F5809188
:102D600013028F70873018F58093E9008091EB0093
:102D700085FB882780F91092E90006C080915102F6
:102D8000880F90910C02892B9091E800977F909387
:102D9000E8008093F1001092F1008091E8008E77B6
:102DA00023C0811116C080911102813011F18091F0
:102DB000E80083FF0AC08091E800877F8093E800E5
:102DC0008091EB0080628093EB00AA96E3E00C9484
:102DD0008534823061F780911102811581F0109263
:102DE000E9008091E800877F8093E8000E945F0BF4
:102DF000DECF933009F080E080935102F0CF8091D4
:102E000013028F702FEF280F263088F68093E90089
:102E10002091EB0020FFE3CF933031F48091EB0061
:102E200080628093EB00DBCF9091EB0090619093F8
:102E3000EB0021E030E0A90101C0440F8A95EAF7D8
:102E40004093EA001092EA008091EB008860E9CF9D
:102E50008111ADCF109111021F778091E30080782E
:102E6000812B8093E3008091E800877F8093E800C6
:102E70000E945F0B8091E80080FFFCCF8091E3000F
:102E800080688093E30083E0111101C082E08093A9
:102E9000B8068DCF8058823008F089CF809111021A
:102EA000909112028C3D53E0950791F583E08A835F
:102EB0008AE289834FB7F894DE01139620E03EE062
:102EC00051E2E32FF0E050935700849120FF03C0BC
:102ED00082958F703F5F8F708A30C0F0895C8D93D0
:102EE0001D922F5F243169F74FBF8091E800877FE3
:102EF0008093E8006AE270E0CE0101960E94D50A54
:102F00008091E8008B778093E80051CF805DE7CF18
:102F1000292F30E02330310509F44EC078F52130F7
:102F2000310509F486C08BE590E0E4E4F1E022305D
:102F3000310509F03CCF2091E800277F2093E8007D
:102F400020911502309116028217930708F49C0114
:102F500040E02115310509F071C041116FC0809129
:102F6000E80082FDCDCF8091B806811549F2853009
:102F700039F28091E80083FFF2CFC2CF8091130233
:102F8000909114022132310509F444C022323105F6
:102F900009F00DCF8330910508F009CFFC01EE0F49
:102FA000FF1FE958FE4F0190F081E02D8C589E4F95
:102FB000DC018C9190E010C0282F30E0823011F1BC
:102FC0002330310568F4232BA9F4E5EFF1E0E49117
:102FD0008E2F90E0E5EFF1E0009709F4E8CEABCF5B
:102FE00009F0E5CEE1EBF1E0E4918E2F90E0E1EB2A
:102FF000F1E0F2CFE5EEF1E0E4918E2F90E0E5EE26
:10300000F1E0EACFEFECF1E0E4918E2F90E0EFEC0D
:10301000F1E0E2CF8330910508F0C9CEFC01EE0F5C
:10302000FF1FE358FE4F0190F081E02D89E090E012
:1030300082CF82E190E0EFE9F1E07DCF8091B806A8
:10304000811509F45DCF853009F45ACF8091E800ED
:1030500083FD56CF8091E80082FD81CF8091E8000A
:1030600080FF77CF4091F3008091F200942F2115DB
:10307000310519F08830910550F041E0089709F0CA
:1030800040E08091E8008E778093E80062CF449121
:103090004093F1003196215031090196E8CF8038F4
:1030A00009F085CE8091E800877F8093E8008091C9
:1030B0000D028093F10071CE811179CE1091110231
:1030C000123008F074CE8091E800877F8093E8008A
:1030D00010930D020E945F0B1115F9F084E08093AC
:1030E000B80642E061EC81E00E942F0B42E261EC05
:1030F00084E00E942F0B42E261EC82E00E942F0BE1
:1031000042E260EC83E00E942F0B8091B80684308D
:1031100051F482E0809303014ACE8091E30087FD61
:10312000DDCF81E0DCCF81E0F5CF80916301877F47
:10313000809363019091CC079D7F9093CC0784FF8F
:1031400008C08F7E809363018091C907826080935D
:10315000C9078091630185FF08C08F7D809363015B
:103160008091C90780628093C9070E945512089513
:10317000A4E0B0E0EEEBF8E10C9466348B839C8322
:103180008B0149838091630182FF6AC0E090B80798
:10319000F090B9072B813C81E216F30619F0232B3E
:1031A00009F05EC0809163018B7F8093630181FD94
:1031B00054C08091B6079091B7079801281B390B2E
:1031C00041E04A8380910F0190911001281739073F
:1031D00008F41A82809163019A8190FB81F98093AF
:1031E0006301692FC7010E9472098091C90781FF9D
:1031F00008C08091630180618093630182E00E9436
:10320000F6068091C90785FF08C08091630180623E
:103210008093630180E20E94F6066A81C7010E94E2
:103220004A132981211529F080912C08807680325B
:1032300069F180912F08909130080E94260C8091AE
:10324000B8079091B9079C013052303308F490E0F0
:103250000E94AB130E94951815C081E08A83BACFF3
:103260008B819C8190529033A8F48B8190E00E94D6
:10327000AB138091B8079091B9072B813C81281737
:10328000390741F30093B6071093B7072496E6E099
:103290000C9482348B819C81EACFA4E0B0E0E3E51A
:1032A000F9E10C946A348983A091AC07B091AD0721
:1032B000109709F455C01092AE071092AF07109204
:1032C00032071092310716968D919D9118978A8337
:1032D0009B839C0131503F3128F48A819B81907EF1
:1032E0008A839B839A8141E04C83911101C01C82A7
:1032F0001996ED91FD911B97309741F01B966D91BA
:103300007D9180E009959C8198239C834C81411597
:1033100039F08A818450813A38F58A810E944B0ABB
:1033200089818115A9F0E091AC07F091AD07808506
:1033300084FD0EC08091AB07811551F08081918191
:103340009C01215031092F333E4710F40E947C0A22
:103350000E9455121092AC071092AD071092AB0765
:103360002496E2E00C9486340E9455128A810E94D1
:103370005913D6CF9091360892FF10C0982F990F0D
:10338000990F990F962B9093CD070E942E060E94BD
:103390002F128093CE079093CF0708950E942E0698
:1033A00008959091C507292F282361F080958923DE
:1033B0008093C50790E081110E942F128093C3076C
:1033C0009093C4070895CF93C82F8091360882FF49
:1033D0000CC08091C5078C1741F00E942F1280937A
:1033E000C3079093C407C093C507CF910895A2E087
:1033F000B0E0EDEFF9E10C946A3489839A830E947E
:103400002F1229813A81821B930B2296E2E00C94C1
:103410008634ADE0B0E0EFE0FAE10C946434FE01F4
:10342000319688E0DF011D928A95E9F788E5E82E5C
:1034300081E0F82E8F01ED87C12EF70181917F0188
:103440008F3F09F43FC0F894E82FE295EF70F0E069
:1034500021A18F7041E001C0440F8A95EAF7842FC3
:10346000922F942B91A392A18095892382A3789483
:1034700000C0ECE5F1E031E0D12C21912F3F79F053
:10348000A22FA295AF70A05EB0E08C9190E02F705B
:1034900002C0959587952A95E2F780FF9EC080E04F
:1034A000D82A330F82E691E08E179F0731F7F70194
:1034B00082918F3F11F00E94EE0890EA9A95F1F701
:1034C000D801DC920F5F1F4FBCE5EB16B1E0FB06A5
:1034D00009F0B3CF48E050E06D857C2D81E097E0A6
:1034E0000E94B334009749F028E0ED85FC2DA1E05F
:1034F000B7E001900D922A95E1F70091000710E0E6
:103500000850194F892B09F46AC081E08093F706AF
:103510000E942F128093F5069093F606809109077A
:10352000811509F4B7C07E01E9E0EE0EF11C84E0DC
:10353000D7011D928A95E9F78091F0068A3008F04C
:1035400072C049E85FE0B701C8010E94340C8115E0
:1035500009F48EC040E85EE0B701C8010E94340C57
:10356000811509F485C040E35FE0B701C8010E94FE
:10357000340C811509F47CC04EE65FE0B701C80148
:103580000E94340C811509F473C04BE250E1B7017D
:10359000C8010E94340C811509F46AC041E55FE05E
:1035A000B701C8010E94340C811509F461C0109262
:1035B000F0068091F40690E044E050E0B7018850B6
:1035C000994F0E94B33421E02093F306892B09F030
:1035D00041C02D96E8E00C948034832F61CF809118
:1035E000F706811509F49ACFE090F506F090F606FB
:1035F0000E942F128E199F09059708F48FCF44E07F
:1036000050E061E077E0C8010E94B334892B41F0BB
:1036100084E0E1E0F7E0D80101900D928A95E1F7AE
:103620001092F7067BCFC090F106D090F2060E9470
:103630002F128C199D09843F914008F082CF809110
:10364000F306811531F284E0F70111928A95E9F7CA
:103650001092F306E091F406F0E0E850F94F898506
:103660009A85AB85BC8580839183A283B383B1CFD8
:103670008091F0068F3F39F40E942F128093F1065B
:103680009093F206DCCF8F5F8093F0068A3008F4C7
:1036900090CFF2CFF80180819181A281B381809394
:1036A000DB069093DC06A093DD06B093DE068BED7F
:1036B00096E00E9497098093DA06C090DF06D090CA
:1036C000E006E090E106F090E2068091EC06909131
:1036D000ED06A091EE06B091EF06C816D906EA06EF
:1036E000FB06C1F0C092EC06D092ED06E092EE0629
:1036F000F092EF060E945A0A87017601E61AF70A4D
:10370000080B190BE0920B07F0920C0700930D07C2
:1037100010930E078091E3068093C8078091E4061A
:103720008093C7078091E5068093EB068091E706BA
:103730001091E9069091E6069093C9078093CC0713
:103740008091E8060E94E3198091C6071813109330
:10375000C6078091EA06811519F00E94D21139CF6F
:103760000E94F61136CFA3E0B0E0E9EBFBE10C9448
:1037700068346A834B8329838115B1F06093C10754
:103780000E942F1280932702909328029A8181E051
:1037900091FD84E090FD880F92FD82950E94A61411
:1037A0002396E4E00C9484348091C1079A819813A5
:1037B00037C000912702109128020E942F12801B0F
:1037C000910B883C910560F51B81105E8A819B817D
:1037D0008917B1F087708A8301E0802F0A8001C0C9
:1037E000880F0A94EAF70E94B014183048F48B81CD
:1037F000877001C0000F8A95EAF7802F0E94A614F7
:1038000089810E94C1139B81183050F681E091FD9F
:1038100084E090FD880F92FD82950E94B014C0CF85
:103820009A81F4CFACE0B0E0E8E1FCE10C945B34C9
:103830007C01DC0114968C91811509F489C061E04A
:10384000C7010E940F0E8C018234BEE79B0709F46A
:1038500087C08334EEE79E0709F48BC08134FEE70E
:103860009F0709F459C0D70115963C9031108DC0BF
:1038700080916201811164C180912C0880FF36C360
:103880000E942F126C01D70115968C91811509F4B5
:103890003EC38091630182FF06C040E0B60180E034
:1038A00090E00E94B8180431BCE71B0709F42BC351
:1038B0000531ECE71E0709F4C4C20331FCE71F071A
:1038C00009F406C3C8019052903308F0C4C21092A4
:1038D000B8071092B907D70115969C91911509F474
:1038E00078C41092C107980130572332310508F08F
:1038F00070C484E090E00E94E8348093350890938F
:103900003608F801E150F047E232F10508F0A7C3AC
:10391000EA5BFA4C0C949D34F70185818115E1F046
:1039200081E00E942E0643E062E081E00E94B10641
:103930008091CD07877061F0D70115968C91811524
:1039400039F08091360882FF03C082E00E94DB06D6
:103950002C96E1E10C94773481E00E943906E3CFA4
:10396000D70115968C91811511F082E0DACF82E0B3
:10397000F4CFF7018581811521F083E00E942E06A6
:10398000D7CF83E00E943906D3CF9757803891056F
:1039900008F0BBC0D02EF0E10F1750F68FEF93E088
:1039A0000E94E0348111C4CF0CEB11E0D11034C07F
:1039B0005E013FEFA31AB30AD501E4E01D92EA9538
:1039C000E9F7C8010E94E0348983811509F4B0CF7A
:1039D0006801FFEFCF1ADF0A813009F092C0C601FB
:1039E0000E94E034782E8A83811509F4A1CF2FEF4D
:1039F000C21AD20A8FEF870D8330F8F40D5F1F4F84
:103A0000C6010E94E0348B83811519F0C5010E9424
:103A1000EF1368018601D0CF011524E0120709F4E5
:103A200087CFC8010E94E034811519F00F5F1F4F46
:103A3000F3CFDA940F5F1F4FB9CF8BEF870D833031
:103A400098F5480133E0830E911CC6010E94E034D2
:103A50008B8364018115F1F20C5F1F4F6801C40173
:103A60000E94E0348C838115A9F20B811C81013006
:103A70005FEF150710F0102F00E086E0781681F058
:103A800097E0791649F0C8010E944B2F80912F08CA
:103A9000909130080E94260CC8010E946B2FBACF6B
:103AA000C8010E944B2FB6CFA4E07A12B3CFC60153
:103AB0000E94E034982E811509F43ACFC80103968C
:103AC0000E94E034811509F433CF0C5F1F4F680169
:103AD000E82FE150FF0B4FEF4E9FC0014F9F900D1D
:103AE0001124492D4150550B840F951F009709F45F
:103AF00091CF0197AFE9BFE01197F1F700C0000047
:103B0000F5CFC5010E94EF1385CF0E35BCE71B072B
:103B100099F00F35ECE71E0749F00D35FCE71F075C
:103B200009F0A6CE80916201811531F010926201F8
:103B300080E00E944D19FCCE81E080936201F8CEB6
:103B4000380120EE621A71085090C6078091C907AB
:103B5000582A8091C507582A38E06316710408F086
:103B600059C09801277081E001C0880F2A95EAF7B3
:103B7000311409F44CC0582AD7018D919D910E94AF
:103B80007E0621E030E0F90102C0EE0FFF1F8A95AA
:103B9000E2F7E987FA872091AC073091AD072F83D0
:103BA00038874091B4075091B5074B875C8723E372
:103BB000C22E27E0D22EA12CB12C511005C0D60167
:103BC00012968C91811118C0F601838190E02985AD
:103BD0008223892B89F08085982F977009F487E0DC
:103BE00038E06316710408F05AC0311409F453C068
:103BF00086958170811158C09FEFA91AB90AAFE06C
:103C0000CA0ED11CB8E0AB16B104B9F61CC0809541
:103C10005822B2CF31102CC08091B4079091B507D3
:103C20000817190781F41092B4071092B507109283
:103C3000B0071092B1071092B2071092B30710921A
:103C4000AE071092AF078091AC079091AD07009737
:103C500009F412CEE8E06E16710408F0DEC0652D9E
:103C60000E94B009811108CE81E00E944D1904CE56
:103C70000093B4071093B5070E945A0A6093B007E7
:103C80007093B1078093B2079093B3071092AE0779
:103C90001092AF0771CF82FB882780F9ABCF311428
:103CA00009F4AACF80FFA8CFD6018D909D9008156A
:103CB000190519F4311409F49FCFEF81F885EC153B
:103CC000FD0509F499CFD6011D96ED91FD91309730
:103CD00021F08081811509F48FCF652DC6010E94E6
:103CE000B009811509F488CF81E00815190509F09C
:103CF00080E0482E43208114910441F0411006C019
:103D0000EB85FC858E169F0609F076CF80E00E9439
:103D10004D19C092AC07D092AD0781E08093AB07FC
:103D20008FE08A9DF0018B9DF00D1124ED5CF84F22
:103D300085818093320741100EC08114910459F09F
:103D4000808191819C0124503109213A310508F08C
:103D500048C00E944B0A8FE08A9DF0018B9DF00DB8
:103D60001124ED5CF84FC680D780C60191509F3179
:103D700010F420EED22299249394C60101978F3338
:103D80009E4708F0912C8FE08A9DD0018B9DB00D4D
:103D90001124AD5CB84F1996ED91FD911B973097AA
:103DA00031F01B966D917D9181E0099598229114D7
:103DB000A9F08FE08A9DF0018B9DF00D1124ED5C40
:103DC000F84F868197810E94C50580933107C6010F
:103DD00048E06416710440F40E947C0A0E94551267
:103DE0000AC00E945913B7CF0497813A910548F44D
:103DF0008C2D0E94310A411409F43ECD0E945512C7
:103E000097CD0E9455128FE39CE90197F1F700C00E
:103E100000008C2D0E94A612EECFDC012D913D9169
:103E20000217130731F4311007C01092AB0780E07E
:103E30001CCF311409F420CDFC01808585FD1CCDFB
:103E4000F6CF90916301892F8E7F90FF81608093E0
:103E500063010E9495188091630180FF47C008327A
:103E6000110508F069C00E31110508F076C0C801CF
:103E700004974A9790F580912C0884FD2EC0D701B5
:103E800015968C91811509F4C7C09091C90780914E
:103E9000C507882E892A282D2D7F09F463C010922A
:103EA000B8071092B90720912C0821FD5BC060E093
:103EB000C8010E94720960E0C8010E944A13809103
:103EC000C5078D7F0E94E31982E00E94DB0630CD9A
:103ED00080916301816080936301D70115968C9175
:103EE000811521F01092B8071092B907F70185816A
:103EF000F801E851FC47E730F10508F0ECCCE8594F
:103F0000FA4C0C949D34809163018E7FA0CF8091F8
:103F100063018F7E013E110531F0053E110531F43C
:103F2000809163018F7D8093630195CFC80190528A
:103F3000903308F090CFCFCC0933110558F40D32EF
:103F4000110518F40B32110541F680912C0882FD01
:103F5000C4CF95CF04361105F7CF80912C0883FD8F
:103F6000BCCF8DCF27E0F701AAEBB7E001900D920F
:103F70002A95E1F71092BC071092BD07A090B807F0
:103F8000B090B9070A151B0591F520912C0825FF63
:103F90002EC03091630131FB992490F831FF02C0AB
:103FA00026FF25C02091B6073091B707F601E21B26
:103FB000F30BE83CF105D8F491FF08C08091630150
:103FC00080618093630182E00E94F6068091C907B8
:103FD00085FF08C08091630180628093630180E265
:103FE0000E94F606692DC5010E944A13A1CC8D7F5F
:103FF0000E94E3190093B8071093B907C092B6075F
:10400000D092B707982D9270946080916301897F58
:10401000892B8093630158CF40E0B601C8010E940C
:10402000B81886CC26E241EE61EE0E94B31B80CC2C
:1040300027E245EE65EEF9CF26E241EE60EEF5CFE0
:1040400027E245EE64EEF1CF26E241EE62EEEDCFDF
:1040500027E245EE66EEE9CF28E241E0EBCF809122
:104060003508816080933508609135087091360875
:1040700084E090E00E941C350E94CC1459CC8091C1
:104080003608886080933608EFCF809135088260CB
:10409000E9CF809135088460E5CF8091350888604C
:1040A000E1CF809136088160EDCF80913608826043
:1040B000E9CF809135088061D5CF80913508806245
:1040C000D1CF809135088064CDCF0E94CC148091EF
:1040D00035088068C7CF809135088C60C3CF809148
:1040E00036088360CFCF809135088E7FBBCF80911B
:1040F0003608877FC7CF809135088D7FB3CF8091F9
:1041000035088B7FAFCF80913508877FABCF80910B
:1041100036088E7FB7CF809136088D7FB3CF8091E0
:1041200035088F7E9FCF809135088F7D9BCF809102
:1041300035088F7B97CF0E94CC14809135088F77FC
:1041400091CF80913508837F8DCF809136088C7F09
:1041500099CF90913508892F8B7F92FF8460877F5C
:1041600092FF88607FCF80913608982F909590FBC2
:1041700080F990FB81F986CF90913508892F8F7B4C
:1041800096FF80646FCF0E94CC1490913508892FE0
:1041900097FB87F9805866CF61E08EE090E00E943F
:1041A000FE3462CF60E0F9CF90913508892F8F7E81
:1041B00094FF806157CF90913508892F8E7F90FFB3
:1041C000816050CF90913608892F877F93FF886058
:1041D00059CF0631BCE71B07B9F58091C90730916B
:1041E0002B0830FD22C0282F2A7A31FF04C0482F27
:1041F000417109F020E032FF04C0482F487809F0EF
:1042000020E033FF03C0827209F020E0911591F0A5
:1042100081E0211101C080E08093C20785E3211174
:1042200001C089E20E94310AE9CD282F2474D9F215
:1042300020E0DBCF8091C207811521F085E30E9449
:104240004B0ADCCD89E2FBCF0737ECE71E07F1F024
:104250000837FCE71F07E1F09801205E3245203265
:104260003105C0F491112EC00F7181E090E09C01E6
:1042700002C0220F331F0A95E2F78901622F83E003
:104280000E94FE34802F0E94280652CB911547CB06
:1042900091156ACB9115B1F00A353CE7130709F483
:1042A000ABC008F082C001305CE7150709F4A2C07A
:1042B00003308CE7180709F497C001159CE719072C
:1042C00009F485C0F7018581C080D180811509F48A
:1042D00097C0C6010E94C20D182F682FC6010E9408
:1042E0004806B601812F0E94A50D0E94FB07182FDA
:1042F000D92E86E0F701DE01119601900D928A9584
:10430000E1F7D7011596BD90CC90C2949FE0C922E9
:104310008091CD07877001F19B2CB114F1F08D2DA8
:10432000807F803461F080E2810F8830A8F08D2D8D
:10433000807E803221F4123078F0C11469F08091CF
:10434000360882FF09C082E00E94DB068091CD071B
:104350008770992493948111912CAD2CA2948FE0B5
:10436000A822B8E0AB1609F47FC1E9E0AE1608F068
:1043700083C0F4E0AF1608F048C022E0A21608F4AB
:104380008EC00D2D0F708D2D807F803211F0029523
:10439000007F113008F4BEC009F429C1B11409F43A
:1043A00035C1C11409F4D2C092C00B35ACE71A076D
:1043B00029F180913608002482FF0394802D0C356A
:1043C000BCE71B0709F07ECF0E94C90C7BCF0E947F
:1043D000CC14EFEFF4E32CE0E150F0402040E1F7A3
:1043E00000C000000E94C20A6FEF7FEF80E090E003
:1043F0000E941C350E94E21481E0E6CF80E0E4CF09
:10440000C6010E947E06182F6CCF34E0A31609F473
:104410000FC1AA2DA850BB0B149718F40E94D00905
:10442000912C812F9D2D0E940406811541F0B1141D
:1044300009F425C2C11409F419C210923908911463
:10444000B1F08091CD0780FD12C0D70115961C9266
:104450008695869586950E942E06C7010E94121C9D
:104460008091CD078695869586950E94390660E0F5
:10447000C7010E940F0E6CCA49E0A41609F465C179
:1044800086E08A0D8F70823020F6123F09F06DC1F0
:104490008D2D8F71B11066C10E942E06BACF0D2DE1
:1044A0000F7050E1D51610F00295007FB114C9F0DD
:1044B000011569F080E2810F883010F011110BC0F6
:1044C0008091C907802B8093C9070E945512812FC4
:1044D0000E94A6129ECF8091CC07802B8093CC07A0
:1044E000F4CF812F0E945913011509F492CF80E275
:1044F000810F883010F0111104C0802F0E94F60641
:1045000006C000958091CC0780238093CC070E9441
:1045100055127FCF8091360882FD14C0B11459F036
:10452000011539F08091C907802B8093C9070E943B
:10453000551280E0CDCF80E00E945913011509F497
:1045400068CFDBCFB11491F1C11004C0802F0E945D
:10455000A6145FCFB1E0CB1211C08090C507802FA9
:104560008821081709F455CF0E942F128093C307A2
:104570009093C407802A8092C5074BCF80912D0865
:10458000823008F446CFC81244CF802F0E94A61470
:10459000802F0E94D1198091C607902F9823091768
:1045A00009F437CF802B8093C60733CFC11011C0D9
:1045B000802F0E94B014802F0E94D1198091C607CD
:1045C000902F982309F425CF009508230093C60760
:1045D00020CF80912D08823008F41BCFE1E0CE126D
:1045E00018CF8091C907802309F413CFE1CF8091C0
:1045F0003308B11421F08C1508F40BCFA7CFC816DF
:1046000008F007CF802F0E94B01403CFC114D1F35C
:104610008091310890913208193321F080912F0850
:10462000909130080E94260C812F0E945913F1CEE0
:104630008D2D869586958370813060F009F0E9CEE6
:10464000812F9D2D9370B11002C080E090E00E94F8
:104650000C0ADFCE812F9D2D9370B11002C080E037
:1046600090E00E94E709D5CE8D2D8370A1F5B110A1
:10467000D0CE812F829586958770880F880F412F25
:104680004F70082E01C0440F0A94EAF7212F2071C1
:1046900014FF06C02FE001C0220F8A95EAF720958B
:1046A0009D2D969596959370923081F0822F842B54
:1046B000933031F08091C707913029F0242B822369
:1046C0000E942806A6CE842B822BFACF242B809121
:1046D000C7078227F5CFB11461F1D0FE9ACE812FA2
:1046E000829586958770880F880F412F4F70082E0E
:1046F00001C0440F0A94EAF7212F207114FF06C06D
:104700002FE001C0220F8A95EAF720959D2D9695FE
:10471000969593709230A1F0822F842B933031F0D4
:104720008091C807913049F0242B82230E942B06E8
:1047300070CE823008F46DCED2CF842B822BF6CF90
:10474000242B8091C8078227F1CF0D2D0F70B11453
:1047500029F0802F0E942E06812FF9CE812F0E94F2
:10476000B014802F0E94390654CE60F4103FB9F087
:10477000113F81F0B11409F474C0C110A8CE8D2D81
:104780008F718ACE133F09F1143FA1F7809136084B
:1047900082FD27C08D2D8F71B11421F37DCE8091C4
:1047A0003308B11471F0C81608F033CE2D2D2F71D7
:1047B00081E001C0880F2A95EAF79091C807892700
:1047C000B5CF8C1508F425CEF1CF80E0B11409F4F3
:1047D000ADCF81E09D2D9F7101C0880F9A95EAF7BA
:1047E000A5CF80912D08823048F1B114C9F0909185
:1047F000CD079770943059F41092CD071092CE07E0
:104800001092CF078D2D8F710E94390607CE63E07D
:10481000C81608F003CE8D2D8F710E94BA19FECDF7
:10482000C81640F01092CD071092CE071092CF0715
:1048300064E0F1CF81E00E94DB06F0CDB11431F0ED
:1048400063E08D2D8F710E94BA19E3CD81E00E9443
:10485000DB06F2E0CF1608F4DCCD82E00E94DB0636
:10486000D8CDC110D5CE8D2D8F717CCF8091CB0747
:104870008093CA078091C9078093CB07E0CD40E0C1
:1048800060E089819A810E94F40D0091C907C114EA
:1048900029F0109239080093CB07D1CD2091370829
:1048A0003091380882179307B1F780912E0883FF63
:1048B000F0CF80913908811561F38091CA070E9479
:1048C000A614812F0E94C1138091CA070E94B014C0
:1048D000E0CF80911008803170F480910F0881152D
:1048E00051F0E091D1072091D00730910B08409111
:1048F0000A082E1301C00895BF0187E0E89FF00168
:104900001124DF01AE52B84F14968C911497811583
:1049100061F111968C911197831327C08C918413A8
:1049200024C015968C91159781111FC012968D91F8
:104930009D91A0910C08B0910D088A1B9B0B883C9F
:10494000910598F4809110088F7080618093100811
:10495000E852F84F80818F70806180838AE098E010
:104960000E94121C0E94D1060895FB013196E77047
:10497000C0CFADE0B0E0EFEBF4E20C945F348C011B
:1049800086E0F801DE01189601900D928A95E1F714
:10499000D80115968C907E9080910E08811118C0D8
:1049A000711499F0811409F47DC1C8010E942B0E85
:1049B000811509F477C187E0F801AAE0B8E0019019
:1049C0000D928A95E1F70E946924FF24F39442C076
:1049D000F8019080A180C280D38060E08AE098E0F6
:1049E0000E940F0EB0900F0880910C0890910D0856
:1049F0007601E81AF90AB11409F40DC1F8ECEF16C2
:104A0000F10408F0D8C0711401F380910B08D801AB
:104A100011969C91E0901008B0E1EB1608F092C05E
:104A2000F82C98131CC090910A08F8018081981303
:104A300016C081101BC08E2D8F708061809310086E
:104A40008AE098E00E94121C80911008D801169606
:104A50008C93F12C8F2D2D96EDE00C947B3480916E
:104A6000D1074091D007E82F811441F180911008BF
:104A700081608093100880912E0881FDEACF8AE042
:104A800098E00E94121C87E0EAE0F8E0DF011D9246
:104A90008A95E9F7DECF9F01B7E0EB9FF001112483
:104AA000EE52F84F9181A91206C09081991203C06D
:104AB00095819111FFC0F9013196E770E413EBCFB6
:104AC000481312C0888599850E94170E292F2295B8
:104AD0002F709034E8F02A5F2F70223068F1C801FF
:104AE0000E94121CFB2CB6CF9C01B7E08B9FF001FB
:104AF0001124EE52F84F8181A81206C080819812CD
:104B000003C085818111A5CFC90101968770D8CFD7
:104B10009F70223038F0911551F0F8019681903154
:104B200030F498CF911519F0811509F493CF805E78
:104B3000883008F48FCFD3CF803F08F48BCF815FCC
:104B40008330F7CF981316C090910A08D8018C9142
:104B5000981310C081100EC01696EC92C8010E94E6
:104B6000121C87E0F801AAE0B8E001900D928A9546
:104B7000E1F72BCFC8010E942B0E811509F492C0DA
:104B8000811409F48FC0B0E2EB1608F414CF8091C1
:104B90000A0890910B0889839A83CB82DC828091EA
:104BA0000E088D831E82809110088F83CE0101969E
:104BB0000E94121C00CFF0901008E0E1FE1608F4ED
:104BC0005ECF711409F401CF90910B08D8011196B2
:104BD0008C911197981313C090910A088C91981397
:104BE0000EC081100CC01696FC92C8010E94121CC7
:104BF00087E0EAE0F8E011928A95E9F7E6CEC8018D
:104C00000E942B0E811509F44DC0811409F44AC08D
:104C1000F0E2FF16BACF28ECE216F10408F046C025
:104C2000711409F4D2CE8114E9F190910B08D801E6
:104C300011968C91119798132BC090910A088C9122
:104C4000981326C060E08AE098E00E940F0E8091E1
:104C50002E0882FD86CF8091290890912A08E816B7
:104C6000F90608F07ECF9091100890FD7ACF903130
:104C700008F477CF892FF8019683907F903F09F44D
:104C80006DCF982F907F905F8F70892B868366CF32
:104C9000C8010E942B0E81118ECE80911008816078
:104CA00080931008C8010E94121C8FCE87E0AAE0F2
:104CB000B8E0EDCE90912E0890FF02CFE0CEABE1B0
:104CC000B0E0E5E6F6E20C9468344E8B5F8B688FBB
:104CD000798F082F8A8F192F9B8F811509F498C01F
:104CE00040E0692F8E899F890E94F40D111549F0CB
:104CF0001092390880933708909338081092CC07A7
:104D00000AC020913708309138082817390719F45C
:104D100081E0809339081D8A86E0FE017696DE01E7
:104D20001F9601900D928A95E1F78091360882FFD7
:104D300021C08091130890911408892BD9F00E940A
:104D40002F122091CE073091CF07821B930B209119
:104D50001308309114088217930738F08091CD071B
:104D600082FD03C082E00E94DB060E943B1281119B
:104D70000E94FE06011561F00B8B1C8B61E0CE01D9
:104D80000F960E940F0E61E0CE010F960E940F0E4B
:104D90000B8B1C8B87E0FE013F96DE01189601907D
:104DA0000D928A95E1F7CE0108960E94B9248111EF
:104DB00025C02091D0073091D10787E0FE013896B9
:104DC000DE01119601900D928A95E1F78C8581158F
:104DD000A9F0822F90E08395877090E0381719062C
:104DE000D9F40E94CC141092D0071092D10787E01A
:104DF000EAE0F8E0DF011D928A95E9F78091D1079A
:104E00009091D007891319C06B96E4E00C94843418
:104E1000911509F480CF72CF97E0929FD0011124B1
:104E2000AE52B84FFE01319601900D929A95E1F77E
:104E30008093D0070E94D106E1CFB7E08B9FC001DD
:104E400011248E52984F0E94B9248115E9F22091C5
:104E5000D1072F5F3F4FC90187708093D107CECF15
:104E6000A6E0B0E0E6E3F7E20C9468340E942F126B
:104E70008C0180911307909114078017910779F0A6
:104E800019821A820E942F12BC0149815A8180E046
:104E900090E00E945F260093130710931407269654
:104EA000E4E00C948434CDB7DEB7AE970FB6F89437
:104EB000DEBF0FBECDBF85B7806885BF85B7806870
:104EC00085BF84B7877F84BF0FB6F894A89580917B
:104ED0006000886180936000109260000FBE80E8DF
:104EE00090E00FB6F89480936100909361000FBE3C
:104EF00081E0809303018CEE98E08093020290930E
:104F000003020E945B110E94550D0E94080C0E9432
:104F1000AF0B8091E20084608093E20078948091EE
:104F2000B806811599F08091E9001091EC008F701E
:104F300010FB112717F9182B1092E9008091E80057
:104F400083FD0E94C8151F701093E90082E084BDA4
:104F500093E095BD9AEF97BD80936E0010920B077A
:104F600010920C0710920D0710920E070E94380E37
:104F7000811102C00E94B8158091D8008061809391
:104F8000D8002AE12A95F1F700C08091D900182FA6
:104F9000117080FD04C00E94080C1092B806109396
:104FA000090710930A071093040111110E94D232CD
:104FB0008091040181111EC084E98093580186E626
:104FC0008093590187E980935A0186EC80935B01B5
:104FD00086E0E4E6F1E0DE01119601900D928A95FB
:104FE000E1F786E0FE013196ACE5B1E001900D926B
:104FF0008A95E1F78091040191E08927880F880F55
:105000008093000794E0981B9093F40608E511E064
:105010009CE5E92E91E0F92ED8018D918D018F3F0D
:1050200011F00E94EE08E016F106B1F70CE511E070
:1050300082E6E82E81E0F82EF80181918F018F3F02
:1050400011F00E94EE08E016F106B1F788E0E8EFF3
:10505000F6E0DF01282F1D922A95E9F7E1E0F7E05D
:10506000DF011D928A95E9F780E090E00E94E83424
:10507000853E9E4F21F40E94380E811163C065EE7B
:105080007EEF80E090E00E941C3560E082E090E0DE
:105090000E94FE3481E08093C70761E083E090E0E6
:1050A0000E94FE3460E074E184E090E00E941C35D0
:1050B00060E086E090E00E94FE3460E087E090E0EF
:1050C0000E94FE3460E070E0AB0188E090E00E9456
:1050D000103560E083E290E00E94FE3460E08CE0F6
:1050E00090E00E94FE3460E08DE090E00E94FE348B
:1050F00019821A821B821C821D821E821F821886C0
:1051000048E050E067E170E0CE0101960E94EE3485
:1051100060E070E0AB018FE190E00E94103580E02C
:105120000E941C0D0E94B81560E070E0AB018FE09A
:1051300090E00E94103560E070E0AB0183E190E008
:105140000E94103582E090E00E94E0348093520289
:1051500084E090E00E94E83480933508909336080C
:105160000E94091AEFEFF6E721E0E150F0402040FD
:10517000E1F700C000000E94091A8091F80680FF44
:1051800008C06FEF7FEF80E090E00E941C350E9426
:10519000C20A83E090E00E94E0340E9428068091D9
:1051A000090791E08927880F8093A60680E88093FD
:1051B00065020E9434316BE070E084E299E00E9465
:1051C000C511811509F43FC08091A60665E070E025
:1051D00081FDA2C08FE199E00E94C511811599F16E
:1051E0006DE070E08DE099E00E94C511811559F1E4
:1051F0000E945A0ADC01CB01805A9541AF4FBF4F44
:105200008093AA069093AB06A093AC06B093AD062C
:10521000E6EAF2E080E094E0DF019C011D9221507B
:105220003040E1F7E0936302F09364028FEF9FEF69
:105230008093A8069093A90681E08093B00680939E
:10524000B9061092A70680910907811102C00E9439
:10525000D53285E091E080931507909316078091F1
:10526000B806853049F48091B806853009F457C0F6
:105270000E94CC140E94D0090E94091AA3E5EA2ECC
:10528000A2E0FA2EB8EFCB2EB6E0DB2EF601D70166
:105290009D9180812BE532E02A173B0709F477C006
:1052A00031969817A9F38090090710E0772473943A
:1052B000D6010D916D01F70191907F01901621F1BA
:1052C0009026AA24A394B12C892D8A21B1F08114AF
:1052D000A1F0B9821A830E942F128B839C837D8256
:1052E00091E0802F8A2109F490E09E8349815A81C0
:1052F0006B817C818D810E945F26B394AA0CF6E0BD
:10530000BF12E2CFF70102931F5F183089F60E94A7
:10531000660ADD24D39440C08AE199E05DCF809194
:10532000B806843031F10E94F6111092500288E1E3
:1053300090E0A0E40FB6F894A895809360000FBEAB
:10534000A093600083B7817F846083BF83B781604F
:1053500083BF7894889583B78E7F83BF0FB6F89408
:10536000A895809160008861809360001092600031
:105370000FBE0E94091AE8EFF6E08081811140C556
:10538000319620E037E02E173F07B9F76CCF98131E
:105390008ACF0E943027D12C80910907811509F40A
:1053A00059C00091AE071091AF070115110591F199
:1053B00080905F0290906002A0906102B0906202C3
:1053C0000E945A0A681979098A099B0980905B0230
:1053D00090905C02A0905D02B0905E026815790525
:1053E0008A059B05B8F0C8010E9434131092AE07DD
:1053F0001092AF0710925F02109260021092610249
:105400001092620210925B0210925C0210925D0296
:1054100010925E0280912C0880FF1CC08091630175
:1054200082FF18C00E942F122091B6073091B70753
:10543000AC01421B530B20910F0130911001421718
:10544000530740F041E0BC018091B8079091B90743
:105450000E94B8188091B006811509F449C10091E5
:10546000AE061091AF060E942F12801B910BC297BF
:1054700008F45BC00E942F128093AE069093AF0693
:1054800086EA92E0809363029093640281ED99E052
:105490000E944D1181E00E941F1189EC99E00E9449
:1054A0004D118091C8070E94F205823009F479C13C
:1054B00008F06AC1811172C180EC99E00E944D111F
:1054C0000E94E409182F8AE999E00E944D1180E9B1
:1054D00099E010FD02C08EE899E00E944D1183E929
:1054E00099E00E944D1184E899E011FD02C082E824
:1054F00099E00E944D1187E899E00E944D1181E7E3
:1055000099E012FD02C08FE699E00E944D1181E002
:105510000E941F1184E799E00E944D1181E00E94D2
:105520001F118FE299E00E944D118091A806909181
:10553000A906892B09F4C3C08091B006811509F42E
:10554000BEC08091A7068111BAC00E94D21180917D
:10555000A8069091A906009709F4B1C080FBEE243B
:10556000E0F8F12C612C80FD0FC041E050E0639425
:105570007A01062C02C0EE0CFF1C0A94E2F7970198
:1055800028233923232B99F38091A60680FF0FC18E
:10559000962D990F990F990F37E0390F80E027E08A
:1055A00090931301809316013093140120931701F7
:1055B00024E630E047E050E061E171E088E70E94D6
:1055C0006F31892B09F07BC030E4639E30011124D8
:1055D0008091A60680FFFBC0A6E6B2E0E0E41D9243
:1055E000EA95E9F72BE831E02DA73EA763E871E0E3
:1055F000E3E9AE2EE1E0BE2EADA5BEA59D91ADA71F
:10560000BEA7FB018191BF019301280F311D2BA77C
:105610003CA7E92FF0E0EA59FD4F20E030E057E0E9
:10562000852E821ACC24C394022E01C0CC0C0A947D
:10563000EAF70BA51CA50A551D4F90E0D8018D91E6
:105640008D018C21482D491B477050E0B82F042E46
:1056500001C0BB0F0A94EAF7519541955109477073
:1056600001C086954A95EAF78B2B4081482B4083F1
:105670009F5F983019F72F5F3F4F319628303105E3
:1056800071F68DA59EA5A816B90609F0B5CF04E65A
:1056900010E020E430E046E652E060E488E70E9453
:1056A0001D32892B61F4E094F0948091A8069091CA
:1056B000A906E822F922E092A806F092A9068091B4
:1056C000B9068115A9F00E945A0A0091AA06109104
:1056D000AB062091AC063091AD06601B710B820BBE
:1056E000930B6F3F7F4F8F4F9F4710F40E94F6112F
:1056F000D1100E94D2110E94D0099091B106891751
:1057000021F08093B1060E945A0A8091B806843035
:1057100009F0A5CD83E08093E9008091E80082FF45
:105720009ECD8091E80090E085FF0AC00E947E0B2C
:1057300040E2E42EF12C8E01811509F459C091E06C
:105740008091E8008B778093E800911509F487CD6C
:105750000091110710911207E9810115110509F453
:1057600057C0EE3F09F078C08A81833020F0855021
:10577000833008F071C0EA81EE3008F06DC0F0E0CF
:10578000E159FA4C0C949D34833071F080EA99E031
:105790000E944D1181E00E941F1192CE89EB99E089
:1057A0008DCE82EB99E08ACE8AEA99E087CE20E41A
:1057B000629EC0011124880F892F881F990B919533
:1057C000282F60FA992796F93FE3390FE9CEA30114
:1057D0004A555D4F04E610E020E430E05ECF809152
:1057E000F100D8018C93B1E0EB1AF10809F4A7CFCE
:1057F0000F5F1F4F8091E80085FDF1CF8091E80099
:105800008B778093E8000E947E0B811599F397CFE8
:10581000E43150F4E11559F0E150E33140F4F0E0A7
:10582000E358FA4C0C949D34EE3F09F4A4CF8FEF6B
:1058300013C31A8289E08B830FC08A818230A9F05A
:105840008330E1F0813099F70E945A0A0E94A33414
:105850006B837C838D839E8340E250E0BE016F5F4B
:105860007F4F82E00E94730CFACC87E290E00E94A6
:10587000E0341B821C821D828E83EECF8091B6069F
:105880009091B706892B41F388E0E8EFF6E0DE015E
:10589000139601900D928A95E1F7DECF8A818230CE
:1058A00031F66B817C818D819E810E94A33487E2D9
:1058B00090E00E94FE34D0CF4C816B818A810E949F
:1058C0007B0D9C013827232732272D833E83C4CFAD
:1058D0002D813E813227232732274C816B818A819B
:1058E0000E94E00CB9CF0E945815B6CF80E18A83A0
:1058F000B3CF82E08A8384E49ECF8C818D3108F01F
:10590000ABCFCA80DB80DC24CD24DC247601E80E1A
:10591000F11C8E010B5F1F4FEC14FD0409F49CCFAA
:1059200080E0E4E4CE16E2E0DE0628F4C60184540A
:105930009E4F0E94E034D8018D938D01BFEFCB1AAA
:10594000DB0AEACF8091B6069091B706892B09F45D
:1059500083CF8C818D3108F07FCF0A811B81102786
:10596000012710276E01EFEFCE1ADE0A7601E80E4E
:10597000F11CCE14DF0409F46FCF0434F2E01F07EA
:1059800040F4D60114966C91C80184549E4F0E9435
:10599000FE340F5F1F4FBFEFCB1ADB0AEACF0E9426
:1059A0000C0D5ACF83E0A3CF8C818D3108F054CFFA
:1059B000CA80DB80DC24CD24DC247601E80EF11CD7
:1059C0008E010B5F1F4FCE14DF0409F445CF80E03A
:1059D000E0E2CE16E1E0DE0620F4C60188960E94E1
:1059E000E034D8018D938D01BFEFCB1ADB0AEBCFEA
:1059F0008C81E82EF12C8D3108F02ECF0A811B818D
:105A00001027012710270032E1E01E0708F024CFFD
:105A100080E291E0801B910B8E159F0508F41CCF4E
:105A20008091B6069091B706892BE9F54801F8E216
:105A30008F0E911C00FBCC24C0F8D12C00FF0DC0B0
:105A4000C80187960E94E0349D81292F382FC90113
:105A500081159C4711F48FEF8D83C701800F911F33
:105A6000570180FF18C041E0A41AB10835E0632E49
:105A7000712C6C0E7D1E6A0C7B1CC4018E0D9F1D4B
:105A80000E94E034D3012C91922F81159C4719F488
:105A90008FEFF3018083FE013196EC0DFD1D2FEF9A
:105AA000CA14DB0430F0FE0131966F01EE0EFF1ECA
:105AB0001DC044818581942F81159C4711F4248356
:105AC000258342E0C40ED11C3296EACF003281E039
:105AD000180738F4D60114966C91C80188960E9474
