:1000000065C4000080C400007EC400000C94F7208A
:100010007AC4000078C4000076C4000074C40000F4
:1000200072C4000070C400000C94D1250C949D266D
:100030000C94431E68C4000066C4000064C4000041
:1000400062C4000060C400005EC400005CC4000024
:100050005AC400000C94BA1E56C4000054C40000D8
:1000600052C4000050C400004EC400004CC4000044
:100070004AC4000048C4000046C4000044C4000054
:1000800042C4000040C400003EC400003CC4000064
:100090003AC4000038C4000036C4000034C4000074
:1000A00032C4000030C400002EC40000808182836E
:1000B0008485868788898A8B8C8D8E8F9091929388
:1000C00094A0A1A2A3A4A5A6A7A8A9AAABACADAED3
:1000D000AFB0B1B2B3B4C0C1C2C3C4C5C6C7C8C94A
:1000E000CACBCCCDCECFD0D1D2D3D400202020507B
:1000F0006F776572656420427900535F4F464620F2
:100100000053525F4F4E2000435F4F46462000434E
:10011000505F4F4E20004E5F4F464620004E4C5FD2
:100120004F4E2000556E646566696E6564005261CD
:100130006973650A004C6F7765720A0044656661F1
:10014000756C740A004C617965723A200053696DD0
:10015000706C65204B65790014001A0008001500CA
:100160001700000004001600070009000A00000044
:100170001D001B000600190005002602E100E0003A
:100180002B00E200427E2C00130012000C0018002D
:100190001C00000033000F000E000D000B000000DB
:1001A0003800370036001000110027022D003504FA
:1001B0004C002A00417E28001E022D0025022E023E
:1001C0003800000029002002350222022E00000023
:1001D0002B00010001002D022D002F02E100E000A4
:1001E0002B00E200427E2C00310224021F02230277
:1001F00021020000330234003700370236020000CB
:100200003800370036003100380230022D00350446
:100210004C002A00417E28003A003B003C003D0093
:10022000010000003E003F004000410001000000CE
:10023000420043004400450001002F00E100E000BF
:100240002B00E200427E2C00010027002600250042
:1002500024000000010053002300220021000000C0
:100260003800370020001F001E0030002D0035042C
:100270004C002A00417E280000AE00AF00DA128157
:10028000FFD9F1DB20A4A62EAF00A0C0D30000A1AF
:10029000C8D30000AED580A83F408D1420000708C9
:1002A0007F0807003E5B4F5B3E003E6B4F6B3E009E
:1002B0001C3E7C3E1C00183C7E3C18001C577D57A1
:1002C0001C001C5E7F5E1C0000183C180000FFE74D
:1002D000C3E7FF00001824180000FFE7DBE7FF007A
:1002E00030483A060E00262979292600407F050568
:1002F0000700407F05253F005A3CE73C5A007F3EFF
:100300001C1C0800081C1C3E7F0014227F221400C5
:100310005F5F005F5F0006097F017F0000668995CF
:100320006A0060606060600094A2FFA2940008040C
:100330007E04080010207E20100008082A1C0800F7
:10034000081C2A0808001E10101010000C1E0C1E9D
:100350000C0030383E383000060E3E0E060000001D
:100360000000000000005F00000000070007000020
:10037000147F147F1400242A7F2A12002313086498
:100380006200364956205000000807030000001C98
:10039000224100000041221C00002A1C7F1C2A0070
:1003A00008083E08080000807030000008080808AF
:1003B00008000000606000002010080402003E51A8
:1003C00049453E0000427F400000724949494600CD
:1003D0002141494D33001814127F1000274545452F
:1003E00039003C4A49493100412111090700364989
:1003F00049493600464949291E0000001400000002
:1004000000403400000000081422410014141414A9
:1004100014000041221408000201590906003E415F
:100420005D594E007C1211127C007F49494936000B
:100430003E41414122007F4141413E007F494949BF
:1004400041007F09090901003E41415173007F08C5
:1004500008087F0000417F4100002040413F01002B
:100460007F08142241007F40404040007F021C0270
:100470007F007F0408107F003E4141413E007F091C
:10048000090906003E4151215E007F0919294600F5
:1004900026494949320003017F0103003F404040A3
:1004A0003F001F2040201F003F4038403F006314A2
:1004B000081463000304780403006159494D4300A4
:1004C000007F4141410002040810200000414141E9
:1004D0007F0004020102040040404040400000034D
:1004E000070800002054547840007F284444380016
:1004F000384444442800384444287F003854545435
:10050000180000087E09020018A4A49C78007F0847
:100510000404780000447D4000002040403D00007D
:100520007F102844000000417F4000007C047804D4
:1005300078007C0804047800384444443800FC18EF
:100540002424180018242418FC007C080404080043
:1005500048545454240004043F4424003C404020A8
:100560007C001C2040201C003C4030403C004428C3
:10057000102844004C9090907C004464544C4400FB
:1005800000083641000000007700000000413608F6
:1005900000000201020402003C2623263C00000069
:1005A00000000000404040F0F8F8FF38FFF8F83F46
:1005B000F8F8FF38FFF8F8F0404040000000000075
:1005C0000080C0C0C0800000C0C08000000080C0AB
:1005D000C000C0C0000080C0C00000000000C0C05B
:1005E000C0C0C000C0C0000000000000000000004B
:1005F00000000000000000000000000000000000FB
:1006000000000000000000000000000000000000EA
:1006100000000000000000000000000000C0F0F832
:10062000FC3E1E06010000007F4141417F007F41EA
:1006300041417F000080C0E07E5B4F5BFEC0000058
:10064000C000DCD7DEDEDED7DC00C000000000002A
:10065000000000000000000000000000000000009A
:1006600000000000494949FFFFFFFFE0DFBFBF0076
:10067000BFBFDFE0FFFFFFFF494949000000000066
:100680001F3F6060E0BF1F007F7F071E381E077F8F
:100690007F007F7F0E1F3B716000000000007F7FA6
:1006A0000C0C0C007E7E007F7E0303007F7E030324
:1006B0007E7E03037F7E000F3E703C063C703E0F43
:1006C00000327B49493F7E007F7E0303001E3F6965
:1006D000696F2600000000000000000000030F1FEB
:1006E0003F3C7870600000007F4141417F007F41C6
:1006F00041417F00307B7F7830202030787F3B0085
:1007000003000F7F0F0F0F7F0F000300000000009A
:1007100000000000000000000000000000000000D9
:1007200000000000010101070F0F7F0F7F0F0F7EF8
:100730000F0F7F0F7F0F0F07010101000000000066
:1007400000000000000101000000000000000000A7
:100750000000000000000000000000000000000099
:100760000000000000000000000000000000000089
:100770000000000000000000000000000000000079
:100780000000000000000000000000000000000069
:100790000000000000000000000000000000000059
:1007A0000000000000000000000000000000000049
:1007B0000000000000000000000000000000000039
:1007C0000000000000000000000000000000000029
:1007D0000000000000000000000000000000140302
:1007E000730069006D0070006C0065006B006500AF
:1007F000790000000E0344006E006500630068008D
:10080000690000000403090409023B00020100A082
:10081000FA0904000001030101000921110100018E
:1008200022440007058103080001090401000103B7
:100830000000000921110100012232000705820396
:100840002000011201000200000008EDFE0000007F
:10085000010102000105010980A101850319012A96
:10086000B700150126B700950175108100C0050C71
:100870000901A101850419012AA002150126A0027F
:10088000950175108100C005010906A10105071930
:10089000E029E7150025019508750181029501758C
:1008A0000881010507190029FF150026FF0095069C
:1008B0007508810005081901290515002501950510
:1008C00075019102950175039101C00011241FBEAD
:1008D000CFEFDAE0DEBFCDBF11E0A0E0B1E0E6E7A8
:1008E000F2E502C005900D92A03FB107D9F727E0CD
:1008F000A0EFB1E001C01D92A735B207E1F70E9459
:1009000026180C9406297CCBCF9360E08DE491E00F
:100910000E94AF1960E085E491E00E949E198091E9
:10092000100290911102A6D160E0813099F18230DD
:10093000A1F1811135C08CE391E00E949E190E94C3
:10094000EA1CC82F8DE191E0C0FD02C086E191E074
:1009500060E00E949E198FE091E0C1FD02C088E036
:1009600091E060E00E949E1981E091E0C2FD02C02A
:100970008AEF90E060E00E949E1960E08CEE90E0CB
:100980000E94AF1960E08CEA90E00E949E1980E01E
:10099000CF91089585E391E0D0CF8EE291E0CDCF65
:1009A00084E291E00E94AF19CACF9C01FB0122347E
:1009B0008EE73807A9F023348EE73807C1F02134D9
:1009C0003E47F1F48581811541F081E05FD543E038
:1009D00062E081E09AD680E0089581E065D5F7CFA6
:1009E0008581811511F082E0F1CF82E0F7CF85811A
:1009F000811519F083E04AD5EECF83E055D5EBCFD2
:100A000081E00895CF93C82F0E94BB14811519F07F
:100A10008C2FCF91089582E0FCCF8330B8F46830FA
:100A2000A8F4463098F4E42FF0E096E0699FE00DDA
:100A3000F11D112490E3899FE00DF11D1124EE0FAB
:100A4000FF1FE85AFE4F85919491089581E090E050
:100A50000895E3CF089581E0089581E00895FBCFE4
:100A6000089581E0089581E008959FCF0895089545
:100A70000895FDCF089508950895A6E0B0E0E3E459
:100A8000F5E00C94842849835A839E833091F701C2
:100A900089819A81311117C03E81311589F0211564
:100AA00079F0ABD5182F682F89819A8185D5698116
:100AB0007A81812F0E943F112696E3E00C94A028B2
:100AC0008CD5182FF4CF99D569817A81F3CFFC01A9
:100AD000262F408151816281738184819581CDCFA0
:100AE000CF93DF93D82FC92F61E0F1DF6D2F7C2FDB
:100AF000B4DF811539F061E08D2F9C2FE8DF6D2F79
:100B00007C2FADDFDF91CF9108950F931F93CF938B
:100B1000DF93D82FC92F60E0DADF8C016D2F7C2F97
:100B2000A7DF6D2F7C2FC801A4DFDF91CF911F912C
:100B30000F91089521E030E0A90102C0440F551F34
:100B40008A95E2F7CA0171C4CF93C82F81E090E083
:100B50000C2E02C0880F991F0A94E2F70E944E0FD4
:100B60008C2FE8DFCF91089581E0089581E008950A
:100B7000FBCF0895CF93C82F07D48C2FF7DF8C2F8E
:100B8000F7DF2FEF84E39CE0215080409040E1F7B5
:100B900000C00000CF91089581E0ECDF0C94DE1ED0
:100BA00080E0E8DF0C94EF1E0F931F93CF93DF9349
:100BB0008C0161E08CDFEC01B80155DF811509F48F
:100BC0003FC0B801CE0151DF8115D1F1B801CE018E
:100BD0000E948B1C8115A1F1B801CE010E94521B0D
:100BE000811571F1B801CE010E94291B811541F1D7
:100BF000B801CE010E948412811511F1F80185819E
:100C0000811581F0CA35FCE7DF0721F170F4C130AE
:100C1000ECE7DE07E9F0C330FCE7DF07B9F0C11508
:100C2000DC4769F0C8011DDF0CC0CB35ECE7DE07FF
:100C3000A1F0CC35DC47B1F70E94120FF3CFACDF47
:100C400080E0DF91CF911F910F9108950E94460F90
:100C5000A7DFF6CF0E94190FE5CF0E941B0FE2CF4E
:100C60000ADF0E940B1E38D00C94BB1A37D004DF69
:100C70000C940F1E292F30E048E0911102C09C0116
:100C800040E0C90164E0969587956A95E1F7009781
:100C900011F04C5F9C01C9019695879596958795B3
:100CA000009711F04E5F9C01C90196958795840FBE
:100CB000089581E008950895CF93DF93D82FF9DF49
:100CC000C82F811511F08D2FF6DF8C2FDF91CF917A
:100CD00008950895F1CF089580E0FCCF0E94D41CC0
:100CE000F9CFCF930E94D41CC82F8091F2018C17AA
:100CF00071F0C093F2010E94AE1E6093F3017093F5
:100D0000F4018093F5019093F6018C2FE3DFCF91EE
:100D10000895ADE0B0E0EFE8F6E00C948528488750
:100D200059876A877B878C879D879111B6D71F82E9
:100D300086E0FE013896DE01119601900D928A95AB
:100D4000E1F78D8181110CC029813A814B815C8151
:100D50006D817E818F81E5D62D96E2E00C94A128ED
:100D6000CE010196BDDE8111EFCFF6CFFC0184816B
:100D7000813019F48081918171C40895CF93C82F77
:100D80008115C1F08238C1F40E94EA1C81FD12C0B5
:100D900089E30E94991D0E94CE0E2FEF37EE83E06B
:100DA000215030408040E1F700C0000089E30E94FC
:100DB0009F1DF4D7CF910895833899F40E94EA1CBF
:100DC00080FDF8CF83E50E94991DE8D79FEF21EEC3
:100DD00034E0915020403040E1F700C0000083E54E
:100DE000E6CF843899F40E94EA1C82FDE3CF87E4C1
:100DF0000E94991DD3D78FEF91EE24E0815090404F
:100E00002040E1F700C0000087E4D1CF8CEF8C0FC9
:100E1000813A68F48C2F0E945D1D811521F08C2F82
:100E20000E949F1DBBD78C2F0E94991DC2CF80E2CC
:100E30008C0F883040F4C77081E001C0880FCA95DC
:100E4000EAF703D7B6CF8BE58C0F833038F42C2F1D
:100E50002452330BC9010E94F91CACCFC85ACB31C4
:100E600008F0A8CFEC2FF0E0EE0FFF1FE659FE4F81
:100E7000808191810E94211D9DCF811509F446C07A
:100E8000823861F40E94EA1C81FF40C089E30E941D
:100E9000991D84D789E30E949F1D80C7833851F430
:100EA0000E94EA1C80FF32C083E50E94991D76D71C
:100EB00083E5F1CF843851F40E94EA1C82FF26C0FA
:100EC00087E40E94991D6AD787E4E5CF9CEF980FCD
:100ED000913A08F390E2980F983048F4877091E0C7
:100EE00001C0990F8A95EAF7892FB5D6D6CF9BE531
:100EF000980F933020F480E090E00C94F91C885A0D
:100F00008B3120F480E090E00C94211D08950F9324
:100F10001F93CF93C82F8B0131DF0115110531F4D9
:100F20008C2FABDFCF911F910F9108958FE99FE038
:100F30000197F1F700C0000001501109EECF60E504
:100F400070E0893311F060E070E0E1CF811511F0BD
:100F50007CD624C70895811511F07DD61FC708954A
:100F6000A0E0B0E0E6EBF7E00C947F286C01D62F10
:100F7000C72FFC010581F680F2948FE0F8225AD643
:100F8000E82E8115E9F0E02E0115D1F08C2F807F3D
:100F9000803461F080E28D0F883088F18C2F807E64
:100FA000803221F4D23058F1F11449F180912703B5
:100FB00082FF25C082E00FD73DD691E0E82EE926DA
:100FC0008C2F82958F70883009F4CAC060F5843008
:100FD000C0F41C2F1F708230B0F1C07FC03211F0FE
:100FE0001295107FD11509F456C0D13009F47DC097
:100FF000011509F488C0F11409F465C035C0E12C6D
:10100000DFCF843009F48FC0E11409F4DAC00ED6C2
:1010100080FDD7C0F601158203D638D2C60189D12A
:10102000FFD542D2CEC0893009F40DC18A5F8F70DE
:10103000823050F7D23F09F013C18C2F8F7101110C
:101040000DC124D2BBC0C03110F01295107F011524
:1010500081F0111549F080E28D0F883010F0D11128
:1010600005C0812FF2D59AD68D2F21C0812F04D6AD
:10107000FACF8D2F02DF111509F4C6CF80E28D0F54
:10108000883010F0D11103C0812FE5D502C0812F27
:10109000F9D584D6B9CF8091270382FD10C0011500
:1010A00041F0111519F0812FD0D578D680E066DE99
:1010B000ABCF80E0E2DE111509F4A6CFE5CF011534
:1010C00059F0F11003C0812F41DF9ECFF1E0FF12F4
:1010D0009BCF812F02D698CFF11096CF812F3BDF87
:1010E000812F06D6812FEAD58FCF011529F026E072
:1010F000F21608F089CFE7CF85E0F81608F084CF24
:10110000812F29DF81CFF114D9F3D93349F49FEF2F
:10111000E7EEF3E09150E040F040E1F700C000005E
:101120008D2FABDE71CF8C2F8695869583708115C0
:1011300069F0813009F068CF8D2F9C2F93700111D9
:1011400002C080E090E00E94211D5ECF8D2F9C2F79
:101150009370011102C080E090E00E94F91C54CF0E
:101160008C2F8370811138C0011128C04D2F4295FA
:1011700046954770440F440F2D2F2F7030E0042EFA
:1011800002C0220F331F0A94E2F780E090E0D4FF00
:1011900009C08FE090E002C0880F991F4A95E2F7DE
:1011A00080959095C695C695C370822B932BC230BF
:1011B00079F0C33079F0C13049F040D10E94D41C9D
:1011C00089DDCDB7DEB7E8E00C949B2830D1F6CFAF
:1011D0003CD1F4CF2AD1F2CF011559F1C0FFEECFA7
:1011E0004D2F429546954770440F440F2D2F2F7079
:1011F00030E0042E02C0220F331F0A94E2F780E091
:1012000090E0D4FF09C08FE090E002C0880F991FE2
:101210004A95E2F780959095C695C695C370822B46
:10122000932BC23061F0C33061F0C13031F061D135
:10123000C5CF823008F4C2CFD3CF54D1BFCF60D155
:10124000BDCF10D1BBCFCF70011529F08C2F1ED18F
:101250008D2F7CDEB3CF8D2F7EDE8C2F25D1AECFB0
:1012600060F4D03FB9F0D13F81F0011509F43AC0E4
:10127000F114A9F18D2F82DDA1CFD33FC1F0D43F6E
:10128000A1F78091270382FD1AC08C2F8F71011561
:1012900029F3D7CE011541F025E0F21608F08ECFE4
:1012A0008C2F8F7111D18ACF86E0F816F7CF0115F8
:1012B00021F08C2F8F71E0D081CFDBD07FCF011553
:1012C00029F063E08C2F8F716ED578CF81E083D5C4
:1012D00092E0F91608F472CF82E07DD56FCF8C2FA3
:1012E0008F71AFCEF11471F0D93349F4EFEFF7EE0F
:1012F00023E0E150F0402040E1F700C000008D2FD6
:10130000BCDD5CCF8C2F8F71A9CF0F931F93CF9330
:10131000DF93EC01688179818D81ABD18C01F7D0AD
:1013200083D0B801CE011CDEDF91CF911F910F91C8
:101330000895CF93DF93EC018C81811581F0CE016C
:1013400033DC81110FC076D4811549F08D81811570
:1013500031F08091270382FF02C082E03CD5DF910B
:10136000CF910895CE01D1DFCE01CFDBF8CF80E061
:1013700090E00E94F91C80E090E00E94211D8DD435
:101380000DC50E94A51DF3CF71D4FBCF282F9295D8
:101390009F70963099F060F4925F9F70923030F4B5
:1013A000203FB1F038F481E0283E38F080E0089525
:1013B0009A5FF3CF81E0243FC9F7089591E0813F20
:1013C00009F090E081E0283E08F080E0892B089544
:1013D00081E00895FC018481811521F08081918153
:1013E0003DD1D4CF80E00895A6E0B0E0EAEFF9E087
:1013F0000C9485282696E2E00C94A128A7E0B0E0A2
:10140000E4E0FAE00C9485282796E2E00C94A12809
:101410000895FECF0895FDCF0895FADFFCDF909385
:1014200013028093120208950895F7CF0895209132
:10143000120230911302822B932BEFCF20911202D4
:101440003091130282239323E8CF2091120230912E
:10145000130282279327E1CFDBCF0895FDCF0895B4
:10146000D7CF0895FDDFFADF909311028093100229
:10147000089580E090E0F6CF21E030E0A90102C0BD
:10148000440F551F8A95E2F7CA01ECCF21E030E006
:1014900002C0220F331F8A95E2F7809110029091CB
:1014A0001102822B932BDECF21E030E002C0220F0D
:1014B000331F8A95E2F72095309580911002909124
:1014C000110282239323CECF21E030E002C0220F0D
:1014D000331F8A95E2F780911002909111028227C2
:1014E0009327C0CF2091100230911102822B932BB1
:1014F000B9CF209110023091110282239323B2CFF1
:10150000209110023091110282279327ABCF0895CA
:101510009B01677091E001C0990F6A95EAF763E05B
:10152000369527956A95E1F7220F331F220F331F57
:10153000FA01E20FF31F40E050E0682F70E0819164
:10154000DF019B01042E02C0369527950A94E2F72D
:10155000217021952827292328272E934F5F5F4F3D
:101560004430510561F708959C01982F977083E0EE
:10157000369527958A95E1F7220F331F220F331FE7
:10158000FB01E20FF31F40E050E080E0219130E0EA
:10159000092E02C0369527950A94E2F72170332769
:1015A000042E01C0220F0A94EAF7822B4F5F5F4F8F
:1015B0004430510559F70895282F862F983060F44C
:1015C000263050F4622F70E026E0929F600D711D6E
:1015D000112448EF51E09CCF0895292F983058F4FA
:1015E000863048F490E068EF71E036E0239F800D8C
:1015F000911D1124B9CF80E00895A0E0B0E0E3E0B0
:10160000FBE00C947E288C01E0901002F090110217
:101610008091120290911302E82AF92ACFE0D0E0DB
:10162000CC24C394D12CC6010C2E02C0880F991F64
:101630000A94E2F78E219F21892B49F4219798F78C
:10164000B12C8B2DCDB7DEB7E9E00C949A28BC2ED7
:10165000B8018C2F1FD6019789F3F3CFCF93DF9377
:10166000D82FC92FCADF6D2F7C2F14D6DF91CF91D1
:1016700008951F93CF93DF93162FD72F9091F701E3
:10168000911539F0862F972FE9DFDF91CF911F91C8
:101690000895811569F0862F972FAFDFC82F682F27
:1016A000812F9D2F89DF612F7D2F8C2FF3D5EDCFDB
:1016B000862F972F92DFC82FF6CFDC01E1E0F0E014
:1016C000CF0102C0880F991F6A95E2F7BC01CF01D4
:1016D00002C0880F991F4A95E2F7AC01682B752B61
:1016E00002C0EE0FFF1F2A95E2F7CB018A239B234E
:1016F0008617970721F4CF018A2B9B2B0895E0953D
:10170000F095CF018A239B230895242F462F682F1D
:101710008091100290911102D0DFA4CE0F931F93FD
:10172000CF93E0911402C7E0809115028E1304C09C
:10173000CF911F910F9108950E2F10E0CE9FF001D1
:101740001124EA5EFD4F2081318142815381648101
:101750007581868153DEF8013196E770E5CF2091DF
:101760004E0230914F0240915002509151026091CF
:101770005202709153028091540240CE80915402E3
:10178000803178F480915302811559F0E091140270
:101790002091150230914F0240914E0257E02E13D6
:1017A00001C008956E2F70E05E9FF0011124DF01EB
:1017B000AA5EBD4F14968C911497811549F111962C
:1017C0008C911197831324C08C91841321C015969A
:1017D0008C91159781111CC012968D919C91A091AE
:1017E0005002B09151028A1B9B0B883C910580F4FA
:1017F000809154028F70806180935402E45EFD4FAB
:1018000080818F70806180838EE492E092DD86CF4C
:10181000FB013196E770C3CFE0911402909115025D
:1018200027E0E91302C080E00895AE2FB0E02E9FBC
:10183000F0011124EA5EFD4F3181361306C030817C
:10184000381303C03581341304C0FD013196E770AD
:10185000E8CF81E008958F929F92AF92BF92DF927E
:10186000EF92FF920F931F93CF93DF93CDB7DEB725
:101870002D970FB6F894DEBF0FBECDBF8C0186E06A
:10188000F801DE01189601900D928A95E1F7F801B2
:10189000F58084819EE4892E92E0992E90915202E7
:1018A000911117C0811509F4EFC0F11409F42EC18C
:1018B000C80190DD811509F429C187E0F801D40140
:1018C00001900D928A95E1F7C40150DA57DF47DFA6
:1018D000DBC0E080A280B380D09053022091500200
:1018E00030915102A501421B530BD11409F4CFC012
:1018F000483C510508F09EC0811509F4C5C090917F
:101900004F02918080915402803108F065C0991295
:1019100026C090914E029E1122C0F11057C08F70C8
:101920008061809354021BDF8EE492E002DD80919F
:101930005402F8018683F12C8F2D2D960FB6F89462
:10194000DEBF0FBECDBFDF91CF911F910F91FF90F2
:10195000EF90DF90BF90AF909F908F900895F1101F
:1019600035C040E0692D8E2D57DF40E0692D8E2D6A
:1019700053DFF82E8111DFCF888599856FDE292FFF
:1019800022952F70903450F49F70223078F091158A
:1019900091F0F8019681903170F4CECF2A5F2F70CC
:1019A000223070F0C801C5DCFD2CC6CF911519F0AE
:1019B000811509F4C1CF805E883008F4BDCFF2CF25
:1019C000803F08F4B9CF815F8330F7CF8091540214
:1019D000816080935402AFCF991207C090914E025C
:1019E0009E1103C0F11409F473C0C801F3DC811522
:1019F00009F48CC0F11409F489C08091540280323A
:101A000080F020914E0230914F023A832983BC82AC
:101A1000AB82909152029D831E828F83CE010196EC
:101A200088DC87E0F801AEE4B2E001900D928A957F
:101A3000E1F74CCF90915402903188F44885598554
:101A40006A857B858C859D85CFDC8EE492E071DC98
:101A500087E0F40111928A95E9F781DE6CCF811558
:101A600099F020914F0281812813BFCF80914E02BF
:101A70008E11BBCFF110B9CF9683C8015ADC87E035
:101A8000F40111928A95E9F7FF24F39455CF483C6D
:101A9000510508F03EC08115B9F3F114B9F19091E8
:101AA0004F028181981329C080914E028E1125C06A
:101AB0008091540280FD18C08031B0F08683807F11
:101AC000803F39F08681982F907F905F8F70892BAF
:101AD0008683C8012EDC87E0F801AEE4B2E0019015
:101AE0000D928A95E1F7F3CE87E0F801AEE4B2E01B
:101AF00001900D928A95E1F7C7CFC8016BDC811187
:101B000090CF80915402816080935402C80111DC0F
:101B1000BBCF488559856A857B858C859D8564DC2E
:101B200097CFAEE0B0E0E7E9FDE00C948428288789
:101B300039874A875B876C877D878E87CE010896B9
:101B40008ADE6C858115A1F0611539F0288539850B
:101B50004A855B857D858E8551DC17E08091140276
:101B600090911502891338C02E96E3E00C94A028BA
:101B700087E0FE013896DE01119601900D928A955C
:101B8000E1F7611551F3A09115028A2F90E00196BB
:101B900087709927209114022817190681F097E081
:101BA0009A9FD0011124AA5EBD4FFE01319601908B
:101BB0000D929A95E1F780931502B0DDCECFE4DB6C
:101BC000109215021092140287E0EEE4F2E0DF01B9
:101BD0001D928A95E9F7C1CF189FC00111248A5E32
:101BE0009D4F39DE811509F4BFCFE09114021E9F8D
:101BF000F0011124EA5EFD4F208131814281538141
:101C0000648175818681FADB8091140290E00196EF
:101C10008770992780931402A1CF80915E02089566
:101C200080915D02869586958695089580915D02E6
:101C30008770089590915D02977081E0911101C0C5
:101C400080E0089580916902089590916902982B2F
:101C5000909369020895982F909580916902892345
:101C60008093690208958093690208951092690231
:101C7000089580916802089590916802982B90933E
:101C800068020895982F9095809168028923809327
:101C9000680208958093680208951092680208957A
:101CA00080915F0208950895FECF089590915E029D
:101CB000981719F080935E02F7CF089590915E0215
:101CC000292F2823211529F08095892380935E02EE
:101CD000EBCF08950895FECF089590915F02292FCC
:101CE0002823281721F0982B90935F02F4CF0895B2
:101CF00090915F02292F2823211529F080958923AF
:101D000080935F02E8CF08959091270392FF07C068
:101D100090915F02981719F080935F02DCCF0895CD
:101D200080915F02811521F010925F0280E0D3CF95
:101D300008950F931F93CF93DF93009100011091AB
:101D40000101C091690280916802C82B80915F02F5
:101D5000811529F0C82B0E94491D8111E1DFF8018E
:101D6000C083C0910001D091010148E050E065E5D9
:101D700072E0CE010E94B528892B59F088E0FE015F
:101D8000A5E5B2E001900D928A95E1F7CE010E949F
:101D9000EC1CDF91CF911F910F910895CACF089548
:101DA0000895FECF0895962F2091270322FF0EC09D
:101DB000682F660F660F660F692B60935D0266DB06
:101DC00080915D02869586958695EBCF5FCB1092CC
:101DD0005D0280E0E6CF90915D028095892380933B
:101DE0005D02282F277021110BC0891749F09091AF
:101DF000270392FF05C086958695869555DBE7CF2C
:101E000008959091270392FB222720F9281749F083
:101E100080FB92F99093270386E293E043D082E01F
:101E2000DACF089580912703002482FF0394802D48
:101E3000E8CF81E0E6CF80E0E4CF60E070E0CB0166
:101E4000C2C360E070E0CB01B8D3F7CFA3E0B0E04D
:101E5000ECE2FFE00C94852869D374D31B82CE0199
:101E6000039687D381E090E090931302809312024F
:101E70008CD3198284E18A83CE01019697D3E1DF66
:101E80002396E2E00C94A128E1CF089561C3089560
:101E90004EC3089563C3089572C3089576C3089529
:101EA00079C3089583C3089594C30895A6E0B0E06C
:101EB000ECE5FFE00C9483280E94A21E8C01809127
:101EC0006A0290916B028017910779F019821A8249
:101ED0000E94A21EBC0149815A8180E090E00E94CC
:101EE000890610936B0200936A022696E4E00C9434
:101EF0009F28E7D2609378027093790280937A02E8
:101F000090937B02609374027093750280937602C3
:101F100090937702089508950895FDCF0895089548
:101F2000FEDFFBCF0895FECF08950895FEDFFBCFBF
:101F300081E0089582E892E10E943918EDDFF0CF48
:101F40001AC50895089508950895FCDFFCDFFCCFBD
:101F50009FDF811101C098DF8CE792E09BDF86E272
:101F600093E09EDF99DF61DA809110029091110277
:101F700075CA0E94991E80D203D528D4E9DF0E9439
:101F800069060E940F1B80E00E947F1806D5CECF05
:101F9000A6E0B0E0EEECFFE00C947B28C9DF082F50
:101FA00081110EC083DF00E0E6D40E94DD1A01112A
:101FB0000E94B2190E9471062696ECE00C949728B4
:101FC0004FD48CE6A82E82E0B82E650110E0F60111
:101FD000F1906F01812F08D31F5F183009F43FC0C3
:101FE000F816A9F380917C0281FD04D3A9DF982E15
:101FF000F12C882483948F2DF7D2182FF50191911D
:102000005F01891731F1C82EC926E12CDD24D39454
:102010008D2D8C218115B1F09114A1F0E982FA8205
:102020000E94A21E9C838B838D8291E08D2D812343
:10203000811101C090E049815A816B817C818D8141
:102040000E948906E394DD0CF6E0EF12E1CFF50182
:102050001293F39488E0F812CECF4BDFA5CFF8129D
:10206000C1CFA0CF1F93CF93DF9316D1EC01811581
:1020700022E5920708F05AC0811540E5940708F060
:10208000D7C0803E910528F58D3C910508F0A9C088
:10209000883A910578F4853A910508F09FC081301F
:1020A000910509F43EC00497813A9105D0F1C0E052
:1020B000D0E037C0885A91094B97C8F7C85AD0E08A
:1020C000CC0FDD1FC056DE4F0990D881C02DD464DF
:1020D00028C0811550E49507E8F4C11580E2D807BF
:1020E00008F0BCC0C83ED105E0F0CE019A9581153C
:1020F0009F41E8F68D2F71D1182FCE019927CCD0B2
:10210000212F30E0322F2227E901CC27DF71C82BA5
:10211000D92B07C09927C0D0CC27DF70C82BD92B6B
:10212000D06ACE01DF91CF911F910895803842E5AA
:102130009407C8F5803652E5950708F05BC0C034B7
:1021400082E5D807D0F4C03292E5D90708F04BC039
:102150008C2F8695869520E2829FC0011124C37042
:1021600021E030E0A90102C0440F551FCA95E2F7F3
:10217000EA01C82BD92BDD68D4CF8C2F86958695A4
:10218000877050E2859FC0011124C37021E030E0C8
:10219000A90102C0440F551FCA95E2F7EA01C82BF6
:1021A000D92BDC68BECF803C52E5950758F48F717F
:1021B000C03AD245A0F590E0982F8827EC01C46F73
:1021C000D06AAFCF805C9245809708F070CFDC2F4B
:1021D000CC27CC27DF71C06FD06AA3CFA497D0647F
:1021E000A0CFD0659ECFCF71D0E0DC2FCC27C16FC0
:1021F000D06A97CF86958695877020E2829FC0012E
:102200001124C37021E030E0A90102C0440F551F22
:10221000CA95E2F7EA01C82BD92BDA6882CFDDD064
:10222000C82FD0E0DC2FCC27CC27DF71D06279CF4C
:102230008F71D3D053E0CC0FDD1F5A95E1F7CC2737
:10224000DF70282F30E084FF05C050E1859F9001AA
:1022500011243327C22BD32BD06963CF8D2F8F71DD
:10226000BCD0182FCE01992717D0212F30E0322F64
:10227000222722273F71282B392BE901D7CF462F60
:10228000672F783020F4463010F40C94290580E054
:1022900090E00895F4DFE6CE9C01803E910509F4BC
:1022A00048C0D8F48133910509F47DC048F48932DF
:1022B000910509F46DC08A9709F47CC0C90108959D
:1022C0008933910551F18238910539F1C597B1F7FC
:1022D0008091260385FFF2CF29C0843E910509F441
:1022E00047C048F4823E910599F1833E9105A9F1DA
:1022F00021EE30E0E3CF863E910509F444C0873EED
:102300009105E1F68091260383FD61C0909127033A
:1023100091FF2BC024EE30E0D1CF80912603837053
:10232000811152C08091270383FFC8CF29E230E09A
:10233000C5CF8091260380FD33C09091270390FF85
:10234000BDCF23EE30E084FFB9CF20E030E0B6CF40
:102350008091260382FDF5CFB1CF8091260382FDC7
:1023600030C09091270390FD2FC084FFA7CFEDCF01
:102370008091270381FFA2CF8091260327EE30E0D2
:1023800084FDE3CF9BCF8091260383FDF7CF96CFCB
:102390008091260385FD1EC08091270383FF8ECF89
:1023A00029E330E08BCF8091260386FF87CF2AE296
:1023B00030E084CF8091260386FF80CF21E330E098
:1023C0007DCF22EE30E07ACF20EE30E077CF26EEE0
:1023D00030E074CF25E330E071CF9091260392FF77
:1023E00010C041E0282F2471243009F040E031E092
:1023F000282F2871283009F030E0431711F02CE025
:10240000822793FF10C041E0282F2471243109F066
:1024100040E031E0282F2871283109F030E04317DF
:1024200011F02CE082273091270330FF10C051E0DB
:10243000282F2171213009F050E041E0282F287128
:10244000283009F040E0541711F029E0822731FFCD
:1024500010C041E0282F2171213109F040E031E026
:10246000282F2871283109F030E0431711F029E0B6
:10247000822794FD877E08951092280310922903E5
:1024800010922A0310922B030895CF92DF92EF92BD
:10249000FF926B017C016FD281110EC00E94AE1EB3
:1024A000C61AD70AE80AF90AC0922803D09229036B
:1024B000E0922A03F0922B03FF90EF90DF90CF90F1
:1024C0000895CF92DF92EF92FF9255D2811559F085
:1024D0000E94AE1E6B017C01C701B601FF90EF9018
:1024E000DF90CF9008950E94AE1EC0902803D09038
:1024F0002903E0902A03F0902B03C60ED71EE81E96
:10250000F91EEACF80E00895CF939C01FB01805E25
:102510009245C1E0809738F4C581C11104C0822F73
:102520008F710E94A4058C2FCF910895089580E0AB
:1025300090E00E94D3289C0181E0233E3E4F09F0A9
:1025400080E0089563EE7EEF80E090E00C94F22846
:102550006FEF7FEF80E090E00C94F228CF93DF9351
:10256000EC0182E090E00E94CB288883DF91CF913C
:102570000895FC01608182E090E00C94D82883E00B
:1025800090E00E94CB2890E00895682F83E090E0CF
:102590000C94D828CF93DF93EC0184E090E00E9464
:1025A000D32899838883DF91CF910895FC016081BE
:1025B000718184E090E00C94F228AB01BC018FE0C3
:1025C00090E00C94EA28AB01BC0183E190E00C940C
:1025D000EA28682F8EE090E00C94D8280895FECF6A
:1025E00008950895FECF0895E82FF0E0EB5CFC4FCE
:1025F00080810895089580EA8A95F1F7089500C0D2
:102600000895F9CF08950895FECF0895A4E0B0E0AD
:10261000ECE0F3E10C948128AED1182F80913D03BA
:1026200090E08B5C9C4F1115E1F104E09E012F5F5F
:102630003F4F7901F901202F11922A95E9F7B7014F
:10264000B8D18115B1F080912C0390E044E050E0C6
:10265000B7018B5C9C4F0E94B52821E020937D023E
:10266000892B89F410E0BEDF812F2496E6E00C94DC
:102670009D2880917D028115A9F3F70111920A9599
:10268000E9F710927D02E0912C03F0E0EB5CFC4F47
:1026900089819A81AB81BC8180839183A283B3833A
:1026A000E2CF20912C0330E0BC01C9018B5C9C4F30
:1026B00009D2AADFD9CFF894E82FE295EF70F0E0C5
:1026C00041A18F7021E030E0B90102C0660F771F91
:1026D0008A95E2F7CB01962F9095942391A392A12E
:1026E000892B82A378940895CF93DF93C8E0D1E03B
:1026F00089918F3F09F0DFDF81E0CC30D807C1F747
:10270000C2E0D1E089918F3F09F0D5DF81E0C83088
:10271000D807C1F7DF91CF910895A0E0B0E0E3E9D9
:10272000F3E10C947F28EC01D62E062F10E0C801AF
:10273000885F9E4F7C01FC0180818F3F09F441C07E
:10274000F894E82FE295EF70F0E091A18F7021E00E
:1027500030E001C0220F8A95EAF7892F822B81A3EE
:1027600082A12095282322A3789449DFA2E0B1E03A
:1027700091E0C12C8D918F3F79F0E82FE295EF70B9
:10278000E05EF0E0208130E08F7002C03595279543
:102790008A95E2F7892F20FD80E0C82A990FF1E0A1
:1027A000A830BF0739F7F70180818F3F09F083DF39
:1027B00061E0C11001C060E08D2D23DFC00FD11F8B
:1027C000C882CDB7DEB7E8E00C949B28A6E0B0E065
:1027D000ECEEF3E10C94852880910C0181111EC070
:1027E00084E98093080186E68093090187E9809354
:1027F0000A0186EC80930B0186E0E6EDF1E0DE0154
:10280000119601900D928A95E1F786E0FE013196CE
:10281000A2E0B1E001900D928A95E1F780910C0160
:1028200091E08927880F880F80933D0394E0981BDF
:1028300090932C0359DF88E0E5E3F3E0DF01982F64
:102840001D929A95E9F7EDE2F3E0DF011D928A957A
:10285000E9F784E042D0C3DE2696E2E00C94A1289A
:10286000A8E0B0E0E6E3F4E10C948228FE013196A2
:1028700088E0DF011D928A95E9F710E0FE2E0F2F08
:10288000612F8F2D902F49DF1F5F1430C9F748E06B
:1028900050E06F2D702F8DE293E00E94B52821E06B
:1028A000892B89F420E060913D0370E06B5C7C4FE4
:1028B00044E08DE293E012D0182FA8DE812B2896F9
:1028C000E5E00C949E2888E0EF2DF02FADE2B3E018
:1028D00001900D928A95E1F7E6CF0895A0E0B0E06F
:1028E000E4E7F4E10C947F28D82EE92EF62ED72FBA
:1028F000042FC22F211579F081E0809380020E947D
:10290000A21E90937F0280937E0280E0CDB7DEB757
:10291000E8E00C949B28C0908002C114B1F3809130
:102920007E0290917F020E94231E059770F310E0B3
:10293000A8016D2D7E2D8F2D9D2F0E94B528892BEE
:1029400041F0A8016D2D7E2D8F2D9D2F0E94C22854
:10295000CC2D109280028C2FD9CFCF930E94422889
:10296000C82F811102C00E943E288C2FCF9108955C
:10297000809184020895809183020895FCCF089588
:10298000ECDF80938302FADF80938402F1DF80938F
:102990000C01F1DF811142C00895EDDF811101C00A
:1029A00040C0089581E0909185029A3008F080E05F
:1029B00008950F931F93CF93DF93EC01162F072FEA
:1029C000809185028A3088F4612F702FCE0178D0F3
:1029D000811121C0809185028F3FB1F40E94A21E17
:1029E000909382028093810209C08091810290912C
:1029F00082020E94231E843F914030F780E0DF91E5
:102A0000CF911F910F9108958F5F809385028A3037
:102A100028F781E0F4CF10928502FBCF0C94B3200D
:102A200008950C94B6200895A0E0B0E0EAE1F5E145
:102A30000C947F28FA0169017801C82F880FDD0BFB
:102A40003097B9F0DE0193E0AA0FBB1F9A95E1F72A
:102A5000A35FBE4F11968D919C9112978A579D4FFF
:102A60002C91422F50E0E217F10508F4AF010E94CB
:102A7000C228CE010E949821182F8115D9F0E114A7
:102A8000F104C1F083E0CC0FDD1F8A95E1F7FE0170
:102A9000E35FFE4F8381482F50E0E816F10408F40D
:102AA000A701C35FDE4F6C817D816A577D4FC601F0
:102AB0000E94C228812FCDB7DEB7E8E00C949B2896
:102AC00020C208955FC20895A0E0B0E0EAE6F5E113
:102AD0000C947D28F82EEB01A42ED22EE32EB02EDE
:102AE000C12E688179818A819B810E942C1E643667
:102AF00071058105910510F4A11491F000E010E03A
:102B000020E030E04B2D5C2D6D2D7E2D8F2D8CDF48
:102B1000811539F00E94AE1E688379838A839B8376
:102B200081E0CDB7DEB7EAE00C949928A1E0B0E0EF
:102B3000ECE9F5E10C9483283AD58983E091DD0135
:102B4000F091DE01268990E041E02817190609F48A
:102B500040E001E010E09E012F5F3F4F61EC72E02A
:102B600088E0B2DF2196E4E00C949F280F931F9336
:102B7000CF93DF93C091DD01D091DE0141E02D853F
:102B80003E8580911002909111022817390709F4AF
:102B900040E002E010E020E132E065EB72E084E02A
:102BA00093DF811599F041E02F85388980911202D9
:102BB000909113022817390709F440E002E010E071
:102BC00022E132E061EB72E085E07EDFDF91CF91C0
:102BD0001F910F910895A4E0B0E0E1EFF5E10C94AE
:102BE0007F286091BD027091BE028091BF029091DA
:102BF000C0020E942C1E6B017C0124D8898311E045
:102C000094E6C916D104E104F10448F4E091DD0131
:102C1000F091DE0111E09289981301C010E029D8EB
:102C20008A83111109C0E091DD01F091DE0111E00C
:102C30009389981301C010E033D88B83111109C018
:102C4000E091DD01F091DE0111E09489981301C05B
:102C500010E00E940D0E8C83111107C0E091DD0180
:102C6000F091DE0195898917B9F000E010E020E0CD
:102C700030E044E050E0BE016F5F7F4F87E0D4DE7C
:102C8000811559F00E94AE1E6093BD027093BE0282
:102C90008093BF029093C00281E02496E8E00C94F8
:102CA0009B28A1E0B0E0E7E5F6E10C9483287CD610
:102CB0008983E091DD01F091DE0141E09189981373
:102CC00001C040E001E010E09E012F5F3F4F69EB43
:102CD00072E086E0F9DE2196E4E00C949F28A4E0FF
:102CE000B0E0E5E7F6E10C9483286091AD027091C5
:102CF000AE028091AF029091B002AED711E064367F
:102D000071058105910510F1DCDBDC01CB01029638
:102D1000A11DB11D89839A83AB83BC8300E010E0C1
:102D200020E030E044E050E0BE016F5F7F4F83E081
:102D30007BDE182F811551F00E94AE1E6093AD020C
:102D40007093AE028093AF029093B002812F2496CD
:102D5000E4E00C949F28A5E0B0E0E1EBF6E10C94F0
:102D60007D287B01C090DD01D090DE0101E010E004
:102D70009E012B5F3F4F40E050E060E070E080E05C
:102D800053DE182F811509F445C056018FEFA81A9C
:102D9000B80A6091A5027091A6028091A702909155
:102DA000A8025AD7643671058105910560F104E0E7
:102DB00010E09E012F5F3F4F40E050E060E070E088
:102DC00081E032DE182F64E070E0C50129D49D81D6
:102DD00098132BC0111549F1C1D76093A5027093C8
:102DE000A6028093A7029093A80289819A81AB8161
:102DF000BC818093A1029093A202A093A302B093FE
:102E0000A40281E013C064E070E0C50109D49D8193
:102E10008913CDCFF60181819281A381B481898309
:102E20009A83AB83BC831111E0CF80E04091A10273
:102E30005091A2026091A3027091A402F701408315
:102E40005183628373832596EAE00C949928A0E06D
:102E5000B0E0EDE2F7E10C947D28182F092FB62E93
:102E6000A72E7A019FDD9AE0C92ED12C811103C0D3
:102E7000CC24C394D12CC1E0D0E06B2D7A2D812FCE
:102E8000902FF7010995811116C02196CC16DD0609
:102E900094F0CC9FC001CD9F900D900D112420E0A7
:102EA00030E045E34A95F1F700002F5F3F4F2817C8
:102EB0003907B9F7E2CFCDB7DEB7EAE00C9499282D
:102EC0000F931F93CF93DF93D82FC92F6091DD010C
:102ED0007091DE016B5F7F4F44E050E00E94B528A7
:102EE00041E0892B09F440E004E010E02D2F3C2F55
:102EF00069EA72E082E0E8DDDF91CF911F910F91E6
:102F000008950F931F93CF93DF93D82FC92F8B0171
:102F10004BEA56E19CDF811106C080E0DF91CF9142
:102F20001F910F91089540E657E1B8018D2F9C2F16
:102F30008EDF811591F34FE656E1B8018D2F9C2F5E
:102F400086DF811551F346EB55E1B8018D2F9C2F9B
:102F50007EDF811511F341E556E1B8018D2F9C2FDD
:102F600076DF8115D1F24BEE55E1B8018D2F9C2F04
:102F70006EDF811591F246E955E1B8018D2F9C2F46
:102F800066DFCCCFFF920F931F93CF93DF938C011B
:102F9000FB01C091DD01D091DE01CE01019624E05C
:102FA000DC0101900D922A95E1F764E070E038D3DE
:102FB0008883FE01359684E0D80101900D928A95B0
:102FC000E1F769857A858B859C8500919D0210913A
:102FD0009E0220919F023091A00260177107820724
:102FE000930749F060939D0270939E0280939F0225
:102FF0009093A0024ADA8D859E859093110280936A
:1030000010028F8598899093130280931202898908
:10301000C8D4FB880C891D898A890E94330E8F2DA4
:103020000E944A0E802F0E94840E812F0E94560E0D
:103030008E89811531F096D1CDB7DEB7E5E00C94DD
:103040009E2899D2F9CF0C94C80F089515D60E94E6
:1030500026230E949A0F0E943E230E94B90F0E94CD
:1030600047230E944A23EFDF0E9460230E94A50F9E
:10307000F8CF9093F1018093F0010895AB0124E61D
:1030800030E0BC0188E73BD79C0181E0232B09F0AD
:1030900080E00895AB0124E630E0BC0188E77AD7F0
:1030A0009C0181E0232B09F080E008950F931F938A
:1030B000AC019B0104E610E060E488E7B2D79C0114
:1030C00081E0232B09F080E01F910F910895E3C662
:1030D00008950895EEE3F3E080E094E0DF019C01C1
:1030E0001D9221503040E1F7F0934507E0934407EB
:1030F0008FEF9FEF90931103809310030895CF9368
:10310000E8DF0E94020590E480FF90E880930C03C2
:1031100090930B03DCDF6BE070E083E992E0BADFB1
:10312000811104C0C0E08C2FCF91089580910C03D1
:1031300065E070E081FD25C08EE892E0ABDF81158F
:1031400089F36DE070E08CE792E0A4DFC82F811571
:1031500049F304D6DC01CB01805A9541AF4FBF4FF4
:103160008093400790934107A0934207B093430791
:10317000B1DF81E080930F0380930E0310920D0363
:10318000D2CF89E892E0DACF20910B0336E0839F1B
:10319000C0011124269F800D911D1124811524E06A
:1031A000920714F080E090E0825C9C4F909345077A
:1031B0008093440708952091440730914507285390
:1031C000334040910B03642F70E0C9010E945B28DB
:1031D000481B463010F4240F311D211584E03807B8
:1031E00010F020E030E0225C3C4F30934507209304
:1031F00044070895CF93DF93982FC62F81E09A302C
:1032000019F09D3029F480E06AD0DF91CF910895C4
:10321000209144073091450786E0F901A5ECB2E022
:1032200001900D928A95E1F7903EB0F086E0F901A9
:1032300011928A95E9F7C1111BC0C0914407D09142
:10324000450746E050E0BE0185EC92E00E94B528BB
:10325000892BE1F4B0DFD9CFF6E09F9FB0011124B4
:1032600062567D4F46E050E0C9010E94AC28E3CF92
:10327000E0914407F09145079F012A5F3F4F2E17C9
:103280003F07D9F2808180958193F9CFCE53D34007
:10329000CE0126E0969587952A95E1F721E030E06A
:1032A000A90102C0440F551F8A95E2F7CA01409157
:1032B000100350911103842B952B259646E0D6954B
:1032C000C7954A95E1F702C0220F331FCA95E2F76E
:1032D000822B932B9093110380931003BBCFCF933A
:1032E000382FE0914407F0914507EE53F3402091C9
:1032F0000B03622F70E0CF010E945B28281B822FF6
:10330000311561F066E00E944F28C82FC15010F4BB
:10331000CF91089560E080E26DDFF8CF8E0F9F2F90
:10332000911D811524E0920710F080E090E0825C0E
:103330009C4F9093450780934407EACF1F93CF9308
:10334000DF93EC01162FFE018491811104C0DF91FF
:10335000CF911F910895612F4DDF2196F4CFEEDFBD
:1033600081E0BDCFCF93C0910F03C11105C0C091C3
:103370000E038C2FCF910895F1D4DC01CB01805A3C
:103380009541AF4FBF4F8093400790934107A09363
:103390004207B093430780910E038111EACF62E0A8
:1033A00070E08AE792E076DE811509F381E0809390
:1033B0000E03DFCFA4E0B0E0E0EEF9E10C94752855
:1033C0008C838091100390911103892BE9F08091F7
:1033D0000F038115C9F080910D03811115C0C2DF63
:1033E00010E01B8244244394512C07E040E4F42E67
:1033F00020911003309111032115310529F0111589
:1034000051F0FC81F11107C02496E2E10C9491285F
:103410004B814F5F4B835B81852F90E0520102C04F
:10342000AA0CBB1C5A95E2F7A50142235323452B56
:1034300079F320910C0320FD37C096958795282FAE
:10344000AB81A0FB992796F93FE3390F9093570181
:1034500080935A013093580120935B0167E070E03C
:1034600085E591E00BDE811579F2EB81B0E4EB9F0D
:10347000C001112420910C0320FD1FC060E470E006
:10348000825C9C4F13DE811509F4BECFA094B094EA
:1034900080911003909111038A219B219093110335
:1034A000809310031F5FA4CF9B81990F990F990FF1
:1034B00037E0390F80E027E0C9CFABECB2E0EF2D69
:1034C0001D92EA95E9F727EE31E03A8329836FED03
:1034D00071E0E981FA81A191FA83E983FB012191ED
:1034E000BF01280F392F311DA901425C5C4F1A0121
:1034F000EA2FF0E0E553FD4F20E030E0602E621A45
:10350000842C022E01C0880C0A94EAF76101912CE8
:10351000D601ED906D01E820462D4919477050E025
:10352000BE2D042E01C0BB0F0A94EAF77B2E5195E5
:10353000419551094770552701C0E6944A95EAF72D
:10354000EB2A4081E42AE082939448E09412E0CF91
:103550002F5F3F4F31962830310581F6AFEEB1E055
:10356000E981FA81AE17BF0709F0B3CF60E470E0DC
:103570008BEC92E087CFCF93C0910F0380910E0325
:10358000C11106C091E0C82FC9278C2FCF91089593
:103590008115D9F362E070E088E792E07BDD81116C
:1035A00003C0C0910E03F1CF10920E03EECF8091B5
:1035B0000E0308950C94840408950F931F93809133
:1035C0000F03811549F180913E0790913F073BD34E
:1035D000C29748F0B7D390933F0780933E0760E0CF
:1035E00080E0D2DDE7DF80E0E5DE80910E0381152B
:1035F00099F0B4D300914007109141072091420700
:1036000030914307601B710B820B930B6F3F7F4F11
:103610008F4F9F4708F4AFDF1F910F9108950895D2
:10362000FC01680F791F8FEF41E3E617F70709F4F4
:1036300008959191892728E030E0982F990F87FF0E
:1036400006C0892F842721503040B9F7EECF892F4B
:10365000FACFCF93DF93EB0186319C4709F50E94A7
:10366000220E9D81911599F08A7A91E0811101C015
:1036700090E090931203811541F085E35AD20E94A5
:10368000CE0E80E0DF91CF91089589E2F7CF80914F
:103690001203811519F085E352D2F1CF89E2FCCFF4
:1036A00081E0F0CFCF93DF93EC01FB0185818115A1
:1036B00009F4CBC09E0130572332310508F0ABC06E
:1036C00086E293E00E94500FFE01E150F047E232A3
:1036D000F10520F4E85FF64D0C946F2880912603E5
:1036E00081608093260390C0809127038860809337
:1036F00027038AC0809126038260F3CF809126033E
:103700008460EFCF809126038860EBCF8091270300
:103710008160EDCF809127038260E9CF80912603FD
:103720008061DFCF809126038062DBCF809126030A
:103730008064D7CF0E94C409809126038068D1CFCE
:10374000809126038C60CDCF809127038360CFCFFB
:10375000809126038E7FC5CF80912703877FC7CFB7
:10376000809126038D7FBDCF809126038B7FB9CFBB
:1037700080912603877FB5CF809127038E7FB7CFB7
:10378000809127038D7FB3CF809126038F7EA9CFB1
:10379000809126038F7DA5CF809126038F7BA1CFBB
:1037A0000E94C409809126038F779BCF80912603C6
:1037B000837F97CF809127038C7F99CF80912603B9
:1037C000992782FF939590FB82F990FB83F989CF2B
:1037D00080912703982F909590FB80F990FB81F9B9
:1037E00086CF90912603892F8F7B96FF806479CFB7
:1037F0000E94C40990912603892F97FB87F980586E
:1038000070CF81E00E94540F86E293E00E94520F35
:103810000E94C40980E0DF91CF91089580E0F2CF4B
:1038200090912603892F8F7E94FF80615ACF9091CB
:103830002603892F8E7F90FF816053CF90912703BD
:10384000892F877F93FF886052CF81E0E4CF0F9369
:103850001F93CF93DF93C42FD22FFC018581811555
:10386000C1F0409315036ED2909314038093130319
:1038700080E28C0F883040F4C77081E001C0880F6F
:10388000CA95EAF70E94A607DF91CF911F910F9189
:10389000089510911503141332C080911303909171
:1038A0001403D1D1883C910550F5C0E2CD0F1D170E
:1038B000C1F080E2810F883040F4177081E001C0D0
:1038C000880F1A95EAF70E94AB07C83050F491E0D0
:1038D0008D2F877001C0990F8A95EAF7892F0E9472
:1038E000A607802F0E949F07C83070F6D77081E02E
:1038F00001C0880FDA95EAF70E94AB07C5CF80E2D6
:103900008C0F883008F0C0CFC77081E001C0880FED
:10391000CA95EAF7F1CF0F93DB01FC01E851FC47B0
:10392000E730F10590F5E65DF64D0C946F2806E260
:1039300021EE41EE6AE17CE7CD0189DF80E00F9165
:10394000089507E225EE45EE6BE17CE7F5CF06E250
:1039500021EE40EE68E17CE7EFCF07E225EE44EE92
:1039600069E17CE7E9CF06E221EE42EE6CE17CE71B
:10397000E3CF07E225EE46EE6DE17CE7DDCF08E21E
:1039800021E045EE6EE17CE7D7CF15968C91811151
:103990001092150381E0D3CF90931C0380931B03F7
:1039A00008958093160308950E94BB14811103C0EB
:1039B000809116030895E0911B03F0911C0330974A
:1039C00039F00190F081E02D309711F009950895BC
:1039D00080E00895E9CF0895E0911B03F0911C0366
:1039E000309731F00280F381E02D309709F009958E
:1039F0000895A3E0B0E0EFEFFCE10C9485289C0172
:103A00008091190390911A0382179307B1F03093B4
:103A10001A0320931903E0911B03F0911C033097C4
:103A200061F00084F185E02D309739F083E08983DF
:103A30003B832A83CE01019609952396E2E00C94FC
:103A4000A128A3E0B0E0E7E2FDE10C9485289C0109
:103A5000809117039091180382179307B1F0309368
:103A6000180320931703E0911B03F0911C03309778
:103A700061F00084F185E02D309739F084E089838E
:103A80003B832A83CE01019609952396E2E00C94AC
:103A9000A12840910001509101019A012E5F3F4FF2
:103AA000485F5F4F80E0F90190812F5F3F4F911198
:103AB0008F5F42175307B9F70895811571F0209170
:103AC000000130910101F9013296285F3F4F919139
:103AD000981729F0E217F307D1F780E0089581E005
:103AE00008959C01FC0132968FEF90E041914617BA
:103AF00051F08F3F19F4411101C0892F9F5F96301B
:103B0000A9F78F3F09F40895280F311D87FD3A95D5
:103B1000F901628308959C01FC013296285F3F4FB2
:103B20008191861302C0DF011E92E217F307C1F7ED
:103B30000895682F8091000190910101D2CF682FE4
:103B40008091000190910101E6CFE0910001F09198
:103B50000101329686E0DF011D928A95E9F708950A
:103B60000895FECF08958F5F80935F0160915C019F
:103B700070915D0180915E0190915F01F2CF83E0D1
:103B800080935F0160915C0170915D0180915E01A5
:103B900090915F01E6CFE7CF089581E080935F01C8
:103BA00060915C0170915D0180915E0190915F0177
:103BB000D8CFF3CF089591E0811101C090E09093A8
:103BC0005E0160915C0170915D0180915E01909158
:103BD0005F01C7CF80915E01089580935D01609180
:103BE0005C0170915D0180915E0190915F01B9CFA0
:103BF00080915D01089580935C0160915C017091FA
:103C00005D0180915E0190915F01ABCF80915C017D
:103C1000089508950895FECF089508950895F9CF61
:103C20000895CF93FADF0E943014F8DFC0E08C2FA4
:103C30000E94F412811105C0CF5FC830C1F7CF9147
:103C4000089581E0FCCFCF93DF93EC017BD08C1BF8
:103C50009D0BDF91CF910895CF92DF92EF92FF926B
:103C60006B017C017BD06C197D098E099F09FF9047
:103C7000EF90DF90CF90089585B7806885BF85B7B6
:103C8000806885BF08951F921FB61F9211248F93DD
:103C90009F93AF93BF9380911D03811113C08091B7
:103CA000460790914707A0914807B0914907419670
:103CB000A11DB11D8093460790934707A093480725
:103CC000B0934907BF91AF919F918F911F901FBEF5
:103CD0001F90189580914E07843031F10E94300674
:103CE00010921D0388E190E020E40FB6F894A895A7
:103CF000809360000FBE2093600083B7817F846053
:103D000083BF83B7816083BF7894889583B78E7FA4
:103D100083BF0FB6F894A895809160008861809366
:103D20006000109260000FBE08950E94C4090C94B8
:103D3000360682E084BD93E095BD9AEF97BD8093EF
:103D40006E0008952FB7F894809146079091470729
:103D5000A0914807B09149072FBF08952FB7F89455
:103D600060914607709147078091480790914907F5
:103D70002FBF089578941F921FB61F9211248F931E
:103D80009F93AF93BF938091460790914707A0916F
:103D90004807B09149070196A11DB11D80934607C0
:103DA00090934707A0934807B0934907BF91AF91FD
:103DB0009F918F911F901FBE1F90189587E797E7DF
:103DC000909301088093000888E19AE00FB6F89478
:103DD000A895809360000FBE90936000FFCF88E1AC
:103DE0009AE00FB6F894A895809360000FBE909368
:103DF0006000FFCFFF920F931F93CF93DF93182F95
:103E0000EB011092BC0084EA8093BC009BDF082F7A
:103E1000F92E8091BC0087FF27C08091B900887F70
:103E2000883029F08091B900887F803189F510931E
:103E3000BB0084E88093BC0085DF182F092F809198
:103E4000BC0087FF1EC02091B900287F80E090E071
:103E5000283191F081E090E0203411F480E090E08E
:103E600091958195910908C0802F9F2DECDEC81790
:103E7000D90778F68EEF9FEFCDB7DEB7E5E00C946B
:103E80009E28812F902FDFDEC817D907C0F6F2CF0A
:103E90008FEF9FEFF1CF1092B9008CE08093B800C4
:103EA00008950F931F93CF93DF93EB018093BB0093
:103EB00084E88093BC0046DF182F092F8091BC0056
:103EC00087FF11C02091B900287F81E090E028325F
:103ED00011F480E090E0919581959109DF91CF9167
:103EE0001F910F910895CF3FDC0741F3812F902F51
:103EF000AADEC817D90710F78EEF9FEFEFCFA0E02B
:103F0000B0E0E5E8FFE10C947A28782EB62EA72ED3
:103F10006A01E90117DF4C01C431D10520F1CF3F1F
:103F2000DC0729F1CE0164E170E00E945B28F62EE7
:103F3000E72E6F2D7E2D872D5DDF8C01892BD1F42F
:103F4000EB2CFA2CCE0CDF1CEC14FD0419F001153F
:103F50001105C9F084E98093BC00C801CDB7DEB774
:103F6000EDE00C949628FF24F394E12CE2CF85E059
:103F7000F82EFBCFCF3FDC07E1F2C40164DEC817A7
:103F8000D907B8F6DDCFBE01F70181917F0189DF46
:103F90008C01DACFA0E0B0E0E0EDFFE10C947A28EC
:103FA000782EB62EA72E6A018901CCDE4C01043191
:103FB000110510F10F3F100711F1C80164E170E025
:103FC0000E945B28EB01BE01872D14DF7C01892B49
:103FD000C1F4CB2DDA2DCC0EDD1ECC15DD0519F08C
:103FE000E114F104B9F084E98093BC00C701CDB7B6
:103FF000DEB7EDE00C949628C1E0D0E0E4CFC5E058
:10400000FCCF0F3F1007F9F2C4011DDE0817190796
:10401000D0F6DFCFFE018491B80143DF7C01219609
:10402000DCCFA0E0B0E0E7E1F0E20C947928682E64
:10403000962E5A016901780185DE782E892E043189
:10404000110520F10F3F100721F1C80164E170E074
:104050000E945B28162F072F612F702F862DCADE36
:10406000EC01892BC1F0FFEFEF16FF06A9F3872DB6
:10407000982DE9DDE816F90678F784E98093BC000D
:10408000CE01CDB7DEB7EEE00C94952811E000E04C
:10409000E3CF15E0FCCFB701892D03DFEC018501EB
:1040A000CA0CDB1C0C151D0541F3209731F7B70135
:1040B000F80181918F01F5DEEC01F4CF8EE14A9B8E
:1040C00002C08A95E1F74A9BFECF08955A9880E294
:1040D0008A95F1F75A9A0895FC013BE03A95F1F779
:1040E00098E020E080E031E040E14A95F1F7880F68
:1040F0004A9B02C08160232742E04A95F1F7000005
:1041000040E14A95F1F79A9579F790E19A95F1F7A0
:1041100099B132E03A95F1F7000040E14A95F1F7A4
:1041200092FB992790F992272081920F908308950E
:10413000A1E0B0E0EDE9F0E2E4C719828C017C0176
:10414000E60EF11CBBDFCE010196C6DFF8018193BC
:104150008F01EE15FF05B1F781E09981911180E0A3
:104160002196E6E0EAC7529A5A9A089552985A9AC6
:10417000EA9AE9E6F0E080818F7C808308956150BF
:10418000770B91E001C0990F6A95EAF7692F90E0EB
:1041900021E0611108C0911599F05A9A80E28A9540
:1041A000F1F75A980895362F3823311539F05A9A75
:1041B000922730E23A95F1F76695EBCF5A98F9CF0E
:1041C0005A98ECCFFF920F931F93CF93DF93EC019C
:1041D0008C01060F111DF99079DF68E08F2DCFDF7C
:1041E000C017D107C1F7CDB7DEB7E5E0A7C71F926B
:1041F0000F920FB60F9211240F931F932F933F939B
:104200004F935F936F937F938F939F93AF93BF93DE
:10421000EF93FF93CF93DF930F92CDB7DEB7198261
:104220004DDFCE01019658DF082F069506950695BD
:10423000982F92959570202F2570920F292F23701B
:1042400096959695920F982797708981892B81155D
:1042500009F058C00A3008F055C080E18A95F1F79E
:104260005A9A529A82E08A95F1F700C05A9888E0EB
:10427000089F80011124D801A35FBE4F1696ED91CF
:10428000FC9117973097A9F06091DD017091DE01E4
:1042900014962D913C911597260F371F11968D91ED
:1042A0009C911297680F791F13964C9113978C91DC
:1042B0000995F801E35FFE4F6381611549F0209194
:1042C000DD013091DE0184819581820F931F7ADFB9
:1042D000FDDE80E18A95F1F75A9852985A9A80E16A
:1042E0008A95F1F7F801E35FFE4F6081611549F0AF
:1042F0002091DD013091DE0181819281820F931F37
:1043000017DFDCDE0F90DF91CF91FF91EF91BF912E
:10431000AF919F918F917F916F915F914F913F915D
:104320002F911F910F910F900FBE0F901F90189516
:104330000F931F93CF93DF938C010A970CF05EC00D
:10434000F894529A5A9885E08A95F1F70000C02FA8
:10435000C695C570802F8570C80F8C2F8370C69549
:10436000C69593E0000F111F9A95E1F7C80FC80199
:104370008C2BEC01ABDE00C068E08C2F00DF90E1FD
:104380009A95F1F752985A9A4A9B31C087E090E08B
:104390004A992FC0F801E35FFE4F6381611559F020
:1043A0002091DD013091DE0184819581820F931F80
:1043B000BFDE811501F182DE80E28A95F1F75A981D
:1043C000529A90E19A95F1F7F801E35FFE4F608110
:1043D000611549F02091DD013091DE0181819281EA
:1043E000820F931FEFDE72DE789481E008C000C078
:1043F000CBCF019749F4529A5A9A789480E0DF9192
:10440000CF911F910F91089500C0C2CF08950895D4
:10441000282FCB01BA0130914E073430D1F42F70E0
:104420002093E9002FEF3091E80035FD06C035ED0F
:104430003A95F1F700002A95B1F72091E80025FFA1
:1044400008C040E050E0B1D18091E8008E778093C1
:10445000E8000895BC0143E050E082E0D9CFCF935B
:10446000DF93D82FC92FB6DB48E050E06D2F7C2FAB
:1044700081E0CEDF88E0ED2FFC2FAEE1B3E00190CC
:104480000D928A95E1F7DF91CF91089580914D07C4
:10449000811107C011D368D38091E20084608093BA
:1044A000E200089510924D07089577DB81E083CBF9
:1044B00060914A0781E0611101C080E060CB90917A
:1044C0004E0781E0943009F080E060914A0763CBA9
:1044D00042E061EC81E06CD242E261EC82E068D2C1
:1044E00090914E0781E0943009F080E060914A0796
:1044F0003ACB80915007893081F148F4823009F439
:1045000095C0833009F456C0813041F008958A3057
:1045100009F47FC08B3009F467C0089580914F077C
:10452000813A09F046C08091E800877F8093E800D7
:104530008091530790915407892B59F060E080E0F7
:1045400090E070E080D18091E8008B778093E80064
:10455000089568E08EE193E0F4CF80914F078132B7
:1045600041F58091530790915407029710F580917F
:10457000E800877F8093E8008091E80082FF15C003
:104580009091F3008091F200029731F48091F10054
:10459000813011F0863019F48091F1001EDB80919A
:1045A000E8008B778093E80037C280914E07811135
:1045B000E3CF089580914F07813AD9F7809153074F
:1045C00090915407892BA9F78091E800877F809309
:1045D000E8008091E80080FFFCCFFCDA8093F100D6
:1045E0008091E8008E77DECF80914F07813209F706
:1045F0008091530790915407892BD9F68091E80058
:10460000877F8093E80008D280915107D4DA0C9418
:10461000C40980914F07813261F68091E800877F5D
:104620008093E800F9D180915207E5CA80914F0745
:10463000813A09F0BECF8091E800877F8093E8003F
:104640008091E80080FFFCCFE1DAC8CF84B7877F94
:1046500084BF0FB6F894A89580916000886180931C
:104660006000109260000FBE80E890E00FB6F894F2
:1046700080936100909361000FBE9BCA1DD274D2DB
:10468000E2EEF0E08081846080837894DEC480E68E
:1046900091E082C980914E07853029F480914E07C0
:1046A000853011F042CB089515DBBBDA8115B1F3EB
:1046B00080914C07811591F362D00E94C409EECF1E
:1046C00008959A01409155075091560700C0FC018A
:1046D000D9018F2F992783309105C1F068F481307B
:1046E000910509F447C0029761F48BE390E028E05C
:1046F00038E02D933C93089581329105E1F0829743
:1047000049F180E090E020E030E0F3CFCF0199273D
:10471000E13059F08230910559F0E4E0F8E0892B5E
:1047200081F7849190E09F01E4CFE4EFF7E0F9CFC7
:10473000EEEDF7E0F6CF89E090E02AE138E0611590
:104740007105B9F289E090E023E338E0613071054A
:1047500081F2D7CF84E490E027E838E06115710555
:1047600041F282E390E025E538E06130710509F41B
:10477000C0CFC7CF82E190E023E438E0BACF80E138
:1047800089BD82E189BD09B400FEFDCF8091D800CA
:104790008F7D8093D8008091E00082608093E0005C
:1047A0008091E00081FDFCCF0895AF92BF92CF923F
:1047B000DF92EF92FF920F931F93CF936C018B01C7
:1047C0007A0149D1C82F811123C0E114F10439F0D5
:1047D000F70180819181081B190BC80ED91EA12CED
:1047E000B12C01151105A1F08091E80085FD20C0D4
:1047F0008091E8008E778093E800E114F10499F04D
:10480000F701808191818A0D9B1D91838083C5E092
:104810008C2FCF911F910F91FF90EF90DF90CF9051
:10482000BF90AF90089517D18115F1F2C82FF0CF46
:10483000F60181916F018093F10001501109FFEFA2
:10484000AF1ABF0ACECFFC019B0180915507909112
:1048500056078617970718F0672B61F0C90140E0EB
:10486000009771F441110CC08091E80082FF35C0BF
:1048700080E008958091E8008E778093E800EECF85
:1048800020914E072115A9F12530A9F12091E800CA
:1048900023FD2DC02091E80022FDE6CF2091E80005
:1048A00020FFDECF3091F3002091F200009719F045
:1048B0002830310558F041E02830310509F040E05A
:1048C0002091E8002E772093E800CACF41914093D1
:1048D000F10001972F5F3F4FE9CF80914E0781157F
:1048E00041F0853041F08091E80083FFBDCF81E049
:1048F000089582E0089583E00895FC019B01809172
:104900005507909156078617970718F0672B61F0A7
:10491000C90140E0009771F441110CC08091E8009A
:1049200082FF36C080E008958091E8008E77809302
:10493000E800EECF20914E072115B1F12530B1F1FD
:104940002091E80023FD2EC02091E80022FDE6CF53
:104950002091E80020FFDECF3091F3002091F2009B
:10496000009719F02830310558F041E02830310522
:1049700009F040E02091E8002E772093E800CACFAC
:1049800044914093F100319601972F5F3F4FE8CF5C
:1049900080914E07811541F0853041F08091E8000B
:1049A00083FFBCCF81E0089582E0089583E00895FD
:1049B000982F973028F08F708093E90081E0089558
:1049C0009093E900242F762F50E0981731F07091E2
:1049D000EC002091ED005091F00021FD02C09F5F9E
:1049E000E8CF3091EB003E7F3093EB003091ED004B
:1049F0003D7F3093ED003091EB0031603093EB0060
:104A00007093EC002093ED005093F0002091EE00A5
:104A100027FDE5CF80E0089580914F0787FF13C001
:104A20008091E80082FF06C08091E8008B77809338
:104A3000E800089580914E078111F2CF089580918A
:104A40004E078115D9F38091E80080FFF8CF80915F
:104A5000E8008E77ECCF2091E4003091E50095E6F8
:104A6000A9012091EC00822F817020FF06C0809167
:104A7000E80080FF06C080E008952091E80022FD54
:104A80001AC080914E07811589F0853089F0809198
:104A9000EB0085FD0FC02091E4003091E500421746
:104AA0005307F9F29A95E1F684E0089582E00895BB
:104AB00083E0089581E0089567D06ED0E0EEF0E0E5
:104AC000808181608083E8EDF0E080818F77808352
:104AD00019BCA7EDB0E08C918E7F8C9380818F7E86
:104AE000808310924D0708950F931F93CF93DF9308
:104AF0004BD052D0C8EDD0E088818F7788838881F1
:104B00008068888388818F7D888319BC10924E07C6
:104B100010924A0710924C0710924B0700EE10E0DB
:104B2000F80180818B7F808388818160888342E067
:104B300060E080E03DDFE1EEF0E080818E7F808309
:104B4000E2EEF0E0808181608083808188608083F4
:104B5000F80180818E7F8083888180618883DF91E6
:104B6000CF911F910F910895E8EDF0E080818F7E45
:104B70008083E7EDF0E080818160808384E082BF04
:104B800081E080934D07B0CFE8EDF0E080818E7F2B
:104B900080831092E20008951092DA001092E100F2
:104BA00008951F920F920FB60F9211242F933F93E7
:104BB0004F935F936F937F938F939F93AF93BF9325
:104BC000EF93FF938091E10082FF0AC08091E200A1
:104BD00082FF06C08091E1008B7F8093E10034D298
:104BE0008091DA0080FF18C08091D80080FF14C047
:104BF0008091DA008E7F8093DA008091D90080FF67
:104C00008FC080E189BD82E189BD09B400FEFDCF7E
:104C100081E080934E073ADC8091E10080FF18C06C
:104C20008091E20080FF14C08091E2008E7F80932B
:104C3000E2008091E20080618093E2008091D800E0
:104C400080628093D80019BC85E080934E0730DCE9
:104C50008091E10084FF28C08091E20084FF24C09D
:104C600080E189BD82E189BD09B400FEFDCF80915C
:104C7000D8008F7D8093D8008091E1008F7E809353
:104C8000E1008091E2008F7E8093E2008091E2005B
:104C900081608093E20080914A07811509F445C044
:104CA00084E080934E070BDC8091E10083FF27C0F6
:104CB0008091E20083FF23C08091E100877F809391
:104CC000E10082E080934E0710924A078091E10054
:104CD0008E7F8093E1008091E2008E7F8093E200DE
:104CE0008091E20080618093E20042E060E080E039
:104CF0005FDE8091F00088608093F000D6DBFF914A
:104D0000EF91BF91AF919F918F917F916F915F9143
:104D10004F913F912F910F900FBE0F901F901895BC
:104D200019BC10924E07BEDB77CF8091E30087FF5E
:104D300002C083E0B6CF81E0B4CF1F920F920FB6CE
:104D40000F921124EF92FF920F931F932F933F9393
:104D50004F935F936F937F938F939F93AF93BF9383
:104D6000CF93EF93FF9309EE10E0F8018081C0919B
:104D7000EC008F70C795CC27C795C82B108280EFA9
:104D8000E82EF12CF7018081877F808378941FD0F3
:104D9000F8011082F701808188608083CF70F8016C
:104DA000C083FF91EF91CF91BF91AF919F918F9170
:104DB0007F916F915F914F913F912F911F910F9133
:104DC000FF90EF900F900FBE0F901F901895AAE2E2
:104DD000B0E0ECEEF6E297C18FE497E0FC010196BB
:104DE0002091F100208327E087359207B9F781DB16
:104DF0008091E80083FF37C080914F079091500762
:104E00009A3088F5E92FF0E0EF5CF64D68C1803804
:104E100089F0823841F5809153078F70873018F5FB
:104E20008093E9008091EB0085FB882780F9109240
:104E3000E90006C080914C07880F90914B07892BA1
:104E40009091E800977F9093E8008093F100109292
:104E5000F1008091E8008E7722C0811115C0809109
:104E60005107813001F18091E80083FF0AC08091F1
:104E7000E800877F8093E8008091EB008062809358
:104E8000EB00AA96E4E05BC1823069F7809151079C
:104E9000811581F01092E9008091E800877F80936E
:104EA000E800BADDE0CF81E0933009F080E0809344
:104EB0004C07F0CF809153078F702FEF280F2630CB
:104EC00090F68093E9002091EB0020FFE3CF933030
:104ED00031F48091EB0080628093EB00DBCF909106
:104EE000EB0090619093EB0021E030E0A90102C05B
:104EF000440F551F8A95E2F74093EA001092EA00AA
:104F00008091EB008860E8CF8111ADCF10915107FF
:104F10001F778091E3008078812B8093E30080915C
:104F2000E800877F8093E80077DD8091E80080FFCC
:104F3000FCCF8091E30080688093E30083E011114F
:104F400001C082E080934E078ECF8058823008F0F7
:104F50008ACF80915107909152078C3D53E095077D
:104F600091F583E08A838AE289834FB7F894DE0162
:104F7000139620E03EE051E2E32FF0E0509357001B
:104F8000849120FF03C082958F703F5F8F708A30BD
:104F9000C0F0895C90E08D939D932F5F243161F781
:104FA0004FBF8091E800877F8093E8006AE270E05D
:104FB000CE01019648DC8091E8008B778093E80071
:104FC00052CF805DE7CF6091530770915407AE01D7
:104FD0004F5F5F4F76DB8C01892B09F444CF8091C2
:104FE000E800877F8093E800B80189819A8185DC99
:104FF000E2CF803809F037CF8091E800877F809337
:10500000E80080914A078093F10023CF81112BCFD4
:1050100090915107923008F026CF8091E800877F69
:105020008093E80090934A07F7DC80914A07811546
:1050300029F084E080934E074BDA15CF8091E3008E
:1050400087FDF7CF81E0F6CF0895CF9380914E078B
:10505000811591F08091E900C091EC008F70C795A7
:10506000CC27C795C82B1092E9008091E80083FDFA
:10507000AEDECF70C093E900CF9108951DDD109290
:105080004E070895E8EDF0E08081806180838AE139
:105090008A95F1F700C08091D90081700895992711
:1050A00078E0880F991F961708F0961B881F7A954D
:1050B000C9F780950895AA1BBB1B51E107C0AA1F21
:1050C000BB1FA617B70710F0A61BB70B881F991FA9
:1050D0005A95A9F780959095BC01CD010895EE0FE2
:1050E000FF1F0590F491E02D09942F923F924F926B
:1050F0005F926F927F928F929F92AF92BF92CF9268
:10510000DF92EF92FF920F931F93CF93DF93CDB770
:10511000DEB7CA1BDB0B0FB6F894DEBF0FBECDBFE8
:1051200009942A88398848885F846E847D848C84B9
:105130009B84AA84B984C884DF80EE80FD800C81C2
:105140001B81AA81B981CE0FD11D0FB6F894DEBFA5
:105150000FBECDBFED010895FB01DC0102C005903B
:105160000D9241505040D8F70895FB01DC0104C076
:105170008D910190801921F441505040C8F7881B4F
:10518000990B0895FB01DC0102C001900D92415082
:105190005040D8F70895F999FECF92BD81BDF89A95
:1051A000992780B50895A8E1B0E042E050E020C022
:1051B000262FF999FECF92BD81BDF89A019700B4D0
:1051C000021639F01FBA20BD0FB6F894FA9AF99A70
:1051D0000FBE08950396272FECDFEADF252FE9DFC6
:1051E000242FE7CF0196272FE4DFE2CFDC01CB01AC
:1051F000FC01F999FECF06C0F2BDE1BDF89A3196E7
:1052000000B40D9241505040B8F70895F894FFCF84
:10521000A81B171CB01B7A1B7E1BB41B821BB81B60
:10522000C41B8E1B101C921BC81B961BCC1BF11B96
:105230009A1BD01BF81BA01BD61BDE1B861BBC1B9E
:105240008A1BC01BA41BDA1BE81B011C0E1C741B51
:10525000AC1B1E1CA71CAD1C971CA11CB31CB91CAD
:10526000BF1C07272D2733272D2733278427A52762
:065270003327F927062890
:105276006002F4F5F6F73133946697C60100000034
:105286000100000000000000040100000004050009
:1052960000000000000409000000000000020D00EC
:1052A6000000000000020F000000000000011100D5
:1052B60000000000000412000000000000011600BB
:1052C60000000000000021007F220007000001000E
:1052D600F81D2F22072206222A22E200E900EA0010
:1052E600B500B600B700CD008301CC008A0192015B
:1052F60094012102230224022502260227022A0201
:10530600B300B4006F0070009F01CB019F02A002A2
:10531600E200E900EA00B500B600B700CD0083015F
:10532600CC008A0192019401210223022402250263
:10533600260227022A02B300B4006F0070009F0104
:10534600CB019F02A002F4F5F6F731330086020086
:105356000810182028303838302820181008000087
:00000001FF
