:100000000C9424040C9441040C9441040C946A2232
:100010000C9441040C9441040C9441040C9441044C
:100020000C9441040C9441040C9485270C9458289A
:100030000C949B1F0C9441040C9441040C944104B7
:100040000C9441040C9441040C9441040C9441041C
:100050000C9441040C9413200C9441040C9441041E
:100060000C9441040C9441040C9441040C944104FC
:100070000C9441040C9441040C9441040C944104EC
:100080000C9441040C9441040C9441040C944104DC
:100090000C9441040C9441040C9441040C944104CC
:1000A0000C9441040C9441040C944104556E646515
:1000B00066696E65640052616973650A004C6F770A
:1000C00065720A0044656661756C740A004C61795A
:1000D00065723A200014001A00080015001700008D
:1000E0000004001600070009000A0000001D001BA4
:1000F000000600190005002602E100E0002B00E2E6
:1001000000427E2C00130012000C0018001C00009E
:100110000033000F000E000D000B00000038003708
:100120000036001000110027022D0035044C002A73
:1001300000417E28001E022D0025022E02380000FC
:100140000029002002350222022E0000002B0001AF
:100150000001002D022D002F02E100E0002B00E243
:1001600000427E2C00310224021F022302210200E1
:1001700000330234003700370236020000380037FF
:100180000036003100380230022D0035044C002AC0
:1001900000417E28003A003B003C003D0001000089
:1001A000003E003F004000410001000000420043CB
:1001B000004400450001002F00E100E0002B00E2B8
:1001C00000427E2C000100270026002500240000AC
:1001D0000001000100230022002100000038003748
:1001E0000020001F001E0030002D0035044C002AA6
:1001F00000417E280000AE00AF00DA1281FFD9F185
:10020000DB20A4A62EAF00A0C0D30000A1C8D3005D
:1002100000AED580A83F408D14200007087F080756
:10022000003E5B4F5B3E003E6B4F6B3E001C3E7CD6
:100230003E1C00183C7E3C18001C577D571C001CBF
:100240005E7F5E1C0000183C180000FFE7C3E7FF5C
:1002500000001824180000FFE7DBE7FF0030483AF1
:10026000060E00262979292600407F050507004053
:100270007F05253F005A3CE73C5A007F3E1C1C0886
:1002800000081C1C3E7F0014227F2214005F5F00C8
:100290005F5F0006097F017F00006689956A006044
:1002A000606060600094A2FFA2940008047E0408CD
:1002B0000010207E20100008082A1C0800081C2AB4
:1002C0000808001E10101010000C1E0C1E0C003030
:1002D000383E383000060E3E0E06000000000000DA
:1002E0000000005F000000000700070000147F14FA
:1002F0007F1400242A7F2A12002313086462003628
:100300004956205000000807030000001C2241004D
:10031000000041221C00002A1C7F1C2A0008083E05
:100320000808000080703000000808080808000075
:1003300000606000002010080402003E5149453E64
:100340000000427F4000007249494946002141496E
:100350004D33001814127F10002745454539003CE5
:100360004A494931004121110907003649494936B6
:1003700000464949291E00000014000000004034D6
:10038000000000000814224100141414141400008A
:1003900041221408000201590906003E415D594EF0
:1003A000007C1211127C007F49494936003E4141D0
:1003B0004122007F4141413E007F49494941007F40
:1003C00009090901003E41415173007F0808087F77
:1003D0000000417F4100002040413F01007F0814A0
:1003E0002241007F40404040007F021C027F007F8E
:1003F0000408107F003E4141413E007F0909090683
:10040000003E4151215E007F0919294600264949D5
:1004100049320003017F0103003F4040403F001F7D
:100420002040201F003F4038403F00631408146301
:10043000000304780403006159494D4300007F41E3
:10044000414100020408102000004141417F0004A6
:100450000201020400404040404000000307080041
:10046000002054547840007F2844443800384444E5
:10047000442800384444287F00385454541800005D
:10048000087E09020018A4A49C78007F0804047860
:100490000000447D4000002040403D00007F1028C7
:1004A00044000000417F4000007C04780478007C18
:1004B0000804047800384444443800FC1824241804
:1004C0000018242418FC007C080404080048545434
:1004D00054240004043F4424003C4040207C001C81
:1004E0002040201C003C4030403C00442810284460
:1004F000004C9090907C004464544C4400000836BA
:1005000041000000007700000000413608000002B2
:1005100001020402003C2623263C000000000000EB
:1005200000404040F0F8F8FF38FFF8F83FF8F8FFD7
:1005300038FFF8F8F040404000000000000080C0A4
:10054000C0C0800000C0C08000000080C0C000C0EB
:10055000C0000080C0C00000000000C0C0C0C0C01B
:1005600000C0C0000000000000000000000000000B
:10057000000000000000000000000000000000007B
:10058000000000000000000000000000000000006B
:1005900000000000000000000000C0F0F8FC3E1E5B
:1005A00006010000007F4141417F007F4141417FC2
:1005B000000080C0E07E5B4F5BFEC00000C000DC3E
:1005C000D7DEDEDED7DC00C0000000000000000047
:1005D000000000000000000000000000000000001B
:1005E00000494949FFFFFFFFE0DFBFBF00BFBFDF9A
:1005F000E0FFFFFFFF49494900000000001F3F6086
:1006000060E0BF1F007F7F071E381E077F7F007FCF
:100610007F0E1F3B716000000000007F7F0C0C0C00
:10062000007E7E007F7E0303007F7E03037E7E03C9
:10063000037F7E000F3E703C063C703E0F00327B15
:1006400049493F7E007F7E0303001E3F69696F2694
:1006500000000000000000000000030F1F3F3C7876
:1006600070600000007F4141417F007F4141417F38
:1006700000307B7F7830202030787F3B0003000FF4
:100680007F0F0F0F7F0F000300000000000000002D
:10069000000000000000000000000000000000005A
:1006A00000010101070F0F7F0F7F0F0F7E0F0F7FDC
:1006B0000F7F0F0F07010101000000000000000084
:1006C0000000010100000000000000000000000028
:1006D000000000000000000000000000000000001A
:1006E000000000000000000000000000000000000A
:1006F00000000000000000000000000000000000FA
:1007000000000000000000000000000000000000E9
:1007100000000000000000000000000000000000D9
:1007200000000000000000000000000000000000C9
:1007300000000000000000000000000000000000B9
:1007400000000000000000000000000000000000A9
:1007500000000000000000000000001403730069A6
:10076000006D0070006C0065006B00650079000092
:10077000000E0344006E006500630068006900001D
:10078000000403090409023B00020100A0FA090465
:1007900000000103010100092111010001224400B0
:1007A000070581030800010904010001030000009E
:1007B00009211101000122320007058203200001F6
:1007C0001201000200000008EDFE0000000101021D
:1007D000000105010980A101850319012AB700154F
:1007E0000126B700950175108100C0050C0901A113
:1007F00001850419012AA002150126A002950175A0
:10080000108100C005010906A101050719E029E7CB
:100810001500250195087501810295017508810172
:100820000507190029FF150026FF009506750881A8
:100830000005081901290515002501950575019187
:1008400002950175039101C011241FBECFEFDAE0BC
:10085000DEBFCDBF11E0A0E0B1E0E6E3F6E502C007
:1008600005900D92A03FB107D9F727E0A0EFB1E0C6
:1008700001C01D92A735B207E1F70E9442190C94FE
:10088000E62A0C94000060E08DEC90E00E94CA1A09
:1008900080911002909111020E94F80560E0813071
:1008A00051F0823059F081110CC084EC90E00E942C
:1008B000CA1A80E008958DEB90E0F9CF86EB90E0C6
:1008C000F6CF8CEA90E00E94DC1AF3CF9C01FB018A
:1008D00022348EE73807C1F023348EE73807D9F089
:1008E00021343E4719F58581811551F081E00E9440
:1008F000730A43E062E081E00E94C90B80E0089542
:1009000081E00E94830AF5CF8581811511F082E094
:10091000EECF82E0F6CF8581811521F083E00E9441
:10092000730AECCF83E00E94830AE8CF81E0089548
:10093000CF93C82F0E94AA15811519F08C2FCF9143
:10094000089582E0FCCF8330B8F46830A8F44630D4
:1009500098F4E42FF0E096E0699FE00DF11D11247A
:1009600090E3899FE00DF11D1124EE0FFF1FEB5264
:10097000FF4F85919491089581E090E008950E9441
:10098000A304089581E0089581E008950E94C204BF
:10099000089581E0089581E008950E946604089515
:1009A000089508950E94D004089508950895A6E03A
:1009B000B0E0EDEDF4E00C944D2A49835A839E8318
:1009C0003091F70189819A8131111AC03E81311528
:1009D00099F0211589F00E94390B182F682F898111
:1009E0009A810E94150B69817A81812F0E946C1275
:1009F0002696E3E00C94692A0E94270B182FF3CF68
:100A00000E94390B69817A81F1CFFC01262F408148
:100A1000518162817381848195810E94D7040895F8
:100A2000CF93DF93D82FC92F61E00E9405056D2F6A
:100A30007C2F0E94C404811549F061E08D2F9C2F0A
:100A40000E9405056D2F7C2F0E94C604DF91CF9177
:100A500008950F931F93CF93DF93D82FC92F60E092
:100A60000E9405058C016D2F7C2F0E94D1046D2FF3
:100A70007C2FC8010E94D204DF91CF911F910F916A
:100A8000089521E030E0A90102C0440F551F8A9566
:100A9000E2F7CA010E94370A0895CF93C82F81E078
:100AA00090E00C2E02C0880F991F0A94E2F70E9472
:100AB000BF0F8C2F0E944105CF91089581E00895CA
:100AC00081E008950E945E050895CF93C82F0E948B
:100AD000E1098C2F0E9460058C2F0E9462052FEF88
:100AE00084E39CE0215080409040E1F700C000008A
:100AF000CF91089581E00E9465050E9437200895F6
:100B000080E00E9465050E94482008950F931F937E
:100B1000CF93DF938C0161E00E940505EC01B801E1
:100B20000E94CB04811509F442C0B801CE010E9495
:100B3000CD048115E1F1B801CE010E94D01D8115CF
:100B4000B1F1B801CE010E94911C811581F1B8016B
:100B5000CE010E94661C811551F1B801CE010E94A0
:100B6000B713811521F1F8018581811581F0CA350E
:100B7000FCE7DF0739F178F4C130ECE7DE07F9F084
:100B8000C330FCE7DF07C9F0C115DC4771F0C801CD
:100B90000E94C9040DC0CB35ECE7DE07B1F0CC35BF
:100BA000DC47A9F70E94910FF2CF0E947A0580E0FE
:100BB000DF91CF911F910F9108950E94A20F0E9483
:100BC0008005F5CF0E949A0FE2CF0E949E0FDFCFE3
:100BD0000E94D5040E945D1F0E942D060E94F01BFA
:100BE00008950E9431060E94D6040E94621F089553
:100BF000292F30E048E0911102C09C0140E0C9017A
:100C000064E0969587956A95E1F7009711F04C5F3F
:100C10009C01C9019695879596958795009711F047
:100C20004E5F9C01C90196958795840F089581E0D8
:100C300008950895CF93DF93D82F0E941706C82FE9
:100C4000811519F08D2F0E9419068C2FDF91CF91FD
:100C5000089508950E941A06089580E00E942A06C9
:100C600008950E941A1E0E942A060895CF930E949A
:100C70001A1EC82F8091F2018C1779F0C093F201EF
:100C80000E9407206093F3017093F4018093F501B3
:100C90009093F6018C2F0E942A06CF910895ADE023
:100CA000B0E0E5E5F6E00C944E2A488759876A875C
:100CB0007B878C879D8791110E94B40E1F8286E0EE
:100CC000FE013896DE01119601900D928A95E1F7AA
:100CD0008D8181110DC029813A814B815C816D81AB
:100CE0007E818F810E94F20D2D96E2E00C946A2A9B
:100CF000CE0101960E9410058111EDCFF5CFFC01C8
:100D00008481813021F4808191810E946B0B089550
:100D1000CF93C82F8115C9F08238C9F40E942E1EC6
:100D200081FD13C089E30E94D81E0E943E0F2FEF61
:100D300037EE83E0215030408040E1F700C00000F2
:100D400089E30E94E01E0E943E0FCF9108958338F0
:100D5000A1F40E942E1E80FDF8CF83E50E94D81ECC
:100D60000E943E0F9FEF21EE34E091502040304032
:100D7000E1F700C0000083E5E4CF8438A1F40E94CD
:100D80002E1E82FDE2CF87E40E94D81E0E943E0FF5
:100D90008FEF91EE24E0815090402040E1F700C0B9
:100DA000000087E4CECF8CEF8C0F813A70F48C2F4B
:100DB0000E949C1E811529F08C2F0E94E01E0E942B
:100DC0003E0F8C2F0E94D81EBECF80E28C0F883041
:100DD00048F4C77081E001C0880FCA95EAF70E9405
:100DE0008C0EB1CF8BE58C0F833038F42C2F24522E
:100DF000330BC9010E943C1EA8CFC85ACB3108F062
:100E0000A4CFEC2FF0E0EE0FFF1FE659FE4F8081DC
:100E100091810E94621E99CF811509F44DC08238DC
:100E200079F40E942E1E81FF47C089E30E94D81EDC
:100E30000E943E0F89E30E94E01E0E943E0F08952B
:100E4000833859F40E942E1E80FF36C083E50E942D
:100E5000D81E0E943E0F83E5EECF843859F40E94DD
:100E60002E1E82FF29C087E40E94D81E0E943E0FDA
:100E700087E4E1CF9CEF980F913AE8F290E2980F67
:100E8000983050F4877091E001C0990F8A95EAF785
:100E9000892F0E94920ED1CF9BE5980F933028F4B2
:100EA00080E090E00E943C1E0895885A8B3120F427
:100EB00080E090E00E94621E08950F931F93CF93ED
:100EC000C82F8B010E9488060115110539F48C2F5B
:100ED0000E940C07CF911F910F9108958FE99FE019
:100EE0000197F1F700C0000001501109EDCF60E556
:100EF00070E0893311F060E070E00E945D070895B2
:100F0000811521F00E948C0E0E943E0F08958115DC
:100F100021F00E94920E0E943E0F0895A0E0B0E0E2
:100F2000E4E9F7E00C94482A6C01D62FC72FFC01A6
:100F30000581F680F2948FE0F8220E94810EE82E5F
:100F40008115F9F0E02E0115E1F08C2F807F8034BF
:100F500061F080E28D0F883098F18C2F807E803296
:100F600021F4D23068F1F11459F18091270382FF06
:100F700027C082E00E94640F0E94810E91E0E82E5B
:100F8000E9268C2F82958F70883009F4E3C090F5A4
:100F90008430C0F41C2F1F708230E8F1C07FC03253
:100FA00011F01295107FD11509F464C0D13009F405
:100FB00094C0011509F4A0C0F11409F477C03EC033
:100FC000E12CDFCF843009F4A8C0E11409F4F5C0A6
:100FD0000E947D0E80FDF1C0F60115820E94770E01
:100FE0000E94730AC6010E94AC090E94770E0E94FB
:100FF000830AE3C0893009F429C18A5F8F70823087
:1010000020F7D23F09F033C18C2F8F7101112CC111
:101010000E94730ACEC0C03110F01295107F0115E6
:1010200099F0111559F080E28D0F883010F0D11130
:1010300007C0812F0E948C0E0E943E0F8D2F28C06A
:10104000812F0E94A30EF8CF8D2F0E940C0711153F
:1010500009F4BBCF80E28D0F883010F0D11104C0AD
:10106000812F0E94920E03C0812F0E94A90E0E9420
:101070003E0FABCF8091270382FD14C0011559F0BC
:10108000111529F0812F0E948C0E0E943E0F80E0E6
:101090000E9488069ACF80E00E940C07111509F47F
:1010A00094CFDECF011569F0F11004C0812F0E94AA
:1010B00080078BCFF1E0FF1288CF812F0E94D80EDE
:1010C00084CFF11082CF812F0E948707812F0E9449
:1010D000E40E812F0E94C70E78CF011529F026E07B
:1010E000F21608F072CFE2CF85E0F81608F06DCF67
:1010F000812F0E94870769CFF114D1F3D93349F4C6
:101100009FEFE7EEF3E09150E040F040E1F700C0E0
:1011100000008D2F0E940C0758CF8C2F8695869546
:101120008370811569F0813009F04FCF8D2F9C2F8E
:101130009370011102C080E090E00E94621E45CFD2
:101140008D2F9C2F9370011102C080E090E00E94CF
:101150003C1E3BCF8C2F837081113DC0011129C0F3
:101160004D2F429546954770440F440F2D2F2F70F9
:1011700030E0042E02C0220F331F0A94E2F780E011
:1011800090E0D4FF09C08FE090E002C0880F991F63
:101190004A95E2F780959095C695C695C370822BC7
:1011A000932BC23091F0C33099F0C13059F00E94B6
:1011B000430A0E941A1E0E942A06CDB7DEB7E8E055
:1011C0000C94642A0E943A0AF4CF0E944C0AF1CF90
:1011D0000E94370AEECF011561F1C0FFEACF4D2F13
:1011E000429546954770440F440F2D2F2F7030E0E5
:1011F000042E02C0220F331F0A94E2F780E090E031
:10120000D4FF09C08FE090E002C0880F991F4A9573
:10121000E2F780959095C695C695C370822B932B67
:10122000C23071F0C33079F0C13039F00E94AE0A9B
:10123000C0CF823008F4BDCFD2CF0E94A50AB9CF6B
:101240000E94B70AB6CF0E945B0AB3CFCF700115D8
:1012500039F08C2F0E94730A8D2F0E948007A9CF2E
:101260008D2F0E9487078C2F0E94830AA2CF68F4DB
:10127000D03FC1F0D13F89F0011509F441C0F1140C
:10128000E1F18D2F0E94880694CFD33FC9F0D43F5F
:1012900099F78091270382FD1DC08C2F8F71011556
:1012A00019F3B6CE011549F025E0F21608F081CF0A
:1012B0008C2F8F710E94950A7CCF86E0F816F6CFAE
:1012C000011529F08C2F8F710E94670A72CF0E943E
:1012D000620A6FCF011531F063E08C2F8F710E948D
:1012E000450F67CF81E00E94640F92E0F91608F481
:1012F00060CF82E00E94640F5CCF8C2F8F7188CE0C
:10130000F11479F0D93349F4EFEFF7EE23E0E1502F
:10131000F0402040E1F700C000008D2F0E940C0734
:1013200048CF8C2F8F71A0CF0F931F93CF93DF9354
:10133000EC01688179818D810E94780B8C010E947B
:10134000C00A0E94360AB801CE010E948E07DF91C2
:10135000CF911F910F910895CF93DF93EC018C8172
:10136000811599F0CE010E948605811111C00E945D
:10137000810E811551F08D81811539F080912703FF
:1013800082FF03C082E00E94640FDF91CF91089535
:10139000CE010E949409CE010E942905F6CF80E07B
:1013A00090E00E943C1E80E090E00E94621E0E943D
:1013B000B40E0E943E0F08950E94E81E0E94CF09BD
:1013C00008950E949D0E0E94DC090895282F929591
:1013D0009F70963099F060F4925F9F70923030F475
:1013E000203FB1F038F481E0283E38F080E00895E5
:1013F0009A5FF3CF81E0243FC9F7089591E0813FE0
:1014000009F090E081E0283E08F080E0892B089503
:1014100081E00895FC018481811539F080819181FA
:101420000E946B0B0E94E609089580E00895A6E0F3
:10143000B0E0EDE1FAE00C944E2A2696E2E00C943E
:101440006A2AA7E0B0E0E7E2FAE00C944E2A279679
:10145000E2E00C946A2A08950E942B0A08950E94E3
:101460002C0A9093130280931202089508950E940B
:101470002F0A08952091120230911302822B932B90
:101480000E942F0A089520911202309113028223A4
:1014900093230E942F0A0895209112023091130283
:1014A000822793270E942F0A08950E942B0A0895ED
:1014B0000E94550A08950E94580A90931102809341
:1014C0001002089580E090E00E945B0A089521E0F8
:1014D00030E0A90102C0440F551F8A95E2F7CA0106
:1014E0000E945B0A089521E030E002C0220F331F02
:1014F0008A95E2F78091100290911102822B932B32
:101500000E945B0A089521E030E002C0220F331FE1
:101510008A95E2F720953095809110029091110202
:10152000822393230E945B0A089521E030E002C0E9
:10153000220F331F8A95E2F78091100290911102D9
:10154000822793270E945B0A089520911002309110
:101550001102822B932B0E945B0A089520911002A6
:1015600030911102822393230E945B0A08952091F7
:10157000100230911102822793270E945B0A08957E
:1015800008959B01677091E001C0990F6A95EAF791
:1015900063E0369527956A95E1F7220F331F220FF6
:1015A000331FFA01E20FF31F40E050E0682F70E0B4
:1015B0008191DF019B01042E02C0369527950A9484
:1015C000E2F7217021952827292328272E934F5FA2
:1015D0005F4F4430510561F708959C01982F977033
:1015E00083E0369527958A95E1F7220F331F220F66
:1015F000331FFB01E20FF31F40E050E080E0219138
:1016000030E0092E02C0369527950A94E2F7217042
:101610003327042E01C0220F0A94EAF7822B4F5F72
:101620005F4F4430510559F70895282F862F983081
:1016300068F4263058F4622F70E026E0929F600D27
:10164000711D112448EF51E00E94C10A0895292F0D
:10165000983068F4863058F490E068EF71E036E036
:10166000239F800D911D11240E94ED0A089580E0B2
:101670000895A0E0B0E0EFE3FBE00C94472A8C0172
:10168000E0901002F09011028091120290911302EA
:10169000E82AF92ACFE0D0E0CC24C394D12CC601AB
:1016A0000C2E02C0880F991F0A94E2F78E219F2109
:1016B000892B49F4219798F7B12C8B2DCDB7DEB744
:1016C000E9E00C94632ABC2EB8018C2F0E9478129A
:1016D000019781F3F2CFCF93DF93D82FC92F0E94C8
:1016E000390B6D2F7C2F0E947812DF91CF910895D6
:1016F0001F93CF93DF93162FD72F9091F70191155A
:1017000041F0862F972F0E946B0BDF91CF911F9195
:101710000895811581F0862F972F0E94390BC82FCD
:10172000682F812F9D2F0E94150B612F7D2F8C2FED
:101730000E947812EACF862F972F0E94270BC82F7E
:10174000F4CFDC01E1E0F0E0CF0102C0880F991F87
:101750006A95E2F7BC01CF0102C0880F991F4A9534
:10176000E2F7AC01682B752B02C0EE0FFF1F2A9524
:10177000E2F7CB018A239B238617970721F4CF0139
:101780008A2B9B2B0895E095F095CF018A239B230C
:101790000895242F462F682F8091100290911102F6
:1017A0000E94A10B0E945B0A08950F931F93CF9391
:1017B000E0911402C7E0809115028E1304C0CF910E
:1017C0001F910F9108950E2F10E0CE9FF00111246C
:1017D000EA5EFD4F208131814281538164817581B0
:1017E00086810E94210AF8013196E770E4CF2091AA
:1017F0004E0230914F02409150025091510260913F
:10180000520270915302809154020E94210A08955D
:1018100080915402803178F480915302811559F0FF
:10182000E09114022091150230914F0240914E0236
:1018300057E02E1301C008956E2F70E05E9FF001F7
:101840001124DF01AA5EBD4F14968C911497811567
:1018500061F111968C911197831327C08C91841399
:1018600024C015968C91159781111FC012968D91E9
:101870009C91A0915002B09151028A1B9B0B883C15
:10188000910598F4809154028F7080618093540286
:10189000E45EFD4F80818F70806180838EE492E0F2
:1018A0000E94AC090E94D50B0895FB013196E770A8
:1018B000C0CFE09114029091150227E0E91302C015
:1018C00080E00895AE2FB0E02E9FF0011124EA5E73
:1018D000FD4F3181361306C03081381303C0358186
:1018E000341304C0FD013196E770E8CF81E008951C
:1018F0008F929F92AF92BF92DF92EF92FF920F93DF
:101900001F93CF93DF93CDB7DEB72D970FB6F89423
:10191000DEBF0FBECDBF8C0186E0F801DE01189658
:1019200001900D928A95E1F7F801F58084819EE49B
:10193000892E92E0992E9091520291111BC081152F
:1019400009F4FFC0F11409F440C1C8010E940A0A59
:10195000811509F43AC187E0F801D40101900D9294
:101960008A95E1F7C4010E947F060E94080C0E943C
:10197000F70BE7C0E080A280B380D09053022091A3
:10198000500230915102A501421B530BD11409F4AE
:10199000DBC0483C510508F0A6C0811509F4D1C050
:1019A00090914F02918080915402803108F06BC079
:1019B000991228C090914E029E1124C0F1105DC072
:1019C0008F708061809354020E94F70B8EE492E046
:1019D0000E94AC0980915402F8018683F12C8F2D6E
:1019E0002D960FB6F894DEBF0FBECDBFDF91CF911D
:1019F0001F910F91FF90EF90DF90BF90AF909F905D
:101A00008F900895F11039C040E0692D8E2D0E940D
:101A1000590C40E0692D8E2D0E94590CF82E811131
:101A2000DDCF888599850E946B0B292F22952F7019
:101A3000903450F49F70223080F0911599F0F801A5
:101A40009681903178F4CBCF2A5F2F70223078F0D6
:101A5000C8010E94AC09FD2CC2CF911519F0811567
:101A600009F4BDCF805E883008F4B9CFF1CF803F54
:101A700008F4B5CF815F8330F7CF80915402816045
:101A800080935402ABCF991207C090914E029E11E1
:101A900003C0F11409F479C0C8010E940A0A811533
:101AA00009F493C0F11409F490C08091540280327B
:101AB00088F020914E0230914F023A832983BC82F4
:101AC000AB82909152029D831E828F83CE0101963C
:101AD0000E94AC0987E0F801AEE4B2E001900D92FB
:101AE0008A95E1F742CF909154029031A0F4488555
:101AF00059856A857B858C859D850E94170A8EE4B1
:101B000092E00E94AC0987E0F40111928A95E9F70E
:101B10000E94F70B63CF8115A1F020914F028181C4
:101B20002813BACF80914E028E11B6CFF110B4CFE8
:101B30009683C8010E94AC0987E0F40111928A954E
:101B4000E9F7FF24F3944BCF483C510508F041C01E
:101B50008115B9F3F114C9F190914F028181981365
:101B60002AC080914E028E1126C08091540280FDC1
:101B700019C08031B8F08683807F803F39F086813C
:101B8000982F907F905F8F70892B8683C8010E9469
:101B9000AC0987E0F801AEE4B2E001900D928A95BD
:101BA000E1F7E5CE87E0F801AEE4B2E001900D92F6
:101BB0008A95E1F7C6CFC8010E940A0A81118ACF2F
:101BC00080915402816080935402C8010E94AC0944
:101BD000B8CF488559856A857B858C859D850E940F
:101BE000170A91CFAEE0B0E0E8EFFDE00C944D2A8B
:101BF000288739874A875B876C877D878E87CE01E8
:101C000008960E94780C6C858115A9F0611541F049
:101C1000288539854A855B857D858E850E94210AC8
:101C200017E0809114029091150289133AC02E9604
:101C3000E3E00C94692A87E0FE013896DE011196F4
:101C400001900D928A95E1F7611551F3A09115026B
:101C50008A2F90E001968770992720911402281707
:101C6000190689F097E09A9FD0011124AA5EBD4F12
:101C7000FE01319601900D929A95E1F7809315023D
:101C80000E94D50BCDCF0E94E1091092150210924F
:101C9000140287E0EEE4F2E0DF011D928A95E9F795
:101CA000BFCF189FC00111248A5E9D4F0E94780CFF
:101CB000811509F4BCCFE09114021E9FF00111249C
:101CC000EA5EFD4F208131814281538164817581BB
:101CD00086810E94210A8091140290E0019687700B
:101CE0009927809314029DCF80915E020895809180
:101CF0005D02869586958695089580915D02877030
:101D0000089590915D02977081E0911101C080E08B
:101D1000089580916902089590916902982B90939B
:101D200069020895982F9095809169028923809384
:101D300069020895809369020895109269020895D6
:101D400080916802089590916802982B90936802A0
:101D50000895982F90958091680289238093680256
:101D60000895809368020895109268020895809102
:101D70005F02089508950E94BA0E089590915E0240
:101D8000981721F080935E020E94BB0E08959091F7
:101D90005E02292F2823211531F080958923809315
:101DA0005E020E94BB0E089508950E94D40E08950D
:101DB00090915F02292F2823281729F0982B9093C0
:101DC0005F020E94D50E089590915F02292F28236B
:101DD000211531F08095892380935F020E94D50EF2
:101DE00008959091270392FF08C090915F02981781
:101DF00021F080935F020E94D50E089580915F02CA
:101E0000811529F010925F0280E00E94D50E08959E
:101E10000F931F93CF93DF93009100011091010165
:101E2000C091690280916802C82B80915F02811580
:101E300031F0C82B0E94881E81110E94FE0EF8010D
:101E4000C083C0910001D091010148E050E065E5F8
:101E500072E0CE010E947E2A892B59F088E0FE01B3
:101E6000A5E5B2E001900D928A95E1F7CE010E94BE
:101E7000311EDF91CF911F910F9108950E94080F9D
:101E8000089508950E94410F0895962F20912703E9
:101E900022FF11C0682F660F660F660F692B6093D3
:101EA0005D020E94730A80915D02869586958695F3
:101EB0000E94420F08950E94730A089510925D02D5
:101EC00080E00E94420F089590915D0280958923E1
:101ED00080935D02282F277021110DC0891759F0BA
:101EE0009091270392FF07C08695869586950E945C
:101EF000830A0E945E0F08959091270392FB222788
:101F000020F9281769F080FB92F9909327038091BC
:101F10002603909127030E94CA0F82E00E94640F5B
:101F2000089580912703002482FF0394802D0E944E
:101F30007C0F089581E00E947C0F089580E00E944C
:101F40007C0F08956FEF7FEF80E090E00E94D02A31
:101F5000089580E090E00E949C2A9C0181E0253E4B
:101F60003E4F09F080E0089582E090E00E94942ABC
:101F7000089583E090E00E94942A90E00895682FED
:101F800083E090E00E94B22A089584E090E00E94ED
:101F90009C2A0895BC0184E090E00E94D02A089514
:101FA000AB01BC018FE090E00E94C42A0895AB0110
:101FB000BC0183E190E00E94C42A089560E070E0D3
:101FC000CB010E94D70F089560E070E0CB010E9422
:101FD000D00F0E94DE0F0895A8E0B0E0E2EFFFE02E
:101FE0000C944E2A65EE7EEF80E090E00E94D02AAD
:101FF00060E082E090E00E94B22A81E090E090935D
:102000001302809312020E94BF0F60E074E184E02B
:1020100090E00E94D02A60E086E090E00E94B22A20
:1020200060E087E090E00E94B22A40E050E0BA0110
:1020300088E090E00E94C42A60E083E290E00E9481
:10204000B22A60E08CE090E00E94B22A60E08DE06D
:1020500090E00E94B22A19821A821B821C821D8281
:102060001E821F82188648E050E067E170E0CE01D2
:1020700001960E94A22A40E050E0BA018FE190E070
:102080000E94C42A0E94E40F2896E2E00C946A2A77
:102090000E94EC0F0895682F8EE090E00E94B22A13
:1020A0000895A6E0B0E0E7E5F0E10C944C2A0E9428
:1020B000FB1F8C0180916A0290916B02801791073F
:1020C00079F019821A820E94FB1FBC0149815A8152
:1020D00080E090E00E944F0610936B0200936A022A
:1020E0002696E4E00C94682A0E9493136093780289
:1020F0007093790280937A0290937B0260937402CA
:1021000070937502809376029093770208950895F4
:1021100008950E948710089508950E948C100E94CF
:102120008910089508950E949210089508950E94BC
:1021300096100E949310089581E0089585EB93E135
:102140000E9457190E9488100E948D1008950E94C5
:10215000AA1508950895089508950E94AA100E944E
:10216000AB100E94AC1008950E94A90F811102C00B
:102170000E9448100E94B40F80937C020E94C50FF9
:1021800090932703809326030E94B90F0E94370A79
:1021900080911002909111020E94580A08950E94A5
:1021A000F21F0E946D130E94B0150E94CF140E946E
:1021B000B4100E9429060E944C1C80E00E94A119C4
:1021C0000E94C2150E9497100895A6E0B0E0EBEEC1
:1021D000F0E10C94442A0E949C10082F811110C039
:1021E0000E94511000E00E94AA150E94131C0111C8
:1021F0000E94E21A0E9436062696ECE00C94602AB1
:102200000E941C158CE6A82E82E0B82E650110E015
:10221000F601F1906F01812F0E94D1131F5F1830DA
:1022200009F443C0F816A1F380917C0281FD0E945D
:10223000D7130E94A710982EF12C882483948F2DF9
:102240000E94D113182FF50191915F01891731F187
:10225000C82EC926E12CDD24D3948D2D8C21811527
:10226000B1F09114A1F0E982FA820E94FB1F9C83D5
:102270008B838D8291E08D2D8123811101C090E0AF
:1022800049815A816B817C818D810E944F06E39444
:10229000DD0CF6E0EF12E1CFF5011293F39488E044
:1022A000F812CDCF0E9474109ECFF812BDCF98CFF8
:1022B0001F93CF93DF930E947D12EC01811522E5DD
:1022C000920708F05DC0811540E5940708F0DBC077
:1022D000803E910528F58D3C910508F0ACC0883A08
:1022E000910578F4853A910508F0A2C081309105F6
:1022F00009F441C00497813A9105E8F1C0E0D0E0CB
:102300003AC0885A91094B97C8F7C85AD0E0CC0F09
:10231000DD1FC056DE4F0990D881C02DD4642BC07C
:10232000811550E49507F8F4C11580E2D80708F04C
:10233000C0C0C83ED105F8F0CE019A9581159F41E5
:10234000E8F68D2F0E941E13182FCE0199270E94A8
:102350007D12212F30E0322F2227E901CC27DF71B7
:10236000C82BD92B08C099270E947D12CC27DF707B
:10237000C82BD92BD06ACE01DF91CF911F91089540
:10238000803842E59407C8F5803652E5950708F095
:102390005BC0C03482E5D807D0F4C03292E5D907DB
:1023A00008F04BC08C2F8695869520E2829FC00155
:1023B0001124C37021E030E0A90102C0440F551F71
:1023C000CA95E2F7EA01C82BD92BDD68D4CF8C2F50
:1023D00086958695877050E2859FC0011124C37051
:1023E00021E030E0A90102C0440F551FCA95E2F771
:1023F000EA01C82BD92BDC68BECF803C52E595079B
:1024000058F48F71C03AD245A0F590E0982F8827F4
:10241000EC01C46FD06AAFCF805C9245809708F022
:102420006DCFDC2FCC27CC27DF71C06FD06AA3CF54
:10243000A497D064A0CFD0659ECFCF71D0E0DC2F21
:10244000CC27C16FD06A97CF86958695877020E29A
:10245000829FC0011124C37021E030E0A90102C0B5
:10246000440F551FCA95E2F7EA01C82BD92BDA6849
:1024700082CF0E941E13C82FD0E0DC2FCC27CC27A0
:10248000DF71D06278CF8F710E941E1353E0CC0FA2
:10249000DD1F5A95E1F7CC27DF70282F30E084FF4D
:1024A00004C050E1859F90011124C22BD32BD06929
:1024B00062CF8D2F8F710E941E13182FCE01992786
:1024C0000E947D12212F30E0322F222722273F71D8
:1024D000282B392BE901D5CF462F672F783028F4E8
:1024E000463018F40E94BF04089580E090E00895FB
:1024F0000E946C120E94581108959C01803E910523
:1025000009F448C0D8F48133910509F47DC048F43A
:102510008932910509F46DC08A9709F47CC0C9011C
:1025200008958933910551F18238910539F1C597A4
:10253000B1F78091260385FFF2CF29C0843E910533
:1025400009F447C048F4823E910599F1833E910514
:10255000A9F121EE30E0E3CF863E910509F444C0B5
:10256000873E9105E1F68091260383FD61C090913D
:10257000270391FF2BC024EE30E0D1CF80912603BA
:102580008370811152C08091270383FFC8CF29E255
:1025900030E0C5CF8091260380FD33C090912703A2
:1025A00090FFBDCF23EE30E084FFB9CF20E030E0D4
:1025B000B6CF8091260382FDF5CFB1CF809126035F
:1025C00082FD30C09091270390FD2FC084FFA7CFDC
:1025D000EDCF8091270381FFA2CF8091260327EEC4
:1025E00030E084FDE3CF9BCF8091260383FDF7CFBE
:1025F00096CF8091260385FD1EC08091270383FF1F
:102600008ECF29E330E08BCF8091260386FF87CFE2
:102610002AE230E084CF8091260386FF80CF21E339
:1026200030E07DCF22EE30E07ACF20EE30E077CF81
:1026300026EE30E074CF25E330E071CF9091260391
:1026400092FF10C041E0282F2471243009F040E0AF
:1026500031E0282F2871283009F030E0431711F0BD
:102660002CE0822793FF10C041E0282F24712431F1
:1026700009F040E031E0282F2871283109F030E0DE
:10268000431711F02CE082273091270330FF10C050
:1026900051E0282F2171213009F050E041E0282F2E
:1026A0002871283009F040E0541711F029E0822702
:1026B00031FF10C041E0282F2171213109F040E0A5
:1026C00031E0282F2871283109F030E0431711F04C
:1026D00029E0822794FD877E0895109228031092A6
:1026E000290310922A0310922B030895CF92DF92B0
:1026F000EF92FF926B017C010E94AA1581110EC01E
:102700000E940720C61AD70AE80AF90AC0922803CD
:10271000D0922903E0922A03F0922B03FF90EF90CE
:10272000DF90CF900895CF92DF92EF92FF920E94B8
:10273000AA15811559F00E9407206B017C01C70181
:10274000B601FF90EF90DF90CF9008950E94072090
:10275000C0902803D0902903E0902A03F0902B0327
:10276000C60ED71EE81EF91EEACF80E00895CF936B
:102770009C01FB01805E9245C1E0809738F4C581E1
:10278000C11104C0822F8F710E944D058C2FCF91F3
:10279000089508950E94C913089508950E94CD13C5
:1027A0000895E82FF0E0EB5CFC4F808108950895D8
:1027B00080EA8A95F1F7089500C008950E94D81321
:1027C000089508950E94E1130895A4E0B0E0EBEEAF
:1027D000F3E10C944A2A0E94AA15182F80913D0318
:1027E00090E08B5C9C4F1115F1F104E09E012F5F8E
:1027F0003F4F7901F901202F11922A95E9F7B7018E
:102800000E94D0158115B9F080912C0390E044E02E
:1028100050E0B7018B5C9C4F0E947E2A21E0209300
:102820007D02892B91F410E00E94CE13812F249613
:10283000E6E00C94662A80917D028115A1F3F701F0
:1028400011920A95E9F710927D02E0912C03F0E0D5
:10285000EB5CFC4F89819A81AB81BC818083918341
:10286000A283B383E1CF20912C0330E0BC01C901E6
:102870008B5C9C4F0E945B160E94E213D7CFF894AA
:10288000E82FE295EF70F0E041A18F7021E030E099
:10289000B90102C0660F771F8A95E2F7CB01962F28
:1028A0009095942391A392A1892B82A37894089563
:1028B000CF93DF93C8E0D1E089918F3F11F00E9460
:1028C0003F1481E0CC30D807B9F7C2E0D1E089915C
:1028D0008F3F11F00E943F1481E0C830D807B9F74C
:1028E000DF91CF910895A0E0B0E0E9E7F4E10C9426
:1028F000482AEC01D62E062F10E0C801885F9E4FB3
:102900007C01FC0180818F3F09F444C0F894E82FDA
:10291000E295EF70F0E091A18F7021E030E001C00E
:10292000220F8A95EAF7892F822B81A382A1209515
:10293000282322A378940E94DC13A2E0B1E091E066
:10294000C12C8D918F3F79F0E82FE295EF70E05E1A
:10295000F0E0208130E08F7002C0359527958A9590
:10296000E2F7892F20FD80E0C82A990FF1E0A83016
:10297000BF0739F7F70180818F3F11F00E943F14A4
:1029800061E0C11001C060E08D2D0E94DE13C00F18
:10299000D11FC882CDB7DEB7E8E00C94642AA6E068
:1029A000B0E0E5EDF4E10C944E2A80910C01811128
:1029B0001EC084E98093080186E68093090187E9B7
:1029C00080930A0186EC80930B0186E0E6EDF1E04E
:1029D000DE01119601900D928A95E1F786E0FE01E5
:1029E0003196A2E0B1E001900D928A95E1F78091D5
:1029F0000C0191E08927880F880F80933D0394E0B4
:102A0000981B90932C030E94581488E0E5E3F3E0B0
:102A1000DF01982F1D929A95E9F7EDE2F3E0DF01CF
:102A20001D928A95E9F784E00E945C150E94CA1302
:102A30002696E2E00C946A2AA8E0B0E0E2E2F5E132
:102A40000C944B2AFE01319688E0DF011D928A9595
:102A5000E9F710E0FE2E0F2F612F8F2D902F0E948F
:102A600073141F5F1430C1F748E050E06F2D702FD2
:102A70008DE293E00E947E2A21E0892B99F420E0E8
:102A800060913D0370E06B5C7C4F44E08DE293E02D
:102A90000E945D15182F0E94E513812B2896E5E012
:102AA0000C94672A88E0EF2DF02FADE2B3E001909F
:102AB0000D928A95E1F7E4CF0895A0E0B0E0E3E657
:102AC000F5E10C94482AD82EE92EF62ED72F042FA4
:102AD000C22F211579F081E0809380020E94FB1FB4
:102AE00090937F0280937E0280E0CDB7DEB7E8E06E
:102AF0000C94642AC0908002C114B1F380917E02CC
:102B000090917F020E94791F059770F310E0A80151
:102B10006D2D7E2D8F2D9D2F0E947E2A892B41F0B9
:102B2000A8016D2D7E2D8F2D9D2F0E948B2ACC2DDF
:102B3000109280028C2FD9CFCF930E940B2AC82FDE
:102B4000811102C00E94062A8C2FCF910895809196
:102B5000840208958091830208950E94AA15089521
:102B60000E949C15809383020E94AD15809384027D
:102B70000E94A71580930C010E94AA1581110E9442
:102B8000061608950E94AA15811102C00E94091616
:102B9000089581E0909185029A3008F080E00895D0
:102BA0000F931F93CF93DF93EC01162F072F809184
:102BB00085028A3090F4612F702FCE010E94581642
:102BC000811121C0809185028F3FB1F40E94FB1FCB
:102BD000909382028093810209C08091810290913A
:102BE00082020E94791F843F914028F780E0DF91A4
:102BF000CF911F910F9108958F5F809385028A3046
:102C000028F781E0F4CF10928502FBCF0E942322A7
:102C100008950E9426220895A0E0B0E0E2E1F6E1E6
:102C20000C94482AFA0169017801C82F880FDD0B3E
:102C30003097B9F0DE0193E0AA0FBB1F9A95E1F738
:102C4000A35FBE4F11968D919C9112978A579D4F0D
:102C50002C91422F50E0E217F10508F4AF010E94D9
:102C60008B2ACE010E941123182F8115D9F0E1146F
:102C7000F104C1F083E0CC0FDD1F8A95E1F7FE017E
:102C8000E35FFE4F8381482F50E0E816F10408F41B
:102C9000A701C35FDE4F6C817D816A577D4FC601FE
:102CA0000E948B2A812FCDB7DEB7E8E00C94642A0E
:102CB0000E94911808950E94D9180895A0E0B0E0EC
:102CC000E4E6F6E10C94462AF82EEB01A42ED22E6F
:102CD000E32EB02EC12E688179818A819B810E946A
:102CE000831F643671058105910510F4A11499F0D4
:102CF00000E010E020E030E04B2D5C2D6D2D7E2DAE
:102D00008F2D0E940C16811539F00E9407206883D0
:102D100079838A839B8381E0CDB7DEB7EAE00C94A8
:102D2000622AA1E0B0E0E7E9F6E10C944C2A0E94A7
:102D30000D1C8983E091DD01F091DE01268990E090
:102D400041E02817190609F440E001E010E09E0177
:102D50002F5F3F4F61EC72E088E00E945E16219683
:102D6000E4E00C94682A0F931F93CF93DF93C091F4
:102D7000DD01D091DE0141E02D853E85809110027C
:102D8000909111022817390709F440E002E010E0A1
:102D900020E132E065EB72E084E00E945E1681156E
:102DA000A1F041E02F8538898091120290911302A1
:102DB0002817390709F440E002E010E022E132E090
:102DC00061EB72E085E00E945E16DF91CF911F916A
:102DD0000F910895A4E0B0E0E0EFF6E10C94482AEA
:102DE0006091BD027091BE028091BF029091C002BD
:102DF0000E94831F6B017C010E94890E898311E070
:102E000094E6C916D104E104F10448F4E091DD012F
:102E1000F091DE0111E09289981301C010E00E9448
:102E2000A00E8A83111109C0E091DD01F091DE014D
:102E300011E09389981301C010E00E94B70E8B83B4
:102E4000111109C0E091DD01F091DE0111E09489DA
:102E5000981301C010E00E94740E8C83111107C0FA
:102E6000E091DD01F091DE0195898917C1F000E064
:102E700010E020E030E044E050E0BE016F5F7F4FA3
:102E800087E00E940C16811559F00E94072060937C
:102E9000BD027093BE028093BF029093C00281E096
:102EA0002496E8E00C94642AA1E0B0E0EAE5F7E1BA
:102EB0000C944C2A0E941A1E8983E091DD01F09146
:102EC000DE0141E09189981301C040E001E010E08B
:102ED0009E012F5F3F4F69EB72E086E00E945E1615
:102EE0002196E4E00C94682AA4E0B0E0EAE7F7E178
:102EF0000C944C2A6091AD027091AE028091AF02A9
:102F00009091B0020E94831F11E064367105810523
:102F1000910520F10E949313DC01CB010296A11DC3
:102F2000B11D89839A83AB83BC8300E010E020E06D
:102F300030E044E050E0BE016F5F7F4F83E00E94CD
:102F40000C16182F811551F00E9407206093AD02D6
:102F50007093AE028093AF029093B002812F2496BB
:102F6000E4E00C94682AA5E0B0E0E9EBF7E10C940A
:102F7000462A7B01C090DD01D090DE0101E010E027
:102F80009E012B5F3F4F40E050E060E070E080E04A
:102F90000E940C16182F811509F44AC056018FEFB4
:102FA000A81AB80A6091A5027091A6028091A702A2
:102FB0009091A8020E94831F6436710581059105D6
:102FC00078F104E010E09E012F5F3F4F40E050E0B9
:102FD00060E070E081E00E940C16182F64E070E061
:102FE000C5010E944D1C9D8198132DC0111559F1EA
:102FF0000E9407206093A5027093A6028093A70207
:103000009093A80289819A81AB81BC818093A102AF
:103010009093A202A093A302B093A40281E014C0F3
:1030200064E070E0C5010E944D1C9D818913C9CFE9
:10303000F60181819281A381B48189839A83AB83D4
:10304000BC831111DFCF80E04091A1025091A20218
:103050006091A3027091A402F701408351836283BF
:1030600073832596EAE00C94622AA0E0B0E0EBE3DB
:10307000F8E10C94462A182F092FB62EA72E7A01B4
:103080000E94C9159AE0C92ED12C811103C0CC240D
:10309000C394D12CC1E0D0E06B2D7A2D812F902FDD
:1030A000F7010995811116C02196CC16DD0694F022
:1030B000CC9FC001CD9F900D900D112420E030E0F9
:1030C00045E34A95F1F700002F5F3F4F2817390776
:1030D000B9F7E2CFCDB7DEB7EAE00C94622A0F93DE
:1030E0001F93CF93DF93D82FC92F6091DD0170918B
:1030F000DE016B5F7F4F44E050E00E947E2A41E09A
:10310000892B09F440E004E010E02D2F3C2F69EA00
:1031100072E082E00E945E16DF91CF911F910F91C5
:1031200008950F931F93CF93DF93D82FC92F8B014F
:1031300043EB57E10E943518811106C080E0DF9112
:10314000CF911F910F9108954FE658E1B8018D2F4F
:103150009C2F0E943518811589F344E757E1B80187
:103160008D2F9C2F0E943518811541F343EB56E1BA
:10317000B8018D2F9C2F0E9435188115F9F244E576
:1031800057E1B8018D2F9C2F0E9435188115B1F29F
:103190004AEE56E1B8018D2F9C2F0E9435188115FB
:1031A00069F241E956E1B8018D2F9C2F0E94351834
:1031B000C6CFFF920F931F93CF93DF938C01FB0138
:1031C000C091DD01D091DE01CE01019624E0DC0149
:1031D00001900D922A95E1F764E070E00E944D1C89
:1031E0008883FE01359684E0D80101900D928A957E
:1031F000E1F769857A858B859C8500919D02109108
:103200009E0220919F023091A002601771078207F1
:10321000930751F060939D0270939E0280939F02EA
:103220009093A0020E9476138D859E859093110243
:10323000809310028F8598899093130280931202D5
:1032400089890E94171EFB880C891D898A890E9422
:103250009A0E8F2D0E94B10E802F0E94F10E812FA9
:103260000E94BE0E8E89811539F00E94E21ACDB7F8
:10327000DEB7E5E00C94672A0E94F01BF8CF0E94AD
:10328000E51008950E94941F0E94C3240E949E107E
:103290000E94DD240E94CF100E94EA240E94EF24A5
:1032A0000E943F190E9409250E94AD10F7CF90930C
:1032B000F1018093F0010895AB0124E630E0BC01F8
:1032C00088E70E94DE209C0181E0232B09F080E04A
:1032D0000895AB0124E630E0BC0188E70E942D216F
:1032E0009C0181E0232B09F080E008950F931F9348
:1032F000AC019B0104E610E060E488E70E947821BD
:103300009C0181E0232B09F080E01F910F9108952B
:103310000E94A82008950895EEE3F3E080E094E091
:10332000DF019C011D9221503040E1F7F0934507E9
:10333000E09344078FEF9FEF909311038093100366
:103340000895CF930E948B190E94980490E480FF07
:1033500090E880930C0390930B030E9488196BE014
:1033600070E080E192E00E946919811104C0C0E020
:103370008C2FCF91089580910C0365E070E081FD62
:1033800029C08BE092E00E946919811581F36DE0FC
:1033900070E089EF91E00E946919C82F811539F317
:1033A0000E940720DC01CB01805A9541AF4FBF4FEF
:1033B0008093400790934107A0934207B09343073F
:1033C0000E948C1981E080930F0380930E0310926A
:1033D0000D03CECF86E092E0D6CF20910B0336E0EE
:1033E000839FC0011124269F800D911D11248115FA
:1033F00024E0920714F080E090E0825C9C4F909370
:10340000450780934407089520914407309145076C
:103410002853334040910B03642F70E0C9010E9490
:10342000242A481B463010F4240F311D211584E056
:10343000380710F020E030E0225C3C4F3093450725
:10344000209344070895CF93DF93982FC62F81E0F0
:103450009A3019F09D3031F480E00E949A1ADF9181
:10346000CF910895209144073091450786E0F901F6
:10347000A5ECB2E001900D928A95E1F7903EB8F08C
:1034800086E0F90111928A95E9F7C1111CC0C0913B
:103490004407D091450746E050E0BE0185EC92E03C
:1034A0000E947E2A892BE9F40E94041AD8CFF6E004
:1034B0009F9FB0011124655E7D4F46E050E0C90139
:1034C0000E94752AE2CFE0914407F09145079F01E1
:1034D0002A5F3F4F2E173F07D1F28081809581935D
:1034E000F9CFCE53D340CE0126E0969587952A9505
:1034F000E1F721E030E0A90102C0440F551F8A9591
:10350000E2F7CA014091100350911103842B952BCF
:10351000259646E0D695C7954A95E1F702C0220F59
:10352000331FCA95E2F7822B932B9093110380935C
:103530001003BACFCF93382FE0914407F09145079D
:10354000EE53F34020910B03622F70E0CF010E94F5
:10355000242A281B822F311569F066E00E94182A60
:10356000C82FC15010F4CF91089560E080E20E940E
:10357000231AF7CF8E0F9F2F911D811524E09207FC
:1035800010F080E090E0825C9C4F90934507809320
:103590004407E9CF1F93CF93DF93EC01162FFE0171
:1035A0008491811104C0DF91CF911F910895612F03
:1035B0000E94231A2196F3CF0E94CA1A81E00E942A
:1035C0009A1A0895CF93C0910F03C11105C0C091FD
:1035D0000E038C2FCF9108950E940720DC01CB01B0
:1035E000805A9541AF4FBF4F80934007909341075A
:1035F000A0934207B093430780910E038111E9CF56
:1036000062E070E087EF91E00E9469198115F9F29C
:1036100081E080930E03DDCFA4E0B0E0E2E1FBE1C6
:103620000C943E2A8C838091100390911103892B76
:10363000F1F080910F038115D1F080910D0381117C
:1036400016C00E94E21A10E01B8244244394512CBD
:1036500007E040E4F42E209110033091110321156E
:10366000310529F0111551F0FC81F11107C02496A4
:10367000E2E10C945A2A4B814F5F4B835B81852F8B
:1036800090E0520102C0AA0CBB1C5A95E2F7A501BA
:1036900042235323452B79F320910C0320FD39C09D
:1036A00096958795282FAB81A0FB992796F93FE344
:1036B000390F9093570180935A013093580120930A
:1036C0005B0167E070E085E591E00E945C1981157F
:1036D00071F2EB81B0E4EB9FC001112420910C0347
:1036E00020FD20C060E470E0825C9C4F0E9476194F
:1036F000811509F4BCCFA094B094809110039091EF
:1037000011038A219B2190931103809310031F5F63
:10371000A2CF9B81990F990F990F37E0390F80E065
:1037200027E0C7CFABECB2E0EF2D1D92EA95E9F7A9
:1037300027EE31E03A8329836FED71E0E981FA8168
:10374000A191FA83E983FB012191BF01280F392F51
:10375000311DA901425C5C4F1A01EA2FF0E0E553EC
:10376000FD4F20E030E0602E621A842C022E01C052
:10377000880C0A94EAF76101912CD601ED906D0155
:10378000E820462D4919477050E0BE2D042E01C097
:10379000BB0F0A94EAF77B2E51954195510947706A
:1037A000552701C0E6944A95EAF7EB2A4081E42ABE
:1037B000E082939448E09412E0CF2F5F3F4F319620
:1037C0002830310581F6AFEEB1E0E981FA81AE171C
:1037D000BF0709F0B3CF60E470E08BEC92E086CFD6
:1037E000CF93C0910F0380910E03C11106C091E0E9
:1037F000C82FC9278C2FCF9108958115D9F362E086
:1038000070E085EF91E00E946919811103C0C091B9
:103810000E03F0CF10920E03EDCF80910E030895AA
:103820000E94430408950F931F9380910F03811505
:1038300081F180913E0790913F070E94791FC297C6
:1038400060F00E94FB1F90933F0780933E0760E06B
:1038500080E00E94ED190E94101C80E00E940C1B69
:1038600080910E038115A9F00E9407200091400766
:10387000109141072091420730914307601B710B63
:10388000820B930B6F3F7F4F8F4F9F4710F40E9427
:10389000F01B1F910F9108950895FC01680F791F87
:1038A0008FEF41E3E617F70709F40895919189270F
:1038B00028E030E0982F990F87FF06C0892F8427D2
:1038C00021503040B9F7EECF892FFACFCF93DF9355
:1038D000EB0186319C4719F50E94890E9D81911557
:1038E000A1F08A7A91E0811101C090E090931203D7
:1038F000811549F085E30E94D81E0E943E0F80E0AA
:10390000DF91CF91089589E2F6CF8091120381155E
:1039100021F085E30E94E01EF0CF89E2FBCF81E039
:10392000EFCFCF93DF93EC01FB018581811509F483
:10393000CFC09E0130572332310508F0AFC00E943E
:10394000C50F9093270380932603FE01E150F047B3
:10395000E232F10520F4E851F54D0C94382A8091BB
:10396000260381608093260390C08091270388609E
:10397000809327038AC0809126038260F3CF8091D1
:1039800026038460EFCF809126038860EBCF80917F
:1039900027038160EDCF809127038260E9CF80917A
:1039A00026038061DFCF809126038062DBCF809188
:1039B00026038064D7CF0E94E109809126038068A6
:1039C000D1CF809126038C60CDCF80912703836077
:1039D000CFCF809126038E7FC5CF80912703877F2D
:1039E000C7CF809126038D7FBDCF809126038B7F2B
:1039F000B9CF80912603877FB5CF809127038E7F33
:103A0000B7CF809127038D7FB3CF809126038F7E20
:103A1000A9CF809126038F7DA5CF809126038F7B30
:103A2000A1CF0E94E109809126038F779BCF8091DF
:103A30002603837F97CF809127038C7F99CF809136
:103A40002603992782FF939590FB82F990FB83F9D7
:103A500089CF80912703982F909590FB80F990FB58
:103A600081F986CF90912603892F8F7B96FF806402
:103A700079CF0E94E10990912603892F97FB87F95E
:103A8000805870CF81E00E944B1080912603909166
:103A900027030E94CA0F0E94E10980E0DF91CF91C5
:103AA000089580E0F0CF90912603892F8F7E94FFB8
:103AB000806158CF90912603892F8E7F90FF81607F
:103AC00051CF90912703892F877F93FF886050CF34
:103AD00081E0E4CF0F931F93CF93DF93C42FD22FB6
:103AE000FC0185818115C9F0409315030E94FB1FDD
:103AF000909314038093130380E28C0F883040F47A
:103B0000C77081E001C0880FCA95EAF70E9480075C
:103B1000DF91CF911F910F91089510911503141308
:103B200033C080911303909114030E94791F883C45
:103B3000910550F5C0E2CD0F1D17C1F080E2810F55
:103B4000883040F4177081E001C0880F1A95EAF7B9
:103B50000E948707C83050F491E08D2F877001C014
:103B6000990F8A95EAF7892F0E948007802F0E947B
:103B70007707C83068F6D77081E001C0880FDA9502
:103B8000EAF70E948707C4CF80E28C0F883008F0E4
:103B9000BFCFC77081E001C0880FCA95EAF7F1CFA7
:103BA0000F93DB01FC01E851FC47E730F10598F584
:103BB000E65FF44D0C94382A06E221EE41EE6AE10C
:103BC0007CE7CD010E946A1D80E00F91089507E215
:103BD00025EE45EE6BE17CE7F4CF06E221EE40EE08
:103BE00068E17CE7EECF07E225EE44EE69E17CE791
:103BF000E8CF06E221EE42EE6CE17CE7E2CF07E29D
:103C000025EE46EE6DE17CE7DCCF08E221E045EEF3
:103C10006EE17CE7D6CF15968C9181111092150339
:103C200081E0D3CF90931C0380931B03089580936E
:103C3000160308950E94AA15811103C080911603EE
:103C40000895E0911B03F0911C03309729F0019037
:103C5000F081E02D0995089580E008950E941A1ED4
:103C60000895E0911B03F0911C03309721F002802E
:103C7000F381E02D09950895A3E0B0E0E2E4FEE1D0
:103C80000C944E2A9C018091190390911A0382177B
:103C90009307A1F030931A0320931903E0911B03BB
:103CA000F0911C03309751F083E089833B832A8392
:103CB0000084F185E02DCE01019609952396E2E07E
:103CC0000C946A2AA3E0B0E0E8E6FEE10C944E2AE8
:103CD0009C01809117039091180382179307A1F01C
:103CE0003093180320931703E0911B03F0911C03FA
:103CF000309751F084E089833B832A830084F185E7
:103D0000E02DCE01019609952396E2E00C946A2AF3
:103D100040910001509101019A012E5F3F4F485F91
:103D20005F4F80E0F90190812F5F3F4F91118F5FCE
:103D300042175307B9F70895811571F020910001DA
:103D400030910101F9013296285F3F4F9191981708
:103D500029F0E217F307D1F780E0089581E0089594
:103D60009C01FC0132968FEF90E04191461751F093
:103D70008F3F19F4411101C0892F9F5F9630A9F739
:103D80008F3F09F40895280F311D87FD3A95F901F9
:103D9000628308959C01FC013296285F3F4F819118
:103DA000861302C0DF011E92E217F307C1F70895E0
:103DB000682F80910001909101010E94B01E08952A
:103DC000682F80910001909101010E94CA1E089500
:103DD000E0910001F0910101329686E0DF011D9231
:103DE0008A95E9F7089508950E94F31E08958F5F5C
:103DF00080935F0160915C0170915D0180915E0133
:103E000090915F010E94F41E089583E080935F010A
:103E100060915C0170915D0180915E0190915F0104
:103E20000E94F41E08950E94F71E089581E0809379
:103E30005F0160915C0170915D0180915E019091E4
:103E40005F010E94F41E08950E94161F089591E0DC
:103E5000811101C090E090935E0160915C017091CE
:103E60005D0180915E0190915F010E94F41E0895B2
:103E700080915E01089580935D0160915C01709175
:103E80005D0180915E0190915F010E94F41E089592
:103E900080915D01089580935C0160915C01709157
:103EA0005D0180915E0190915F010E94F41E089572
:103EB00080915C010895089508950E945C1F089503
:103EC000089508950E945B1F0895CF930E94601F7C
:103ED0000E941C150E94611FC0E08C2F0E94D1130C
:103EE000811105C0CF5FC830C1F7CF91089581E03F
:103EF000FCCFCF93DF93EC010E94FB1F8C1B9D0B2B
:103F0000DF91CF910895CF92DF92EF92FF926B01F4
:103F10007C010E9407206C197D098E099F09FF9082
:103F2000EF90DF90CF90089585B7806885BF85B703
:103F3000806885BF08951F921FB61F9211248F932A
:103F40009F93AF93BF9380911D03811113C0809104
:103F5000460790914707A0914807B09149074196BD
:103F6000A11DB11D8093460790934707A093480772
:103F7000B0934907BF91AF919F918F911F901FBE42
:103F80001F90189580914E07843031F10E94E8050A
:103F900010921D0388E190E020E40FB6F894A895F4
:103FA000809360000FBE2093600083B7817F8460A0
:103FB00083BF83B7816083BF7894889583B78E7FF2
:103FC00083BF0FB6F894A8958091600088618093B4
:103FD0006000109260000FBE08950E94E1090E94E7
:103FE000F105089582E084BD93E095BD9AEF97BDF9
:103FF00080936E0008952FB7F894809146079091B2
:104000004707A0914807B09149072FBF08952FB7E0
:10401000F894609146077091470780914807909106
:1040200049072FBF089578941F921FB61F9211243D
:104030008F939F93AF93BF938091460790914707CB
:10404000A0914807B09149070196A11DB11D809329
:10405000460790934707A0934807B0934907BF913D
:10406000AF919F918F911F901FBE1F90189587E76A
:1040700097E7909301088093000888E19AE00FB6D3
:10408000F894A895809360000FBE90936000FFCFD6
:1040900088E19AE00FB6F894A895809360000FBE6F
:1040A00090936000FFCFFF920F931F93CF93DF9306
:1040B000182FEB011092BC0084EA8093BC000E9490
:1040C000FB1F082FF92E8091BC0087FF28C080912C
:1040D000B900887F883029F08091B900887F8031CD
:1040E000A1F51093BB0084E88093BC000E94FB1FE5
:1040F000182F092F8091BC0087FF1FC02091B900A5
:10410000287F80E090E0283199F081E090E0203431
:1041100011F480E090E091958195910909C0802F7C
:104120009F2D0E94791FC817D90768F68EEF9FEF61
:10413000CDB7DEB7E5E00C94672A812F902F0E945F
:10414000791FC817D907B0F6F1CF8FEF9FEFF0CFE7
:104150001092B9008CE08093B80008950F931F93DC
:10416000CF93DF93EB018093BB0084E88093BC0086
:104170000E94FB1F182F092F8091BC0087FF11C0E0
:104180002091B900287F81E090E0283211F480E08E
:1041900090E0919581959109DF91CF911F910F91B9
:1041A0000895CF3FDC0741F3812F902F0E94791FA4
:1041B000C817D90708F78EEF9FEFEECFA0E0B0E069
:1041C000E4EEF0E20C94432A782EB62EA72E6A0174
:1041D000E9010E94FB1F4C01C431D10528F1CF3FFA
:1041E000DC0731F1CE0164E170E00E94242AF62E52
:1041F000E72E6F2D7E2D872D0E9453208C01892B59
:10420000D1F4EB2CFA2CCE0CDF1CEC14FD0419F0CD
:1042100001151105D1F084E98093BC00C801CDB728
:10422000DEB7EDE00C945F2AFF24F394E12CE1CF9C
:1042300085E0F82EFBCFCF3FDC07D9F2C4010E9406
:10424000791FC817D907A8F6DCCFBE01F701819105
:104250007F010E94AE208C01D8CFA0E0B0E0E3E364
:10426000F1E20C94432A782EB62EA72E6A0189011A
:104270000E94FB1F4C010431110518F10F3F10077C
:1042800019F1C80164E170E00E94242AEB01BE012B
:10429000872D0E9453207C01892BC1F4CB2DDA2D70
:1042A000CC0EDD1ECC15DD0519F0E114F104C1F0D2
:1042B00084E98093BC00C701CDB7DEB7EDE00C9474
:1042C0005F2AC1E0D0E0E3CFC5E0FCCF0F3F10078D
:1042D000F1F2C4010E94791F08171907C0F6DECF5A
:1042E000FE018491B8010E94AE207C012196DACFB4
:1042F000A0E0B0E0EEE7F1E20C94422A682E962EA0
:104300005A01690178010E94FB1F782E892E043121
:10431000110530F10F3F100731F1C80164E170E081
:104320000E94242A162F072F612F702F862D0E949E
:104330005320EC01892BC9F0FFEFEF16FF06A1F324
:10434000872D982D0E94791FE816F90668F784E9F1
:104350008093BC00CE01CDB7DEB7EEE00C945E2AB0
:1043600011E000E0E1CF15E0FCCFB701892D0E94FC
:10437000AE20EC018501CA0CDB1C0C151D0539F3C0
:10438000209729F7B701F80181918F010E94AE2093
:10439000EC01F3CF8EE14A9B02C08A95E1F74A9B7C
:1043A000FECF08955A9880E28A95F1F75A9A0895B7
:1043B000FC013BE03A95F1F798E020E080E031E045
:1043C00040E14A95F1F7880F4A9B02C0816023279C
:1043D00042E04A95F1F7000040E14A95F1F79A95DD
:1043E00079F790E19A95F1F799B132E03A95F1F7C2
:1043F000000040E14A95F1F792FB992790F9922746
:104400002081920F90830895A1E0B0E0EAE0F2E20B
:104410000C944A2A19828C017C01E60EF11C0E9440
:10442000CA21CE0101960E94D821F80181938F0103
:10443000EE15FF05A1F781E09981911180E02196A9
:10444000E6E00C94662A529A5A9A089552985A9A1B
:10445000EA9AE9E6F0E080818F7C808308956150DC
:10446000770B91E001C0990F6A95EAF7692F90E008
:1044700021E0611108C0911599F05A9A80E28A955D
:10448000F1F75A980895362F3823311539F05A9A92
:10449000922730E23A95F1F76695EBCF5A98F9CF2B
:1044A0005A98ECCFFF920F931F93CF93DF93EC01B9
:1044B0008C01060F111DF9900E94D22168E08F2D0A
:1044C0000E942F22C017D107B1F7CDB7DEB7E5E0C4
:1044D0000C94672A1F920F920FB60F9211240F931C
:1044E0001F932F933F934F935F936F937F938F937C
:1044F0009F93AF93BF93EF93FF93CF93DF930F926D
:10450000CDB7DEB719820E94CA21CE0101960E9462
:10451000D821082F069506950695982F92959570A7
:10452000202F2570920F292F237096959695920F24
:10453000982797708981892B811509F05CC00A3012
:1045400008F059C080E18A95F1F75A9A529A82E0B0
:104550008A95F1F700C05A9888E0089F80011124DD
:10456000D801A35FBE4F1696ED91FC911797309737
:10457000A9F06091DD017091DE0114962D913C91BE
:104580001597260F371F11968D919C911297680FE2
:10459000791F13964C9113978C910995F801E35F5D
:1045A000FE4F6381611551F02091DD013091DE01F4
:1045B00084819581820F931F0E9452220E94D221F2
:1045C00080E18A95F1F75A9852985A9A80E18A9533
:1045D000F1F7F801E35FFE4F6081611551F0209122
:1045E000DD013091DE0181819281820F931F0E9453
:1045F00004220E94CA210F90DF91CF91FF91EF9189
:10460000BF91AF919F918F917F916F915F914F91EA
:104610003F912F911F910F910F900FBE0F901F9000
:1046200018950F931F93CF93DF938C010A970CF08B
:1046300064C0F894529A5A9885E08A95F1F7000080
:10464000C02FC695C570802F8570C80F8C2F8370C2
:10465000C695C69593E0000F111F9A95E1F7C80F14
:10466000C8018C2BEC010E94D22100C068E08C2F85
:104670000E942F2290E19A95F1F752985A9A4A9BFC
:1046800035C087E090E04A9933C0F801E35FFE4F00
:104690006381611561F02091DD013091DE0184813B
:1046A0009581820F931F0E940422811519F10E94A7
:1046B000CA2180E28A95F1F75A98529A90E19A9528
:1046C000F1F7F801E35FFE4F6081611551F0209131
:1046D000DD013091DE0181819281820F931F0E9462
:1046E00052220E94D221789481E008C000C0C7CF36
:1046F000019749F4529A5A9A789480E0DF91CF91C9
:104700001F910F91089500C0BECF08950895282FDE
:10471000CB01BA0130914E073430D9F42F70209379
:10472000E9002FEF3091E80035FD06C035ED3A95F0
:10473000F1F700002A95B1F72091E80025FF09C0A4
:1047400040E050E00E9480258091E8008E778093C1
:10475000E8000895BC0143E050E082E00E94872316
:104760000895CF93DF93D82FC92F0E94381F48E0B8
:1047700050E06D2F7C2F81E00E94872388E0ED2F91
:10478000FC2FAEE1B3E001900D928A95E1F7DF9145
:10479000CF91089580914D07811109C00E9409278A
:1047A0000E9466278091E20084608093E200089571
:1047B00010924D0708950E94161F81E00E94271F46
:1047C000089560914A0781E0611101C080E00E9474
:1047D000051F089590914E0781E0943009F080E024
:1047E00060914A070E94131F089542E061EC81E046
:1047F0000E94852642E261EC82E00E94852690912B
:104800004E0781E0943009F080E060914A070E94F1
:10481000F71E089580915007893089F148F482305D
:1048200009F4A0C0833009F45AC0813041F00895E2
:104830008A3009F487C08B3009F46CC008958091E8
:104840004F07813A09F04AC08091E800877F809342
:10485000E8008091530790915407892B61F060E044
:1048600080E090E070E00E94D0258091E8008B7796
:104870008093E800089568E08EE193E0F3CF8091A3
:104880004F07813259F58091530790915407029751
:1048900028F58091E800877F8093E8008091E80008
:1048A00082FF18C09091F3008091F200029731F4DA
:1048B0008091F100813011F0863021F48091F10077
:1048C0000E943B1F8091E8008B778093E8000E9454
:1048D000B926089580914E078111E0CF0895809107
:1048E0004F07813AD9F78091530790915407892B4C
:1048F000A9F78091E800877F8093E8008091E80025
:1049000080FFFCCF0E94381F8093F1008091E80067
:104910008E77DBCF80914F07813201F7809153076B
:1049200090915407892BD1F68091E800877F80937E
:10493000E8000E94B926809151070E94271F0E941B
:10494000E109089580914F07813241F68091E80096
:10495000877F8093E8000E94B926809152070E94C9
:104960004B1F089580914F07813A09F0B7CF80918E
:10497000E800877F8093E8008091E80080FFFCCF0B
:104980000E94581FC1CF84B7877F84BF0FB6F894A9
:10499000A89580916000886180936000109260000B
:1049A0000FBE80E890E00FB6F8948093610090937A
:1049B00061000FBE0E94241F08950E9409270E94D3
:1049C0006627E2EEF0E080818460808378940E9424
:1049D000EC29089580E691E00E94121E08958091CE
:1049E0004E07853031F480914E07853019F00E94D2
:1049F000ED1F08950E94C21F0E94651F811599F343
:104A000080914C07811579F30E946A250E94E10983
:104A1000EACF08959A0140915507509156070E9498
:104A200012250895FC01D9018F2F99278330910514
:104A3000C1F068F48130910509F447C0029761F430
:104A40008BE390E025E837E02D933C930895813285
:104A50009105E1F0829749F180E090E020E030E0BC
:104A6000F3CFCF019927E13059F08230910559F009
:104A7000E1E8F7E0892B81F7849190E09F01E4CF92
:104A8000E1E7F7E0F9CFEBE5F7E0F6CF89E090E07A
:104A900027E937E061157105B9F289E090E020EB74
:104AA00037E06130710581F2D7CF84E490E024E0F3
:104AB00038E06115710541F282E390E022ED37E0C4
:104AC0006130710509F4C0CFC7CF82E190E020ECDE
:104AD00037E0BACF80E189BD82E189BD09B400FE2B
:104AE000FDCF8091D8008F7D8093D8008091E00029
:104AF00082608093E0008091E00081FDFCCF08950A
:104B0000AF92BF92CF92DF92EF92FF920F931F93DB
:104B1000CF936C018B017A010E94D826C82F811196
:104B200023C0E114F10439F0F70180819181081B61
:104B3000190BC80ED91EA12CB12C01151105A1F01D
:104B40008091E80085FD21C08091E8008E778093F8
:104B5000E800E114F10499F0F701808191818A0D58
:104B60009B1D91838083C5E08C2FCF911F910F9166
:104B7000FF90EF90DF90CF90BF90AF9008950E948C
:104B8000D8268115E9F2C82FEFCFF60181916F0188
:104B90008093F10001501109FFEFAF1ABF0ACDCF8A
:104BA000FC019B0180915507909156078617970746
:104BB00018F0672B61F0C90140E0009771F44111D2
:104BC0000CC08091E80082FF35C080E0089580919C
:104BD000E8008E778093E800EECF20914E072115F4
:104BE000A9F12530A9F12091E80023FD2DC02091E5
:104BF000E80022FDE6CF2091E80020FFDECF3091D3
:104C0000F3002091F200009719F02830310558F098
:104C100041E02830310509F040E02091E8002E778E
:104C20002093E800CACF41914093F10001972F5F94
:104C30003F4FE9CF80914E07811541F0853041F01B
:104C40008091E80083FFBDCF81E0089582E0089560
:104C500083E00895FC019B018091550790915607D0
:104C60008617970718F0672B61F0C90140E000979D
:104C700071F441110CC08091E80082FF36C080E0E1
:104C800008958091E8008E778093E800EECF209120
:104C90004E072115B1F12530B1F12091E80023FD37
:104CA0002EC02091E80022FDE6CF2091E80020FFF1
:104CB000DECF3091F3002091F200009719F02830F8
:104CC000310558F041E02830310509F040E02091ED
:104CD000E8002E772093E800CACF44914093F1007A
:104CE000319601972F5F3F4FE8CF80914E07811596
:104CF00041F0853041F08091E80083FFBCCF81E036
:104D0000089582E0089583E00895982F973028F061
:104D10008F708093E90081E008959093E900242F3B
:104D2000762F50E0981731F07091EC002091ED0053
:104D30005091F00021FD02C09F5FE8CF3091EB0061
:104D40003E7F3093EB003091ED003D7F3093ED00DE
:104D50003091EB0031603093EB007093EC002093C6
:104D6000ED005093F0002091EE0027FDE5CF80E0AC
:104D7000089580914F0787FF13C08091E80082FF5C
:104D800006C08091E8008B778093E80008958091B9
:104D90004E078111F2CF089580914E078115D9F306
:104DA0008091E80080FFF8CF8091E8008E77ECCF0B
:104DB0002091E4003091E50095E6A9012091EC00F6
:104DC000822F817020FF06C08091E80080FF06C01E
:104DD00080E008952091E80022FD1AC080914E07DE
:104DE000811589F0853089F08091EB0085FD0FC039
:104DF0002091E4003091E50042175307F9F29A95AB
:104E0000E1F684E0089582E0089583E0089581E06A
:104E100008950E9478270E948027E0EEF0E08081CC
:104E200081608083E8EDF0E080818F77808319BC1A
:104E3000A7EDB0E08C918E7F8C9380818F7E8083F4
:104E400010924D0708950F931F93CF93DF930E9405
:104E500078270E948027C8EDD0E088818F778883EB
:104E600088818068888388818F7D888319BC1092AF
:104E70004E0710924A0710924C0710924B0700EE13
:104E800010E0F80180818B7F808388818160888336
:104E900042E060E080E00E948526E1EEF0E0808163
:104EA0008E7F8083E2EEF0E080818160808380816C
:104EB00088608083F80180818E7F80838881806113
:104EC0008883DF91CF911F910F910895E8EDF0E075
:104ED00080818F7E8083E7EDF0E080818160808338
:104EE00084E082BF81E080934D070E9423270895CC
:104EF000E8EDF0E080818E7F80831092E2000895DB
:104F00001092DA001092E10008951F920F920FB6EE
:104F10000F9211242F933F934F935F936F937F933F
:104F20008F939F93AF93BF93EF93FF938091E10093
:104F300082FF0BC08091E20082FF07C08091E100F8
:104F40008B7F8093E1000E94EB298091DA0080FF43
:104F500019C08091D80080FF15C08091DA008E7F43
:104F60008093DA008091D90080FF94C080E189BDF0
:104F700082E189BD09B400FEFDCF81E080934E0738
:104F80000E94CA238091E10080FF19C08091E20055
:104F900080FF15C08091E2008E7F8093E2008091B7
:104FA000E20080618093E2008091D800806280936B
:104FB000D80019BC85E080934E070E94E1238091C0
:104FC000E10084FF29C08091E20084FF25C080E1D8
:104FD00089BD82E189BD09B400FEFDCF8091D80072
:104FE0008F7D8093D8008091E1008F7E8093E100D7
:104FF0008091E2008F7E8093E2008091E2008160E8
:105000008093E20080914A07811509F449C084E049
:1050100080934E070E94EA238091E10083FF29C01C
:105020008091E20083FF25C08091E100877F80931B
:10503000E10082E080934E0710924A078091E100E0
:105040008E7F8093E1008091E2008E7F8093E2006A
:105050008091E20080618093E20042E060E080E0C5
:105060000E9485268091F00088608093F0000E9465
:10507000DB23FF91EF91BF91AF919F918F917F9132
:105080006F915F914F913F912F910F900FBE0F90B5
:105090001F90189519BC10924E070E94D82372CF0A
:1050A0008091E30087FF02C083E0B2CF81E0B0CF00
:1050B0001F920F920FB60F921124EF92FF920F934F
:1050C0001F932F933F934F935F936F937F938F9390
:1050D0009F93AF93BF93CF93EF93FF9309EE10E0AD
:1050E000F8018081C091EC008F70C795CC27C795DF
:1050F000C82B108280EFE82EF12CF7018081877F8A
:10510000808378940E94A328F8011082F70180819F
:1051100088608083CF70F801C083FF91EF91CF91B9
:10512000BF91AF919F918F917F916F915F914F91BF
:105130003F912F911F910F91FF90EF900F900FBE15
:105140000F901F901895AAE2B0E0E9EAF8E20C94FB
:105150004C2A8FE497E0FC0101962091F100208316
:1051600027E087359207B9F70E940A248091E8006A
:1051700083FF38C080914F07909150079A3090F587
:10518000E92FF0E0EF5EF44D0C94382A803889F076
:10519000823841F5809153078F70873018F58093DE
:1051A000E9008091EB0085FB882780F91092E900E7
:1051B00006C080914C07880F90914B07892B9091E6
:1051C000E800977F9093E8008093F1001092F1003F
:1051D0008091E8008E7723C0811116C0809151071D
:1051E000813011F18091E80083FF0AC08091E800CE
:1051F000877F8093E8008091EB0080628093EB00D2
:10520000AA96E4E00C94682A823061F780915107F5
:10521000811589F01092E9008091E800877F8093E2
:10522000E8000E94B926DECF81E0933009F080E0EB
:1052300080934C07EFCF809153078F702FEF280F8B
:10524000263080F68093E9002091EB0020FFE2CF2A
:10525000933031F48091EB0080628093EB00DACFE1
:105260009091EB0090619093EB0021E030E0A90178
:1052700002C0440F551F8A95E2F74093EA0010924E
:10528000EA008091EB008860E8CF8111ABCF1091EC
:1052900051071F778091E3008078812B8093E30092
:1052A0008091E800877F8093E8000E94B926809172
:1052B000E80080FFFCCF8091E30080688093E300EA
:1052C00083E0111101C082E080934E078BCF80589C
:1052D000823008F087CF80915107909152078C3D22
:1052E00053E0950799F583E08A838AE289834FB773
:1052F000F894DE01139620E03EE051E2E32FF0E067
:1053000050935700849120FF03C082958F703F5FB8
:105310008F708A30C8F0895C90E08D939D932F5FE9
:10532000243161F74FBF8091E800877F8093E800C8
:105330006AE270E0CE0101960E94D0258091E800DB
:105340008B778093E8004ECF805DE6CF6091530766
:1053500070915407AE014F5F5F4F0E940A258C0188
:10536000892B09F43FCF8091E800877F8093E80084
:10537000B80189819A810E942A26E0CF803809F0FD
:1053800031CF8091E800877F8093E80080914A07C1
:105390008093F1001DCF811125CF9091510792305C
:1053A00008F020CF8091E800877F8093E8009093F9
:1053B0004A070E94B92680914A07811531F084E09E
:1053C00080934E070E94F5230DCF8091E30087FD67
:1053D000F6CF81E0F5CF0895CF9380914E078115E8
:1053E00099F08091E900C091EC008F70C795CC27AF
:1053F000C795C82B1092E9008091E80083FD0E94B8
:10540000A328CF70C093E900CF9108950E94092787
:1054100010924E070895E8EDF0E08081806180836E
:105420008AE18A95F1F700C08091D90081700895D2
:10543000992778E0880F991F961708F0961B881F08
:105440007A95C9F780950895AA1BBB1B51E107C047
:10545000AA1FBB1FA617B70710F0A61BB70B881F04
:10546000991F5A95A9F780959095BC01CD01089593
:10547000EE0FFF1F0590F491E02D09942F923F92BB
:105480004F925F926F927F928F929F92AF92BF9254
:10549000CF92DF92EF92FF920F931F93CF93DF9300
:1054A000CDB7DEB7CA1BDB0B0FB6F894DEBF0FBE5D
:1054B000CDBF09942A88398848885F846E847D84AA
:1054C0008C849B84AA84B984C884DF80EE80FD80AC
:1054D0000C811B81AA81B981CE0FD11D0FB6F89422
:1054E000DEBF0FBECDBFED010895FB01DC0102C0A0
:1054F00005900D9241505040D8F70895FB01DC0112
:1055000004C08D910190801921F441505040C8F79A
:10551000881B990B0895FB01DC0102C001900D92DC
:1055200041505040D8F70895F999FECF92BD81BD02
:10553000F89A992780B50895A8E1B0E042E050E0DC
:105540000C94D82ADC01A40FB51F4150504048F0FC
:10555000CB01840F951F2E910E94B32A41505040D9
:10556000D0F70895262FF999FECF92BD81BDF89A04
:10557000019700B4021639F01FBA20BD0FB6F89497
:10558000FA9AF99A0FBE08950396272F0E94B32A1C
:105590000E94B22A252F0E94B32A242F0C94B32AEA
:1055A0000196272F0E94B32A0C94B22ADC01CB016A
:1055B000FC01F999FECF06C0F2BDE1BDF89A319623
:1055C00000B40D9241505040B8F70895F894FFCFC1
:1055D000E91C5A1DF11CBB1CBF1CF51CC31CF91C8B
:1055E000051DCF1C531DD31C091DD71C0D1D321DBD
:1055F000DB1C111D391DE11C171D1F1DC71CFD1CC7
:10560000CB1C011DE51C1B1D291D421D511DB51C78
:10561000ED1C611DED1DF31DDC1DE71DF91DFF1DBA
:10562000051EC628EC28F228EC28F228452967290F
:06563000F228BE29CB297F
:105636006002F4F5F6F73133946697C60100000070
:105646000100000000000000040100000004050045
:1056560000000000000409000000000000020D0028
:105666000000000000020F00000000000001110011
:1056760000000000000412000000000000011600F7
:1056860000000000000021007F220007000001004A
:10569600481FB12386238523AA23E200E900EA00F6
:1056A600B500B600B700CD008301CC008A01920197
:1056B60094012102230224022502260227022A023D
:1056C600B300B4006F0070009F01CB019F02A002DF
:1056D600E200E900EA00B500B600B700CD0083019C
:1056E600CC008A01920194012102230224022502A0
:1056F600260227022A02B300B4006F0070009F0141
:10570600CB019F02A002F4F5F6F7313300860200C2
:1057160008101820283038383028201810080000C3
:00000001FF
