:100000000C9424040C9441040C9441040C94AA20F4
:100010000C9441040C9441040C9441040C9441044C
:100020000C9441040C9441040C94C5250C9498261E
:100030000C94DB1D0C9441040C9441040C94410479
:100040000C9441040C9441040C9441040C9441041C
:100050000C9441040C94531E0C9441040C944104E0
:100060000C9441040C9441040C9441040C944104FC
:100070000C9441040C9441040C9441040C944104EC
:100080000C9441040C9441040C9441040C944104DC
:100090000C9441040C9441040C9441040C944104CC
:1000A0000C9441040C9441040C944104556E646515
:1000B00066696E65640052616973650A004C6F770A
:1000C00065720A0044656661756C740A004C61795A
:1000D00065723A200014001A00080015001700008D
:1000E0000004001600070009000A0000001D001BA4
:1000F000000600190005002602E100E200E30041CD
:100100007EE0002C00130012000C0018001C000000
:100110000033000F000E000D000B00000038003708
:100120000036001000110027022D0035044C00425B
:100130007E28002A001E022D0025022E0238000013
:100140000029002002350222022E0000002B0001AF
:100150000001002D022D002F02E100E200E300412A
:100160007EE0002C00310224021F02230221020043
:1001700000330234003700370236020000380037FF
:100180000036003100380230024B004E004A004277
:100190007E28002A001E022D0025022E02380000B3
:1001A000001E001F00200022022E0000002100225D
:1001B000002300270052002F0024002500260050B5
:1001C0000051004F003E003D003C003B003A000063
:1001D0000043004200410040003F0000003800376B
:1001E0000036004500440030002B0035044C00422E
:1001F0007E28002A0000AE00AF00DA0281FFD9F1AC
:10020000DB20A4A62EAF00A0C0D30000A1C8D3005D
:1002100000AED580A81F408D14200007087F080776
:10022000003E5B4F5B3E003E6B4F6B3E001C3E7CD6
:100230003E1C00183C7E3C18001C577D571C001CBF
:100240005E7F5E1C0000183C180000FFE7C3E7FF5C
:1002500000001824180000FFE7DBE7FF0030483AF1
:10026000060E00262979292600407F050507004053
:100270007F05253F005A3CE73C5A007F3E1C1C0886
:1002800000081C1C3E7F0014227F2214005F5F00C8
:100290005F5F0006097F017F00006689956A006044
:1002A000606060600094A2FFA2940008047E0408CD
:1002B0000010207E20100008082A1C0800081C2AB4
:1002C0000808001E10101010000C1E0C1E0C003030
:1002D000383E383000060E3E0E06000000000000DA
:1002E0000000005F000000000700070000147F14FA
:1002F0007F1400242A7F2A12002313086462003628
:100300004956205000000807030000001C2241004D
:10031000000041221C00002A1C7F1C2A0008083E05
:100320000808000080703000000808080808000075
:1003300000606000002010080402003E5149453E64
:100340000000427F4000007249494946002141496E
:100350004D33001814127F10002745454539003CE5
:100360004A494931004121110907003649494936B6
:1003700000464949291E00000014000000004034D6
:10038000000000000814224100141414141400008A
:1003900041221408000201590906003E415D594EF0
:1003A000007C1211127C007F49494936003E4141D0
:1003B0004122007F4141413E007F49494941007F40
:1003C00009090901003E41415173007F0808087F77
:1003D0000000417F4100002040413F01007F0814A0
:1003E0002241007F40404040007F021C027F007F8E
:1003F0000408107F003E4141413E007F0909090683
:10040000003E4151215E007F0919294600264949D5
:1004100049320003017F0103003F4040403F001F7D
:100420002040201F003F4038403F00631408146301
:10043000000304780403006159494D4300007F41E3
:10044000414100020408102000004141417F0004A6
:100450000201020400404040404000000307080041
:10046000002054547840007F2844443800384444E5
:10047000442800384444287F00385454541800005D
:10048000087E09020018A4A49C78007F0804047860
:100490000000447D4000002040403D00007F1028C7
:1004A00044000000417F4000007C04780478007C18
:1004B0000804047800384444443800FC1824241804
:1004C0000018242418FC007C080404080048545434
:1004D00054240004043F4424003C4040207C001C81
:1004E0002040201C003C4030403C00442810284460
:1004F000004C9090907C004464544C4400000836BA
:1005000041000000007700000000413608000002B2
:1005100001020402003C2623263C000000000000EB
:1005200000404040F0F8F8FF38FFF8F83FF8F8FFD7
:1005300038FFF8F8F040404000000000000080C0A4
:10054000C0C0800000C0C08000000080C0C000C0EB
:10055000C0000080C0C00000000000C0C0C0C0C01B
:1005600000C0C0000000000000000000000000000B
:10057000000000000000000000000000000000007B
:10058000000000000000000000000000000000006B
:1005900000000000000000000000C0F0F8FC3E1E5B
:1005A00006010000007F4141417F007F4141417FC2
:1005B000000080C0E07E5B4F5BFEC00000C000DC3E
:1005C000D7DEDEDED7DC00C0000000000000000047
:1005D000000000000000000000000000000000001B
:1005E00000494949FFFFFFFFE0DFBFBF00BFBFDF9A
:1005F000E0FFFFFFFF49494900000000001F3F6086
:1006000060E0BF1F007F7F071E381E077F7F007FCF
:100610007F0E1F3B716000000000007F7F0C0C0C00
:10062000007E7E007F7E0303007F7E03037E7E03C9
:10063000037F7E000F3E703C063C703E0F00327B15
:1006400049493F7E007F7E0303001E3F69696F2694
:1006500000000000000000000000030F1F3F3C7876
:1006600070600000007F4141417F007F4141417F38
:1006700000307B7F7830202030787F3B0003000FF4
:100680007F0F0F0F7F0F000300000000000000002D
:10069000000000000000000000000000000000005A
:1006A00000010101070F0F7F0F7F0F0F7E0F0F7FDC
:1006B0000F7F0F0F07010101000000000000000084
:1006C0000000010100000000000000000000000028
:1006D000000000000000000000000000000000001A
:1006E000000000000000000000000000000000000A
:1006F00000000000000000000000000000000000FA
:1007000000000000000000000000000000000000E9
:1007100000000000000000000000000000000000D9
:1007200000000000000000000000000000000000C9
:1007300000000000000000000000000000000000B9
:1007400000000000000000000000000000000000A9
:1007500000000000000000000000001403730069A6
:10076000006D0070006C0065006B00650079000092
:10077000000E0344006E006500630068006900001D
:10078000000403090409023B00020100A0FA090465
:1007900000000103010100092111010001224400B0
:1007A000070581030800010904010001030000009E
:1007B00009211101000122320007058203200001F6
:1007C0001201000200000008EDFE0000000101021D
:1007D000000105010980A101850319012AB700154F
:1007E0000126B700950175108100C0050C0901A113
:1007F00001850419012AA002150126A002950175A0
:10080000108100C005010906A101050719E029E7CB
:100810001500250195087501810295017508810172
:100820000507190029FF150026FF009506750881A8
:100830000005081901290515002501950575019187
:1008400002950175039101C011241FBECFEFDAE0BC
:10085000DEBFCDBF11E0A0E0B1E0E6EBF2E502C003
:1008600005900D92A83BB107D9F724E0A8EBB1E0C1
:1008700001C01D92A93DB207E1F70E9486170C94B2
:1008800026290C94000060E08DEC90E00E940E1987
:100890008091D8019091D9010E94F80560E08130E3
:1008A00051F0823059F081110CC084EC90E00E942C
:1008B0000E1980E008958DEB90E0F9CF86EB90E083
:1008C000F6CF8CEA90E00E942019F3CF9C01FB0147
:1008D00022348EE73807C1F023348EE73807D9F089
:1008E00021343E4719F58581811551F081E00E9440
:1008F000730A43E062E081E00E94C90B80E0089542
:1009000081E00E94830AF5CF8581811511F082E094
:10091000EECF82E0F6CF8581811521F083E00E9441
:10092000730AECCF83E00E94830AE8CF81E0089548
:10093000CF93C82F0E948515811519F08C2FCF9168
:10094000089582E0FCCF8330B8F46830A8F44630D4
:1009500098F4E42FF0E096E0699FE00DF11D11247A
:1009600090E3899FE00DF11D1124EE0FFF1FEB5264
:10097000FF4F85919491089581E090E008950E9441
:10098000A304089581E0089581E008950E94C204BF
:10099000089581E0089581E008950E946604089515
:1009A000089508950E94D004089508950895A6E03A
:1009B000B0E0EDEDF4E00C948D2849835A839E83DA
:1009C0003091BF0189819A8131111AC03E81311560
:1009D00099F0211589F00E94390B182F682F898111
:1009E0009A810E94150B69817A81812F0E9447129A
:1009F0002696E3E00C94A9280E94270B182FF3CF2A
:100A00000E94390B69817A81F1CFFC01262F408148
:100A1000518162817381848195810E94D7040895F8
:100A2000CF93DF93D82FC92F61E00E9405056D2F6A
:100A30007C2F0E94C404811549F061E08D2F9C2F0A
:100A40000E9405056D2F7C2F0E94C604DF91CF9177
:100A500008950F931F93CF93DF93D82FC92F60E092
:100A60000E9405058C016D2F7C2F0E94D1046D2FF3
:100A70007C2FC8010E94D204DF91CF911F910F916A
:100A8000089521E030E0A90102C0440F551F8A9566
:100A9000E2F7CA010E94370A0895CF93C82F81E078
:100AA00090E00C2E02C0880F991F0A94E2F70E9472
:100AB0009A0F8C2F0E944105CF91089581E00895EF
:100AC00081E008950E945E050895CF93C82F0E948B
:100AD000E1098C2F0E9460058C2F0E9462052FEF88
:100AE00084E39CE0215080409040E1F700C000008A
:100AF000CF91089581E00E9465050E94771E0895B8
:100B000080E00E9465050E94881E08950F931F9340
:100B1000CF93DF938C0161E00E940505EC01B801E1
:100B20000E94CB04811509F442C0B801CE010E9495
:100B3000CD048115E1F1B801CE010E94131C81158D
:100B4000B1F1B801CE010E94D41A811581F1B8012A
:100B5000CE010E94A91A811551F1B801CE010E945F
:100B60009213811521F1F8018581811581F0CA3533
:100B7000FCE7DF0739F178F4C130ECE7DE07F9F084
:100B8000C330FCE7DF07C9F0C115DC4771F0C801CD
:100B90000E94C9040DC0CB35ECE7DE07B1F0CC35BF
:100BA000DC47A9F70E946C0FF2CF0E947A0580E023
:100BB000DF91CF911F910F9108950E947D0F0E94A8
:100BC0008005F5CF0E94750FE2CF0E94790FDFCF2D
:100BD0000E94D5040E949D1D0E942D060E94361A77
:100BE00008950E9431060E94D6040E94A21D089515
:100BF000292F30E048E0911102C09C0140E0C9017A
:100C000064E0969587956A95E1F7009711F04C5F3F
:100C10009C01C9019695879596958795009711F047
:100C20004E5F9C01C90196958795840F089581E0D8
:100C300008950895CF93DF93D82F0E941706C82FE9
:100C4000811519F08D2F0E9419068C2FDF91CF91FD
:100C5000089508950E941A06089580E00E942A06C9
:100C600008950E945A1C0E942A060895CF930E945C
:100C70005A1CC82F8091BA018C1779F0C093BA0121
:100C80000E94471E6093BB017093BC018093BD011D
:100C90009093BE018C2F0E942A06CF910895ADE05B
:100CA000B0E0E5E5F6E00C948E28488759876A871E
:100CB0007B878C879D8791110E94A80E1F8286E0FA
:100CC000FE013896DE01119601900D928A95E1F7AA
:100CD0008D8181110DC029813A814B815C816D81AB
:100CE0007E818F810E94F20D2D96E2E00C94AA285D
:100CF000CE0101960E9410058111EDCFF5CFFC01C8
:100D00008481813021F4808191810E946B0B089550
:100D1000CF93C82F8115C9F08238C9F40E946E1C88
:100D200081FD13C089E30E94181D0E94190F2FEF47
:100D300037EE83E0215030408040E1F700C00000F2
:100D400089E30E94201D0E94190FCF9108958338D6
:100D5000A1F40E946E1C80FDF8CF83E50E94181D4F
:100D60000E94190F9FEF21EE34E091502040304057
:100D7000E1F700C0000083E5E4CF8438A1F40E94CD
:100D80006E1C82FDE2CF87E40E94181D0E94190F9D
:100D90008FEF91EE24E0815090402040E1F700C0B9
:100DA000000087E4CECF8CEF8C0F813A70F48C2F4B
:100DB0000E94DC1C811529F08C2F0E94201D0E94AE
:100DC000190F8C2F0E94181DBECF80E28C0F883027
:100DD00048F4C77081E001C0880FCA95EAF70E9405
:100DE000890EB1CF8BE58C0F833038F42C2F245231
:100DF000330BC9010E947C1CA8CFC85ACB3108F024
:100E0000A4CFEC2FF0E0EE0FFF1FE65CFE4F8081D9
:100E100091810E94A21C99CF811509F44DC082389E
:100E200079F40E946E1C81FF47C089E30E94181D5F
:100E30000E94190F89E30E94201D0E94190F089536
:100E4000833859F40E946E1C80FF36C083E50E94EF
:100E5000181D0E94190F83E5EECF843859F40E94C3
:100E60006E1C82FF29C087E40E94181D0E94190F82
:100E700087E4E1CF9CEF980F913AE8F290E2980F67
:100E8000983050F4877091E001C0990F8A95EAF785
:100E9000892F0E948F0ED1CF9BE5980F933028F4B5
:100EA00080E090E00E947C1C0895885A8B3120F4E9
:100EB00080E090E00E94A21C08950F931F93CF93AF
:100EC000C82F8B010E9488060115110539F48C2F5B
:100ED0000E940C07CF911F910F9108958FE99FE019
:100EE0000197F1F700C0000001501109EDCF60E556
:100EF00070E0893311F060E070E00E945D070895B2
:100F0000811521F00E94890E0E94190F0895811504
:100F100021F00E948F0E0E94190F0895A0E0B0E00A
:100F2000E4E9F7E00C9488286C01D62FC72FFC0168
:100F30000581F680F2948FE0F8220E947E0EE82E62
:100F40008115F9F0E02E0115E1F08C2F807F8034BF
:100F500061F080E28D0F883098F18C2F807E803296
:100F600021F4D23068F1F11459F18091A90282FF85
:100F700027C082E00E943F0F0E947E0E91E0E82E83
:100F8000E9268C2F82958F70883009F4E3C090F5A4
:100F90008430C0F41C2F1F708230E8F1C07FC03253
:100FA00011F01295107FD11509F464C0D13009F405
:100FB00094C0011509F4A0C0F11409F477C03EC033
:100FC000E12CDFCF843009F4A8C0E11409F4F5C0A6
:100FD0000E947A0E80FDF1C0F60115820E94740E07
:100FE0000E94730AC6010E94AC090E94740E0E94FE
:100FF000830AE3C0893009F429C18A5F8F70823087
:1010000020F7D23F09F033C18C2F8F7101112CC111
:101010000E94730ACEC0C03110F01295107F0115E6
:1010200099F0111559F080E28D0F883010F0D11130
:1010300007C0812F0E94890E0E94190F8D2F28C092
:10104000812F0E949A0EF8CF8D2F0E940C07111548
:1010500009F4BBCF80E28D0F883010F0D11104C0AD
:10106000812F0E948F0E03C0812F0E94A00E0E942C
:10107000190FABCF8091A90282FD14C0011559F060
:10108000111529F0812F0E94890E0E94190F80E00E
:101090000E9488069ACF80E00E940C07111509F47F
:1010A00094CFDECF011569F0F11004C0812F0E94AA
:1010B00080078BCFF1E0FF1288CF812F0E94C00EF6
:1010C00084CFF11082CF812F0E948707812F0E9449
:1010D000CC0E812F0E94AF0E78CF011529F026E0AB
:1010E000F21608F072CFE2CF85E0F81608F06DCF67
:1010F000812F0E94870769CFF114D1F3D93349F4C6
:101100009FEFE7EEF3E09150E040F040E1F700C0E0
:1011100000008D2F0E940C0758CF8C2F8695869546
:101120008370811569F0813009F04FCF8D2F9C2F8E
:101130009370011102C080E090E00E94A21C45CF94
:101140008D2F9C2F9370011102C080E090E00E94CF
:101150007C1C3BCF8C2F837081113DC0011129C0B5
:101160004D2F429546954770440F440F2D2F2F70F9
:1011700030E0042E02C0220F331F0A94E2F780E011
:1011800090E0D4FF09C08FE090E002C0880F991F63
:101190004A95E2F780959095C695C695C370822BC7
:1011A000932BC23091F0C33099F0C13059F00E94B6
:1011B000430A0E945A1C0E942A06CDB7DEB7E8E017
:1011C0000C94A4280E943A0AF4CF0E944C0AF1CF52
:1011D0000E94370AEECF011561F1C0FFEACF4D2F13
:1011E000429546954770440F440F2D2F2F7030E0E5
:1011F000042E02C0220F331F0A94E2F780E090E031
:10120000D4FF09C08FE090E002C0880F991F4A9573
:10121000E2F780959095C695C695C370822B932B67
:10122000C23071F0C33079F0C13039F00E94AE0A9B
:10123000C0CF823008F4BDCFD2CF0E94A50AB9CF6B
:101240000E94B70AB6CF0E945B0AB3CFCF700115D8
:1012500039F08C2F0E94730A8D2F0E948007A9CF2E
:101260008D2F0E9487078C2F0E94830AA2CF68F4DB
:10127000D03FC1F0D13F89F0011509F441C0F1140C
:10128000E1F18D2F0E94880694CFD33FC9F0D43F5F
:1012900099F78091A90282FD1DC08C2F8F710115D5
:1012A00019F3B6CE011549F025E0F21608F081CF0A
:1012B0008C2F8F710E94950A7CCF86E0F816F6CFAE
:1012C000011529F08C2F8F710E94670A72CF0E943E
:1012D000620A6FCF011531F063E08C2F8F710E948D
:1012E000200F67CF81E00E943F0F92E0F91608F4CB
:1012F00060CF82E00E943F0F5CCF8C2F8F7188CE31
:10130000F11479F0D93349F4EFEFF7EE23E0E1502F
:10131000F0402040E1F700C000008D2F0E940C0734
:1013200048CF8C2F8F71A0CF0F931F93CF93DF9354
:10133000EC01688179818D810E94780B8C010E947B
:10134000C00A0E94360AB801CE010E948E07DF91C2
:10135000CF911F910F910895CF93DF93EC018C8172
:10136000811599F0CE010E948605811111C00E945D
:101370007E0E811551F08D81811539F08091A90281
:1013800082FF03C082E00E943F0FDF91CF9108955A
:10139000CE010E949409CE010E942905F6CF80E07B
:1013A00090E00E947C1C80E090E00E94A21C0E94C1
:1013B000A80E0E94190F08950E94281D0E94CF09AF
:1013C00008950E94970E0E94DC090895282F929597
:1013D0009F70963099F060F4925F9F70923030F475
:1013E000203FB1F038F481E0283E38F080E00895E5
:1013F0009A5FF3CF81E0243FC9F7089591E0813FE0
:1014000009F090E081E0283E08F080E0892B089503
:1014100081E00895FC018481811539F080819181FA
:101420000E946B0B0E94E609089580E00895A6E0F3
:10143000B0E0EDE1FAE00C948E282696E2E00C9400
:10144000AA28A7E0B0E0E7E2FAE00C948E282796FD
:10145000E2E00C94AA2808950E942B0A08950E94A5
:101460002C0A9093DB018093DA01089508950E947D
:101470002F0A08952091DA013091DB01822B932B02
:101480000E942F0A08952091DA013091DB01822316
:1014900093230E942F0A08952091DA013091DB01F5
:1014A000822793270E942F0A08950E942B0A0895ED
:1014B0000E94550A08950E94580A9093D90180937A
:1014C000D801089580E090E00E945B0A089521E031
:1014D00030E0A90102C0440F551F8A95E2F7CA0106
:1014E0000E945B0A089521E030E002C0220F331F02
:1014F0008A95E2F78091D8019091D901822B932BA4
:101500000E945B0A089521E030E002C0220F331FE1
:101510008A95E2F7209530958091D8019091D90174
:10152000822393230E945B0A089521E030E002C0E9
:10153000220F331F8A95E2F78091D8019091D9014B
:10154000822793270E945B0A08952091D801309149
:10155000D901822B932B0E945B0A08952091D80118
:101560003091D901822393230E945B0A0895209130
:10157000D8013091D901822793270E945B0A0895F0
:1015800008959B01677091E001C0990F6A95EAF791
:1015900063E0369527956A95E1F7220F331F220FF6
:1015A000331FFA01E20FF31F40E050E0682F70E0B4
:1015B0008191DF019B01042E02C0369527950A9484
:1015C000E2F7217021952827292328272E934F5FA2
:1015D0005F4F4430510561F708959C01982F977033
:1015E00083E0369527958A95E1F7220F331F220F66
:1015F000331FFB01E20FF31F40E050E080E0219138
:1016000030E0092E02C0369527950A94E2F7217042
:101610003327042E01C0220F0A94EAF7822B4F5F72
:101620005F4F4430510559F70895282F862F983081
:1016300068F4263058F4622F70E026E0929F600D27
:10164000711D112440EC51E00E94C10A0895292F18
:10165000983068F4863058F490E060EC71E036E041
:10166000239F800D911D11240E94ED0A089580E0B2
:101670000895A0E0B0E0EFE3FBE00C9487288C0134
:10168000E090D801F090D9018091DA019091DB01CE
:10169000E82AF92ACFE0D0E0CC24C394D12CC601AB
:1016A0000C2E02C0880F991F0A94E2F78E219F2109
:1016B000892B49F4219798F7B12C8B2DCDB7DEB744
:1016C000E9E00C94A328BC2EB8018C2F0E94531281
:1016D000019781F3F2CFCF93DF93D82FC92F0E94C8
:1016E000390B6D2F7C2F0E945312DF91CF910895FB
:1016F0001F93CF93DF93162FD72F9091BF01911592
:1017000041F0862F972F0E946B0BDF91CF911F9195
:101710000895811581F0862F972F0E94390BC82FCD
:10172000682F812F9D2F0E94150B612F7D2F8C2FED
:101730000E945312EACF862F972F0E94270BC82FA3
:10174000F4CFDC01E1E0F0E0CF0102C0880F991F87
:101750006A95E2F7BC01CF0102C0880F991F4A9534
:10176000E2F7AC01682B752B02C0EE0FFF1F2A9524
:10177000E2F7CB018A239B238617970721F4CF0139
:101780008A2B9B2B0895E095F095CF018A239B230C
:101790000895242F462F682F8091D8019091D90168
:1017A0000E94A10B0E945B0A08950F931F93CF9391
:1017B000E091DC01C7E08091DD018E1304C0CF9180
:1017C0001F910F9108950E2F10E0CE9FF00111246C
:1017D000E252FE4F208131814281538164817581C3
:1017E00086810E94210AF8013196E770E4CF2091AA
:1017F000160230911702409118025091190260911F
:101800001A0270911B0280911C020E94210A089505
:1018100080911C02803178F480911B02811559F06F
:10182000E091DC012091DD01309117024091160218
:1018300057E02E1301C008956E2F70E05E9FF001F7
:101840001124DF01A252BE4F14968C91149781157A
:1018500061F111968C911197831327C08C91841399
:1018600024C015968C91159781111FC012968D91E9
:101870009C91A0911802B09119028A1B9B0B883C85
:10188000910598F480911C028F70806180931C02F6
:10189000EC51FE4F80818F708061808386E192E001
:1018A0000E94AC090E94D50B0895FB013196E770A8
:1018B000C0CFE091DC019091DD0127E0E91302C087
:1018C00080E00895AE2FB0E02E9FF0011124E25287
:1018D000FE4F3181361306C03081381303C0358185
:1018E000341304C0FD013196E770E8CF81E008951C
:1018F0008F929F92AF92BF92DF92EF92FF920F93DF
:101900001F93CF93DF93CDB7DEB72D970FB6F89423
:10191000DEBF0FBECDBF8C0186E0F801DE01189658
:1019200001900D928A95E1F7F801F580848196E1A6
:10193000892E92E0992E90911A0291111BC0811567
:1019400009F4FFC0F11409F440C1C8010E940A0A59
:10195000811509F43AC187E0F801D40101900D9294
:101960008A95E1F7C4010E947F060E94080C0E943C
:10197000F70BE7C0E080A280B380D0901B022091DB
:10198000180230911902A501421B530BD11409F41E
:10199000DBC0483C510508F0A6C0811509F4D1C050
:1019A00090911702918080911C02803108F06BC0E9
:1019B000991228C0909116029E1124C0F1105DC0AA
:1019C0008F70806180931C020E94F70B86E192E089
:1019D0000E94AC0980911C02F8018683F12C8F2DA6
:1019E0002D960FB6F894DEBF0FBECDBFDF91CF911D
:1019F0001F910F91FF90EF90DF90BF90AF909F905D
:101A00008F900895F11039C040E0692D8E2D0E940D
:101A1000590C40E0692D8E2D0E94590CF82E811131
:101A2000DDCF888599850E946B0B292F22952F7019
:101A3000903450F49F70223080F0911599F0F801A5
:101A40009681903178F4CBCF2A5F2F70223078F0D6
:101A5000C8010E94AC09FD2CC2CF911519F0811567
:101A600009F4BDCF805E883008F4B9CFF1CF803F54
:101A700008F4B5CF815F8330F7CF80911C0281607D
:101A800080931C02ABCF991207C0909116029E1151
:101A900003C0F11409F479C0C8010E940A0A811533
:101AA00009F493C0F11409F490C080911C028032B3
:101AB00088F020911602309117023A832983BC8264
:101AC000AB8290911A029D831E828F83CE01019674
:101AD0000E94AC0987E0F801A6E1B2E001900D9206
:101AE0008A95E1F742CF90911C029031A0F448858D
:101AF00059856A857B858C859D850E94170A86E1BC
:101B000092E00E94AC0987E0F40111928A95E9F70E
:101B10000E94F70B63CF8115A1F0209117028181FC
:101B20002813BACF809116028E11B6CFF110B4CF20
:101B30009683C8010E94AC0987E0F40111928A954E
:101B4000E9F7FF24F3944BCF483C510508F041C01E
:101B50008115B9F3F114C9F190911702818198139D
:101B60002AC0809116028E1126C080911C0280FD31
:101B700019C08031B8F08683807F803F39F086813C
:101B8000982F907F905F8F70892B8683C8010E9469
:101B9000AC0987E0F801A6E1B2E001900D928A95C8
:101BA000E1F7E5CE87E0F801A6E1B2E001900D9201
:101BB0008A95E1F7C6CFC8010E940A0A81118ACF2F
:101BC00080911C02816080931C02C8010E94AC09B4
:101BD000B8CF488559856A857B858C859D850E940F
:101BE000170A91CFAEE0B0E0E8EFFDE00C948D284D
:101BF000288739874A875B876C877D878E87CE01E8
:101C000008960E94780C6C858115A9F0611541F049
:101C1000288539854A855B857D858E850E94210AC8
:101C200017E08091DC019091DD0189133AC02E9676
:101C3000E3E00C94A92887E0FE013896DE011196B6
:101C400001900D928A95E1F7611551F3A091DD01A4
:101C50008A2F90E00196877099272091DC01281740
:101C6000190689F097E09A9FD0011124A252BE4F25
:101C7000FE01319601900D929A95E1F78093DD0176
:101C80000E94D50BCDCF0E94E1091092DD01109288
:101C9000DC0187E0E6E1F2E0DF011D928A95E9F7D9
:101CA000BFCF189FC001112482529E4F0E94780C12
:101CB000811509F4BCCFE091DC011E9FF0011124D5
:101CC000E252FE4F208131814281538164817581CE
:101CD00086810E94210A8091DC0190E00196877044
:101CE00099278093DC019DCF80912502869586956A
:101CF0008695089580912502877008959091250218
:101D0000977081E0911101C080E0089580913102C7
:101D1000089590913102982B909331020895982F55
:101D20009095809131028923809331020895109219
:101D30003102089590913002982B909330020895CB
:101D4000982F9095809130028923809330020895D6
:101D500010923002089508950E94AB0E089590915C
:101D60002602292F2823211531F08095892380937D
:101D700026020E94AC0E089508950E94BC0E08959C
:101D800090912702292F2823281729F0982B909328
:101D900027020E94BD0E089590912702292F282323
:101DA000211531F080958923809327020E94BD0E72
:101DB000089580912702811529F01092270280E072
:101DC0000E94BD0E08950F931F93CF93DF93009150
:101DD000000110910101C091310280913002C82BA5
:101DE00080912702811531F0C82B0E94C81C8111F7
:101DF0000E94D90EF801C083C0910001D091010169
:101E000048E050E06DE172E0CE010E94BE28892BCF
:101E100059F088E0FE01ADE1B2E001900D928A95A3
:101E2000E1F7CE010E94711CDF91CF911F910F91BC
:101E300008950E94E30E089508950E941C0F0895CE
:101E4000962F2091A90222FF11C0682F660F660FFE
:101E5000660F692B609325020E94730A8091250208
:101E60008695869586950E941D0F08950E94730A97
:101E700008951092250280E00E941D0F0895909110
:101E800025028095892380932502282F2770211110
:101E90000DC0891759F09091A90292FF07C086954D
:101EA000869586950E94830A0E94390F0895909125
:101EB000A90292FB222720F9281769F080FB92F9EA
:101EC0009093A9028091A8029091A9020E94A50F67
:101ED00082E00E943F0F08958091A902002482FFB2
:101EE0000394802D0E94570F089581E00E94570FA0
:101EF000089580E00E94570F08956FEF7FEF80E014
:101F000090E00E941029089580E090E00E94DC2873
:101F10009C0181E0253E3E4F09F080E0089582E07B
:101F200090E00E94D428089583E090E00E94D42895
:101F300090E00895682F83E090E00E94F2280895D1
:101F400084E090E00E94DC280895BC0184E090E0E9
:101F50000E9410290895AB01BC018FE090E00E941F
:101F600004290895AB01BC0183E190E00E9404299B
:101F7000089560E070E0CB010E94B20F089560E028
:101F800070E0CB010E94AB0F0E94B90F0895A8E04A
:101F9000B0E0EDECFFE00C948E2865EE7EEF80E083
:101FA00090E00E94102960E082E090E00E94F22818
:101FB00081E090E09093DB018093DA010E949A0F18
:101FC00060E074E184E090E00E94102960E086E027
:101FD00090E00E94F22860E087E090E00E94F22802
:101FE00040E050E0BA0188E090E00E94042960E0FF
:101FF00083E290E00E94F22860E08CE090E00E9492
:10200000F22860E08DE090E00E94F22819821A82A6
:102010001B821C821D821E821F82188648E050E0AF
:1020200067E170E0CE0101960E94E22840E050E0B6
:10203000BA018FE190E00E9404290E94BF0F289608
:10204000E2E00C94AA280E94C70F0895682F8EE042
:1020500090E00E94F2280895A6E0B0E0E2E3F0E10B
:102060000C948C280E943B1E8C018091320290912E
:1020700033028017910779F019821A820E943B1E61
:10208000BC0149815A8180E090E00E944F06109384
:102090003302009332022696E4E00C94A8280E94B2
:1020A0006E136093400270934102809342029093BA
:1020B000430260933C0270933D0280933E029093F2
:1020C0003F020895089508950E94621008950895AA
:1020D0000E9467100E946410089508950E946D1078
:1020E000089508950E9471100E946E10089581E075
:1020F000089580E993E10E949B170E9463100E945B
:10210000681008950E94851508950895089508950A
:102110000E9485100E9486100E94871008950E94D8
:10212000840F811102C00E9423100E948F0F8093A0
:1021300044020E94A00F9093A9028093A8020E94DB
:10214000940F0E94370A8091D8019091D9010E9482
:10215000580A08950E94321E0E9448130E948B154F
:102160000E94AA140E948F100E9429060E948F1AB2
:1021700080E00E94E5170E949D150E94721008954C
:10218000A6E0B0E0E6ECF0E10C9484280E94771021
:10219000082F811110C00E942C1000E00E948515AC
:1021A0000E94561A01110E9426190E943606269690
:1021B000ECE00C94A0280E94F71484E3A82E82E09F
:1021C000B82E650110E0F601F1906F01812F0E9499
:1021D000AC131F5F183009F443C0F816A1F38091C7
:1021E000440281FD0E94B2130E948210982EF12CAD
:1021F000882483948F2D0E94AC13182FF5019191A0
:102200005F01891731F1C82EC926E12CDD24D39452
:102210008D2D8C218115B1F09114A1F0E982FA8203
:102220000E943B1E9C838B838D8291E08D2D8123A8
:10223000811101C090E049815A816B817C818D813F
:102240000E944F06E394DD0CF6E0EF12E1CFF501BA
:102250001293F39488E0F812CDCF0E944F109ECFD6
:10226000F812BDCF98CF1F93CF93DF930E945812DF
:10227000EC01811522E5920708F05DC0811540E56B
:10228000940708F0DBC0803E910528F58D3C910550
:1022900008F0ACC0883A910578F4853A910508F0C9
:1022A000A2C08130910509F441C00497813A91059B
:1022B000E8F1C0E0D0E03AC0885A91094B97C8F7DE
:1022C000C85AD0E0CC0FDD1FC059DE4F0990D8812D
:1022D000C02DD4642BC0811550E49507F8F4C115C6
:1022E00080E2D80708F0C0C0C83ED105F8F0CE01A2
:1022F0009A9581159F41E8F68D2F0E94F912182FAB
:10230000CE0199270E945812212F30E0322F222728
:10231000E901CC27DF71C82BD92B08C099270E946F
:102320005812CC27DF70C82BD92BD06ACE01DF9191
:10233000CF911F910895803842E59407C8F5803603
:1023400052E5950708F05BC0C03482E5D807D0F4A9
:10235000C03292E5D90708F04BC08C2F8695869540
:1023600020E2829FC0011124C37021E030E0A90166
:1023700002C0440F551FCA95E2F7EA01C82BD92BBA
:10238000DD68D4CF8C2F86958695877050E2859F27
:10239000C0011124C37021E030E0A90102C0440F44
:1023A000551FCA95E2F7EA01C82BD92BDC68BECFCE
:1023B000803C52E5950758F48F71C03AD245A0F59C
:1023C00090E0982F8827EC01C46FD06AAFCF805C73
:1023D0009245809708F06DCFDC2FCC27CC27DF719A
:1023E000C06FD06AA3CFA497D064A0CFD0659ECF92
:1023F000CF71D0E0DC2FCC27C16FD06A97CF869504
:102400008695877020E2829FC0011124C37021E06D
:1024100030E0A90102C0440F551FCA95E2F7EA0156
:10242000C82BD92BDA6882CF0E94F912C82FD0E0CE
:10243000DC2FCC27CC27DF71D06278CF8F710E9440
:10244000F91253E0CC0FDD1F5A95E1F7CC27DF706E
:10245000282F30E084FF04C050E1859F90011124B3
:10246000C22BD32BD06962CF8D2F8F710E94F912AE
:10247000182FCE0199270E945812212F30E0322FB9
:10248000222722273F71282B392BE901D5CF462F50
:10249000672F783028F4463018F40E94BF0408955E
:1024A00080E090E008950E9447120E943311089541
:1024B0009C01803E910509F448C0D8F48133910510
:1024C00009F47DC048F48932910509F46DC08A97FA
:1024D00009F47CC0C90108958933910551F182380E
:1024E000910539F1C597B1F78091A80285FFF2CF28
:1024F00029C0843E910509F447C048F4823E910505
:1025000099F1833E9105A9F121EE30E0E3CF863EBB
:10251000910509F444C0873E9105E1F68091A80237
:1025200083FD61C09091A90291FF2BC024EE30E0A1
:10253000D1CF8091A8028370811152C08091A902ED
:1025400083FFC8CF29E230E0C5CF8091A80280FD8B
:1025500033C09091A90290FFBDCF23EE30E084FFFD
:10256000B9CF20E030E0B6CF8091A80282FDF5CF50
:10257000B1CF8091A80282FD30C09091A90290FD58
:102580002FC084FFA7CFEDCF8091A90281FFA2CFFA
:102590008091A80227EE30E084FDE3CF9BCF8091AD
:1025A000A80283FDF7CF96CF8091A80285FD1EC0BB
:1025B0008091A90283FF8ECF29E330E08BCF8091F9
:1025C000A80286FF87CF2AE230E084CF8091A8025C
:1025D00086FF80CF21E330E07DCF22EE30E07ACF5E
:1025E00020EE30E077CF26EE30E074CF25E330E008
:1025F00071CF9091A80292FF10C041E0282F247162
:10260000243009F040E031E0282F2871283009F00B
:1026100030E0431711F02CE0822793FF10C041E017
:10262000282F2471243109F040E031E0282F28714F
:10263000283109F030E0431711F02CE08227309167
:10264000A90230FF10C051E0282F2171213009F07C
:1026500050E041E0282F2871283009F040E054175D
:1026600011F029E0822731FF10C041E0282F2171AD
:10267000213109F040E031E0282F2871283109F09C
:1026800030E0431711F029E0822794FD877E0895FA
:102690001092AA021092AB021092AC021092AD02FC
:1026A0000895CF92DF92EF92FF926B017C010E941E
:1026B000851581110EC00E94471EC61AD70AE80A66
:1026C000F90AC092AA02D092AB02E092AC02F09258
:1026D000AD02FF90EF90DF90CF900895CF92DF9200
:1026E000EF92FF920E948515811559F00E94471EB6
:1026F0006B017C01C701B601FF90EF90DF90CF9096
:1027000008950E94471EC090AA02D090AB02E090AC
:10271000AC02F090AD02C60ED71EE81EF91EEACF3D
:1027200080E00895CF939C01FB01805E9245C1E05B
:10273000809738F4C581C11104C0822F8F710E9427
:102740004D058C2FCF91089508950E94A4130895EC
:1027500008950E94A8130895E82FF0E0E954FD4F72
:1027600080810895089580EA8A95F1F7089500C060
:1027700008950E94B313089508950E94BC1308950C
:10278000A4E0B0E0E6ECF3E10C948A280E94851501
:10279000182F8091BF0290E089549D4F1115F1F1DF
:1027A00004E09E012F5F3F4F7901F901202F119224
:1027B0002A95E9F7B7010E94AB158115B9F0809110
:1027C000AE0290E044E050E0B70189549D4F0E9472
:1027D000BE2821E020934502892B91F410E00E944D
:1027E000A913812F2496E6E00C94A6288091450237
:1027F0008115A1F3F70111920A95E9F710924502AC
:10280000E091AE02F0E0E954FD4F89819A81AB81FD
:10281000BC8180839183A283B383E1CF2091AE02F8
:1028200030E0BC01C90189549D4F0E9436160E94B8
:10283000BD13D7CFF894E82FE295EF70F0E041A1F7
:102840008F7021E030E0B90102C0660F771F8A95D2
:10285000E2F7CB01962F9095942391A392A1892B17
:1028600082A378940895CF93DF93C8E0D1E0899153
:102870008F3F11F00E941A1481E0CC30D807B9F7CD
:10288000C2E0D1E089918F3F11F00E941A1481E0DB
:10289000C830D807B9F7DF91CF910895A0E0B0E034
:1028A000E4E5F4E10C948828EC01D62E062F10E024
:1028B000C801885F9E4F7C01FC0180818F3F09F435
:1028C00044C0F894E82FE295EF70F0E091A18F708A
:1028D00021E030E001C0220F8A95EAF7892F822B90
:1028E00081A382A12095282322A378940E94B71364
:1028F000A2E0B1E091E0C12C8D918F3F79F0E82FFB
:10290000E295EF70E05EF0E0208130E08F7002C071
:10291000359527958A95E2F7892F20FD80E0C82A12
:10292000990FF1E0A830BF0739F7F70180818F3F99
:1029300011F00E941A1461E0C11001C060E08D2DF9
:102940000E94B913C00FD11FC882CDB7DEB7E8E02F
:102950000C94A428A6E0B0E0E0EBF4E10C948E28FF
:1029600080910C0181111EC084E98093080186E6E4
:102970008093090187E980930A0186EC80930B011B
:1029800086E0E6EAF1E0DE01119601900D928A956B
:10299000E1F786E0FE013196A2E0B1E001900D92F0
:1029A0008A95E1F780910C0191E08927880F880FC3
:1029B0008093BF0294E0981B9093AE020E94331460
:1029C00088E0E7EBF2E0DF01982F1D929A95E9F796
:1029D000EFEAF2E0DF011D928A95E9F784E00E94B8
:1029E00037150E94A5132696E2E00C94AA28A8E0C9
:1029F000B0E0EDEFF4E10C948B28FE01319688E015
:102A0000DF011D928A95E9F710E0FE2E0F2F612F4E
:102A10008F2D902F0E944E141F5F1430C1F748E095
:102A200050E06F2D702F8FEA92E00E94BE2821E0C7
:102A3000892B99F420E06091BF0270E069547D4FCA
:102A400044E08FEA92E00E943815182F0E94C013CC
:102A5000812B2896E5E00C94A72888E0EF2DF02F35
:102A6000AFEAB2E001900D928A95E1F7E4CF0895C4
:102A7000A0E0B0E0EEE3F5E10C948828D82EE92E32
:102A8000F62ED72F042FC22F211579F081E08093E5
:102A900048020E943B1E909347028093460280E0CA
:102AA000CDB7DEB7E8E00C94A428C0904802C1146A
:102AB000B1F380914602909147020E94B91D05979B
:102AC00070F310E0A8016D2D7E2D8F2D9D2F0E949B
:102AD000BE28892B41F0A8016D2D7E2D8F2D9D2FB5
:102AE0000E94CB28CC2D109248028C2FD9CFCF93A7
:102AF0000E944B28C82F811102C00E9446288C2FAB
:102B0000CF91089580914C02089580914B020895D1
:102B10000E94851508950E94771580934B020E94AC
:102B2000881580934C020E94821580930C010E94AC
:102B3000851581110E94E11508950E948515811166
:102B400002C00E94E415089581E090914D029A30F0
:102B500008F080E008950F931F93CF93DF93EC016B
:102B6000162F072F80914D028A3090F4612F702F1D
:102B7000CE010E943316811121C080914D028F3FFA
:102B8000B1F40E943B1E90934A028093490209C00F
:102B90008091490290914A020E94B91D843F914060
:102BA00028F780E0DF91CF911F910F9108958F5FFB
:102BB00080934D028A3028F781E0F4CF10924D02C5
:102BC000FBCF0E94632008950E9466200895A0E034
:102BD000B0E0EDEEF5E10C948828FA016901780186
:102BE000C82F880FDD0B3097B9F0DE0193E0AA0FF4
:102BF000BB1F9A95E1F7A35FBE4F11968D919C91F3
:102C00001297825B9D4F2C91422F50E0E217F10505
:102C100008F4AF010E94CB28CE010E945121182F49
:102C20008115D9F0E114F104C1F083E0CC0FDD1F70
:102C30008A95E1F7FE01E35FFE4F8381482F50E064
:102C4000E816F10408F4A701C35FDE4F6C817D81B3
:102C5000625B7D4FC6010E94CB28812FCDB7DEB7C6
:102C6000E8E00C94A4280E94341708950E944D17A0
:102C70000895A4E0B0E0EFE3F6E10C948C286091B5
:102C800063027091640280916502909166020E94D5
:102C9000C31D11E0643671058105910520F10E9484
:102CA0006E13DC01CB010296A11DB11D89839A83AD
:102CB000AB83BC8300E010E020E030E044E050E073
:102CC000BE016F5F7F4F82E00E94E715182F8115CC
:102CD00051F00E94471E60936302709364028093D8
:102CE000650290936602812F2496E4E00C94A82854
:102CF000A5E0B0E0EEE7F6E10C9486287B01C090F9
:102D0000AD01D090AE0101E010E09E012B5F3F4F7E
:102D100040E050E060E070E080E00E94E715182F8E
:102D2000811509F44AC056018FEFA81AB80A6091BC
:102D30005F027091600280916102909162020E9434
:102D4000C31D643671058105910578F104E010E03A
:102D50009E012F5F3F4F40E050E060E070E081E077
:102D60000E94E715182F64E070E0C5010E94901AD8
:102D70009D8198132DC0111559F10E94471E609333
:102D80005F02709360028093610290936202898176
:102D90009A81AB81BC8180935B0290935C02A0938B
:102DA0005D02B0935E0281E014C064E070E0C50192
:102DB0000E94901A9D818913C9CFF6018181928169
:102DC000A381B48189839A83AB83BC831111DFCF44
:102DD00080E040915B0250915C0260915D027091D5
:102DE0005E02F70140835183628373832596EAE094
:102DF0000C94A228A0E0B0E0E0E0F7E10C94862873
:102E0000182F092FB62EA72E7A010E94A4159AE03A
:102E1000C92ED12C811103C0CC24C394D12CC1E084
:102E2000D0E06B2D7A2D812F902FF701099581111C
:102E300016C02196CC16DD0694F0CC9FC001CD9F24
:102E4000900D900D112420E030E045E34A95F1F714
:102E500000002F5F3F4F28173907B9F7E2CFCDB7F2
:102E6000DEB7EAE00C94A2280F931F93CF93DF9371
:102E7000D82FC92F8B0148E756E10E94FA16811519
:102E800039F049E356E1B8018D2F9C2F0E94FA16C4
:102E9000DF91CF911F910F9108950F931F93CF93BF
:102EA000DF93FB01C091AD01D091AE01CE0101963F
:102EB00024E0DC0101900D922A95E1F764E070E0D6
:102EC0000E94901A88836D817E818F819885009100
:102ED0005702109158022091590230915A026017FE
:102EE00071078207930751F060935702709358025D
:102EF0008093590290935A020E945113DF91CF910F
:102F00001F910F9108950E94C01008950E94D41D32
:102F10000E9403230E9479100E941D230E94AA1080
:102F20000E942A230E942F230E9483170E94492374
:102F30000E948810F7CF9093B9018093B80108954B
:102F4000AB0124E630E0BC0188E70E941E1F9C0113
:102F500081E0232B09F080E00895AB0124E630E006
:102F6000BC0188E70E946D1F9C0181E0232B09F0C2
:102F700080E008950F931F93AC019B0104E610E0DD
:102F800060E488E70E94B81F9C0181E0232B09F0D0
:102F900080E01F910F9108950E94E81E0895089502
:102FA000E0ECF2E080E092E0DF019C011D92215014
:102FB0003040E1F7F093C704E093C6048FEF9FEF32
:102FC00090939302809392020895CF930E94CF171B
:102FD0000E94980490E280FF90E880938E02909384
:102FE0008D020E94CC176BE070E080E192E00E94BD
:102FF000AD17811104C0C0E08C2FCF91089580914E
:103000008E0265E070E081FD29C08BE092E00E94B5
:10301000AD17811581F36DE070E089EF91E00E94BA
:10302000AD17C82F811539F30E94471EDC01CB0173
:10303000805A9541AF4FBF4F8093C2049093C30411
:10304000A093C404B093C5040E94D01781E080937C
:1030500091028093900210928F02CECF86E092E090
:10306000D6CF20918D0236E0839FC0011124269F88
:10307000800D911D1124811522E0920714F080E04B
:1030800090E080549D4F9093C7048093C6040895A8
:103090002091C6043091C7042A5B324040918D02D2
:1030A000642F70E0C9010E946428481B463010F468
:1030B000240F311D211582E0380710F020E030E0A8
:1030C00020543D4F3093C7042093C6040895CF93F6
:1030D000DF93982FC62F81E09A3019F09D3031F49C
:1030E00080E00E94DE18DF91CF9108952091C60400
:1030F0003091C70486E0F901A7E6B2E001900D9295
:103100008A95E1F7903EB8F086E0F90111928A9530
:10311000E9F7C1111CC0C091C604D091C70446E0B4
:1031200050E0BE0187E692E00E94BE28892BE9F4B8
:103130000E944818D8CFF6E09F9FB0011124655E29
:103140007D4F46E050E0C9010E94B528E2CFE091F2
:10315000C604F091C7049F012A5F3F4F2E173F0717
:10316000D1F2808180958193F9CFC05CD240CE01AD
:1031700025E0969587952A95E1F721E030E0A901B1
:1031800002C0440F551F8A95E2F7CA01409192028E
:1031900050919302842B952B259645E0D695C795A3
:1031A0004A95E1F702C0220F331FCA95E2F7822B3E
:1031B000932B9093930280939202BACFCF93382FA0
:1031C000E091C604F091C704E05CF24020918D02CA
:1031D000622F70E0CF010E946428281B822F3115D6
:1031E00069F066E00E945828C82FC15010F4CF91B2
:1031F000089560E080E20E946718F7CF8E0F9F2F3E
:10320000911D811522E0920710F080E090E080543B
:103210009D4F9093C7048093C604E9CF1F93CF932B
:10322000DF93EC01162FFE018491811104C0DF9120
:10323000CF911F910895612F0E9467182196F3CFB7
:103240000E940E1981E00E94DE180895CF93C0916C
:103250009102C11105C0C09190028C2FCF910895A9
:103260000E94471EDC01CB01805A9541AF4FBF4FF2
:103270008093C2049093C304A093C404B093C50484
:10328000809190028111E9CF62E070E087EF91E0D8
:103290000E94AD178115F9F281E080939002DDCF95
:1032A000A4E0B0E0E6E5F9E10C947E288C838091FF
:1032B000920290919302892BF1F0809191028115F5
:1032C000D1F080918F02811116C00E94261910E062
:1032D0001B8244244394512C00E247E0F42E2091B9
:1032E0009202309193022115310529F0111551F008
:1032F000FC81F11107C02496E2E10C949A284B81DD
:103300004F5F4B835B81852F90E0520102C0AA0C76
:10331000BB1C5A95E2F7A50142235323452B79F3B1
:1033200020918E0220FD3BC09695879596958795B6
:10333000282F9B819295990F90763FE1390F9093BA
:10334000270180932A013093280120932B0167E005
:1033500070E085E291E00E94A017811561F2BB81C7
:10336000A0E2BA9FC001112420918E0220FD20C04E
:1033700060E270E080549D4F0E94BA17811509F4F5
:10338000BACFA094B09480919202909193028A2136
:103390009B2190939302809392021F5FA0CF9B8109
:1033A000990F990F990F37E0390F80E023E0C7CFCD
:1033B000EDE6F2E0202F11922A95E9F743EB51E078
:1033C0005A8349836FEA71E0E981FA81A191FA8316
:1033D000E983FB012191BF01280F392F311DA9017C
:1033E00040545D4F1A01EA2FF0E0E359FD4F20E011
:1033F00030E06F2C621A842C022E01C0880C0A94D3
:10340000EAF76101912CD601ED906D01E820462D7F
:103410004919477050E0BE2D042E01C0BB0F0A941D
:10342000EAF77B2E5195419551094770552701C008
:10343000E6944A95EAF7EB2A4081E42AE0829394E5
:1034400048E09412E0CF2F5F3F4F3196283031058E
:1034500081F6A7EBB1E0E981FA81AE17BF0709F069
:10346000B3CF60E270E08DE692E086CFCF93C0915B
:10347000910280919002C11106C091E0C82FC92726
:103480008C2FCF9108958115D9F362E070E085EF1C
:1034900091E00E94AD17811103C0C0919002F0CF5E
:1034A00010929002EDCF0E94430408950F931F9352
:1034B00080919102811581F18091C0049091C104A5
:1034C0000E94B91DC29760F00E943B1E9093C104F8
:1034D0008093C00460E080E00E9431180E94531A7B
:1034E00080E00E945019809190028115A9F00E94FD
:1034F000471E0091C2041091C3042091C40430916E
:10350000C504601B710B820B930B6F3F7F4F8F4F76
:103510009F4710F40E94361A1F910F910895089545
:10352000FC01680F791F8FEF41E3E617F70709F4F5
:1035300008959191892728E030E0982F990F87FF0F
:1035400006C0892F842721503040B9F7EECF892F4C
:10355000FACFCF93DF93EB0186319C4719F50E9498
:10356000860E9D819115A1F08A7A91E0811101C0AA
:1035700090E090939402811549F085E30E94181D14
:103580000E94190F80E0DF91CF91089589E2F6CF74
:1035900080919402811521F085E30E94201DF0CFD7
:1035A00089E2FBCF81E0EFCFCF93DF93EC01FB010A
:1035B0008581811509F4CFC09E0130572332310532
:1035C00008F0AFC00E94A00F9093A9028093A802B8
:1035D000FE01E150F047E232F10520F4E85DF64DDE
:1035E0000C9478288091A80281608093A80290C0F2
:1035F0008091A90288608093A9028AC08091A80264
:103600008260F3CF8091A8028460EFCF8091A802FE
:103610008860EBCF8091A9028160EDCF8091A902F3
:103620008260E9CF8091A8028061DFCF8091A802FB
:103630008062DBCF8091A8028064D7CF0E94E1092D
:103640008091A8028068D1CF8091A8028C60CDCFF4
:103650008091A9028360CFCF8091A8028E7FC5CFD1
:103660008091A902877FC7CF8091A8028D7FBDCFAF
:103670008091A8028B7FB9CF8091A802877FB5CFB8
:103680008091A9028E7FB7CF8091A9028D7FB3CFA1
:103690008091A8028F7EA9CF8091A8028F7DA5CFAF
:1036A0008091A8028F7BA1CF0E94E1098091A8029E
:1036B0008F779BCF8091A802837F97CF8091A902BB
:1036C0008C7F99CF8091A802992782FF939590FBD8
:1036D00082F990FB83F989CF8091A902982F909568
:1036E00090FB80F990FB81F986CF9091A802892FF9
:1036F0008F7B96FF806479CF0E94E1099091A802A8
:10370000892F97FB87F9805870CF81E00E9426109F
:103710008091A8029091A9020E94A50F0E94E10940
:1037200080E0DF91CF91089580E0F0CF9091A802E2
:10373000892F8F7E94FF806158CF9091A802892FA6
:103740008E7F90FF816051CF9091A902892F877F52
:1037500093FF886050CF81E0E4CF0F931F93CF9306
:10376000DF93C42FD22FFC0185818115C9F04093CE
:1037700097020E943B1E909396028093950280E2EE
:103780008C0F883040F4C77081E001C0880FCA9563
:10379000EAF70E948007DF91CF911F910F91089562
:1037A00010919702141333C0809195029091960264
:1037B0000E94B91D883C910550F5C0E2CD0F1D1740
:1037C000C1F080E2810F883040F4177081E001C0C1
:1037D000880F1A95EAF70E948707C83050F491E0E5
:1037E0008D2F877001C0990F8A95EAF7892F0E9463
:1037F0008007802F0E947707C83068F6D77081E075
:1038000001C0880FDA95EAF70E948707C4CF80E2EB
:103810008C0F883008F0BFCFC77081E001C0880FDF
:10382000CA95EAF7F1CF0F93DB01FC01E851FC47A1
:10383000E730F10598F5E65BF64D0C94782806E242
:1038400021EE41EE6AE17CE7CD010E94AD1B80E0F4
:103850000F91089507E225EE45EE6BE17CE7F4CF8A
:1038600006E221EE40EE68E17CE7EECF07E225EECE
:1038700044EE69E17CE7E8CF06E221EE42EE6CE13E
:103880007CE7E2CF07E225EE46EE6DE17CE7DCCF98
:1038900008E221E045EE6EE17CE7D6CF15968C91EB
:1038A00081111092970281E0D3CF90939E02809372
:1038B0009D0208950E948515811103C08091980290
:1038C0000895E0919D02F0919E02309729F00190B9
:1038D000F081E02D0995089580E008950E945A1C1A
:1038E0000895E0919D02F0919E02309721F00280B0
:1038F000F381E02D09950895A3E0B0E0E2E8FCE152
:103900000C948E289C0180919B0290919C028217BE
:103910009307A1F030939C0220939B02E0919D02BB
:10392000F0919E02309751F083E089833B832A8394
:103930000084F185E02DCE01019609952396E2E001
:103940000C94AA28A3E0B0E0E8EAFCE10C948E28ED
:103950009C018091990290919A0282179307A1F09D
:1039600030939A0220939902E0919D02F0919E0279
:10397000309751F084E089833B832A830084F1856A
:10398000E02DCE01019609952396E2E00C94AA2839
:1039900040910001509101019A012E5F3F4F485F15
:1039A0005F4F80E0F90190812F5F3F4F91118F5F52
:1039B00042175307B9F70895811571F0209100015E
:1039C00030910101F9013296285F3F4F919198178C
:1039D00029F0E217F307D1F780E0089581E0089518
:1039E0009C01FC0132968FEF90E04191461751F017
:1039F0008F3F19F4411101C0892F9F5F9630A9F7BD
:103A00008F3F09F40895280F311D87FD3A95F9017C
:103A1000628308959C01FC013296285F3F4F81919B
:103A2000861302C0DF011E92E217F307C1F7089563
:103A3000682F80910001909101010E94F01C08956F
:103A4000682F80910001909101010E940A1D089544
:103A5000E0910001F0910101329686E0DF011D92B4
:103A60008A95E9F7089508950E94331D08958F5FA0
:103A700080932F0160912C0170912D0180912E0176
:103A800090912F010E94341D089583E080932F01AF
:103A900060912C0170912D0180912E0190912F0148
:103AA0000E94341D08950E94371D089581E080937F
:103AB0002F0160912C0170912D0180912E01909128
:103AC0002F010E94341D08950E94561D089591E013
:103AD000811101C090E090932E0160912C017091B2
:103AE0002D0180912E0190912F010E94341D089587
:103AF00080912E01089580932D0160912C01709189
:103B00002D0180912E0190912F010E94341D089566
:103B100080912D01089580932C0160912C0170916A
:103B20002D0180912E0190912F010E94341D089546
:103B300080912C010895089508950E949C1D089578
:103B4000089508950E949B1D0895CF930E94A01D83
:103B50000E94F7140E94A11DC0E08C2F0E94AC139C
:103B6000811105C0CF5FC830C1F7CF91089581E0C2
:103B7000FCCFCF93DF93EC010E943B1E8C1B9D0B6F
:103B8000DF91CF910895CF92DF92EF92FF926B0178
:103B90007C010E94471E6C197D098E099F09FF90C8
:103BA000EF90DF90CF90089585B7806885BF85B787
:103BB000806885BF08951F921FB61F9211248F93AE
:103BC0009F93AF93BF9380919F02811113C0809107
:103BD000C8049091C904A091CA04B091CB04419645
:103BE000A11DB11D8093C8049093C904A093CA0479
:103BF000B093CB04BF91AF919F918F911F901FBE47
:103C00001F9018958091D004843031F10E94E8050E
:103C100010929F0288E190E020E40FB6F894A895F6
:103C2000809360000FBE2093600083B7817F846023
:103C300083BF83B7816083BF7894889583B78E7F75
:103C400083BF0FB6F894A895809160008861809337
:103C50006000109260000FBE08950E94E1090E946A
:103C6000F105089582E084BD93E095BD9AEF97BD7C
:103C700080936E0008952FB7F8948091C8049091B6
:103C8000C904A091CA04B091CB042FBF08952FB7E7
:103C9000F8946091C8047091C9048091CA0490910D
:103CA000CB042FBF089578941F921FB61F92112442
:103CB0008F939F93AF93BF938091C8049091C90451
:103CC000A091CA04B091CB040196A11DB11D8093AF
:103CD000C8049093C904A093CA04B093CB04BF91C5
:103CE000AF919F918F911F901FBE1F90189587E7EE
:103CF00097E7909301088093000888E19AE00FB657
:103D0000F894A895809360000FBE90936000FFCF59
:103D100088E19AE00FB6F894A895809360000FBEF2
:103D200090936000FFCFFF920F931F93CF93DF9389
:103D3000182FEB011092BC0084EA8093BC000E9413
:103D40003B1E082FF92E8091BC0087FF28C0809170
:103D5000B900887F883029F08091B900887F803150
:103D6000A1F51093BB0084E88093BC000E943B1E29
:103D7000182F092F8091BC0087FF1FC02091B90028
:103D8000287F80E090E0283199F081E090E02034B5
:103D900011F480E090E091958195910909C0802F00
:103DA0009F2D0E94B91DC817D90768F68EEF9FEFA7
:103DB000CDB7DEB7E5E00C94A728812F902F0E94A5
:103DC000B91DC817D907B0F6F1CF8FEF9FEFF0CF2D
:103DD0001092B9008CE08093B80008950F931F9360
:103DE000CF93DF93EB018093BB0084E88093BC000A
:103DF0000E943B1E182F092F8091BC0087FF11C025
:103E00002091B900287F81E090E0283211F480E011
:103E100090E0919581959109DF91CF911F910F913C
:103E20000895CF3FDC0741F3812F902F0E94B91DE9
:103E3000C817D90708F78EEF9FEFEECFA0E0B0E0EC
:103E4000E4E2FFE10C948328782EB62EA72E6A01B7
:103E5000E9010E943B1E4C01C431D10528F1CF3F3E
:103E6000DC0731F1CE0164E170E00E946428F62E97
:103E7000E72E6F2D7E2D872D0E94931E8C01892B9E
:103E8000D1F4EB2CFA2CCE0CDF1CEC14FD0419F051
:103E900001151105D1F084E98093BC00C801CDB7AC
:103EA000DEB7EDE00C949F28FF24F394E12CE1CFE2
:103EB00085E0F82EFBCFCF3FDC07D9F2C4010E948A
:103EC000B91DC817D907A8F6DCCFBE01F70181914B
:103ED0007F010E94EE1E8C01D8CFA0E0B0E0E3E7A6
:103EE000FFE10C948328782EB62EA72E6A01890153
:103EF0000E943B1E4C010431110518F10F3F1007C1
:103F000019F1C80164E170E00E946428EB01BE0170
:103F1000872D0E94931E7C01892BC1F4CB2DDA2DB5
:103F2000CC0EDD1ECC15DD0519F0E114F104C1F055
:103F300084E98093BC00C701CDB7DEB7EDE00C94F7
:103F40009F28C1E0D0E0E3CFC5E0FCCF0F3F1007D2
:103F5000F1F2C4010E94B91D08171907C0F6DECF9F
:103F6000FE018491B8010E94EE1E7C012196DACFF9
:103F7000A0E0B0E0EEEBFFE10C948228682E962ED4
:103F80005A01690178010E943B1E782E892E043166
:103F9000110530F10F3F100731F1C80164E170E005
:103FA0000E946428162F072F612F702F862D0E94E4
:103FB000931EEC01892BC9F0FFEFEF16FF06A1F36A
:103FC000872D982D0E94B91DE816F90668F784E937
:103FD0008093BC00CE01CDB7DEB7EEE00C949E28F6
:103FE00011E000E0E1CF15E0FCCFB701892D0E9480
:103FF000EE1EEC018501CA0CDB1C0C151D0539F306
:10400000209729F7B701F80181918F010E94EE1ED8
:10401000EC01F3CF8EE14A9B02C08A95E1F74A9BFF
:10402000FECF08955A9880E28A95F1F75A9A08953A
:10403000FC013BE03A95F1F798E020E080E031E0C8
:1040400040E14A95F1F7880F4A9B02C0816023271F
:1040500042E04A95F1F7000040E14A95F1F79A9560
:1040600079F790E19A95F1F799B132E03A95F1F745
:10407000000040E14A95F1F792FB992790F99227C9
:104080002081920F90830895A1E0B0E0EAE4F0E28D
:104090000C948A2819828C017C01E60EF11C0E9486
:1040A0000A20CE0101960E941820F80181938F0109
:1040B000EE15FF05A1F781E09981911180E021962D
:1040C000E6E00C94A628529A5A9A089552985A9A61
:1040D000EA9AE9E6F0E080818F7C80830895615060
:1040E000770B91E001C0990F6A95EAF7692F90E08C
:1040F00021E0611108C0911599F05A9A80E28A95E1
:10410000F1F75A980895362F3823311539F05A9A15
:10411000922730E23A95F1F76695EBCF5A98F9CFAE
:104120005A98ECCFFF920F931F93CF93DF93EC013C
:104130008C01060F111DF9900E94122068E08F2D4E
:104140000E946F20C017D107B1F7CDB7DEB7E5E009
:104150000C94A7281F920F920FB60F9211240F9361
:104160001F932F933F934F935F936F937F938F93FF
:104170009F93AF93BF93EF93FF93CF93DF930F92F0
:10418000CDB7DEB719820E940A20CE0101960E94A7
:104190001820082F069506950695982F92959570EC
:1041A000202F2570920F292F237096959695920FA8
:1041B000982797708981892B811509F05CC004309C
:1041C00008F059C080E18A95F1F75A9A529A82E034
:1041D0008A95F1F700C05A9888E0089F8001112461
:1041E000D801A35FBE4F1696ED91FC9117973097BB
:1041F000A9F06091AD017091AE0114962D913C91A2
:104200001597260F371F11968D919C911297680F65
:10421000791F13964C9113978C910995F801E35FE0
:10422000FE4F6381611551F02091AD013091AE01D7
:1042300084819581820F931F0E9492200E941220F8
:1042400080E18A95F1F75A9852985A9A80E18A95B6
:10425000F1F7F801E35FFE4F6081611551F02091A5
:10426000AD013091AE0181819281820F931F0E9436
:1042700044200E940A200F90DF91CF91FF91EF918F
:10428000BF91AF919F918F917F916F915F914F916E
:104290003F912F911F910F910F900FBE0F901F9084
:1042A00018950F931F93CF93DF938C0104970CF015
:1042B00064C0F894529A5A9885E08A95F1F7000004
:1042C000C02FC695C570802F8570C80F8C2F837046
:1042D000C695C69593E0000F111F9A95E1F7C80F98
:1042E000C8018C2BEC010E94122000C068E08C2FCA
:1042F0000E946F2090E19A95F1F752985A9A4A9B42
:1043000035C087E090E04A9933C0F801E35FFE4F83
:104310006381611561F02091AD013091AE0184811E
:104320009581820F931F0E944420811519F10E94EC
:104330000A2080E28A95F1F75A98529A90E19A956C
:10434000F1F7F801E35FFE4F6081611551F02091B4
:10435000AD013091AE0181819281820F931F0E9445
:1043600092200E941220789481E008C000C0C7CF3C
:10437000019749F4529A5A9A789480E0DF91CF914C
:104380001F910F91089500C0BECF08950895282F62
:10439000CB01BA013091D0043430D9F42F7020937E
:1043A000E9002FEF3091E80035FD06C035ED3A9574
:1043B000F1F700002A95B1F72091E80025FF09C028
:1043C00040E050E00E94C0238091E8008E77809307
:1043D000E8000895BC0143E050E082E00E94C7215C
:1043E0000895CF93DF93D82FC92F0E94781D48E0FE
:1043F00050E06D2F7C2F81E00E94C72188E0ED2FD7
:10440000FC2FA0EAB2E001900D928A95E1F7DF91CE
:10441000CF9108958091CF04811109C00E94492550
:104420000E94A6258091E20084608093E2000895B6
:104430001092CF0408950E94561D81E00E94671DCE
:1044400008956091CC0481E0611101C080E00E9478
:10445000451D08959091D00481E0943009F080E0EA
:104460006091CC040E94531D089542E061EC81E00C
:104470000E94C52442E261EC82E00E94C524909132
:10448000D00481E0943009F080E06091CC040E9477
:10449000371D08958091D204893089F148F4823023
:1044A00009F4A0C0833009F45AC0813041F0089566
:1044B0008A3009F487C08B3009F46CC0089580916C
:1044C000D104813A09F04AC08091E800877F809347
:1044D000E8008091D5049091D604892B61F060E0CA
:1044E00080E090E070E00E9410248091E8008B77DB
:1044F0008093E800089568E080EA92E0F3CF80912D
:10450000D104813259F58091D5049091D604029757
:1045100028F58091E800877F8093E8008091E8008B
:1045200082FF18C09091F3008091F200029731F45D
:104530008091F100813011F0863021F48091F100FA
:104540000E947B1D8091E8008B778093E8000E9499
:10455000F92408958091D0048111E0CF08958091CD
:10456000D104813AD9F78091D5049091D604892B52
:10457000A9F78091E800877F8093E8008091E800A8
:1045800080FFFCCF0E94781D8093F1008091E800AD
:104590008E77DBCF8091D104813201F78091D504F1
:1045A0009091D604892BD1F68091E800877F809383
:1045B000E8000E94F9248091D3040E94671D0E94A4
:1045C000E10908958091D104813241F68091E8009B
:1045D000877F8093E8000E94F9248091D4040E9490
:1045E0008B1D08958091D104813A09F0B7CF809155
:1045F000E800877F8093E8008091E80080FFFCCF8F
:104600000E94981DC1CF84B7877F84BF0FB6F894EE
:10461000A89580916000886180936000109260008E
:104620000FBE80E890E00FB6F894809361009093FD
:1046300061000FBE0E94641D08950E9449250E94DA
:10464000A625E2EEF0E080818460808378940E9469
:104650002C28089580E391E00E94551C08958091D4
:10466000D004853031F48091D004853019F00E9457
:104670002D1E08950E94021E0E94A51D811599F30A
:104680008091CE04811579F30E94AA230E94E1094A
:10469000EACF08959A014091D7045091D8040E941E
:1046A00052230895FC01D9018F2F9927833091055A
:1046B000C1F068F48130910509F447C0029761F4B4
:1046C0008BE390E025E837E02D933C930895813209
:1046D0009105E1F0829749F180E090E020E030E040
:1046E000F3CFCF019927E13059F08230910559F08D
:1046F000E1E8F7E0892B81F7849190E09F01E4CF16
:10470000E1E7F7E0F9CFEBE5F7E0F6CF89E090E0FD
:1047100027E937E061157105B9F289E090E020EBF7
:1047200037E06130710581F2D7CF84E490E024E076
:1047300038E06115710541F282E390E022ED37E047
:104740006130710509F4C0CFC7CF82E190E020EC61
:1047500037E0BACF80E189BD82E189BD09B400FEAE
:10476000FDCF8091D8008F7D8093D8008091E000AC
:1047700082608093E0008091E00081FDFCCF08958D
:10478000AF92BF92CF92DF92EF92FF920F931F935F
:10479000CF936C018B017A010E941825C82F8111DB
:1047A00023C0E114F10439F0F70180819181081BE5
:1047B000190BC80ED91EA12CB12C01151105A1F0A1
:1047C0008091E80085FD21C08091E8008E7780937C
:1047D000E800E114F10499F0F701808191818A0DDC
:1047E0009B1D91838083C5E08C2FCF911F910F91EA
:1047F000FF90EF90DF90CF90BF90AF9008950E9410
:1048000018258115E9F2C82FEFCFF60181916F01CC
:104810008093F10001501109FFEFAF1ABF0ACDCF0D
:10482000FC019B018091D7049091D80486179707CB
:1048300018F0672B61F0C90140E0009771F4411155
:104840000CC08091E80082FF35C080E0089580911F
:10485000E8008E778093E800EECF2091D0042115F8
:10486000A9F12530A9F12091E80023FD2DC0209168
:10487000E80022FDE6CF2091E80020FFDECF309156
:10488000F3002091F200009719F02830310558F01C
:1048900041E02830310509F040E02091E8002E7712
:1048A0002093E800CACF41914093F10001972F5F18
:1048B0003F4FE9CF8091D004811541F0853041F020
:1048C0008091E80083FFBDCF81E0089582E00895E4
:1048D00083E00895FC019B018091D7049091D80456
:1048E0008617970718F0672B61F0C90140E0009721
:1048F00071F441110CC08091E80082FF36C080E065
:1049000008958091E8008E778093E800EECF2091A3
:10491000D0042115B1F12530B1F12091E80023FD3B
:104920002EC02091E80022FDE6CF2091E80020FF74
:10493000DECF3091F3002091F200009719F028307B
:10494000310558F041E02830310509F040E0209170
:10495000E8002E772093E800CACF44914093F100FD
:10496000319601972F5F3F4FE8CF8091D00481159A
:1049700041F0853041F08091E80083FFBCCF81E0B9
:10498000089582E0089583E00895982F973028F0E5
:104990008F708093E90081E008959093E900242FBF
:1049A000762F50E0981731F07091EC002091ED00D7
:1049B0005091F00021FD02C09F5FE8CF3091EB00E5
:1049C0003E7F3093EB003091ED003D7F3093ED0062
:1049D0003091EB0031603093EB007093EC0020934A
:1049E000ED005093F0002091EE0027FDE5CF80E030
:1049F00008958091D10487FF13C08091E80082FF61
:104A000006C08091E8008B778093E800089580913C
:104A1000D0048111F2CF08958091D0048115D9F38B
:104A20008091E80080FFF8CF8091E8008E77ECCF8E
:104A30002091E4003091E50095E6A9012091EC0079
:104A4000822F817020FF06C08091E80080FF06C0A1
:104A500080E008952091E80022FD1AC08091D004E2
:104A6000811589F0853089F08091EB0085FD0FC0BC
:104A70002091E4003091E50042175307F9F29A952E
:104A8000E1F684E0089582E0089583E0089581E0EE
:104A900008950E94B8250E94C025E0EEF0E08081D4
:104AA00081608083E8EDF0E080818F77808319BC9E
:104AB000A7EDB0E08C918E7F8C9380818F7E808378
:104AC0001092CF0408950F931F93CF93DF930E940A
:104AD000B8250E94C025C8EDD0E088818F778883F3
:104AE00088818068888388818F7D888319BC109233
:104AF000D0041092CC041092CE041092CD0400EE9B
:104B000010E0F80180818B7F8083888181608883B9
:104B100042E060E080E00E94C524E1EEF0E08081A8
:104B20008E7F8083E2EEF0E08081816080838081EF
:104B300088608083F80180818E7F80838881806196
:104B40008883DF91CF911F910F910895E8EDF0E0F8
:104B500080818F7E8083E7EDF0E0808181608083BB
:104B600084E082BF81E08093CF040E946325089592
:104B7000E8EDF0E080818E7F80831092E20008955E
:104B80001092DA001092E10008951F920F920FB672
:104B90000F9211242F933F934F935F936F937F93C3
:104BA0008F939F93AF93BF93EF93FF938091E10017
:104BB00082FF0BC08091E20082FF07C08091E1007C
:104BC0008B7F8093E1000E942B288091DA0080FF88
:104BD00019C08091D80080FF15C08091DA008E7FC7
:104BE0008093DA008091D90080FF94C080E189BD74
:104BF00082E189BD09B400FEFDCF81E08093D0043D
:104C00000E940A228091E10080FF19C08091E20099
:104C100080FF15C08091E2008E7F8093E20080913A
:104C2000E20080618093E2008091D80080628093EE
:104C3000D80019BC85E08093D0040E942122809185
:104C4000E10084FF29C08091E20084FF25C080E15B
:104C500089BD82E189BD09B400FEFDCF8091D800F5
:104C60008F7D8093D8008091E1008F7E8093E1005A
:104C70008091E2008F7E8093E2008091E20081606B
:104C80008093E2008091CC04811509F449C084E04E
:104C90008093D0040E942A228091E10083FF29C0E2
:104CA0008091E20083FF25C08091E100877F80939F
:104CB000E10082E08093D0041092CC048091E10066
:104CC0008E7F8093E1008091E2008E7F8093E200EE
:104CD0008091E20080618093E20042E060E080E049
:104CE0000E94C5248091F00088608093F0000E94AB
:104CF0001B22FF91EF91BF91AF919F918F917F9177
:104D00006F915F914F913F912F910F900FBE0F9038
:104D10001F90189519BC1092D0040E94182272CFCF
:104D20008091E30087FF02C083E0B2CF81E0B0CF83
:104D30001F920F920FB60F921124EF92FF920F93D2
:104D40001F932F933F934F935F936F937F938F9313
:104D50009F93AF93BF93CF93EF93FF9309EE10E030
:104D6000F8018081C091EC008F70C795CC27C79562
:104D7000C82B108280EFE82EF12CF7018081877F0D
:104D8000808378940E94E326F8011082F7018081E5
:104D900088608083CF70F801C083FF91EF91CF913D
:104DA000BF91AF919F918F917F916F915F914F9143
:104DB0003F912F911F910F91FF90EF900F900FBE99
:104DC0000F901F901895AAE2B0E0E9EEF6E20C947D
:104DD0008C2881ED94E0FC0101962091F100208364
:104DE00024E0893D9207B9F70E944A228091E800A9
:104DF00083FF38C08091D1049091D2049A3090F50D
:104E0000E92FF0E0EF5AF64D0C947828803889F0BD
:104E1000823841F58091D5048F70873018F58093E2
:104E2000E9008091EB0085FB882780F91092E9006A
:104E300006C08091CE04880F9091CD04892B90916B
:104E4000E800977F9093E8008093F1001092F100C2
:104E50008091E8008E7723C0811116C08091D30421
:104E6000813011F18091E80083FF0AC08091E80051
:104E7000877F8093E8008091EB0080628093EB0055
:104E8000AA96E4E00C94A828823061F78091D304BC
:104E9000811589F01092E9008091E800877F809366
:104EA000E8000E94F924DECF81E0933009F080E031
:104EB0008093CE04EFCF8091D5048F702FEF280F11
:104EC000263080F68093E9002091EB0020FFE2CFAE
:104ED000933031F48091EB0080628093EB00DACF65
:104EE0009091EB0090619093EB0021E030E0A901FC
:104EF00002C0440F551F8A95E2F74093EA001092D2
:104F0000EA008091EB008860E8CF8111ABCF10916F
:104F1000D3041F778091E3008078812B8093E30096
:104F20008091E800877F8093E8000E94F9248091B7
:104F3000E80080FFFCCF8091E30080688093E3006D
:104F400083E0111101C082E08093D0048BCF8058A0
:104F5000823008F087CF8091D3049091D4048C3DA7
:104F600053E0950799F583E08A838AE289834FB7F6
:104F7000F894DE01139620E03EE051E2E32FF0E0EA
:104F800050935700849120FF03C082958F703F5F3C
:104F90008F708A30C8F0895C90E08D939D932F5F6D
:104FA000243161F74FBF8091E800877F8093E8004C
:104FB0006AE270E0CE0101960E9410248091E80020
:104FC0008B778093E8004ECF805DE6CF6091D5046B
:104FD0007091D604AE014F5F5F4F0E944A238C014F
:104FE000892B09F43FCF8091E800877F8093E80008
:104FF000B80189819A810E946A24E0CF803809F043
:1050000031CF8091E800877F8093E8008091CC04C5
:105010008093F1001DCF811125CF9091D304923060
:1050200008F020CF8091E800877F8093E80090937C
:10503000CC040E94F9248091CC04811531F084E0E5
:105040008093D0040E9435220DCF8091E30087FD2C
:10505000F6CF81E0F5CF0895CF938091D0048115EC
:1050600099F08091E900C091EC008F70C795CC2732
:10507000C795C82B1092E9008091E80083FD0E943B
:10508000E326CF70C093E900CF9108950E9449258F
:105090001092D0040895E8EDF0E080818061808373
:1050A0008AE18A95F1F700C08091D9008170089556
:1050B000992778E0880F991F961708F0961B881F8C
:1050C0007A95C9F780950895AA1BBB1B51E107C0CB
:1050D000AA1FBB1FA617B70710F0A61BB70B881F88
:1050E000991F5A95A9F780959095BC01CD01089517
:1050F000EE0FFF1F0590F491E02D09942F923F923F
:105100004F925F926F927F928F929F92AF92BF92D7
:10511000CF92DF92EF92FF920F931F93CF93DF9383
:10512000CDB7DEB7CA1BDB0B0FB6F894DEBF0FBEE0
:10513000CDBF09942A88398848885F846E847D842D
:105140008C849B84AA84B984C884DF80EE80FD802F
:105150000C811B81AA81B981CE0FD11D0FB6F894A5
:10516000DEBF0FBECDBFED010895FB01DC0102C023
:1051700005900D9241505040D8F70895FB01DC0195
:1051800004C08D910190801921F441505040C8F71E
:10519000881B990B0895FB01DC0102C001900D9260
:1051A00041505040D8F70895F999FECF92BD81BD86
:1051B000F89A992780B50895A8E1B0E042E050E060
:1051C0000C941829DC01A40FB51F4150504048F041
:1051D000CB01840F951F2E910E94F328415050401F
:1051E000D0F70895262FF999FECF92BD81BDF89A88
:1051F000019700B4021639F01FBA20BD0FB6F8941B
:10520000FA9AF99A0FBE08950396272F0E94F32861
:105210000E94F228252F0E94F328242F0C94F328B3
:105220000196272F0E94F3280C94F228DC01CB0171
:10523000FC01F999FECF06C0F2BDE1BDF89A3196A6
:1052400000B40D9241505040B8F70895F894FFCF44
:105250002C1B9D1B341BFE1A021B381B061B3C1B00
:10526000481B121B961B161B4C1B1A1B501B751B35
:105270001E1B541B7C1B241B5A1B621B0A1B401B3E
:105280000E1B441B281B5E1B6C1B851B941BF81AF2
:10529000301BA41B301C361C1F1C2A1C3C1C421C2F
:1052A000481C06272C2732272C2732278527A7279B
:0652B0003227FE270B2847
:1052B6002802F4F5F6F73133946697C6010000002C
:1052C60001000000000000000401000000040500C9
:1052D60000000000000021007F2200030000010002
:1052E600881DF121C621C521EA21E200E900EA0074
:1052F600B500B600B700CD008301CC008A0192014B
:1053060094012102230224022502260227022A02F0
:10531600B300B4006F0070009F01CB019F02A00292
:10532600E200E900EA00B500B600B700CD0083014F
:10533600CC008A0192019401210223022402250253
:10534600260227022A02B300B4006F0070009F01F4
:10535600CB019F02A002F4F5F6F73133004E0200AE
:085366000810181810080000DF
:00000001FF
